:100000000C9451140C9482140C9482140C94821449
:100010000C9482140C9482140C9482140C94821408
:100020000C9482140C9482140C9482140C948214F8
:100030000C9482140C9482140C9482140C948214E8
:100040000C9482140C9406680C9482140C94821400
:100050000C9482140C9482140C947DDA0C94187411
:100060000C9482140C94AA3B0C9482140C94821469
:100070000C9482140C9482140C9482140C948214A8
:100080000C9482140C9482140C9482140C94821498
:100090000C9482140C9482140C9482140C94821488
:1000A0000C9482140C9482140C9482140C94821478
:1000B0000C9482140C9482140C9482140C94821468
:1000C0000C9482140C9482140C9482140C94821458
:1000D0000C9482140C9482140C9482140C94821448
:1000E0000C9482149572987287728B729172CF728F
:1000F0009C72A072A672AA72AE72B472B872BC720E
:10010000CF72C272C672CA72347339733E73487347
:100110005273CB735C7364736C73767380738A737E
:100120009973A373CB73AD73B773C173084AD73B8D
:100130003BCE016E84BCBFFDC12F3D6C74319ABDB6
:1001400056833DDA3D00C77F11BED9E4BB4C3E91DA
:100150006BAAAABE000000803F05A84CCDB2D44EC9
:10016000B93836A9020C50B9918688083CA6AAAACB
:100170002ABE000000803F004E414E494E4954596E
:10018000494E46CDCCCC3D0AD7233C17B7D1387762
:10019000CC2B329595E6241FB14F0A000020410078
:1001A00000C84200401C4620BCBE4CCA1B0E5AAEC2
:1001B000C59D74434F4D4D554E49434154494F4E93
:1001C0000044525952554E004552524F5253004925
:1001D0004E464F004543484F0047322F4733206279
:1001E000616420706172616D65746572730A005399
:1001F0006F7370656E73696F6E652E2E2E00526977
:100200007072656E6469205374616D70610044455D
:100210004C5441434F4D422070726F6E746F2E00EC
:100220005072656D6920746173746F2E2E004E6577
:100230007373756E204D6F76696D656E746F0053C4
:1002400044207072696E74696E67206279746520EB
:10025000004E6F74205344207072696E74696E672B
:100260000A0046696C652064656C657465643A00D3
:1002700044656C6574696F6E206661696C65642C99
:100280002046696C653A20006F70656E2066616972
:100290006C65642C2046696C653A20005072696E6A
:1002A000742074696D653A200050726F74656374D0
:1002B00065642050696E0A006D0046696C616D6569
:1002C0006E7420757365643A200053746174733AD8
:1002D00020002C204C6F6E67657374206A6F623A41
:1002E0002000546F74616C2074696D653A2000536E
:1002F000746174733A20002C204661696C65643A1D
:1003000020002C2046696E69736865643A200050AD
:1003100072696E74733A200053746174733A2000EA
:100320004525692025730044454C5441434F4D42B7
:100330002070726F6E746F2E00D401CF01C801C19E
:1003400001B3016F66660044454255473A00554384
:100350004349534F2E20004D3131332053006F6BF2
:1003600000526973632E20636F6D706C65746174E5
:100370006F0020573A004525692025730044454CFD
:100380005441434F4D422070726F6E746F2E004483
:10039000454C5441434F4D42204F66662E00454D1B
:1003A000455247454E43595F5041525345520043D1
:1003B0004153455F4C494748545F4252494748546E
:1003C0004E45535300544F47474C455F4C494748AF
:1003D000545300534F4654574152455F504F574571
:1003E00052004255494C445F50455243454E5400DB
:1003F0004C4556454C494E475F44415441005A5F75
:1004000050524F4245004155544F4C4556454C00C3
:100410005052494E545F4A4F420050524F47524546
:100420005353004155544F5245504F52545F544519
:100430004D5000564F4C554D45545249430045458B
:1004400050524F4D0053455249414C5F584F4E5FFB
:10045000584F4646004649524D574152455F4E411E
:100460004D453A4D61726C696E20312E312E382027
:10047000284769746875622920534F555243455F78
:10048000434F44455F55524C3A68747470733A2F29
:100490002F6769746875622E636F6D2F4D61726C82
:1004A000696E4669726D776172652F4D61726C6914
:1004B0006E2050524F544F434F4C5F564552534954
:1004C0004F4E3A312E30204D414348494E455F54FE
:1004D0005950453A44454C5441434F4D42204558AC
:1004E0005452554445525F434F554E543A3120556E
:1004F0005549443A63656465326132662D34316131
:10050000322D343734382D396231322D633535632D
:1005100036326633363766660A002F2F20007A5F40
:100520006D61783A20007A5F6D696E3A2000795FDC
:100530006D61783A2000785F6D61783A20005265ED
:10054000706F7274696E6720656E6473746F70206B
:100550007374617475730A004D31343520533C69EE
:100560006E6465783E206F7574206F662072616ED0
:1005700067652028302D31290A0053657474696E2F
:10058000672054726176656C20416363656C6572A7
:100590006174696F6E3A200053657474696E6720E8
:1005A0005265747261637420416363656C65726146
:1005B00074696F6E3A200053657474696E672050D9
:1005C00072696E7420416363656C65726174696FF2
:1005D0006E3A200053657474696E67205072696EBC
:1005E0007420616E642054726176656C204163638F
:1005F000656C65726174696F6E3A2000205A002044
:100600005900580020204D61783A2000205A0020DF
:100610005900580020204D696E3A20004F6E20008E
:100620004F666600536F667420656E6473746F70F6
:10063000733A20000001363726FF023C3D38FF0F99
:100640002E303E1213FF0C0809FFFFFF1A1C18FF83
:10065000FF08440AFF43FFFFFFFFFFFF20643A004B
:1006600020693A0020703A0043290A0061626C65F3
:100670006420286D696E2074656D702000436F6C76
:1006800064206578747275646573206172652000FA
:1006900023646566696E65202044454641554C5487
:1006A0005F4B64200023646566696E6520204445C5
:1006B0004641554C545F4B69200023646566696E62
:1006C00065202044454641554C545F4B70200050F6
:1006D0004944204175746F74756E652066696E6952
:1006E00073686564212050757420746865206C619E
:1006F0007374204B702C204B6920616E64204B6416
:1007000020636F6E7374616E74732066726F6D20F8
:1007100062656C6F7720696E746F20436F6E6669D7
:100720006775726174696F6E2E680A0050494420C3
:100730004175746F74756E65206661696C656421BE
:100740002074696D656F75740A0054454D502046DC
:10075000554F524920434F4E54524F4C4C4F00542A
:100760006865726D616C2052756E617761790052B7
:10077000697363616C642E2046616C6C69746F00F0
:1007800048656174696E67206661696C65640050D4
:100790004944204175746F74756E65206661696C9B
:1007A0006564212054656D70657261747572652091
:1007B000746F6F20686967680A00204B643A2000F4
:1007C000204B693A2000204B703A20000A20436CED
:1007D000617373696320504944200A002054753ABC
:1007E0002000204B753A2000206D61783A200020CF
:1007F0006D696E3A200020643A20002062696173BE
:100800003A20004E6F2063617365206C69676874DD
:100810000A00416374697665204578747275646571
:10082000723A2000556E6B6E6F776E20636F6D6D40
:10083000616E643A2022002569730025696D2025C8
:100840006973002569682025696D20256973002575
:100850006964202569682025696D20256973002554
:10086000697920256964202569682025696D20251E
:100870006973004C696E65204E756D626572206902
:1008800073206E6F74204C617374204C696E652008
:100890004E756D6265722B312C204C617374204C47
:1008A000696E653A200055434349534F2E2000415D
:1008B000525245535441544F2E20005072696E7469
:1008C00065722073746F7070656420647565207440
:1008D0006F206572726F72732E204669782074687B
:1008E00065206572726F7220616E64207573652079
:1008F0004D39393920746F20726573746172742EAA
:10090000202854656D706572617475726520697315
:100910002072657365742E2053657420697420619C
:10092000667465722072657374617274696E67298A
:100930000A004E6F20436865636B73756D2077699D
:100940007468206C696E65206E756D6265722C200E
:100950004C617374204C696E653A2000636865636E
:100960006B73756D206D69736D617463682C204CB9
:10097000617374204C696E653A20004D313130004E
:100980004D33310053442072656164206572726F8B
:10099000720A00446F6E65207072696E74696E67CA
:1009A0002066696C650A0020496E76616C69642076
:1009B000657874727564657220000000BEC2000024
:1009C000BEC2000000000000BE420000BE42008027
:1009D0008043486F6D696E67206661696C65640A63
:1009E00000486F6D696E67206661696C6564000020
:1009F00000000000000000008080432020005344DD
:100A00002063617264206F6B0A006F70656E526FB5
:100A10006F74206661696C65640A00766F6C756D31
:100A2000652E696E6974206661696C65640A00539D
:100A30004420696E6974206661696C0A006175748E
:100A40006F25692E67004D3234004D3233202573F7
:100A50000057726974696E6720746F2066696C65EF
:100A60003A20006F70656E206661696C65642C20A9
:100A700046696C653A20006F70656E206661696C2E
:100A800065642C2046696C653A200046696C6520D7
:100A900073656C65637465640A002053697A653A0E
:100AA000200046696C65206F70656E65643A2000B1
:100AB0006F70656E206661696C65642C2046696C98
:100AC000653A20002066696C653A2000646F696EA3
:100AD00067006672657368004E6F772000454E446C
:100AE00020535542524F5554494E450A002220701A
:100AF0006F73002220706172656E743A2200535544
:100B000042524F5554494E452043414C4C2074614C
:100B1000726765743A220055434349534F2E2000B3
:100B2000747279696E6720746F2063616C6C2073D6
:100B300075622D67636F64652066696C65732077E5
:100B400069746820746F6F206D616E79206C6576B2
:100B5000656C732E204D4158206C6576656C20695C
:100B6000733A004572726F723A00202052616469D4
:100B700075733A00547A005479005478002020525A
:100B800061646975733A00457A00457900457800DB
:100B90002E4865696768743A007879007A78007938
:100BA0007A00207A0020790020780063002E20202F
:100BB000202000253033692E7800302E253033690F
:100BC000002073643A00737464206465763A00739D
:100BD0007464206465763A004E6F20636F6E7665AC
:100BE0007267656E636500497465726174696F6EE2
:100BF000203A202530326900536176652077697488
:100C000068204D35303020616E642F6F7220636F25
:100C1000707920746F20436F6E66696775726174B6
:100C2000696F6E2E6800253033692E7800302E25CE
:100C30003033690043616C6962726174696F6E2060
:100C400073643A00737464206465763A0043616C9F
:100C50006962726174696F6E204F4B00456E64204B
:100C60004452592D52554E00436F72726563742081
:100C700064656C74615F726164697573207769740F
:100C800068204D3636352052206F7220656E642DF7
:100C900073746F70732077697468204D3636362010
:100CA000582059205A0020284452592D52554E2977
:100CB00000412070726F6265206973206E65656403
:100CC000656420666F72206175746F2D74756E6532
:100CD0000A00436865636B696E672E2E2E204143C0
:100CE000003F284D36363520422965642072616404
:100CF00069757320697320696D706C6175736962C1
:100D00006C652E0A00473333204175746F204361B0
:100D10006C6962726174650A003F2846296F7263CC
:100D20006520697465726174696F6E2069732069EA
:100D30006D706C61757369626C652028302D33307D
:100D4000292E0A003F284329616C69627261746927
:100D50006F6E20707265636973696F6E20697320AE
:100D6000696D706C61757369626C6520283E3D30F9
:100D7000292E0A003F2856296572626F7365206C20
:100D80006576656C20697320696D706C6175736937
:100D9000626C652028302D33292E0A003F28502907
:100DA0006F696E747320697320696D706C617573FF
:100DB00069626C652028302D3130292E0A00100020
:100DC000AA03F0013A019002220130031001D0037E
:100DD00002017004F7001005ED00B005E5005006B3
:100DE000DD00F006D7009007D1003008CC00D00815
:100DF000C7007009C300100ABE00B00ABB00500B48
:100E0000B700F00BB300900CB000D00DAA00100F8B
:100E1000A5005010A00090119B00D0129600B014B5
:100E2000900090168B0070188500501A8000301CBE
:100E30007B00B01E750030216F00B02369003026A2
:100E4000640010285F00902A5A00702C5500F02E84
:100E50004F0070314800B0324500F0334100703629
:100E60003900103737005038330090392D00D03A10
:100E70002700B03C1C00503D1700F03D1100903E93
:100E80000900D03FE5FF202F0020403A00203FEC32
:100E9000ED3F5C7C3F2263617F3F3F52B0DF3F32DA
:100EA0003327E4F1A52C31DF7E3F3F3F3F3F3F3FFB
:100EB0003FE13F3F3F3F3F3F3F3F3F3F3F3F3F3FA0
:100EC0003F3F3FEF783F3F3F3FF53F3FE23F3F3FF0
:100ED0003FE13F3F3F3F3F3F3F3F3F3F3F3FEE3FD1
:100EE0003F3F3FEFFD3F3F3F3FF53F3F3F000000AB
:100EF00000010204040000001C1C0C040404020194
:100F000000000000000408100000000000001C1F8A
:100F100011111F00000006191803130C00040E1F06
:100F2000041C000000000E1315110E00001C101808
:100F30001705060500040A0A0A0A11110E0C1212FE
:100F40000C00000000001F1511151F000025753A48
:100F50002530327500253032753A25303275002D36
:100F60002D2D005344005A00590058005374616DF0
:100F7000706120736F737065736100005374616DED
:100F8000706120616E6E756C6C6174610053746188
:100F90006D70612064612053440041727265737406
:100FA00061207374616D70610052697072656E6466
:100FB00069207374616D7061005344206E6F6E2000
:100FC00070726573656E746500506175736100437E
:100FD0006F6E74726F6C6C6F0050726570617261CD
:100FE000005265676F6C6100477561726461005201
:100FF000696176766961726520707265676F00530A
:1010000054414D50414E5445204645524D41544166
:10101000005072696E7465722068616C7465642E2C
:10102000206B696C6C28292063616C6C6564210AF3
:1010300000656E7175657565696E67202200000038
:101040004843000048430000484300000000576147
:10105000726E696E673A20486F6D696E67204275DF
:101060006D702044697669736F72203C20310A00EC
:101070000A0A0A0000A0400000A0400000A04000B2
:10108000003E4300003E43008080430101017C3C60
:101090003E5E2B3D3F2F5B5D3B2C2A225C0024F4FF
:1010A000D43050C38E20C2A24017828B7011127AA6
:1010B000910D816CD90AA861E108C7586607615192
:1010C00043061E4B5D05C145A7041A411104093DA5
:1010D0009803713931034036DB0265339102D43015
:1010E0005402802E1D02632CEE01752AC501B02822
:1010F000A001102781018F2564012B244B01E022E0
:101100003401AC211F018D200D01801FFC00841EC5
:10111000ED00971DDF00B81CD200E61BC600201BA7
:10112000BC00641AB200B219A8000A19A0006A181B
:101130009900D117910040178B00B5168400311625
:101140007E00B31579003A157300C7146F00581468
:101150006A00EE1366008813630025135E00C71251
:101160005B006C12570015125400C1115100701130
:101170004F0021114B00D61049008D10470046103A
:10118000440002104200C00F4000800F3E00420F9A
:101190003C00060F3B00CB0E3800930E37005C0E70
:1011A0003500270E3400F30D3200C10D3100900DD3
:1011B0003000600D2E00320D2D00050D2C00D90CD5
:1011C0002B00AE0C2900850C29005C0C2700350C87
:1011D00027000E0C2600E80B2400C40B2400A00BF3
:1011E00023007D0B23005A0B2100390B2100180B23
:1011F0002000F80A1F00D90A1E00BB0A1E009D0A23
:101200001D00800A1D00630A1C00470A1B002C0AEF
:101210001B00110A1A00F7091A00DD091900C40998
:101220001900AB091900920917007B09180063091E
:1012300017004C09160036091600200916000A0985
:101240001500F5081500E0081400CC081400B808D3
:101250001400A4081400900813007D0812006B0805
:101260001300580812004608120034081100230821
:1012700011001208110001081100F0071000E0072A
:101280001000D0071000C0071000B0070F00A10722
:10129000100091070E0083070F0074070F00650709
:1012A0000E0057070E0049070E003B070D002E07E2
:1012B0000E0020070D0013070D0006070D00F906AC
:1012C0000C00ED060D00E0060C00D4060C00C8066C
:1012D0000C00BC060C00B0060C00A4060B0099061E
:1012E0000C008D060B0082060B0077060B006C06C7
:1012F0000B0061060A0057060B004C060A00420666
:101300000A0038060A002E060A0024060A001A06F9
:101310000A001006090007060A00FD050900F40589
:101320000900EB050900E2050900D9050900D0050F
:101330000900C7050900BE050900B5050800AD058F
:101340000800A50509009C050800940508008C0507
:101350000800840508007C050800740508006C0579
:101360000700650508005D050700560508004E05E5
:10137000070047050700400508003805070031054C
:1013800007002A050700230507001C0506001605AF
:1013900007000F0507000805060002050700FB040B
:1013A0000600F5040700EE040600E8040600E20467
:1013B0000700DB040600D5040600CF040600C904BC
:1013C0000600C3040600BD040600B7040600B1040D
:1013D0000500AC040600A6040600A00405009B045A
:1013E000060095040500900406008A0405008504A3
:1013F0000500800406007A040500750405007004E9
:1014000005006B04050066040500610405005C042A
:10141000050057040500520405004D04050048046A
:101420000500430405003E0404003A0405003504A9
:101430000500300404002C040500270404002304E4
:1014400005001E0404001A0404001604050011041B
:1014500004000D0404000904050004040400000451
:101460000400FC030400F8030400F4030400F00388
:101470000400EC030400E8030400E4030400E003B8
:101480000400DC030400D8030400D4030400D003E8
:101490000400CC030400C8030300C503030024F4C4
:1014A00004D9201BC40C5C0E9804C4095F026507B4
:1014B0007101F405F900FB04B30048048700C1037F
:1014C00069005803550003034500BE023A00840238
:1014D000310053022A002902250004022000E40101
:1014E0001C00C8011900AF01170098011400840105
:1014F0001300710110006101100051010E00430141
:101500000D0036010B002B010B0020010B00150113
:1015100009000C01090003010800FB000800F300AA
:101520000800EB000700E4000600DE000600D8001B
:101530000600D2000600CC000500C7000500C2006E
:101540000500BD000400B9000400B5000400B100AE
:101550000400AD000400A9000400A5000300A200DF
:1015600003009F0004009B00030098000300950007
:10157000020093000300900003008D0002008B0026
:10158000030088000200860002008400030081003E
:1015900002007F0002007D0002007B000200790053
:1015A0000200770001007600020074000200720061
:1015B0000100710002006F0002006D0001006C006C
:1015C00002006A0001006900020067000100660075
:1015D000010065000100640002006200010061007A
:1015E0000100600001005F0002005D0001005C007E
:1015F00001005B0001005A00010059000100580081
:101600000100570001005600010055000100540080
:10161000010053000000530001005200010051007E
:101620000100500001004F0001004E0000004E007C
:1016300001004D0001004C0001004B0000004B0078
:1016400001004A0001004900010048000000480074
:10165000010047000100460000004600010045006F
:101660000000450001004400010043000000430069
:101670000100420000004200010041000000410062
:101680000100400001003F0000003F0001003E005B
:1016900000003E0001003D0000003D0001003C0054
:1016A00000003C0000003C0001003B0000003B004B
:1016B00001003A0000003A00010039000000390042
:1016C0000100380000003800000038000100370039
:1016D0000000370001003600000036000000360030
:1016E0000100350000003500000035000100340025
:1016F000000034000000340001003300000033001B
:10170000000033000100320000003200000032000F
:101710000100310000003100000031000100300004
:10172000000030000000300001002F0000002F00FA
:1017300000002F0000002F0001002E0000002E00EE
:1017400000002E0001002D0000002D0000002D00E3
:1017500000002D0001002C0000002C0000002C00D7
:1017600000002C0001002B0000002B0000002B00CB
:1017700000002B0001002A0000002A0000002A00BF
:1017800000002A00010029000000290000002900B3
:1017900000002900000029000100280000002800A6
:1017A0000000280000002800000028000100270099
:1017B000000027000000270000002700000027008D
:1017C0000100260000002600000026000000260080
:1017D0000000260001002500000025000000250073
:1017E0000000250000002500000025000100240065
:1017F0000000240000002400000024000000240059
:10180000010023000000230000002300000023004B
:10181000000023000000230000002300010022003C
:101820000000220000002200000022000000220030
:101830000000220001002100000021000000210022
:101840000000210000002100000021000000210014
:101850000100200000002000000020000000200007
:1018600000002000000020000000200000002000F8
:1018700001001F0000001F0000001F0000001F00EB
:1018800000001F0000001F0000001F0001001E00DC
:1018900000001E0000001E0000001E0000004D3869
:1018A0003420582059205A20450053442043617267
:1018B000642072696D6F73736100534420436172D9
:1018C0006420696E736572697461000000210024F0
:1018D0000027002A002D0030003300010100000421
:1018E0000107010A01466C7573736F00466C7573CE
:1018F000736F0056656C6F636974C3A02076656E64
:10190000746F6C610056656C6F636974C3A0207658
:10191000656E746F6C61005567656C6C6F00556720
:10192000656C6C6F0056656C6F636974C3A000567C
:10193000656C6F636974C3A0004D656E752070722D
:10194000696E636970616C6500507265726973637A
:10195000616C6461204142530043616C6962726151
:101960007A2E2044656C74610050726572697363ED
:10197000616C646120504C4100526166667265641E
:101980006461004469736162696C697461204D6FC0
:10199000746F7269004D3834004175746F20486F60
:1019A0006D6500473238004D756F7669204173735D
:1019B00065004D656E75207072696E636970616C4B
:1019C0006500486F6D6520617373692058595A002E
:1019D00047323800547A00547A0054790054790020
:1019E00054780054780052616469757300526164E0
:1019F00069757300457A00457A004579004579009C
:101A000045780045780048656967687400486569ED
:101A1000676874004469616720526F6400446961BB
:101A20006720526F640043616C696272617A2E2094
:101A300044656C74610000002200250028002B0022
:101A40002E003100340002010000050108010B01E5
:101A5000000020002300260029002C002F00320067
:101A60000001000003010601090105050505070540
:101A700008080808020202020A0A0808040404040A
:101A80000101010101010101030303030303030336
:101A9000040707070C0C0C0C0C0C0C0C02020202C5
:101AA00006060606060606060B0B0B0B0B0B0B0BAE
:101AB0000102102020080810204010204080020160
:101AC0000201080402010102040810204080804045
:101AD0002010080402018004020180402010080444
:101AE00002010804020101020408102040800102E2
:101AF00004081020408000000A0B02090C0D0E089B
:101B000007030401000000000000000000000000C6
:101B100000000000000000000000000000000000C5
:101B20000000121110000000000000000000000082
:101B30000000000000000000000000005543434981
:101B4000534F2E2000202D20496E76616C69642051
:101B50006578747275646572206E756D6265722049
:101B6000210A002D2D2D2D2D2D007C4D61726C69CB
:101B70006E7C002D2D2D2D2D2D00687474703A2F44
:101B80002F6D61726C696E66772E6F726700687474
:101B900074703A2F2F6D61726C696E66772E6F725A
:101BA000670020312E312E38002020506C616E6E7F
:101BB000657242756666657242797465733A200093
:101BC0002046726565204D656D6F72793A2000433D
:101BD0006F6D70696C65643A204D617920323720F1
:101BE000323031380A00207C20417574686F723AB7
:101BF00020286E6F6E652C2064656661756C74209C
:101C0000636F6E666967290A00323031372D3132D1
:101C10002D32352031323A303000204C617374203F
:101C2000557064617465643A2000312E312E380A93
:101C3000004D61726C696E0020536F66747761723B
:101C4000652052657365740A002057617463686487
:101C50006F672052657365740A002042726F776E59
:101C6000206F75742052657365740A00204578747E
:101C700065726E616C2052657365740A00506F77EF
:101C8000657255700A0073746172740A006572722D
:101C90006F722077726974696E6720746F2066694D
:101CA0006C650A00456E6473746F7020256320258F
:101CB0006320256320256300205A3A0020593A000A
:101CC00020583A00656E6473746F7073206869748D
:101CD0003A2000446F6E6520736176696E672066F6
:101CE000696C652E0A004D323900526573656E6469
:101CF0003A20006F6B0020746F6F206C6F6E67204E
:101D0000657874727573696F6E2070726576656E32
:101D10007465640A0020636F6C6420657874727562
:101D200073696F6E2070726576656E7465640A0003
:101D3000627573793A2070617573656420666F729D
:101D400020696E7075740A00627573793A2070614B
:101D50007573656420666F7220757365720A006220
:101D60007573793A2070726F63657373696E670A71
:101D70000055434349534F2E20004B494C4C2063A0
:101D80006175736564206279204B494C4C20627503
:101D900074746F6E2F70696E0A0055434349534F38
:101DA0002E20004B494C4C206361757365642062A2
:101DB0007920746F6F206D75636820696E6163743C
:101DC0006976652074696D65202D20637572726572
:101DD0006E7420636F6D6D616E643A2000486172AD
:101DE00064636F6465642044656661756C74205338
:101DF000657474696E6773204C6F616465640A0072
:101E000028230000282300002823000010270000BA
:101E10000000FA430000FA430000FA430000C84102
:101E20000000C8420000C8420000C842000012433F
:101E300020440020490020204D33303120500050F4
:101E400049442073657474696E67733A0A002046CA
:101E50000020420020480020204D3134352053001E
:101E60004D6174657269616C20686561747570207C
:101E7000706172616D65746572733A0A00205A0070
:101E80002059002058002042002053002048002004
:101E9000520020204D363635204C0044656C74616C
:101EA0002073657474696E67733A204C3C64696191
:101EB000676F6E616C5F726F643E20523C7261644A
:101EC0006975733E20483C6865696768743E2053B5
:101ED0003C7365676D656E74735F7065725F733EAA
:101EE00020423C63616C6962726174696F6E20723A
:101EF00061646975733E2058595A3C746F776572F6
:101F000020616E676C6520636F7272656374696FC0
:101F10006E733E0A00205A0020590020204D3636AC
:101F200036205800456E6473746F702061646A7562
:101F300073746D656E743A0A00204500205A0020C3
:101F4000590020580020420020540020204D3230FB
:101F500035205300416476616E6365643A20533CDA
:101F60006D696E5F66656564726174653E20543CA0
:101F70006D696E5F74726176656C5F6665656472CB
:101F80006174653E20423C6D696E5F7365676D6587
:101F90006E745F74696D655F75733E20583C6D614A
:101FA000785F78795F6A65726B3E205A3C6D617824
:101FB0005F7A5F6A65726B3E20453C6D61785F6554
:101FC0005F6A65726B3E0A00205400205200202098
:101FD0004D323034205000416363656C657261742A
:101FE000696F6E2028756E6974732F7332293A20D9
:101FF000503C7072696E745F616363656C3E205221
:102000003C726574726163745F616363656C3E20EA
:10201000543C74726176656C5F616363656C3E0A03
:1020200000204500205A0020590020204D32303138
:102030002058004D6178696D756D20416363656C52
:1020400065726174696F6E2028756E6974732F7381
:1020500032293A0A00204500205A00205900202049
:102060004D3230332058004D6178696D756D2066B2
:1020700065656472617465732028756E6974732F69
:1020800073293A0A00204500205A002059002020D8
:102090004D3932205800537465707320706572207A
:1020A000756E69743A0A0020204D32303020443079
:1020B0000A0020204D3230302044002044697361F2
:1020C000626C65640A0046696C616D656E742073AC
:1020D000657474696E67733A0020204D313439207D
:1020E00043203B20556E69747320696E2043656CF4
:1020F000736975730A002020473231202020203B6D
:1021000020556E69747320696E206D6D0A004469F4
:10211000616D2E2066696C6F004469616D2E2066CA
:10212000696C6F004F6666004F6E20004520696E37
:10213000206D6D3300436F6E74726F6C6C6F004373
:10214000616E6E6F7420656E746572207375626463
:1021500069723A2000052E2E004D656E7520707252
:10216000696E636970616C65005654726176206DAA
:10217000696E005654726176206D696E0056547215
:102180006176206D696E00566D696E00566D696EE0
:1021900000566D696E00566D6178204500566D6180
:1021A00078204500566D6178204500566D61782095
:1021B0005A00566D6178205A00566D6178205A0099
:1021C000566D6178205900566D6178205900566D22
:1021D0006178205900566D6178205800566D6178FD
:1021E000205800566D61782058004D6F76696D65F6
:1021F0006E746F00416D6178204500416D617820FB
:102200004500416D6178205A00416D6178205A0087
:10221000416D6178205900416D6178205900416D10
:102220006178205800416D6178205800412D53702D
:102230006F7374616D656E746F00412D53706F73B1
:1022400074616D656E746F00412D726574726163A7
:102250007400412D7265747261637400416363653B
:102260006C00416363656C004D6F76696D656E74DB
:102270006F0056652D6A65726B0056652D6A657232
:102280006B0056652D6A65726B00567A2D6A657211
:102290006B00567A2D6A65726B00567A2D6A6572EC
:1022A0006B0056792D6A65726B0056792D6A6572DE
:1022B0006B0056792D6A65726B0056782D6A6572CF
:1022C0006B0056782D6A65726B0056782D6A6572C0
:1022D0006B004D6F76696D656E746F00457061734C
:1022E00073692F6D6D004570617373692F6D6D009B
:1022F0005A70617373692F6D6D005A7061737369E1
:102300002F6D6D005970617373692F6D6D00597079
:10231000617373692F6D6D005870617373692F6DF0
:102320006D005870617373692F6D6D004D6F766924
:102330006D656E746F0050617373692F6D6D004A27
:1023400065726B00416363656C6572617A696F6E7B
:10235000650056656C6F636974C3A000436F6E744B
:10236000726F6C6C6F00290A002062797465733B90
:1023700020637263200053657474696E6773205321
:10238000746F726564202800202863616C63756C2B
:102390006174656429210A0020213D2000454550D3
:1023A000524F4D20435243206D69736D61746368D1
:1023B000202D202873746F726564292000290A007B
:1023C0002062797465733B2063726320002073740C
:1023D0006F7265642073657474696E6773207265CB
:1023E00074726965766564202800204D61726C699D
:1023F0006E3D563437290A0028454550524F4D3D11
:1024000000454550524F4D2076657273696F6E20BE
:102410006D69736D617463682000496E697A6961E2
:102420006C697A7A6120454550524F4D00436F6E7A
:1024300074726F6C6C6F0052697072697374696E3C
:102440006120696D702E004361726963612064616F
:10245000206D656D6F72696100496E697A69616CA2
:10246000697A7A6120454550524F4D0053616C7630
:102470006120696E206D656D6F7269610046696CDF
:10248000616D656E746F004D6F76696D656E746F0A
:102490000054656D7065726174757261004D656E92
:1024A00075207072696E636970616C650050726549
:1024B000726973632E41425320636F6E66005072DF
:1024C00065726973632E504C4120636F6E660050D5
:1024D00049442D44005049442D44005049442D495D
:1024E000005049442D49005049442D500050494462
:1024F0002D5000022046616374000220466163741F
:102500000002204D61780002204D61780002204DCC
:1025100061780002204D696E0002204D696E000254
:10252000204D696E004F6666004F6E200041757445
:102530006F74656D700056656C6F636974C3A0201D
:1025400076656E746F6C610056656C6F636974C3F9
:10255000A02076656E746F6C61005567656C6C6F5A
:10256000005567656C6C6F00436F6E74726F6C6CB6
:102570006F0053616C766120696E206D656D6F72BE
:102580006961005567656C6C6F005567656C6C6FB1
:102590000056656C6F636974C3A02076656E746FB6
:1025A0006C610056656C6F636974C3A02076656EBC
:1025B000746F6C610054656D7065726174757261E1
:1025C0000043616E6E6F74206F70656E207375626C
:1025D00064697220006563686F3A0054454D50206D
:1025E00046554F524920434F4E54524F4C4C4F008A
:1025F000546865726D616C2052756E617761790007
:1026000043616C69627261205A0043616C69627255
:102610006120590043616C69627261205800417504
:10262000746F20486F6D650044656C74612053655C
:102630007474696E677300436172696361206461D9
:10264000206D656D6F7269610043616C69627261D2
:102650002043656E7465720053616C766120696E0B
:10266000206D656D6F72696100496D702E20616C1F
:1026700074657A7A612044656C7461004733332055
:102680005031004175746F2063616C696272617AC8
:10269000696F6E6500473333004D656E752070724B
:1026A000696E636970616C65004D756F766920585D
:1026B000004D756F76692059004D756F7669205A07
:1026C000004573747275736F7265004D756F76692E
:1026D00020646920302E316D6D004D756F76692054
:1026E0006469202020316D6D004D756F766920641E
:1026F00069202031306D6D004D756F766920417312
:102700007365004573747275736F7265004D756FF4
:102710007669205A004D756F76692059004D756FA6
:102720007669205800496E206D6F76696D656E740C
:102730006F2E2E2E004573747275736F7265004193
:1027400075746F20486F6D6500473238004D756FA6
:102750007669205A005859206C6962657269004D8B
:10276000756F76692059004D756F76692058005055
:102770007265706172610020746F6F206C6F6E679C
:1027800020657874727573696F6E207072657665F6
:102790006E7465640A0020636F6C642065787472DF
:1027A0007573696F6E2070726576656E7465640A04
:1027B000004572726F722077726974696E67207457
:1027C0006F20454550524F4D210A006265640A0052
:1027D0002C2073797374656D2073746F70706564E9
:1027E00021204865617465725F49443A200052694E
:1027F0007363616C642E2046616C6C69746F004871
:10280000656174696E67206661696C656400457214
:10281000723A2054454D50204D494E494D41004D8E
:10282000494E54454D5020747269676765726564FE
:10283000004572723A2054454D50204D4153534942
:102840004D41004D415854454D50207472696767A1
:102850006572656400456E642066696C65206C690C
:1028600073740A00426567696E2066696C65206C46
:102870006973740A00205A3A0020593A0020436FC5
:10288000756E7420583A0020453A00205A3A0020CC
:10289000593A00583A003A004361703A000098E80B
:1028A000DAE211241FBECFEFD1E2DEBFCDBF00E0E0
:1028B0000CBF13E0A0E0B2E0E2ECF2EF01E00BBFEE
:1028C00002C007900D92A639B107D9F723E1A6E916
:1028D000B3E001C01D92A431B207E1F714E1C0E5F5
:1028E000D4E100E006C021970109802FFE010E947B
:1028F000BFF8CF34D10780E00807A9F70E9445E36D
:102900000C9450F90C9400002F923F924F925F92DA
:102910006F927F928F929F92AF92BF92CF92DF92EF
:10292000EF92FF920F931F93CF93DF93CDB7DEB754
:10293000C659D1090FB6F894DEBF0FBECDBF81E0F6
:1029400090E09093D50B8093D40B8091CD0D8D3476
:1029500009F4B4C6843511F40C943E2D873411F07B
:102960000C94802D8091CB0D9091CC0D84309105ED
:1029700009F4A1C554F497FF02C00C949A2D20913C
:1029800088028230910594F52CC08A35910509F4AE
:10299000F0C564F48C31910509F4D3C5819711F029
:1029A0000C949A2D0E94C6430C949A2D8B35910558
:1029B00009F4E3C58C35910511F00C949A2D0E9411
:1029C000F5DC3FE8232E32E0332E42E4E42E46E0ED
:1029D000F42E5CE0C52E54E0D52E00E010E01BAED6
:1029E00009C621110C94A12D0C949A2D222311F4C7
:1029F0000C949A2D11E0029709F010E00E94DD344A
:102A000082E50E94D134882309F452C10E946F34B8
:102A10006B017C0140900C0450900D0460900E04FA
:102A200070900F0420911004309111044091120411
:102A3000509113042BAF3CAF4DAF5EAF8091930B21
:102A40009091940BA091950BB091960B23968CAF1F
:102A50009DAFAEAFBFAF23972091970B3091980BEE
:102A60004091990B50919A0B2F962CAF3DAF4EAFE2
:102A70005FAF2F9720E030E0A901C701B6010E94A7
:102A800012F1882309F4FDC4A301920123966CADD1
:102A90007DAD8EAD9FAD23970E9412F181110FC0C5
:102AA0002BAD3CAD4DAD5EAD2F966CAD7DAD8EAD1D
:102AB0009FAD2F970E9412F1882309F4E2C420E011
:102AC00030E0A901C701B6010E9412F1881F8827D2
:102AD000881F18130BC080E090E0A0E8BFE3679662
:102AE0008CAF9DAFAEAFBFAF67970AC020E030E0BC
:102AF00040E85FEB67962CAF3DAF4EAF5FAF679797
:102B0000A301920123966CAD7DAD8EAD9FAD239751
:102B10000E9459F52B966CAF7DAF8EAF9FAF2B9770
:102B20002BAD3CAD4DAD5EAD2F966CAD7DAD8EAD9C
:102B30009FAD2F970E9459F563966CAF7DAF8EAF16
:102B40009FAF63972B962CAD3DAD4EAD5FAD2B97F0
:102B5000CA01B9010E9477F14B015C0163962CAD6B
:102B60003DAD4EAD5FAD6397CA01B9010E9477F1EB
:102B70009B01AC01C501B4010E945AF50E9413F8F3
:102B800027966CAF7DAF8EAF9FAF279720E030E0E8
:102B900040E05FE30E9477F14B015C01A7019601E1
:102BA000C701B6010E9477F16B017C01A501940178
:102BB000C501B4010E9477F19B01AC01C701B601C8
:102BC0000E9459F50E9413F89B01AC0167966CAD09
:102BD0007DAD8EAD9FAD67970E9477F14B015C0193
:102BE00023962CAD3DAD4EAD5FAD2397C301B20131
:102BF0000E945AF520E030E040E05FE30E9477F168
:102C00006B017C0163966CAD7DAD8EAD9FAD63971E
:102C1000905827962CAD3DAD4EAD5FAD27970E94E5
:102C200036F69B01AC01C501B4010E9477F19B010E
:102C3000AC01C701B6010E945AF5A30192010E949E
:102C400059F56B017C012F962CAD3DAD4EAD5FADBE
:102C50002F976BAD7CAD8DAD9EAD0E945AF520E0F7
:102C600030E040E05FE30E9477F12B013C012796C2
:102C70002CAD3DAD4EAD5FAD27972B966CAD7DADC8
:102C80008EAD9FAD2B970E9436F69B01AC01C5011E
:102C9000B4010E9477F19B01AC01C301B2010E9413
:102CA0005AF52BAD3CAD4DAD5EAD0E9459F514C04B
:102CB00089E40E94D134882329F00E946F346B018B
:102CC0007C0103C0C12CD12C76018AE40E94D1344E
:102CD0008823F9F00E946F342F966CAF7DAF8EAFD2
:102CE0009FAF2F9720E030E0A901C701B6010E94F5
:102CF00012F181111EC020E030E0A9012F966CADC9
:102D00007DAD8EAD9FAD2F970E9412F1811111C044
:102D1000B8C320E030E0A901C701B6010E9412F15A
:102D2000882309F4AEC32F961CAE1DAE1EAE1FAE97
:102D30002F97D701C601B0588BAF9CAFADAFBEAFD8
:102D40002F962CAD3DAD4EAD5FAD2F9750582396CD
:102D50002CAF3DAF4EAF5FAF23979C01AD01BC01DF
:102D6000CD010E9477F14B015C0123962CAD3DAD66
:102D70004EAD5FAD2397CA01B9010E9477F19B0167
:102D8000AC01C501B4010E945AF50E9413F8A79640
:102D90006CAF7DAF8EAF9FAFA79780910C049091E1
:102DA0000D04A0910E04B0910F0427968CAF9DAF37
:102DB000AEAFBFAF2797A7019601BC01CD010E941E
:102DC0005AF567966CAF7DAF8EAF9FAF6797209136
:102DD0001004309111044091120450911304639631
:102DE0002CAF3DAF4EAF5FAF63972F962CAD3DAD8F
:102DF0004EAD5FAD2F9763966CAD7DAD8EAD9FAD43
:102E000063970E945AF56B966CAF7DAF8EAF9FAF04
:102E10006B978091930B9091940BA091950BB0912F
:102E2000960B6F968CAF9DAFAEAFBFAF6F976796A7
:102E30002CAD3DAD4EAD5FAD6797BC01CD010E949D
:102E400059F56B017C012091970B3091980B4091C3
:102E5000990B50919A0BA3962CAF3DAF4EAF5FAF3D
:102E6000A3976B962CAD3DAD4EAD5FAD6B97A39622
:102E70006CAD7DAD8EAD9FADA3970E9459F54B0112
:102E80005C018091140490911504A0911604B091F6
:102E90001704AF968CAF9DAFAEAFBFAFAF979C019D
:102EA000AD0160919B0B70919C0B80919D0B90915B
:102EB0009E0B0E9459F52B966CAF7DAF8EAF9FAFE6
:102EC0002B9720919F0B3091A00B4091A10B50911B
:102ED000A20BAB962CAF3DAF4EAF5FAFAB978091DF
:102EE000180490911904A0911A04B0911B04E39660
:102EF0008CAF9DAFAEAFBFAFE397A70196016BADAF
:102F00007CAD8DAD9EAD0E9477F12B013C01A501FA
:102F1000940123966CAD7DAD8EAD9FAD23970E943D
:102F200077F19B01AC01C301B2010E945AF52B015C
:102F30003C01A50194016BAD7CAD8DAD9EAD0E94B1
:102F400077F14B015C01A701960123966CAD7DAD35
:102F50008EAD9FAD23970E9477F19B01AC01C50117
:102F6000B4010E9459F5A30192010E94CDF56B01B5
:102F70007C0120E030E0A9010E9412F187FF0AC025
:102F80002BED3FE049EC50E4C701B6010E945AF531
:102F90006B017C01112351F02BED3FE049EC50E433
:102FA000C701B6010E9459F56B017C0120E030E0B9
:102FB000A901C701B6010E9412F1811128C06F96C4
:102FC0002CAD3DAD4EAD5FAD6F9727966CAD7DAD31
:102FD0008EAD9FAD27970E9412F1811118C0A39664
:102FE0002CAD3DAD4EAD5FADA39763966CAD7DADA1
:102FF0008EAD9FAD63970E9412F1811108C07BEDE9
:10300000C72E7FE0D72E79ECE72E70E4F72EA79637
:103010002CAD3DAD4EAD5FADA797C701B6010E9487
:1030200077F19B01AC010E9477F14B015C012B967B
:103030002CAD3DAD4EAD5FAD2B97CA01B9010E94DD
:1030400077F19B01AC01C501B4010E945AF50E94C1
:1030500013F84B015C012FE632E143E85AE30E948A
:1030600012F187FD0AC2C501B4010E94CFF60E9489
:10307000A3F61B01672B19F422242394312CB101F0
:1030800080E090E00E9416F14B015C019B01AC01D5
:10309000C701B6010E9436F627966CAF7DAF8EAFA2
:1030A0009FAF2797A50194012B966CAD7DAD8EAD9A
:1030B0009FAD2B970E9436F6A7966CAF7DAF8EAF73
:1030C0009FAFA797E3962CAD3DAD4EAD5FADE397B7
:1030D000AB966CAD7DAD8EAD9FADAB970E9459F5B3
:1030E000A50194010E9436F6AB966CAF7DAF8EAF12
:1030F0009FAFAB9727962CAD3DAD4EAD5FAD2797FB
:10310000CA01B9010E9477F120E030E040E05FE3BE
:103110000E9477F19B01AC0160E070E080E89FE3E2
:103120000E9459F56F966CAF7DAF8EAF9FAF6F97D2
:10313000AF962CAD3DAD4EAD5FADAF9729873A87C9
:103140004B875C87E3968CAD9DADAEADBFADE3978D
:103150008D879E87AF87B88B6091130270911402A0
:10316000072E000C880B990B0E9418F12091070282
:10317000309108024091090250910A020E9477F1B1
:103180002AE037ED43E25CE30E9477F168A379A37C
:103190008AA39BA30E940C749B01AC0128533F4F50
:1031A0004F4F5F4FA3962CAF3DAF4EAF5FAFA3978E
:1031B0004BAC5CAC6DAC7EAC41E050E061965FAF77
:1031C0004EAF619759E128965FAF28976196AEADF3
:1031D000BFAD6197A215B30509F43AC10E94A8DBFF
:1031E0000E940C74DC01CB01A3962CAD3DAD4EAD1D
:1031F0005FADA397821B930BA40BB50BB7FD10C05B
:103200000E940C749B01AC0128533F4F4F4F5F4FFE
:10321000A3962CAF3DAF4EAF5FAFA3970E944785FB
:1032200028963FAD2897315028963FAF28973323F3
:1032300009F44BC06F962CAD3DAD4EAD5FAD6F97B1
:1032400023966CAD7DAD8EAD9FAD23970E9477F137
:103250006B017C0127962CAD3DAD4EAD5FAD279740
:10326000B201C3010E9477F1A70196010E945AF5AD
:103270007B018C016F962CAD3DAD4EAD5FAD6F9770
:10328000B201C3010E9477F14B015C0127962CAD7E
:103290003DAD4EAD5FAD279723966CAD7DAD8EAD48
:1032A0009FAD23970E9477F19B01AC01C501B4014A
:1032B0000E9459F52B013C01C701D80123968CAF20
:1032C0009DAFAEAFBFAF23975DC061964EAD5FAD12
:1032D0006197BA0180E090E00E9416F127962CAD2C
:1032E0003DAD4EAD5FAD27970E9477F14B015C017C
:1032F0000E9433F66B017C01C501B4010E9409F8FC
:103300004B015C01A70196016BAD7CAD8DAD9EAD0F
:103310000E9477F12B013C01A50194012F966CAD21
:103320007DAD8EAD9FAD2F970E9477F19B01AC01D3
:10333000C301B2010E945AF52B013C01A501940181
:103340006BAD7CAD8DAD9EAD0E9477F14B015C0104
:10335000A70196012F966CAD7DAD8EAD9FAD2F97D9
:103360000E9477F19B01AC01C501B4010E9459F59F
:1033700023966CAF7DAF8EAF9FAF239759E1289610
:103380005FAF28979201A30167966CAD7DAD8EADBE
:103390009FAD67970E945AF569837A838B839C83DC
:1033A00023962CAD3DAD4EAD5FAD23976B966CADC6
:1033B0007DAD8EAD9FAD6B970E945AF56D837E8378
:1033C0008F839887A7962CAD3DAD4EAD5FADA79787
:1033D00069857A858B859C850E945AF569877A87ED
:1033E0008B879C87AB962CAD3DAD4EAD5FADAB975B
:1033F0006D857E858F8598890E945AF56D877E87B9
:103400008F87988B80917F02882321F0CE010196CF
:103410000E94EE65E0904E06CE0101960E94D18892
:103420008E01005E1F4F9E01235F3F4F44E254E038
:1034300060E274E08CE194E00E94157161968EADBB
:103440009FAD6197019661969FAF8EAF6197BECE9B
:10345000E0904E0683E99BE00E94D1888E01005ED9
:103460001F4F2FE93BE044E254E060E274E08CE15E
:1034700094E00E9415710E946C360E9476360C947E
:103480009A2DE3E6FBE084918F010F5F1F4F8823A5
:1034900021F00E94B936F801F6CFE9EDF1E0849110
:1034A0008F010F5F1F4F882311F40C949A2D0E94F7
:1034B000B936F801F4CF80E50E94D134882329F091
:1034C0000E942F346B017C0103C0C12CD12C7601EA
:1034D00083E50E94D134882361F00E946F3420E09C
:1034E00030E04AE754E40E9477F10E94A3F66B01B2
:1034F0007C010E94F5DC80912A02811105C060E008
:103500008FEE91E00E94CF780E94763680917B0EFC
:1035100090917C0EA0917D0EB0917E0EC80ED91EAA
:10352000EA1EFB1E0E940C74DC01CB018C199D0964
:10353000AE09BF09B7FD02C00C949A2D0E944785C1
:10354000F1CF0E94F5DC10929B030E949A3681E035
:1035500080939E0F0E94C03680919D0F80939E0F96
:103560000E94813683E0809300020E94CEE00C949A
:103570009A2D10929A030C949A2D81E080939A03CD
:103580000C949A2D0E946F344B015C01033011059D
:1035900049F0D7012D913D914D915C910E9459F5D3
:1035A0004B015C01F6012081318142815381C501CB
:1035B000B4010E9459F52B013C012DEB37E346E89D
:1035C00055EB0E94CEF787FD1DC02DEB37E346E893
:1035D00055E3C301B2010E9412F118169CF00F5F6F
:1035E0001F4FF4E0EF0EF11C24E0C20ED11C04309A
:1035F000110541F1F10181911F010E94D13488230D
:1036000071F3C0CF0330110559F4809218049092E1
:103610001904A0921A04B0921B04F1E0FBAFDFCFB3
:10362000A3019201D7016D917D918D919C910E9492
:103630005AF5F7016083718382839383C8010E94E6
:103640007532CDCF3BAD3323A9F1C0901804D09093
:103650001904E0901A04F0901B0420912E0F309171
:103660002F0F4091300F5091310FC701B6010E94CA
:1036700077F10E94D9F76093970F7093980F80931A
:10368000990F90939A0FC701B6010E949EF62FB72B
:10369000F8946093A1127093A2128093A312909356
:1036A000A4122FBF1092870F1092880F1092890FCB
:1036B00010928A0F0E94CEE00C949A2D8091CB0D2F
:1036C0009091CC0D8037910509F44EC60CF0B5C031
:1036D0008B34910509F44AC40CF068C08831910517
:1036E00009F429C2ECF58231910509F441C7F4F4DB
:1036F00097FF02C00C949A2D823091050CF476C18C
:10370000419711F00C949A2D60E08EE292E00E94B5
:10371000CF785F988A989FB7F894809108018E7F40
:10372000809308019FBF12980C949A2D85319105C2
:1037300009F4E6C144F4449711F00C949A2D0E94C8
:10374000ABE10C949A2D8631910509F4DDC14797C0
:1037500011F00C949A2DE091C90DF091CA0DDEC1C3
:103760008C31910509F43CC274F48A31910509F455
:10377000EDC10CF0F9C11092E80F8DEB9FE00E94B3
:1037800095DC0C949A2D8F31910509F483C32CF4A8
:103790004E9709F42FC20C949A2D8032910509F4AA
:1037A0002DC38A9709F4A2C30C949A2D8C359105E8
:1037B00009F430C70CF58135910509F4B9C664F4F4
:1037C0008D34910509F4DCC30CF4D4C38E34910517
:1037D00009F4DAC30C949A2D8335910509F4C3C614
:1037E0000CF4BDC68435910509F4C2C68535910532
:1037F00009F4F5C60C949A2D8B36910509F486C60A
:1038000064F48936910509F4FAC50CF05AC6883675
:10381000910509F4CAC40C949A2D8D36910509F4CA
:1038200032C60CF49DC58E36910509F415C58F3648
:10383000910509F424C50C949A2D8C3D910511F441
:103840000C94F3270CF068C08C38910509F4C0C5BE
:103850004CF58537910509F4BEC774F4823791059C
:1038600009F461C70CF488C58337910511F00C94F5
:103870009A2DE5E5F4E05DC78737910509F4F3C7B4
:103880000CF4B2C78837910511F40C94B72489372A
:10389000910511F00C949A2D10929E0F10929D0F8D
:1038A0000C949A2D893C910511F40C94672584F4AD
:1038B0008B39910509F4C0C5883C910511F40C942D
:1038C0001F258139910511F00C949A2D0C94BE247A
:1038D0008C3C910511F40C949F2584F48B3C91054C
:1038E00011F00C949A2D66EEE62E6EE0F62E0FE89F
:1038F00012E074E0D72ED00E0C9490258D3C9105EB
:1039000011F40C940926833D910511F00C949A2D25
:10391000E5EDF5E20C9415278A3941E0940709F4A6
:1039200027C58CF58D32A1E09A0711F40C949A28E2
:1039300094F4823E910511F40C9447288C32E1E016
:103940009E0711F40C9471288D3D910511F00C9493
:103950009A2D0C9400288F32F1E09F0711F40C94FB
:103960008C2914F40C943829833631E0930711F430
:103970000C94132D8039914011F00C949A2D0E94D3
:10398000F5DC0C949A2D873F51E0950711F40C94C7
:10399000092D94F4853FB1E09B0711F40C94032D9D
:1039A00014F00C94062D843F914011F00C949A2D44
:1039B0000E9451AE0C949A2D8A3922E0920711F49C
:1039C0000C94EF263CF48939924011F40C9474263F
:1039D0000C949A2D803A53E0950709F44EC2873E25
:1039E000934011F40C942C2D0C949A2DA090C90D99
:1039F000B090CA0D80E50E94D134882359F00E940E
:103A00002F346B017C0111E0672B682B692B31F49B
:103A100010E004C010E0C12CD12C760183E50E9497
:103A2000D1348823F1F00E946F3420E030E04AE77F
:103A300054E40E9477F10E94A3F66B017C011111FE
:103A400012C0672B682B692B71F4A114B10459F0D3
:103A5000F5018081882339F061E0C5010E94ED788D
:103A600007C0112391F360E080E292E00E94CF78DA
:103A700083E090E09093D50B8093D40B81E080930A
:103A8000B30B0E94F5DC0E947636C114D104E10428
:103A9000F104E9F080917B0E90917C0EA0917D0E57
:103AA000B0917E0EC80ED91EEA1EFB1E0E940C7439
:103AB000DC01CB018C199D09AE09BF09B7FF1CC001
:103AC0008091B30B8823C1F00E944785EFCF80918E
:103AD000B30B882319F00E944785F9CF8091BD0F61
:103AE0009091BE0F60E0029719F48EE092E002C060
:103AF0008EEF91E00E94CF781092B30B0C949A2D28
:103B00000E94C8400C949A2D1092E80F1092E90F71
:103B10000C949A2D803209F41082319680818111A3
:103B2000F9CF40E061E08091C90D9091CA0D0E94EB
:103B3000933D0C949A2D8091E90F882319F081E030
:103B40008093E80F0E94E8420C949A2D8091E90F2F
:103B5000882311F40C949A2D83E50E94D1348111AD
:103B60000C94A52D0C949A2D8091E90F882351F186
:103B7000EFE3F2E084918F010F5F1F4F882321F064
:103B80000E94B936F801F6CF609164127091651207
:103B900080916612909167124AE00E94383A8FE253
:103BA0000E94B93660916012709161128091621228
:103BB000909163124AE00E94383A8AE00E94B93636
:103BC0000C949A2DE1E5F2E084918F010F5F1F4F75
:103BD000882311F40C949A2D0E94B936F801F4CF81
:103BE00040E060E08091C90D9091CA0D0E94933D24
:103BF0000C949A2D8091E90F882311F40C949A2D3E
:103C000083EB91E10E94EAD583EB91E10E943F5F53
:103C10001092E70F1092E60FE090C90DF090CA0DD8
:103C20008091E90F882311F40C949A2D0E94883D0D
:103C30009E012F5F3F4F6901C9010E948FD385E12B
:103C400090E19093351080933410D7018C918F328E
:103C500009F060C06FE270E0C7010E940DF98C01AD
:103C60000F5F1F4F09F45CC06FE270E0C8010E9453
:103C70000DF95C01009709F454C00817190708F002
:103C800050C04C01801A910AA401B801CE0180965F
:103C90000E9436F9E0E2F0E0EC0FFD1FE80DF91D9F
:103CA00010828E01005E1F4FF80181918F018823E1
:103CB00019F00E94B936F8CF8AE00E94B9366091B7
:103CC0003410709135106115710511F06C5F7F4FE4
:103CD00021E0AE01405E5F4FCE0105960E94006577
:103CE000811112C0BE01605E7F4F88E892E00E94A1
:103CF0007A6F8EE20E94B9368AE00E94B936C60118
:103D00000E9474670C949A2DD0923510C092341092
:103D10008501A6CF86E390E190933510809334100F
:103D2000870160913410709135106115710511F0A3
:103D30006C5F7F4F18A21BA222E0A801CE018096E3
:103D40000E940065811102C0F12C14C0CE01809642
:103D50000E9465BC8823C1F361E0CE0180960E9479
:103D6000485F009789F325EEDC012C931BA20E948B
:103D700099D3F82ECE0180960E945D36FF2009F17E
:103D8000E2E6F2E084917F01BFEFEB1AFB0A8823A1
:103D900021F00E94B936F701F5CFF80181918F012A
:103DA000882319F00E94B936F8CF8AE00E94B9360C
:103DB000109264121092651210926612109267129D
:103DC00018C0E0E7F2E084917F012FEFE21AF20AD7
:103DD000882321F00E94B936F701F5CFD8018D91E3
:103DE0008D01882319F00E94B936F8CF8EE20E9427
:103DF000B936C6010E9474670C949A2D8091E80F21
:103E000081110E94F5DC8091E90F882311F40C9454
:103E10009A2D80E50E94D134882319F00E946034E5
:103E200003C080E50E94A234182F482F61E08091E2
:103E3000C90D9091CA0D0E94933D83E50E94D13433
:103E4000882381F00E943F34AB01BC01409364128F
:103E500050936512609366127093671283EB91E141
:103E60000E941CD68091E90F882319F081E080938D
:103E7000E80F11110C949A2D65CE8091C90D909187
:103E8000CA0D21E02093E70F40E060E00E94933DDF
:103E90000C949A2D8DEB9FE00E9468DC68A379A3B7
:103EA0008AA39BA3BE016F5F7F4FCE0180960E94C5
:103EB0009D3560E0CE0101960E94ED78E5EDF5E2DA
:103EC00084918F010F5F1F4F882321F00E94B93624
:103ED000F801F6CFBE016F5F7F4F8CE992E00E9440
:103EE0007A6F8AE00E94B9360C949A2D83E50E947D
:103EF000D134882311F40C949A2D0E944F34E82E6B
:103F000080E50E94D134882341F00E943F348B0128
:103F100077FF02C00C949A2D02C00DE010E0902FA4
:103F2000E4E3F6E088E28E0F2491921729F03196AF
:103F30008E13FACF0C94B52DE3E6FBE084918F014C
:103F40000F5F1F4F882321F00E94B936F801F6CF8A
:103F5000E9EAF2E084918F010F5F1F4F882311F48B
:103F60000C949A2D0E94B936F801F4CF0E94E842D1
:103F70000C949A2D8DEB9FE00E9495DC0C949A2D69
:103F80000E9441BA0C949A2D83E50E94D134882373
:103F900059F00E943F346E34710531F48DEB9FE08F
:103FA0000E94B06F0C949A2D18A219A21AA21BA2FB
:103FB000E8E1F3E084918F010F5F1F4F882321F028
:103FC0000E94B936F801F6CFEFE0F3E084918F015B
:103FD0000F5F1F4F882321F00E94B936F801F6CFFA
:103FE0006091CB0F7091CC0F80E090E04AE00E948E
:103FF000383AE2E0F3E084918F010F5F1F4F88238E
:1040000021F00E94B936F801F6CF6091CD0F709182
:10401000CE0F80E090E04AE00E94383AE7EFF2E00D
:1040200084918F010F5F1F4F882321F00E94B936C2
:10403000F801F6CF6091CB0F7091CC0F8091CD0F2E
:104040009091CE0F681B790B8091BD0F9091BE0FA0
:10405000019721E030E0029710F020E030E0621B91
:10406000730B80E090E04AE00E94383A8AE00E94B8
:10407000B936EFEEF2E084918F010F5F1F4F882376
:1040800021F00E94B936F801F6CF8091CF0F9091C0
:10409000D00FA091D10FB091D20F88A399A3AAA35A
:1040A000BBA3BE016F5F7F4FCE0180960E949D35FE
:1040B000E2EEF2E084918F010F5F1F4F811105C086
:1040C000FE0131967F018F0104C00E94B936F801CC
:1040D000F1CFD8018D918D01882319F00E94B93656
:1040E000F8CF8091D30F9091D40FA091D50FB091BC
:1040F000D60F88A399A3AAA3BBA3BE016F5F7F4F6E
:10410000CE0180960E949D35E2EDF2E084918F0110
:104110000F5F1F4F882321F00E94B936F801F6CFB8
:10412000F70181917F01882319F00E94B936F8CFF9
:104130008AE00E94B936EAECF2E084918F010F5FC9
:104140001F4F882321F00E94B936F801F6CFEAEB21
:10415000F2E084918F010F5F1F4F882321F00E94AE
:10416000B936F801F6CF20E030E04AE754E4609138
:10417000D70F7091D80F8091D90F9091DA0F0E94CC
:1041800036F642E00E94F43AE8EBF2E084918F01C7
:104190000F5F1F4F882321F00E94B936F801F6CF38
:1041A0008AE00E94B9360C949A2D88E690E00E942D
:1041B0009E3A81110C949A2D8091870683FF02C04C
:1041C0000C949A2D83E50E94D134882309F440C0D1
:1041D0000E946F340E949EF67093480F6093470FC1
:1041E00080E00E9498D90E946F3420E030E040EADD
:1041F00052E40E9412F118163CF00E9441BA60E0AD
:1042000087E293E00E94CF780E946F3420913E06AF
:1042100030913F0640914006509141060E94CEF7F2
:104220001816B4F484E193E09F938F9380913D0638
:1042300090E001969F938F9380E293E09F938F93FA
:104240001F920E94CD420FB6F894DEBF0FBECDBFC5
:104250000E94FBE20C949A2D8EE40E94D1348823B4
:1042600011F40C949A2D0E943F3460932A047093A9
:104270002B0480932C0490932D040C949A2D83E5A9
:104280000E94A234882359F083E50E94D134882308
:1042900019F00E944F3401C080E080938706E5ED5D
:1042A000F5E284918F010F5F1F4F882321F00E9458
:1042B000B936F801F6CFE7E4F3E084918F010F5FA0
:1042C0001F4F882321F00E94B936F801F6CF809164
:1042D00087068823A1F129E3C22E23E0D22EE12C08
:1042E000F12C20E08091870690E00E2C02C095957D
:1042F00087950A94E2F780FF17C0BB24B394B20EEF
:10430000222319F08CE20E94B936F60125913491EE
:10431000F901849189010F5F1F4F882321F00E94CA
:10432000B9369801F5CF2B2DFFEFEF1AFF0A32E0D7
:10433000C30ED11C45E0E416F104A1F60CC0E3E481
:10434000F3E084918F010F5F1F4F882321F00E94BB
:10435000B936F801F6CF8AE00E94B9360C949A2D4E
:10436000109201020C949A2D8EE493E00E947C67D7
:104370000E9403DD0C949A2D83E50E94D13488239A
:1043800069F00E944F348D3320F4809319020C940D
:104390009A2D8CE3809319020C949A2DE5EDF5E2A9
:1043A00084918F010F5F1F4F882321F00E94B9363F
:1043B000F801F6CF4091190250E060E070E087E527
:1043C00093E00E940A6F8AE00E94B9360C949A2DFD
:1043D0008091870683FF02C00C949A2D83E50E948A
:1043E000D134882311F40C949A2D0E946F340E94CA
:1043F0009EF67093A6126093A5120C949A2D89E6EE
:1044000090E00E949E3A811111C0EEE5F3E08491A4
:104410008F010F5F1F4F882321F00E94B936F801EA
:10442000F6CF0E949A5E8AE00E94B9361092D50BB0
:104430001092D40B0C94693183E50E94D134882307
:1044400011F40C949A2D0E944F34182F8D3308F0DC
:104450001CE31093780E0E940C746B017C01212FD9
:1044600030E0A8EEB3E00E944AF5C60ED71EE81E63
:10447000F91EC092740ED092750EE092760EF092F4
:10448000770E0C949A2D8DE690E00E949E3A811151
:104490000C949A2D8091870683FF02C00C949A2D6C
:1044A00083E50E94D1342C968FAF2C9781110C9408
:1044B000CA2D82E50E94D13481110C94CA2D0C942E
:1044C0009A2D80E50E94D134811108C083E50E94B5
:1044D000D134811109C03FEF20E00AC00E944F345F
:1044E00081110C949A2DF2CF0E943F34362F272F42
:1044F000832F922F8F3F910519F010F08FEF90E0EE
:104500009093460F8093450F0C949A2D80E50E945E
:10451000D134811106C01092460F1092450F0C94B1
:104520009A2D0E943F34672B11F00C949A2DF3CFF3
:104530000E94E3D90E94F5DC0E94C1881092460FC8
:104540001092450F68EE73E080E090E00E942778BB
:1045500060E08FE893E00E94CF780C949A2D10923F
:1045600099030C949A2D81E0809399030C949A2DD1
:1045700083E50E94D1348823A1F00E946F3420E0AB
:1045800030E04AE754E40E9477F10E94A3F660937A
:104590001A0270931B0280931C0290931D020C94CC
:1045A0009A2D88E50E94A23481110C94592F89E537
:1045B0000E94A23481110C94592F8AE50E94A234E2
:1045C00081110C94592F85E40E94A23481110C941E
:1045D000592F0E94F5DC0E94C1880C949A2D83E526
:1045E0000E94A234882311F40C949A2D0E946F34F7
:1045F00020E030E04AE754E40E9477F10E94A3F6FD
:1046000060937F0E7093800E8093810E9093820E44
:104610000C949A2D1FE8C12E12E0D12E02E2E02E5A
:104620000FE0F02E10E0D6018D916D010E94A234B2
:10463000882309F46DC0133009F063C00E946F3401
:104640004B015C0120E030E040EA51E40E9412F1AD
:1046500087FF4EC0A501940160912E0F70912F0F1E
:104660008091300F9091310F0E9436F62B013C0162
:104670009B01AC0160911E0F70911F0F8091200F64
:104680009091210F0E9477F160931E0F70931F0F7E
:104690008093200F9093210FA30192016091F20E5D
:1046A0007091F30E8091F40E9091F50E0E9477F1C7
:1046B0006093F20E7093F30E8093F40E9093F50EC8
:1046C000609198067091990680919A0690919B0648
:1046D0000E9416F1A30192010E9477F10E94A3F6B5
:1046E000609398067093990680939A0690939B0620
:1046F00080922E0F90922F0FA092300FB092310F18
:1047000007C00E946F34F7016083718382839383B3
:104710001F5FF4E0EF0EF11C143009F084CF0E940B
:104720002F700C949A2D0E94F5DC0E94CEE00C9420
:104730009A2D84918F010F5F1F4F882321F00E94D3
:10474000B936F801F6CF60E085E494E00E948AE093
:1047500061E08EE394E00E948AE061E083E394E00C
:104760000E948AE061E083E294E00E948AE060E0D7
:104770008AE194E00E948AE061E080E194E00E9496
:104780008AE060E086E094E00E948AE060E08EEFDC
:1047900093E00E948AE060E080EF93E00E948AE06C
:1047A00060E082EE93E00E948AE060E083ED93E0B7
:1047B0000E948AE060E085EC93E00E948AE060E07D
:1047C0008FEA93E00E948AE060E08EE993E00E9425
:1047D0008AE00C949A2D60E08091C90D9091CA0DE9
:1047E0000E94ED780C949A2D85E40E94D1348823A0
:1047F00019F00E94603403C085E40E94A23488232B
:1048000061F0E5EDF5E284918F010F5F1F4F882382
:1048100021F00E94B936F801F6CF81E40E94D1342C
:10482000882319F00E94603403C081E40E94A234FE
:10483000882361F0EAE1F5E084918F010F5F1F4F5B
:10484000882321F00E94B936F801F6CF0091C90DF6
:104850001091CA0DD8018D918D01882309F47BCD6B
:104860000E94B936F7CFEEE3F5E084918F010F5F38
:104870001F4F882321F00E94B936F801F6CFE6E3F6
:10488000F5E084918F010F5F1F4F882321F00E9474
:10489000B936F801F6CF649903C001E013E002C015
:1048A00006E013E0F80181918F01882319F00E943E
:1048B000B936F8CF8AE00E94B936EEE2F5E084918D
:1048C0008F010F5F1F4F882321F00E94B936F80136
:1048D000F6CF8091030180FD03C001E013E002C028
:1048E00006E013E0D8018D918D01882319F00E9414
:1048F000B936F8CF8AE00E94B936E6E2F5E0849155
:104900008F010F5F1F4F882321F00E94B936F801F5
:10491000F6CF4B9B03C001E013E002C006E013E0BA
:10492000F80181918F01882319F00E94B936F8CFE0
:104930008AE00E94B936EEE1F5E084918F010F5FC5
:104940001F4F882321F00E94B936F801F6CF4A990B
:1049500003C001E013E002C006E013E0D8018D912E
:104960008D01882309F4F7CC0E94B936F7CF81E096
:1049700080939E0F80939D0F0C949A2D83E50E9447
:10498000D134882319F00E943F3402C060E070E007
:104990008B01112702301105D4F0E3E6FBE084918E
:1049A0008F010F5F1F4F882321F00E94B936F80155
:1049B000F6CFE8E5F5E084918F010F5F1F4F882364
:1049C00011F40C949A2D0E94B936F801F4CF88E4C2
:1049D0000E94D1348823A9F00E943F34603A7105C7
:1049E0003CF06530B1E07B072CF064E071E002C080
:1049F00060EA70E0F801EE0FFF1FE75BF04F718394
:104A0000608386E40E94D134882311F40C949A2D9B
:104A10000E943F34000F111FF801E35BF04F7183D8
:104A200060836F3F710519F014F06FEF70E077FF4E
:104A300002C060E070E0718360830C949A2D88EC72
:104A400090E00E949E3A81110C949A2D84E40E9479
:104A5000A2348823C1F10E946F3411E020E030E0DD
:104A6000A9010E9412F1811101C010E01093D90E2A
:104A7000112349F10E946F34E0913D0624E0E29F4A
:104A8000F0011124EB52F14F608371838283938391
:104A900020E030E0A9016091D50E7091D60E809192
:104AA000D70E9091D80E0E9412F181110CC080E0B7
:104AB00090E0A0EEBFE38093D50E9093D60EA09326
:104AC000D70EB093D80E0E943BC60C949A2DE6EFF9
:104AD000EE2EEEE0FE2E0FE812E0F4E0DF2ED00E18
:104AE000D8018D918D010E94A234882349F00E9443
:104AF0006F340E94A3F6F7016083718382839383EE
:104B0000F4E0EF0EF11CD012EBCF0E94C56F0C94B5
:104B10009A2DF4E0EF0EF11CD01611F40C949A2D9E
:104B2000D8018D918D010E94A234882391F30E94B7
:104B30006F34F7016083718382839383EACF83E5C7
:104B40000E94A2348823D9F00E946F34AB01BC01CB
:104B500040930E0F50930F0F6093100F7093110F2F
:104B60004093060F5093070F6093080F7093090F3F
:104B700084ED95E00E94446F8AE00E94B93680E59A
:104B80000E94A234882399F00E946F34AB01BC01CB
:104B900040930E0F50930F0F6093100F7093110FEF
:104BA00087EB95E00E94446F8AE00E94B93682E567
:104BB0000E94A234882399F00E946F34AB01BC019B
:104BC00040930A0F50930B0F60930C0F70930D0FCF
:104BD00088E995E00E94446F8AE00E94B93684E536
:104BE0000E94A234882309F4A5C70E946F34AB0148
:104BF000BC014093060F5093070F6093080F70930A
:104C0000090F8AE795E00E94446F8AE00E94B93656
:104C100091C783E50E94A234882351F00E946F342B
:104C20006093E20E7093E30E8093E40E9093E50E92
:104C300084E50E94A234882351F00E946F3460936F
:104C4000DE0E7093DF0E8093E00E9093E10E82E40F
:104C50000E94A234882351F00E942F346093CF0E1B
:104C60007093D00E8093D10E9093D20E88E50E945F
:104C7000A234882351F00E946F346093120F709316
:104C8000130F8093140F9093150F89E50E94A2349F
:104C9000882351F00E946F346093160F7093170FA2
:104CA0008093180F9093190F8AE50E94A2348823ED
:104CB00051F00E946F3460931A0F70931B0F809312
:104CC0001C0F90931D0F85E40E94A234882309F4E1
:104CD00031C70E946F3460931E0F70931F0F809333
:104CE000200F9093210F26C788E40E94A2348823C6
:104CF00051F00E946F346093F60B7093F70B809322
:104D0000F80B9093F90B8CE40E94A234882351F0A5
:104D10000E946F346093FA0B7093FB0B8093FC0B33
:104D20009093FD0B82E50E94A234882351F00E94EB
:104D30006F346093E60B7093E70B8093E80B9093CE
:104D4000E90B83E50E94A234882351F00E946F345E
:104D50006093CB0E7093CC0E8093CD0E9093CE0EBD
:104D600082E40E94A234882351F00E946F34609341
:104D7000D60B7093D70B8093D80B9093D90B88E503
:104D80000E94A234882351F00E946F346093DA0BA2
:104D90007093DB0B8093DC0B9093DD0B89E50E9415
:104DA000A234882351F00E946F346093DE0B70931D
:104DB000DF0B8093E00B9093E10B8AE50E94A23415
:104DC000882351F00E946F346093E20B7093E30BE1
:104DD0008093E40B9093E50B0E945884ABC64AEE97
:104DE000E42E4BE0F42E0FE812E053E0D52ED00E67
:104DF000D8018D918D010E94A234882381F00E94F8
:104E00006F3420E030E0A9010E9412F118163CF046
:104E10000E946F34F7016083718382839383F4E08F
:104E2000EF0EF11CD012E4CF85C684918F010F5F85
:104E30001F4F882321F00E94B936F801F6CF83E591
:104E40000E94A234882321F00E94603480937F0264
:104E5000E4E2F6E084918F010F5F1F4F882321F079
:104E60000E94B936F801F6CF80917F02811103C00C
:104E7000E0E2F6E002C0ECE1F6E084918F010F5F22
:104E80001F4F882321F00E94B936F801F6CFE4E1E4
:104E9000F6E084918F010F5F1F4F882321F00E945D
:104EA000B936F801F6CF2091420630914306409181
:104EB000440650914506609173027091740280918E
:104EC0007502909176020E945AF5AB01BC0182E115
:104ED00096E00E94446F209146063091470640912B
:104EE000480650914906609177027091780280914E
:104EF000790290917A020E945AF5AB01BC018FE0D1
:104F000096E00E94446F20914A0630914B064091F2
:104F10004C0650914D0660917B0270917C0280910D
:104F20007D0290917E020E945AF5AB01BC018CE09B
:104F300096E00E94446FE4E0F6E084918F010F5FF9
:104F40001F4F882321F00E94B936F801F6CF209137
:104F500042063091430640914406509145066091C7
:104F60006702709168028091690290916A020E94C2
:104F70005AF5AB01BC0182E096E00E94446F20919B
:104F80004606309147064091480650914906609187
:104F90006B0270916C0280916D0290916E020E9482
:104FA0005AF5AB01BC018FEF95E00E94446F209150
:104FB0004A0630914B0640914C0650914D06609147
:104FC0006F027091700280917102909172020E9442
:104FD0005AF5AB01BC018CEF95E00E94446F8AE06A
:104FE0000E94B936A7C583E50E94D134882309F40D
:104FF000A1C50E943F3470931402609313029AC5B6
:105000008DED90E00E949E3A811194C583E50E9447
:10501000D134882309F48EC500913D0610E00E942A
:105020003F34000F111FF801EF5EFD4F7183608365
:1050300080913D0690E08C01000F111F000F111FA1
:105040009801235F3D4F7901880F991FFC01EF5EA6
:10505000FD4F60817181072E000C880B990B0E9417
:1050600018F12AE037ED43E25CE30E9477F1F801A2
:10507000E053F44F20813181428153810E9477F1C6
:10508000D7016D937D938D939C93139753C580E5C2
:105090000E94A234882309F44DC50E943F346B015D
:1050A0007C0183E50E94D134882321F00E943F34A3
:1050B0008B0102C00FEF1FEFC8010196039708F0A4
:1050C00039C5D7FC37C59C2DE4E3F6E088E28E0FA6
:1050D0002491921709F42EC531968E13F9CF0C94B2
:1050E000413183E50E94D134882319F00E943F3476
:1050F00002C064E071E079A368A380E50E94D13426
:10510000882339F00E943F346938B3E17B0730F4DB
:1051100002C068EE73E07A83698304C088E893E193
:105120009A838983BE01605E7F4FCE0101960E9403
:105130004E4200C585E40E94D134811110C080E543
:105140000E94A234882391F00E946F346093380F3C
:105150007093390F80933A0F90933B0F07C00E94D2
:105160004F34882361F3E3E6FBE071C089E40E94D9
:10517000A234882381F00E946F342CEA35EC47E298
:105180005EE30E9477F16093400F7093410F80932C
:10519000420F9093430F84E40E94A234882381F04D
:1051A0000E946F342CEA35EC47E25EE30E9436F64B
:1051B00060933C0F70933D0F80933E0F90933F0F91
:1051C000E5EDF5E284918F010F5F1F4F882321F0F9
:1051D0000E94B936F801F6CF4091380F5091390F3F
:1051E00060913A0F70913B0F84E696E00E94446F05
:1051F0002CEA35EC47E25EE36091400F7091410F7D
:105200008091420F9091430F0E9436F6AB01BC0192
:1052100080E696E00E94276F2CEA35EC47E25EE3D9
:1052200060913C0F70913D0F80913E0F90913F0F28
:105230000E9477F1AB01BC018CE596E00E94276FDC
:105240008AE00E94B93676C40E94B936F80184918A
:105250008F010F5F1F4F8111F7CF04E213E0F801B8
:1052600081918F01882309F476C80E94B936F7CF5F
:1052700083E50E94A234182F882371F00E946F34B6
:105280000E949EF6709387026093860221E0672B4E
:1052900009F020E02093871280E50E94A234882341
:1052A00059F02091860230918702232B11F00E9441
:1052B0006034809387123EC411113CC4E5EDF5E2E1
:1052C00084918F010F5F1F4F882321F00E94B93610
:1052D000F801F6CF80918712811103C060E173E07D
:1052E00002C063E073E08DE796E00E947A6F609100
:1052F0008602709187028CE696E00E94616FE8E674
:10530000F6E084918F010F5F1F4F882309F412C4C8
:105310000E94B936F801F5CF85E40E94D134882384
:1053200021F00E943F347B0102C0E12CF12C83E488
:105330000E94D134882331F00E943F34ED966FAF44
:10534000ED9704C025E0ED962FAFED9785E50E941F
:10535000D134882319F00E94603403C085E50E948F
:10536000A234C857DF4F8883C858D040F7FC07C025
:10537000812C912CB6E1AB2EB3E4BB2E06C0812C60
:10538000912CACE8AA2EA2E4BA2E83E50E94D13477
:10539000882321F00E946F344B015C01E114F10479
:1053A00011F410923D060E940C742B013C01E11097
:1053B00003C005E313E00CC008E413E0D8018D91AD
:1053C0008D01882311F40C94AB210E94B936F6CFDD
:1053D000F80181918F01882319F00E94B936F8CF26
:1053E000C501B4010E949EF6072E000C880B990B94
:1053F0000E9418F12C966FAF2C9724967FAF2497BC
:1054000028968FAF289760969FAF6097A30192016F
:10541000205E314B4F4F5F4FCF56DF4F288339838C
:105420004A835B83C159D0408AE00E94B9360E940A
:10543000E3D98FE780933B0681E080930102C05857
:10544000DF4F488259826A827B82C058D040C7575A
:10545000DF4F488259826A827B82C958D040C15846
:10546000DF4F1882CF57D040C357DF4F18821982C1
:105470001A821B82CD58D04068961FAE689730E4E0
:105480006C963FAF6C974CE1A0964FAFA09756E457
:10549000AC965FAFAC97E0961FAEE097A4961FAEB8
:1054A000A497A8961FAEA897E4961FAEE497EC9633
:1054B0001CAE1DAE1EAE1FAEEC97E8961CAE1DAE28
:1054C0001EAE1FAEE897C12CD12C7601FFE78F2EC0
:1054D000912CA12CB12C8FE790E0A0E0B0E02396B6
:1054E0008CAF9DAFAEAFBFAF2397CC57DF4F1882C5
:1054F00019821A821B82C458D04091E0EF969FAF68
:10550000EF9765961FAE1EAE659710E0212C312CEB
:1055100000E0ED96AFADED970A2E000CBB0BEE96BA
:10552000BFAFAEAFEE9780910102882309F400C1AE
:105530000E940C746BAF7CAF8DAF9EAF8091A712B1
:10554000882309F4D1C00E94FBD910913E06209017
:105550003F063090400600914106212F322D432D09
:10556000502FE0966FADE097A4967FADA497A896D4
:105570008FADA897E4969FADE4970E9412F187FF44
:105580000CC0E0961FAFE097A4962FAEA497A89604
:105590003FAEA897E4960FAFE497212F322D432D0D
:1055A000502F68966FAD68976C967FAD6C97A096FC
:1055B0008FADA097AC969FADAC970E94CEF7181612
:1055C00064F468961FAF68976C962FAE6C97A096A0
:1055D0003FAEA097AC960FAFAC97EF96BFADEF97ED
:1055E0002C962FAD2C9724963FAD249728964FAD3F
:1055F000289760965FAD6097612F722D832D902F55
:10560000BB2309F455C00E94CEF718160CF06CC0ED
:105610004BAD5CAD6DAD7EAD44195509660977099A
:10562000DB01CA0188589341A109B109B7FD5CC0EB
:1056300023968CAD9DADAEADBFAD2397881999096A
:10564000AA09BB09B595A7959795879580933B06C1
:10565000CC57DF4F488359836A837B83C458D0403B
:105660002C96EFAD2C97E096EFAFE0972496FFAD28
:105670002497A496FFAFA49728962FAD2897A896B5
:105680002FAFA89760963FAD6097E4963FAFE49741
:105690008BAD9CADADADBEADC058DF4F8883998357
:1056A000AA83BB83C058D040EF961FAEEF971CC0B3
:1056B0000E9412F187FF18C08BAD9CADADADBEADA1
:1056C000C058DF4F288139814A815B81C058D04062
:1056D000821B930BA40BB50BAC01BD014858534181
:1056E0006109710977FF0BC420E030E040EA51E422
:1056F0002C966FAD2C9724967FAD249728968FAD6E
:10570000289760969FAD60970E945AF59B01AC0167
:10571000612F722D832D902F0E94CEF718167CF4E6
:10572000EFE8F7E084918F010F5F1F4F811103C0F5
:105730000E94E3D9FFC10E94B936F801F3CF8BADC7
:105740009CADADADBEADC757DF4F288139814A81D1
:105750005B81C958D040821B930BA40BB50BB7FDDE
:10576000B1C00E949A5E8AE00E94B9368BAD9CADB2
:10577000ADADBEAD8053984FAF4FBF4FC757DF4F52
:1057800088839983AA83BB83C958D040C158DF4F0F
:105790009881CF57D040911172C0C357DF4F2881F5
:1057A00039814A815B81CD58D040612F722D832D84
:1057B000902F0E94CEF718160CF04AC020E030E07F
:1057C00040EC50E42C966FAD2C9724967FAD249737
:1057D00028968FAD289760969FAD60970E9459F5E7
:1057E0009B01AC01A1E0C158DF4FA883CF57D04047
:1057F000612F722D832D902F0E94CEF718162CF05A
:10580000C158DF4F1882CF57D04020E030E040E051
:1058100050E4612F722D832D902F0E945AF5C357AB
:10582000DF4F688379838A839B83CD58D0402BAD2B
:105830003CAD4DAD5EAD205E314B4F4F5F4FCF560F
:10584000DF4F288339834A835B83C159D0403AC0F4
:105850008BAD9CADADADBEADCF56DF4F288139814C
:105860004A815B81C159D040821B930BA40BB50BBD
:10587000B7FD28C04FE657E060E877E020C020E0A1
:1058800030E040EA51E42C966FAD2C9724967FAD22
:10589000249728968FAD289760969FAD60970E94B9
:1058A00059F59B01AC01612F722D832D902F0E9421
:1058B00012F187FF07C04AE457E06FE577E080E028
:1058C0000E9411DA8BAD9CADADADBEAD880F991FB6
:1058D000AA1FBB1FC058DF4F288139814A815B81D5
:1058E000C058D040821B930BA40BB50B84199509AB
:1058F000A609B70981389F44A241B10568F0ECE2DE
:10590000F7E084918F010F5F1F4F882309F410CFB8
:105910000E94B936F801F5CF65964EAD5FAD65973B
:10592000EE968EAD9FADEE97841795070CF068C08C
:10593000EFECF6E084918F010F5F1F4F882321F079
:105940000E94B936F801F6CFB701A6018AEB96E0BE
:105950000E94446F8AE00E94B936E8964CAD5DAD76
:105960006EAD7FADE89785EA96E00E94446F8AE0CD
:105970000E94B936EC964CAD5DAD6EAD7FADEC9747
:1059800080E996E00E94446F8AE00E94B936C857C9
:10599000DF4F9881C858D040992309F4CBC0C092FA
:1059A000380FD092390FE0923A0FF0923B0F2CEA69
:1059B00035EC47E25EE3E8966CAD7DAD8EAD9FAD14
:1059C000E8970E9477F16093400F7093410F8093A6
:1059D000420F9093430F2CEA35EC47E25EE3EC96DE
:1059E0006CAD7DAD8EAD9FADEC970E9436F66093A9
:1059F0003C0F70933D0F80933E0F90933F0F9AC0E2
:105A00000E94FD7890CD0E9426A994C00E94A6967F
:105A100091C083E597D7882319F052D791E0892761
:105A20000E94899287C0E3E6FBE084918F010F5FBB
:105A30001F4F882321F00E94B936F801F6CFE3E02A
:105A4000F8E084918F010F5F1F4F882309F472C023
:105A50000E94B936F801F5CF81E080938802109258
:105A60000B0483E59ED7882311F02AD702C083E573
:105A700069D781115FC00E94D48D5CC0F090CB0DBE
:105A8000FF2029F1E5EDF5E284918F010F5F1F4FB3
:105A9000882321F00E94B936F801F6CF84E50E94F0
:105AA000B9366F2D70E080E090E04AE00E94383A0D
:105AB00080E20E94B93604E213E0D8018D918D0195
:105AC000882311F40C94AB210E94B936F6CF1092C2
:105AD0004E06E5EDF5E284918F010F5F1F4F88239D
