:100000000C9433190C9464190C9464190C946419AD
:100010000C9464190C9464190C9464190C9464196C
:100020000C9464190C9464190C9464190C9464195C
:100030000C9464190C9464190C9464190C9464194C
:100040000C9464190C94B7BC0C9464190C94641946
:100050000C9464190C9464190C9485ED0D94AF0BF9
:100060000C9464190C94853E0C9464190C946419D6
:100070000C9464190C9464190C9464190C9464190C
:100080000C9464190C9464190C9464190C946419FC
:100090000C9464190C9464190C9464190C946419EC
:1000A0000C9464190C9464190C9464190C946419DC
:1000B0000C9464190C9464190C9464190C946419CC
:1000C0000C9464190C9464190C9464190C946419BC
:1000D0000C9464190C9464190C9464190C946419AC
:1000E0000C9464198DDC73DC76DC79DC7CDC88DCD8
:1000F0007FDC99DC82DC85DC2C0150018E01F8006C
:100100008C019401F4006401E8001201AC01E200EA
:100110008601A20194011601DA00B00156019A018C
:100120009001D400EE0068014C015C017A0170017D
:10013000DE00D8001001D200680126014801440108
:10014000084AD73B3BCE016E84BCBFFDC12F3D6C3E
:1001500074319ABD56833DDA3D00C77F11BED9E4A4
:10016000BB4C3E916BAAAABE000000803F05A84C84
:10017000CDB2D44EB93836A9020C50B99186880850
:100180003CA6AAAA2ABE000000803F000C943BB9FE
:100190000C94FE8C0C9434FE0C948DDC0C9463C592
:1001A0000C9436B90D94380B0D94DD0A0C946590BF
:1001B0000D941F0B0D942B0A0C9473910D94150B39
:1001C0000C9446C60D94190A0C94BFB40C94DBB27F
:1001D0000D940B0A0C9473DC0C9409DA0D94E70A65
:1001E0000D945A0F0C94B6AD0D94010A0C9423C6CD
:1001F0000D94F0090C94498F0C94C18F0C940AAFA4
:100200000C9495C50C948A550C94BFAF0C945C5516
:100210000C94398C0C948BB50C9441AE0C94C8B7EB
:100220000D942E0B0D940F0A0C94F62F0D94270AA3
:100230000C94B3B40C9465C50C94DE940C942CF817
:100240000C94BAB90C9408C70C94C75D0D94420B7A
:100250000C9413B70C9400C60D94FA090C9479C54C
:100260000C94C6F20C9407B10C94A3300C9408B013
:100270000C94D2DA0C94C9F50C9431F80C9404B7B0
:100280000C94C3910C947FDC0D94560B0C94C49089
:100290000D944C0B0C94375A0D94F10A0C9476DCA7
:1002A0000D94FD090C9473550C9440B90D94C90A32
:1002B0000C94E7890D94BC160D94F90A0C942292C3
:1002C0000C94B1D40C9482DC0D94050A0C9488B57E
:1002D0000D94600B0C948EC90C942CB90C94D1968F
:1002E0000D940B0B0C94FBCB0C9406900C94CCC58A
:1002F0000C94748B0D94010B0C94C4F20C94AF8A83
:100300000C948EB50C9455D80C9488DC0D941D0A71
:100310000C94C1560C9423910D94F6090D94EC099C
:100320000D94D30A0C94B9B40D94340A0C9471AFA3
:100330000C9402B00D94CE0A0C942EF80C94E1B2F9
:100340000C947CDC0D94210A0C9405B00C9458C5D7
:100350000C9464960C94DEB20D94130A0C940EB7B0
:100360000D942F0A0C94888E0C9485DC0C942157E4
:100370000C9409B70C9405C70C9431B90C94F72F61
:100380000C9426570C94417B0C94C38D0C942EC571
:100390000C9499DC0C9479DC4E414E494E495459E9
:1003A000494E46CDCCCC3D0AD7233C17B7D1387740
:1003B000CC2B329595E6241FB14F0A000020410056
:1003C00000C84200401C4620BCBE4CCA1B0E5AAEA0
:1003D000C59D7400407A10F35A00A0724E180900AF
:1003E00010A5D4E80000E87648170000E40B54029A
:1003F0000000CA9A3B000000E1F5050000809698D5
:1004000000000040420F000000A086010000001024
:100410002700000000E80300000000640000000066
:10042000000A00000000000100000000002C76D847
:1004300088DC674F0823DFC1DFAE59E1B1B796E52D
:10044000E3E453C63AE651997696E8E6C28426EB91
:10045000898C9B62ED407C6FFCEFBC9C9F40F2BAA4
:10046000A56FA5F490055A2AF75C936B6CF9676D3C
:10047000C11BFCE0E40D47FEF520E6B500D0ED9091
:100480002E0300943577050080841E080000204E5E
:100490000A000000C80C333333330F986E128311F7
:1004A00041EF8D2114893BE65516CFFEE6DB18D1CE
:1004B000844B381BF77C1D901DA4BBE424203284A0
:1004C000725E228100C9F124ECA1E53D27434F4D26
:1004D0004D554E49434154494F4E0044525952558F
:1004E0004E004552524F525300494E464F0045432D
:1004F000484F0047322F4733206261642070617299
:10050000616D65746572730A00536F7370656E7305
:10051000696F6E652E2E2E005072656D69207461B4
:1005200073746F2E2E004E657373756E204D6F764B
:10053000696D656E746F00456E642066696C652038
:100540006C6973740A00426567696E2066696C6540
:10055000206C6973740A004D31323500286E6F20AB
:1005600066696C6529005344207072696E74696E07
:1005700067206279746520004E6F742053442070A8
:1005800072696E74696E670A0043757272656E7483
:100590002066696C653A20005072696E7420746937
:1005A0006D653A200046696C616D656E74207573E7
:1005B00065643A200053746174733A20002C204C17
:1005C0006F6E67657374206A6F623A2000546F74AF
:1005D000616C2074696D653A200053746174733ADC
:1005E00020002C204661696C65643A20002C20466E
:1005F000696E69736865643A20005072696E74733D
:100600003A200053746174733A2000EE04E904E266
:1006100004DB04CD046F66660044454255473A004A
:1006200055434349534F2E20004D31313320530061
:100630006F6B0044432D3230204643207234204FEC
:1006400066662E002C20002C2000544845524D4157
:100650004C5F50524F54454354494F4E00415554FE
:100660004F5245504F52545F53445F535441545579
:100670005300454D455247454E43595F50415253F3
:10068000455200434153455F4C494748545F4252ED
:10069000494748544E45535300544F47474C455FD4
:1006A0004C494748545300534F4654574152455FB5
:1006B000504F574552004255494C445F50455243B4
:1006C000454E54004C4556454C494E475F444154B5
:1006D00041005A5F50524F4245004155544F4C45DE
:1006E00056454C005052494E545F4A4F42005052BA
:1006F0004F4752455353004155544F5245504F5266
:10070000545F54454D5000564F4C554D4554524939
:100710004300454550524F4D0053455249414C5FAF
:10072000584F4E5F584F4646004649524D5741522A
:10073000455F4E414D453A4D61726C696E20312ED8
:10074000312E3920284769746875622920534F5526
:100750005243455F434F44455F55524C3A68747469
:1007600070733A2F2F6769746875622E636F6D2FEF
:100770004D61726C696E4669726D776172652F4D5D
:1007800061726C696E2050524F544F434F4C5F560C
:10079000455253494F4E3A312E30204D414348493E
:1007A0004E455F545950453A44432D32302046431C
:1007B0002072342045585452554445525F434F559A
:1007C0004E543A3220555549443A63656465326166
:1007D00032662D343161322D343734382D3962315F
:1007E000322D6335356336326633363766660A0036
:1007F0002F2F20004D31343520533C696E646578CD
:100800003E206F7574206F662072616E67652028C8
:10081000302D31290A0020540020520041636365C5
:100820006C65726174696F6E3A205000205A002026
:100830005900580020204D61783A2000205A0020AD
:100840005900580020204D696E3A20004F6E20005C
:100850004F666600536F667420656E6473746F70C4
:10086000733A200020466C6F773A2000000136373B
:1008700026FF02FFFF353C3D38FF0FFFFF312E30D2
:100880003E1213FFFFFF28FF0C0809FFFFFF1A1C91
:1008900018FFFF2A24221EFFFF2C08440AFF4320D2
:1008A000643A0020693A0020703A00496E76616C23
:1008B00069642065787472756465720A0043290A58
:1008C0000061626C656420286D696E2074656D70CE
:1008D0002000436F6C6420657874727564657320C2
:1008E00061726520004E6F2063617365206C6967DB
:1008F00068740A00454550524F4D204F4B0A002561
:1009000069730025696D20256973002569682025B4
:10091000696D202569730025696420256968202593
:10092000696D202569730025697920256964202572
:1009300069682025696D2025697300656E7175658C
:100940007565696E6720220020496E76616C696466
:1009500020657874727564657220000000BEC20064
:1009600000BEC2000000000000BE420000BE420007
:1009700000664300000000000000000000824320E9
:10098000200020205261646975733A00547A005443
:10099000790054780020205261646975733A0045EB
:1009A0007A004579004578002E4865696768743A91
:1009B000007879007A7800797A00207A002079002E
:1009C00020780063002E2020202000253033692E5F
:1009D0007800302E25303369002073643A00737438
:1009E00064206465763A00737464206465763A0026
:1009F0004E6F20636F6E76657267656E6365004942
:100A00007465726174696F6E203A20253032690016
:100A1000536176652077697468204D3530302061E8
:100A20006E642F6F7220636F707920746F20436F34
:100A30006E66696775726174696F6E2E6800253025
:100A400033692E7800302E253033690043616C699C
:100A500062726174696F6E2073643A00737464200B
:100A60006465763A0043616C6962726174696F6EA5
:100A7000204F4B00456E64204452592D52554E0074
:100A8000436F72726563742064656C746120736572
:100A90007474696E67732077697468204D363635D3
:100AA00020616E64204D3636360A002028445259A3
:100AB0002D52554E29003F284D36363520422965A6
:100AC000642072616469757320697320696D706C4C
:100AD00061757369626C652E0A00436865636B69B2
:100AE0006E672E2E2E20414300473333204175740C
:100AF0006F2043616C6962726174650A003F285619
:100B0000296572626F7365206C6576656C20697308
:100B100020696D706C61757369626C652028302D79
:100B200033292E0A003F2846296F726365206974B5
:100B300065726174696F6E20697320696D706C6194
:100B4000757369626C652028302D3330292E0A00B8
:100B50003F284329616C6962726174696F6E20700D
:100B60007265636973696F6E20697320696D706C5B
:100B700061757369626C6520283E3D30292E0A003C
:100B80003F2850296F696E747320697320696D70F6
:100B90006C61757369626C652028302D3130292EA7
:100BA0000A00496E206D6F76696D656E746F2E2E2A
:100BB0002E004573747275736F72653200457374DD
:100BC0007275736F726531004573747275736F72ED
:100BD00065004175746F20486F6D650047323800BD
:100BE0004D756F7669205A005859206C696265729C
:100BF00069004D756F76692059004D756F766920D3
:100C000058004573636900496E697A69616C697A55
:100C10007A6120454550524F4D004573636900523B
:100C2000697072697374696E6120696D702E00431A
:100C30006172696361206461206D656D6F726961C5
:100C400000496E697A69616C697A7A61204545501C
:100C5000524F4D0053616C766120696E206D656D59
:100C60006F7269610046696C616D656E746F004DED
:100C70006F76696D656E746F0054656D7065726135
:100C800074757261004573636900507265726973AF
:100C90002E41425320636F6E660050726572697315
:100CA0002E504C4120636F6E66005049442D440025
:100CB0005049442D44005049442D49005049442D89
:100CC00049005049442D50005049442D5000022005
:100CD00046616374000220466163740002204D6126
:100CE000780002204D61780002204D6178000220DA
:100CF0004D696E0002204D696E0002204D696E0044
:100D00004F6666004F6E20004175746F74656D709C
:100D10000056656C6F636974612076656E746F6CE4
:100D2000610056656C6F636974612076656E746FDF
:100D30006C610056656C6F636974612076656E74D2
:100D40006F6C61005567656C6C6F005567656C6C06
:100D50006F005567656C6C6F004573636900536184
:100D60006C766120696E206D656D6F7269610055EA
:100D700067656C6C6F005567656C6C6F00556765D7
:100D80006C6C6F0056656C6F636974612076656E7C
:100D9000746F6C610056656C6F6369746120766571
:100DA0006E746F6C610056656C6F63697461207658
:100DB000656E746F6C610054656D706572617475F9
:100DC000726100534420436172642072696D6F73D5
:100DD0007361005344204361726420696E736572CD
:100DE00069746100486F6D65202573257325732034
:100DF0007072696D6100207072696D610A005A003D
:100E000059005800486F6D6520005344206361729B
:100E100064206F6B0A006F70656E526F6F7420668E
:100E200061696C65640A00766F6C756D652E696E1C
:100E30006974206661696C65640A00534420696EB8
:100E40006974206661696C0A0057726974696E671B
:100E500020746F2066696C653A20006F70656E20A3
:100E60006661696C65642C2046696C653A20006F88
:100E700070656E206661696C65642C2046696C65DE
:100E80003A200046696C652073656C65637465641F
:100E90000A002053697A653A200046696C65206F24
:100EA00070656E65643A20002066696C653A2000C2
:100EB000646F696E67006672657368004E6F7720B5
:100EC00000454E4420535542524F5554494E450A11
:100ED000002220706F73002220706172656E743A78
:100EE0002200535542524F5554494E452043414CE0
:100EF0004C207461726765743A220055434349532C
:100F00004F2E2000747279696E6720746F206361C0
:100F10006C6C207375622D67636F64652066696C05
:100F20006573207769746820746F6F206D616E79C6
:100F3000206C6576656C732E204D4158206C65766B
:100F4000656C2069733A00642E0A00206661696C42
:100F500065642E0A00506F7765722D6C6F73732075
:100F600066696C652064656C6574650046696C65CE
:100F70002064656C657465643A0044656C657469E9
:100F80006F6E206661696C65642C2046696C653AF9
:100F900020006F70656E206661696C65642C204668
:100FA000696C653A2000454550524F4D206461748C
:100FB0006173697A65206572726F722E0A00290A60
:100FC000002062797465733B20637263200053656F
:100FD0007474696E67732053746F7265642028009F
:100FE000290A002062797465733B206372632000D4
:100FF0002073746F7265642073657474696E6773AF
:101000002072657472696576656420280020286303
:10101000616C63756C6174656429210A0020213D4F
:101020002000454550524F4D20435243206D697377
:101030006D61746368202D202873746F7265642954
:1010400020002053697A653A2000496E6465783A39
:101050002000204D61726C696E3D563536290A00BC
:1010600028454550524F4D3D00454550524F4D206B
:1010700076657273696F6E206D69736D61746368F4
:10108000200020746F6F206C6F6E6720657874721B
:101090007573696F6E2070726576656E7465640A2B
:1010A0000020636F6C6420657874727573696F6E6D
:1010B0002070726576656E7465640A00202055673D
:1010C000656C6C6F3A200064692066696C616D65BF
:1010D0006E746F0064656C2063616D62696F0041BE
:1010E0007474656E6465726520617676696F002040
:1010F000205567656C6C6F3A200064656C206669EA
:101100006C616D656E746F006C27657370756C73C0
:10111000696F6E6500417474656E64657265002068
:10112000205567656C6C6F3A2000417474656E647D
:101130006572652E2E2E0052697363616C642E20D9
:101140007567656C6C6F0020205567656C6C6F3A35
:10115000200072697363616C64207567656C6C6FE5
:101160002E005072656D69207065720020205567F1
:10117000656C6C6F3A20007072656D6920706572E5
:1011800020636F6E740066696C616D656E746F20AC
:101190006500496E7365726973636920696C00202C
:1011A000205567656C6C6F3A200064656C20666939
:1011B0006C616D656E746F00696C20636172696348
:1011C000616D656E746F00417474656E64657265FF
:1011D0000020205567656C6C6F3A200064656C20B8
:1011E00066696C616D656E746F006C6F20737075ED
:1011F00072676F00417474656E6465726500646542
:101200006C6C61207374616D7061006C6120726937
:10121000707265736100417474656E646572650017
:101220001000AA03F0013A019002220130031001DC
:10123000D00302017004F7001005ED00B005E500D1
:101240005006DD00F006D7009007D1003008CC0032
:10125000D008C7007009C300100ABE00B00ABB0066
:10126000500BB700F00BB300900CB000D00DAA00EB
:10127000100FA5005010A00090119B00D0129600F6
:10128000B014900090168B0070188500501A8000E2
:10129000301C7B00B01E750030216F00B023690048
:1012A0003026640010285F00902A5A00702C5500E8
:1012B000F02E4F0070314800B0324500F03341004D
:1012C00070363900103737005038330090392D0010
:1012D000D03A2700B03C1C00503D1700F03D1100F3
:1012E000903E0900D03FE5FF203FECED3F5C7C3FA6
:1012F0002263617F3F3F52B0DF3F323327E4F1A5E5
:101300002C31DF7E3F3F3F3F3F3F3F3FE13F3F3F8D
:101310003F3F3F3F3F3F3F3F3F3F3F3F3F3FEF78F4
:101320003F3F3F3FF53F3FE23F3F3F3FE13F3F3FD2
:101330003F3F3F3F3F3F3F3F3FEE3F3F3F3FEFFDA0
:101340003F3F3F3FF53F3F3F00101010101010008F
:101350000014141414141400001515151515150097
:10136000001C1F11111F0000000E191803130E009E
:10137000040E1F041C000000000E1517110E0000C3
:10138000070F1810040201001F0E1F0E1F0A040091
:101390000C12120C0000000009120912000E1F00AE
:1013A00000000000010204040000001C1C0C0404E6
:1013B000040201000000000004081000000000000A
:1013C00025753A2530327500253032753A25303290
:1013D00075002D2D2D0053440044432D32302046FE
:1013E000432072342070726F6E746F2E00537461DC
:1013F0006D706120696E20636F72736F2E2E2E00E8
:101400005374616D706120736F7370657361004D0B
:10141000313235004D3234005374616D706120619A
:101420006E6E756C6C617461004739310A4730200B
:10143000452D3135204631303030300A4731205A81
:10144000320A47342050333030300A47302045319B
:10145000342E37204631303030300A473120452D88
:1014600036392E37204631303030300A4732380A8C
:101470004D353234004F706572617A696F6E692044
:10148000636F6D756E69005265676F6C61004176C0
:10149000766961205374616D706100417272657389
:1014A0007461207374616D70610052697072656E51
:1014B0006469207374616D7061004D616E7574654F
:1014C0006E7A696F6E650050617573612065207377
:1014D000616C76610053636865726D617461205060
:1014E00072696E6369702E00627573793A2070615B
:1014F0007573656420666F7220696E7075740A007A
:10150000627573793A2070617573656420666F72D5
:1015100020757365720A00627573793A2070726F74
:1015200063657373696E670A0055434349534F2ED1
:1015300020004B494C4C20636175736564206279CF
:1015400020746F6F206D75636820696E61637469C4
:1015500076652074696D65202D2063757272656EE5
:101560007420636F6D6D616E643A2000526961761C
:10157000766961726520707265676F005354414DE2
:1015800050414E5445204645524D41544100507201
:10159000696E7465722068616C7465642E206B6975
:1015A0006C6C28292063616C6C6564210A00000062
:1015B00048430000484300004843000000005761D2
:1015C000726E696E673A20486F6D696E672042756A
:1015D0006D702044697669736F72203C20310A0077
:1015E0000A0A0A0000A0400000A0400000A040003D
:1015F000003E4300003E4300006643010101416399
:10160000746976652045787472756465723A200055
:101610004D33310053442072656164206572726FEE
:10162000720A00446F6E65207072696E74696E672D
:101630002066696C650A0055434349534F2E2000CC
:1016400041525245535441544F2E20005072696EFE
:101650007465722073746F707065642064756520A2
:10166000746F206572726F72732E204669782074D1
:101670006865206572726F7220616E642075736593
:10168000204D39393920746F20726573746172741A
:101690002E202854656D70657261747572652069BD
:1016A000732072657365742E2053657420697420ED
:1016B00061667465722072657374617274696E67B5
:1016C000290A004E6F20436865636B73756D207740
:1016D000697468206C696E65206E756D6265722C28
:1016E000204C617374204C696E653A20004E6F2067
:1016F000436865636B73756D2077697468206C69E6
:101700006E65206E756D6265722C204C617374205D
:101710004C696E653A2000636865636B73756D2074
:101720006D69736D617463682C204C617374204C17
:10173000696E653A20004C696E65204E756D626574
:1017400072206973206E6F74204C617374204C6931
:101750006E65204E756D6265722B312C204C617365
:1017600074204C696E653A20004D31313000507262
:101770006F7465637465642050696E0A0020573A7F
:101780000045205261666672656464616D656E74C1
:101790006F2E2E00452052697363616C64616D6524
:1017A0006E746F2E2E2E00205A3A0020593A0020D7
:1017B000436F756E7420583A0020453A00205A3A1B
:1017C0000020593A00583A003A004361703A002329
:1017D000646566696E652044454641554C545F4BCF
:1017E00064200023646566696E6520444546415562
:1017F0004C545F4B69200023646566696E65204424
:10180000454641554C545F4B70200050494420419F
:1018100075746F74756E652066696E69736865644A
:10182000212050757420746865206C617374204B9E
:10183000702C204B6920616E64204B6420636F6EB6
:101840007374616E74732066726F6D2062656C6F65
:101850007720696E746F20436F6E66696775726179
:1018600074696F6E2E680A00504944204175746F88
:1018700074756E65206661696C6564212074696D9C
:10188000656F75740A0045312054454D502046550A
:101890004F524920434F4E54524F4C4C4F005468C6
:1018A00065726D616C2052756E61776179004531AA
:1018B0002052697363616C642E2046616C6C69749C
:1018C0006F0048656174696E67206661696C656464
:1018D00000504944204175746F74756E65206661CF
:1018E000696C6564212054656D70657261747572F0
:1018F0006520746F6F20686967680A00204B643A3E
:101900002000204B693A2000204B703A20000A202A
:10191000436C617373696320504944200A0020546A
:10192000753A2000204B753A2000206D61783A20EE
:1019300000206D696E3A200020643A200020626920
:1019400061733A2000504944204175746F74756E7C
:1019500065206661696C6564212054656D706572EF
:10196000617475726520746F6F20686967680A001A
:10197000504944204175746F74756E6520737461AD
:1019800072740A00504944204175746F74756E6515
:10199000206661696C656421204261642065787409
:1019A0007275646572206E756D6265720A00496EAB
:1019B000736572742066696C616D656E7420616E0A
:1019C0006420707265737320627574746F6E0A00A0
:1019D000507265737320627574746F6E20746F201B
:1019E00068656174206E6F7A7A6C650A00496E735F
:1019F0006572742066696C616D656E7420616E64D9
:101A000020707265737320627574746F6E20286F16
:101A100072204D313038290A00496E76616C696454
:101A20002065787472756465720A0043616E6E6F2A
:101A30007420656E746572207375626469723A20F1
:101A400000052E2E00457363690000546F74616CAD
:101A500065206573747275736F3A2000256C642E6F
:101A600025696D00004C61766F726F207069C3B993
:101A7000206C756E676F3A20000054656D706F20A2
:101A8000746F74616C653A2000436F6D706C65749F
:101A90006174693A2000436F6E7461742E20737410
:101AA000616D70613A200054656D70206D61783A07
:101AB000203237350054656D70206D696E3A2035DF
:101AC0000054303A20312520626574612033393565
:101AD0003000416C696D656E7461746F72653A2097
:101AE00047656E657269630050726F746F636F6CE7
:101AF0006C6F3A20312E3000426175643A203235E5
:101B0000303030300052414D505320312E3400459A
:101B100073747275736F72693A20320068747470EE
:101B20003A2F2F6D61726C696E66772E6F72670047
:101B300044432D3230204643207234003230313855
:101B40002D30382D303100312E312E39004D61725B
:101B50006C696E00537461746973746963686500BD
:101B60005465726D6973746F726900496E666F2E89
:101B70002073636865646100496E666F2E2073741C
:101B8000616D70616E74650045736369004D373037
:101B90003220542564004D36303020423020542508
:101BA00064004D373032203B2564004D3730312002
:101BB000542564004D3630302042302054310043EB
:101BC000616D6269612066696C616D656E746F201C
:101BD0004532004D363030204230205430004361D1
:101BE0006D6269612066696C616D656E746F204518
:101BF000310045736369005354414D504120494EB3
:101C00002050415553410052494D554F56492046A9
:101C1000494C414D454E544F0043415249434120A8
:101C200046494C414D454E544F004C6962657261C6
:101C3000206469207069750052697072656E64690C
:101C4000207374616D7061004F505A494F4E493A8C
:101C500000426172726120446961676F6E616C65F8
:101C600000426172726120446961676F6E616C65E8
:101C700000547A00547A0054790054790054780062
:101C800054780052616767696F0052616767696FD6
:101C900000457A00457A004579004579004578008D
:101CA000457800416C74657A7A6100416C74657A9C
:101CB0007A61004573636900496D706F7374617A6E
:101CC0002E2044656C746100496D702E20616C7427
:101CD000657A7A612044656C7461004D3636352032
:101CE000483236302E30300A4733332050310A4DD7
:101CF000353030004175746F2063616C69627261C8
:101D00007A696F6E65004D36363520483236302E92
:101D100030300A4D363636205830205930205A306F
:101D20000A4733332050332054310A4D35303000C8
:101D300045736369004D756F76692058004D756F66
:101D400076692059004D756F7669205A0045737485
:101D50007275736F726532004573747275736F724A
:101D60006531004D756F766920646920302E316DC4
:101D70006D004D756F7669206469202020316D6D8E
:101D8000004D756F7669206469202031306D6D00DB
:101D90004D756F7669204173736500457374727574
:101DA000736F7265004D756F7669205A004D756FBF
:101DB00076692059004D756F766920580024F4D457
:101DC0003050C38E20C2A24017828B7011127A91BC
:101DD0000D816CD90AA861E108C7586607615143B3
:101DE000061E4B5D05C145A7041A411104093D9823
:101DF00003713931034036DB0265339102D430542C
:101E000002802E1D02632CEE01752AC501B028A0A8
:101E100001102781018F2564012B244B01E022341E
:101E200001AC211F018D200D01801FFC00841EEDDF
:101E300000971DDF00B81CD200E61BC600201BBCAB
:101E400000641AB200B219A8000A19A0006A189911
:101E500000D117910040178B00B516840031167E13
:101E600000B31579003A157300C7146F0058146A4F
:101E700000EE1366008813630025135E00C7125B33
:101E8000006C12570015125400C111510070114F0F
:101E90000021114B00D61049008D10470046104418
:101EA0000002104200C00F4000800F3E00420F3C75
:101EB00000060F3B00CB0E3800930E37005C0E354A
:101EC00000270E3400F30D3200C10D3100900D30AB
:101ED00000600D2E00320D2D00050D2C00D90C2BAD
:101EE00000AE0C2900850C29005C0C2700350C275E
:101EF000000E0C2600E80B2400C40B2400A00B23CA
:101F0000007D0B23005A0B2100390B2100180B20F8
:101F100000F80A1F00D90A1E00BB0A1E009D0A1DF8
:101F200000800A1D00630A1C00470A1B002C0A1BC4
:101F300000110A1A00F7091A00DD091900C409196D
:101F400000AB091900920917007B091800630917F3
:101F5000004C09160036091600200916000A09155A
:101F600000F5081500E0081400CC081400B80814A7
:101F700000A4081400900813007D0812006B0813D9
:101F800000580812004608120034081100230811F6
:101F9000001208110001081100F0071000E00710FE
:101FA00000D0071000C0071000B0070F00A10710F5
:101FB0000091070E0083070F0074070F0065070EDE
:101FC0000057070E0049070E003B070D002E070EB5
:101FD0000020070D0013070D0006070D00F9060C81
:101FE00000ED060D00E0060C00D4060C00C8060C3F
:101FF00000BC060C00B0060C00A4060B0099060CF1
:10200000008D060B0082060B0077060B006C060B9A
:102010000061060A0057060B004C060A0042060A39
:102020000038060A002E060A0024060A001A060ACC
:10203000001006090007060A00FD050900F405095D
:1020400000EB050900E2050900D9050900D00509E2
:1020500000C7050900BE050900B5050800AD050863
:1020600000A50509009C050800940508008C0508DA
:1020700000840508007C050800740508006C05074D
:1020800000650508005D050700560508004E0507B8
:10209000004705070040050800380507003105071F
:1020A000002A050700230507001C05060016050782
:1020B000000F0507000805060002050700FB0406DF
:1020C00000F5040700EE040600E8040600E2040739
:1020D00000DB040600D5040600CF040600C9040690
:1020E00000C3040600BD040600B7040600B10405E1
:1020F00000AC040600A6040600A00405009B04062C
:102100000095040500900406008A04050085040576
:1021100000800406007A04050075040500700405BB
:10212000006B04050066040500610405005C0405FD
:102130000057040500520405004D0405004804053D
:1021400000430405003E0404003A0405003504057C
:1021500000300404002C04050027040400230405B7
:10216000001E0404001A04040016040500110404EF
:10217000000D040400090405000404040000040424
:1021800000FC030400F8030400F4030400F003045B
:1021900000EC030400E8030400E4030400E003048B
:1021A00000DC030400D8030400D4030400D00304BB
:1021B00000CC030400C8030300C503030024F40497
:1021C000D9201BC40C5C0E9804C4095F026507711A
:1021D00001F405F900FB04B30048048700C103695A
:1021E000005803550003034500BE023A0084023143
:1021F0000053022A002902250004022000E4011CE9
:1022000000C8011900AF01170098011400840113E0
:1022100000710110006101100051010E0043010D19
:102220000036010B002B010B0020010B00150109EA
:10223000000C01090003010800FB000800F300087E
:1022400000EB000700E4000600DE000600D80006F0
:1022500000D2000600CC000500C7000500C2000542
:1022600000BD000400B9000400B5000400B1000482
:1022700000AD000400A9000400A5000300A20003B3
:10228000009F0004009B00030098000300950002DB
:102290000093000300900003008D0002008B0003F8
:1022A0000088000200860002008400030081000212
:1022B000007F0002007D0002007B00020079000226
:1022C0000077000100760002007400020072000135
:1022D00000710002006F0002006D0001006C00023E
:1022E000006A000100690002006700010066000149
:1022F000006500010064000200620001006100014D
:1023000000600001005F0002005D0001005C000150
:10231000005B0001005A0001005900010058000153
:102320000057000100560001005500010054000153
:102330000053000000530001005200010051000151
:1023400000500001004F0001004E0000004E00014F
:10235000004D0001004C0001004B0000004B00014B
:10236000004A000100490001004800000048000147
:102370000047000100460000004600010045000043
:10238000004500010044000100430000004300013B
:102390000042000000420001004100000041000135
:1023A00000400001003F0000003F0001003E00002F
:1023B000003E0001003D0000003D0001003C000027
:1023C000003C0000003C0001003B0000003B00011D
:1023D000003A0000003A0001003900000039000115
:1023E000003800000038000000380001003700000D
:1023F0000037000100360000003600000036000102
:1024000000350000003500000035000100340000F8
:1024100000340000003400010033000000330000ED
:1024200000330001003200000032000000320001E1
:1024300000310000003100000031000100300000D8
:102440000030000000300001002F0000002F0000CD
:10245000002F0000002F0001002E0000002E0000C1
:10246000002E0001002D0000002D0000002D0000B6
:10247000002D0001002C0000002C0000002C0000AA
:10248000002C0001002B0000002B0000002B00009E
:10249000002B0001002A0000002A0000002A000092
:1024A000002A000100290000002900000029000086
:1024B0000029000000290001002800000028000079
:1024C000002800000028000000280001002700006C
:1024D000002700000027000000270000002700015F
:1024E0000026000000260000002600000026000054
:1024F0000026000100250000002500000025000046
:102500000025000000250000002500010024000037
:10251000002400000024000000240000002400012A
:10252000002300000023000000230000002300001F
:10253000002300000023000000230001002200000F
:102540000022000000220000002200000022000003
:1025500000220001002100000021000000210000F5
:1025600000210000002100000021000000210001E6
:1025700000200000002000000020000000200000DB
:1025800000200000002000000020000000200001CA
:10259000001F0000001F0000001F0000001F0000BF
:1025A000001F0000001F0000001F0001001E0000AF
:1025B000001E0000001E0000001E00000004370086
:1025C000001E290000511B000058100000100900D7
:1025D00000CC04000078020000410100002D2D2DE8
:1025E0002D2D2D2D2D2D2D2D2D007C44656C7461F0
:1025F000636F6D622033447C002D2D2D2D2D2D2DEC
:102600002D2D2D2D2D004D61726C696E20465720A9
:1026100076312E312E39004D61726C696E2046572D
:102620002076312E312E390044432D323020464C55
:10263000555820434150414349544F520044432D83
:10264000323020464C555820434150414349544F65
:102650005200002020506C616E6E65724275666695
:10266000657242797465733A200020467265652070
:102670004D656D6F72793A2000436F6D70696C65BE
:10268000643A204A616E20203720323032300A000E
:10269000207C20417574686F723A20286E6F6E65D9
:1026A0002C2064656661756C7420636F6E66696763
:1026B000290A00323031382D30382D303100204C8D
:1026C00061737420557064617465643A2000312E22
:1026D000312E390A004D61726C696E0020536F66AD
:1026E00074776172652052657365740A00205761C2
:1026F000746368646F672052657365740A002042D2
:10270000726F776E206F75742052657365740A005E
:102710002045787465726E616C2052657365740A29
:1027200000506F77657255700A0073746172740A95
:10273000006175746F25692E67006572726F722073
:1027400077726974696E6720746F2066696C650AB8
:1027500000456E6473746F70202563202563202507
:102760006320256300205A3A0020593A0020583A45
:1027700000656E6473746F7073206869743A20002A
:10278000446F6E6520736176696E672066696C655B
:102790002E0A004D323900494E56414C49442044DE
:1027A000415441004D32342053256C642054256C33
:1027B00064004D3233202573004739300047312003
:1027C00045256900473931004739322E30205A25D6
:1027D00073204525730047312058257320592573F0
:1027E000205A257320463530303000496E697420F8
:1027F0006A6F62207265636F7665727920696E66B2
:102800006F2E2053697A653A20004D3130362050C2
:10281000256920532569004D313039205325690041
:10282000473238205230004D3432302053300020AF
:102830005344206E6F6E2070726573656E74650010
:1028400052697072656E6469207374616D706100A5
:102850005374616D7061206461205344004D656E56
:1028600075207072696E636970616C650044617493
:1028700069207374616D70616E746500496D706F6D
:102880007374617A696F6E690043616C6962726129
:102890007A2E2044656C7461004D656E75207072EF
:1028A000696E636970616C650043616D6269612086
:1028B00066696C616D656E746F00466C7573736FDD
:1028C000203200466C7573736F203200466C75734E
:1028D000736F203200466C7573736F203100466C45
:1028E0007573736F203100466C7573736F20310000
:1028F000466C7573736F00466C7573736F00466C2E
:102900007573736F0056656C6F63697461207665CB
:102910006E746F6C610056656C6F636974612076CC
:10292000656E746F6C610056656C6F6369746120CD
:1029300076656E746F6C61005567656C6C6F0055E1
:1029400067656C6C6F005567656C6C6F0056656CE5
:102950006F63697461270056656C6F6369746127E2
:102960000056656C6F6369746127004D656E752054
:102970007072696E636970616C650050726572692E
:102980007363616C646120504C41005072657269E0
:102990007363616C646120414253005261666672E8
:1029A000656464610043616D6269612066696C61A0
:1029B0006D656E746F004469736162696C697461FE
:1029C000204D6F746F7269004D3834004175746F1B
:1029D00020486F6D6500473238004D756F7669206D
:1029E00041737365004D656E75207072696E636921
:1029F00070616C65007C3C3E5E2B3D3F2F5B5D3B18
:102A00002C2A225C0056652D6A65726B0056652D76
:102A10006A65726B0056652D6A65726B0056632D90
:102A20006A65726B0056632D6A65726B0056632D82
:102A30006A65726B0056622D6A65726B0056622D74
:102A40006A65726B0056622D6A65726B0056612D65
:102A50006A65726B0056612D6A65726B0056612D56
:102A60006A65726B004D6F76696D656E746F0045B7
:102A700070617373692F6D6D004570617373692F99
:102A80006D6D004370617373692F6D6D00437061EC
:102A90007373692F6D6D004270617373692F6D6D73
:102AA000004270617373692F6D6D004170617373C3
:102AB000692F6D6D004170617373692F6D6D004DED
:102AC0006F76696D656E746F0050617373692F6DF9
:102AD0006D004A65726B00416363656C6572617A73
:102AE000696F6E650056656C6F636974C3A00045BD
:102AF00073636900436172696361206D6D20320008
:102B0000436172696361206D6D20320043617269B7
:102B10006361206D6D203200436172696361206DD5
:102B20006D203100436172696361206D6D20310059
:102B3000436172696361206D6D2031004361726988
:102B40006361206D6D00436172696361206D6D008A
:102B5000436172696361206D6D0052696D756F76B6
:102B600069206D6D20320052696D756F7669206D38
:102B70006D20320052696D756F7669206D6D20325F
:102B80000052696D756F7669206D6D203100526954
:102B90006D756F7669206D6D20310052696D756FAE
:102BA0007669206D6D20310052696D756F766920F0
:102BB0006D6D0052696D756F7669206D6D0052699B
:102BC0006D756F7669206D6D004469616D2E2066AC
:102BD000696C6F2032004469616D2E2066696C6FEC
:102BE0002032004469616D2E2066696C6F203100CF
:102BF0004469616D2E2066696C6F20310044696103
:102C00006D2E2066696C6F004469616D2E206669C7
:102C10006C6F004F6666004F6E20004520696E2085
:102C20006D6D3300457363690000002000230026AA
:102C30000029002C002F00320000010000030106D3
:102C40000109010505050507050808080802020233
:102C5000020A0A0808040404040101010101010137
:102C6000010303030303030303040707070C0C0C0E
:102C70000C0C0C0C0C0202020206060606060606E6
:102C8000060B0B0B0B0B0B0B0B0102102020080883
:102C900010204010204080020102010804020101BE
:102CA00002040810204080804020100804020180A7
:102CB00004020180402010080402010804020101FE
:102CC0000204081020408001020408102040800007
:102CD000000A0B02090C0D0E080703040100000096
:102CE00000000000000000000000000000000000E4
:102CF00000000000000000000000001211100000A1
:102D000000000000000000000000000000000000C3
:102D1000000000000043616D6269612066696C61BA
:102D20006D656E746F0050726572697363616C6477
:102D300061204142530050726572697363616C6433
:102D40006120504C410043616D6269612066696C8D
:102D5000616D656E746F004D3234004D3233202545
:102D60007300556E6B6E6F776E20636F6D6D616E65
:102D7000643A202200496E736572742066696C6142
:102D80006D656E7420616E6420707265737320626D
:102D90007574746F6E20286F72204D313038290A97
:102DA000006F70656E206661696C65642C204669F1
:102DB0006C653A200057726974696E6720746F20E1
:102DC00066696C653A2000486F74656E6420746FA4
:102DD0006F20636F6C640A00526573656E643A20FD
:102DE000006F6B0020746F6F206C6F6E67206578CA
:102DF00074727573696F6E2070726576656E746536
:102E0000640A0020636F6C6420657874727573695E
:102E10006F6E2070726576656E7465640A00626517
:102E2000640A002C2073797374656D2073746F705D
:102E300070656421204865617465725F49443A2079
:102E40000045312054454D502046554F52492043AE
:102E50004F4E54524F4C4C4F00546865726D616C2C
:102E60002052756E61776179004531205269736334
:102E7000616C642E2046616C6C69746F00486561FA
:102E800074696E67206661696C6564004531204530
:102E900072723A2054454D50204D415353494D4193
:102EA000004D415854454D502074726967676572F2
:102EB0006564004531204572723A2054454D5020DA
:102EC0004D494E494D41004D494E54454D50207499
:102ED0007269676765726564004D383420582059FF
:102EE000205A204500202F0020403A00565472619D
:102EF00076206D696E005654726176206D696E00A1
:102F00005654726176206D696E00566D696E00567A
:102F10006D696E00566D696E00566D6178204500D2
:102F2000566D6178204500566D6178204500566DDC
:102F30006178204300566D6178204300566D6178BA
:102F4000204300566D6178204200566D6178204222
:102F500000566D6178204200566D61782041005620
:102F60006D6178204100566D61782041004D6F768B
:102F7000696D656E746F00416D6178204500416D2B
:102F80006178204500416D6178204300416D617892
:102F9000204300416D6178204200416D61782042FC
:102FA00000416D6178204100416D61782041004110
:102FB0002D53706F7374616D656E746F00412D5386
:102FC000706F7374616D656E746F00412D726574FE
:102FD0007261637400412D726574726163740041A3
:102FE0006363656C00416363656C004D6F76696D6A
:102FF000656E746F004572726F72207772697469C2
:103000006E6720746F20454550524F4D210A004392
:10301000616E6E6F74206F70656E20737562646987
:103020007220006563686F3A004572726F723A00F1
:1030300048617264636F6465642044656661756CA1
:10304000742053657474696E6773204C6F61646596
:10305000640A00102700001027000010270000104D
:1030600027000000002A4300002A4300002A4300F2
:10307000008C420000C8420000C8420000C8420064
:10308000001243486F6D652066616C6C69746F0057
:10309000545249474745524544006F70656E003AA7
:1030A00020007A5F6D6178007A5F6D696E00795FEC
:1030B0006D617800785F6D6178005265706F727431
:1030C000696E6720656E6473746F702073746174C9
:1030D00075730A002D2D2D2D2D2D2D2D2D2D2D2DE2
:1030E0002D2D2D2D2D2D2D2D2D2D2D2D2D2D2D0A33
:1030F000007072696E745F6A6F625F656C61707395
:1031000065643A20007364706F733A200073645FE3
:1031100066696C656E616D653A20003E20003E2058
:1031200000636F6D6D616E64735F696E5F7175656D
:1031300075653A2000636D645F71756575655F69DB
:103140006E6465785F723A200066616E53706565E3
:1031500064733A20007461726765745F74656D70A2
:10316000657261747572653A2000666565647261A6
:1031700074653A200063757272656E745F706F7368
:103180006974696F6E3A2000494E56414C4944209B
:10319000444154410A002076616C69645F666F6F38
:1031A000743A0076616C69645F686561643A002D09
:1031B0002D2D2D204A6F62205265636F76657279DE
:1031C00020496E666F202D2D2D2D0A00506F7765DA
:1031D000722D6C6F73732066696C652077726974E9
:1031E00065206661696C65642E0A00506F776572B0
:1031F0002D4C6F7373205265636F7665727900533F
:103200006176696E672E2E2E0A00000021002400D0
:1032100027002A002D0030003300010100000401C6
:1032200007010A0100002200250028002B002E00C3
:103230003100340002010000050108010B014D3688
:1032400030303A54726F70706F2066726564646FCC
:1032500000486F74656E6420746F6F20636F6C64D8
:103260000A005A01F00011241FBECFEFD1E2DEBFE9
:10327000CDBF00E00CBF13E0A0E0B2E0EEEDFEE455
:1032800002E00BBF02C007900D92A236B107D9F73A
:1032900029E1A2E6B3E001C01D92AB3CB207E1F721
:1032A00019E1C2E3D9E100E006C021970109802FAE
:1032B000FE010F946223C133D10780E00807A9F70C
:1032C0000F94A90F0D945D270C9400002F923F924C
:1032D0004F925F926F927F928F929F92AF92BF9226
:1032E000CF92DF92EF92FF920F931F93CF93DF93D2
:1032F000CDB7DEB7CF55D1090FB6F894DEBF0FBEFC
:10330000CDBF91E0909380148091D1148D3409F455
:103310005BC6843511F40C94362F873411F00C946D
:10332000432F2090CF143090D0142BE1221631047B
:1033300009F4A9C58CF444E0241631043CF452E0AD
:1033400025163104ECF537FE34C03AC684E0281661
:10335000310409F459C534C6AAE52A16310409F422
:10336000C2C574F4ECE12E16310409F4B8C5F1E2DB
:103370002F16310409F024C60E94AF3E0C94452F4D
:103380002BE52216310409F4B2C53CE523163104BD
:1033900009F016C623E6222E22E0322E3BE2E32E6F
:1033A00039E0F32E4FEDC42E43E0D42E00E010E0C0
:1033B000D7C580915F0281110C944A2F0C94452F40
:1033C00080915F02882311F40C94452F0E94F937F5
:1033D00082E50E94EC37882309F438C10E947037D7
:1033E0004B015C0120E030E0A9010F944B1C8823C5
:1033F00009F458C18091DF039091E003A091E103AB
:10340000B091E2038CA79DA7AEA7BFA72091E303CD
:103410003091E4034091E5035091E60328AB39ABCA
:103420004AAB5BAB8091811490918214A09183147C
:10343000B09184148CAF9DAFAEAFBFAF2091851417
:1034400030918614409187145091881428AF39AF79
:103450004AAF5BAF9C01AD016CA57DA58EA59FA574
:103460000F944B1C81110DC028AD39AD4AAD5BAD39
:1034700068A979A98AA99BA90F944B1C882309F4F0
:1034800011C111E032E02316310409F010E020E010
:1034900030E0A901C501B4010F944B1C881F882797
:1034A000881F181759F080E090E0A0E8BFEB28963D
:1034B0008CAF9DAFAEAFBFAF28970AC020E030E021
:1034C00040E85FE328962CAF3DAF4EAF5FAF289743
:1034D0002CA53DA54EA55FA56CAD7DAD8EAD9FAD78
:1034E0000F94722324966CAF7DAF8EAF9FAF24975D
:1034F00028A939A94AA95BA968AD79AD8AAD9BAD68
:103500000F9472236B017C0124962CAD3DAD4EAD22
:103510005FAD2497CA01B9010F94B11C2B013C0186
:10352000A7019601C701B6010F94B11C9B01AC0124
:10353000C301B2010F9473230F9475266CAB7DAB5E
:103540008EAB9FAB20E030E040E05FE30F94B11C16
:103550002B013C01A5019401C501B4010F94B11CDC
:103560004B015C01A3019201C301B2010F94B11C94
:103570009B01AC01C501B4010F9472230F94752611
:1035800028962CAD3DAD4EAD5FAD28970F94B11C84
:103590004B015C01C701B60190582CA93DA94EA969
:1035A0005FA90F946D24A50194010F94B11C6B01C8
:1035B0007C012CAD3DAD4EAD5FAD6CA57DA58EA55E
:1035C0009FA50F94732320E030E040E05FE30F9469
:1035D000B11C9B01AC01C701B6010F9473232CA54C
:1035E0003DA54EA55FA50F9472236B017C0128AD0C
:1035F00039AD4AAD5BAD68A979A98AA99BA90F9499
:10360000732320E030E040E05FE30F94B11C2B0116
:103610003C012CA93DA94EA95FA924966CAD7DADB6
:103620008EAD9FAD24970F946D24A50194010F9446
:10363000B11C9B01AC01C301B2010F94732328A9F3
:1036400039A94AA95BA90F94722314C089E40E9486
:10365000EC37882329F00E9470376B017C0103C08E
:10366000C12CD12C76018AE40E94EC378823E9F042
:103670000E9470376CAF7DAF8EAF9FAF20E030E01F
:10368000A901C701B6010F944B1C81111BC020E09A
:1036900030E0A9016CAD7DAD8EAD9FAD0F944B1C9C
:1036A000811110C0E9E2F0E39BC320E030E0A90102
:1036B000C701B6010F944B1C8823A1F31CAE1DAEAD
:1036C0001EAE1FAED701C601B0588CA79DA7AEA7EE
:1036D000BFA72CAD3DAD4EAD5FAD505828AB39AB5B
:1036E0004AAB5BAB9C01AD01BC01CD010F94B11C99
:1036F0004B015C0128A939A94AA95BA9CA01B901F2
:103700000F94B11C9B01AC01C501B4010F9473234C
:103710000F94752664966CAF7DAF8EAF9FAF6497A4
:103720008091DF039091E003A091E103B091E20367
:1037300088AF99AFAAAFBBAFA7019601BC01CD017D
:103740000F94732328966CAF7DAF8EAF9FAF2897F1
:103750002091E3033091E4034091E5035091E603A7
:1037600024962CAF3DAF4EAF5FAF24972CAD3DAD4F
:103770004EAD5FAD24966CAD7DAD8EAD9FAD249703
:103780000F94732368966CAF7DAF8EAF9FAF689731
:103790008091811490918214A0918314B09184142B
:1037A0002C968CAF9DAFAEAFBFAF2C9728962CADAB
:1037B0003DAD4EAD5FAD2897BC01CD010F94722396
:1037C0006B017C01209185143091861440918714FF
:1037D0005091881460962CAF3DAF4EAF5FAF6097AD
:1037E00068962CAD3DAD4EAD5FAD689760966CAD03
:1037F0007DAD8EAD9FAD60970F9472234B015C0140
:103800008091E7039091E803A091E903B091EA0366
:103810006C968CAF9DAFAEAFBFAF6C979C01AD0106
:103820006091891470918A1480918B1490918C14FA
:103830000F9472236CAB7DAB8EAB9FABA70196014F
:103840006CA57DA58EA59FA50F94B11C2B013C01F5
:10385000A501940168A979A98AA99BA90F94B11C13
:103860009B01AC01C301B2010F9473232B013C01F6
:10387000A50194016CA57DA58EA59FA50F94B11CF3
:103880004B015C01A701960168A979A98AA99BA9A6
:103890000F94B11C9B01AC01C501B4010F947223BC
:1038A000A30192010F94F2236B017C0120E030E030
:1038B000A9010F944B1C87FF0AC02BED3FE049EC98
:1038C00050E4C701B6010F9473236B017C0192E0B1
:1038D0002916310451F42BED3FE049EC50E4C701C7
:1038E000B6010F9472236B017C0120E030E0A90146
:1038F000C701B6010F944B1C811126C02C962CAD2C
:103900003DAD4EAD5FAD2C9768AD79AD8AAD9BAD49
:103910000F944B1C811118C060962CAD3DAD4EAD7F
:103920005FAD609724966CAD7DAD8EAD9FAD249755
:103930000F944B1C811108C06BEDC62E6FE0D62E84
:1039400069ECE62E60E4F62EA701960164966CAD54
:103950007DAD8EAD9FAD64970F94B11C4B015C01A2
:1039600020E030E0A9016CA97DA98EA99FA90F9440
:103970004B1C8823D9F0A5019401C501B4010F9413
:10398000B11C4B015C012CA93DA94EA95FA9CA013C
:10399000B9010F94B11C9B01AC01C501B4010F9496
:1039A00073230F9475264B015C010DC020E030E0BD
:1039B000A901C501B4010F94272687FF04C0B7FAF7
:1039C000B094B7F8B0942FE632E143E85AE3C5016A
:1039D000B4010F944B1C87FF02C00C94452FC50106
:1039E000B4010F9415250F94E62422967FAF6EAF95
:1039F0002297DB01AB2B31F4E1E0F0E02296FFAF40
:103A0000EEAF22974090EB035090EC036090ED03F3
:103A10007090EE0322962EAD3FAD2297B90180E063
:103A200090E00F94501C4B015C019B01AC01C7015D
:103A3000B6010F946D2468AF79AF8AAF9BAFA50133
:103A400094016CA97DA98EA99FA90F946D246496F9
:103A50006CAF7DAF8EAF9FAF6497A3019201609171
:103A60008D1470918E1480918F14909190140F94F6
:103A70007223A50194010F946D24A0966CAF7DAFC5
:103A80008EAF9FAFA09728AD39AD4AAD5BADCA01EF
:103A9000B9010F94B11C20E030E040E05FE30F94E7
:103AA000B11C9B01AC0160E070E080E89FE30F94E3
:103AB00072232C966CAF7DAF8EAF9FAF2C976C9618
:103AC0008CAD9DADAEADBFAD6C9789879A87AB8746
:103AD000BC874D865E866F86788A609156027091AB
:103AE0005702072E000C880B990B0F94521C209143
:103AF00012023091130240911402509115020F945A
:103B0000B11C2AE037ED43E25CE30F94B11C68A7D7
:103B100079A78AA79BA70F94A30B9B01AC012853FD
:103B20003F4F4F4F5F4F60962CAF3DAF4EAF5FAFF3
:103B300060974CA45DA46EA47FA422242394312C0E
:103B400039E13CAB22964EAD5FAD2297421553054D
:103B500009F41EC10E9470EF0F94A30BDC01CB018E
:103B600060962CAD3DAD4EAD5FAD6097821B930B63
:103B7000A40BB50BB7FD11C00F94A30B9B01AC01B7
:103B800028533F4F4F4F5F4F60962CAF3DAF4EAF26
:103B90005FAF609780E00E9470A03CA931503CABC1
:103BA000332309F441C028A939A94AA95BA92C9655
:103BB0006CAD7DAD8EAD9FAD2C970F94B11C6B019C
:103BC0007C019201A30168AD79AD8AAD9BAD0F94E4
:103BD000B11CA70196010F9473236B017C01920124
:103BE000A3012C966CAD7DAD8EAD9FAD2C970F943F
:103BF000B11C4B015C0128A939A94AA95BA968AD90
:103C000079AD8AAD9BAD0F94B11C9B01AC01C50190
:103C1000B4010F9472232B013C01C601D70188AB7C
:103C200099ABAAABBBAB4DC0B10180E090E00F9463
:103C3000501C28AD39AD4AAD5BAD0F94B11C4B01A2
:103C40005C010F9468246B017C01C501B4010F94E1
:103C500067264B015C01A70196016CA57DA58EA589
:103C60009FA50F94B11C2B013C012CAD3DAD4EAD79
:103C70005FADC501B4010F94B11CA30192010F9473
:103C800073232B013C01A50194016CA57DA58EA594
:103C90009FA50F94B11C4B015C012CAD3DAD4EAD09
:103CA0005FADC701B6010F94B11C9B01AC01C5010A
:103CB000B4010F94722368AB79AB8AAB9BAB49E13B
:103CC0004CAB9201A30128966CAD7DAD8EAD9FAD3E
:103CD00028970F94732369837A838B839C8328A905
:103CE00039A94AA95BA968966CAD7DAD8EAD9FAD33
:103CF00068970F9473236D837E838F839887649670
:103D00002CAD3DAD4EAD5FAD649769857A858B85F1
:103D10009C850F94732369877A878B879C87A096ED
:103D20002CAD3DAD4EAD5FADA0976D857E858F8589
:103D300098890F9473236D877E878F87988B8091E6
:103D40003C02882321F0CE0101960E94839BE090E3
:103D5000A61418A219A21AA21BA2CE0101960E94B3
:103D600036E5CE0180966C018E01085D1F4F9E01E5
:103D7000235F3F4F47EF53E063EF73E08FEE93E035
:103D80000E94C27B882321F09FEF291A390ADACEDC
:103D9000E090A6141CA21DA21EA21FA281E894E11D
:103DA0000E9436E5DE0194966D018E01085D1F4F7D
:103DB0002DE834E147EF53E063EF73E08FEE93E0DB
:103DC0000E94C27B80E1E1E8F4E1AFEDB3E0019055
:103DD0000D928A95E1F70C94452F0E94023CF80160
:103DE00084918F010F5F1F4F8111F7CFE3EFF4E054
:103DF00084918F010F5F1F4F882311F40C94452F7E
:103E00000E94023CF801F4CF80E50E94EC37882341
:103E100029F00E942C376B017C0103C0C12CD12CEE
:103E2000760183E50E94EC37882361F00E947037A9
:103E300020E030E04AE754E40F94B11C0F94E624EC
:103E40006B017C010E946A8980911916811105C05D
:103E500060E089E095E00E942A630F94A30BC60EF0
:103E6000D71EE81EF91E0F94A30BDC01CB018C19A1
:103E70009D09AE09BF09B7FD02C00C94452F80E033
:103E80000E9470A0F0CF0E94A56981110C94452F6B
:103E900019821A821B821C8280E090E0AEEBB2E4B1
:103EA0008D839E83AF83B88780E090E0A6E6B3E47D
:103EB00089879A87AB87BC8780E50E94EC37882387
:103EC00019F00E943C3701C060E068A3BE016F5F3B
:103ED0007F4FCE0180960F9463030C94452F0E9470
:103EE0005C9B0C94452F109266030C94452F909385
:103EF00066030C94452F0E9470372B013C01133050
:103F000049F0D7012D913D914D915C910F94722311
:103F10002B013C01F6012081318142815381C30193
:103F2000B2010F9472234B015C012DEB37E346E89D
:103F300055EB0F94272687FD1BC02DEB37E346E892
:103F400055E3C501B4010F944B1C18168CF01F5F8C
:103F5000F4E0EF0EF11C24E0C20ED11C143031F15C
:103F6000F10181911F010E94EC37882381F3C3CFB7
:103F7000133051F44092EB035092EC036092ED0346
:103F80007092EE0301E0E3CFA5019401D7016D919A
:103F90007D918D919C910F947323F70160837183C0
:103FA00082839383812F0E941135D1CF002321F08A
:103FB0008BEE93E00E9442690E94F6AA0C94452F72
:103FC0000E94DBDE0C94452F8091CF149091D01489
:103FD0008137910509F428C60CF0C7C08B349105D0
:103FE00009F473C40CF06EC08831910509F497C2CE
:103FF000E4F58231910509F45CC7E4F497FF02C04F
:104000000C94332F823091050CF4B8C1419711F014
:104010000C94332F60E086E295E00E942A635F985B
:104020008A988091080181708093060112984798C0
:104030000C94452F8531910509F456C23CF4449700
:1040400011F00C94332FE6E4F5E010C286319105AF
:1040500009F44EC2479711F00C94332F0E949F6FC2
:10406000E091CD14F091CE144DC28D31910511F433
:104070000C94452FC4F48A31910509F4BAC20CF4AA
:10408000AAC28B31910509F4C2C24C9711F00C946D
:10409000332F40E060E08091CD149091CE140E94C7
:1040A0008C6D0C94452F8F31910509F4AFC30CF43E
:1040B00044C38032910509F45AC38A9709F4D0C3E6
:1040C0000C94332F8C35910509F440C70CF58135DC
:1040D000910509F4D0C664F48D34910509F4FDC34B
:1040E0000CF4F7C38E34910509F4FBC30C94332F01
:1040F0008335910509F4D8C60CF4D2C684359105F0
:1041000009F4D7C68535910509F407C70C94332FF8
:104110008C36910509F480C5ACF48936910509F413
:10412000B0C534F48836910509F4DDC40C94332FFE
:104130008A36910509F4EBC58B36910509F405C65D
:104140000C94332F8E36910509F4FFC40CF4DBC5B3
:104150008F36910509F40CC58037910511F00C9448
:10416000332F80E296E00E942F9D823E910511F44C
:104170000C946A2C0CF068C08139910511F40C94F0
:104180002D2934F58637910511F40C94D5286CF45B
:104190008337910509F4EFC00CF460C785379105AA
:1041A00011F40C94C8280C94332F8837910511F41E
:1041B0000C94222914F40C941F298937910511F4C9
:1041C0000C9428298D37910509F4D1C50C94332F0F
:1041D0008C3C910511F40C942E2AF4F4883C910542
:1041E00011F40C948D2934F48B39910509F464C5CC
:1041F0000C94332F893C910511F40C94F9298B3CD4
:10420000910511F00C94332FE3E6EE2EE2E0FE2E42
:1042100009EE15E10C941F2A833D910509F4A7C00E
:104220003CF48D3C910511F40C94A32A0C94332F8B
:104230008C3D910511F40C94EE2B8D3D910511F4FC
:104240000C94FB2B0C94332F863F31E0930711F431
:104250000C94CA2D0CF041C0833651E0950709F447
:1042600082C0ECF48D32B1E09B0711F40C94BD2CAC
:104270003CF48C32914011F40C94942C0C94332F18
:104280008E3221E0920711F40C945D2D8F32914013
:1042900011F00C94332F0E9470A60C94452F8A398C
:1042A00041E0940709F4BCC44CF48039914011F00A
:1042B0000C94332F0E946A890C94452F843FB1E0FF
:1042C0009B0711F40C94C72D853F914011F00C947D
:1042D000332F0F9434060C94452F8939F2E09F0751
:1042E00011F40C94862EDCF48C3032E0930711F438
:1042F0000C94F12D3CF4883F914011F40C94CD2D99
:104300000C94332F8835A2E09A0711F40C94FA2DFF
:104310008B35924011F40C94FD2D0C94332F8B3877
:10432000E3E09E0711F40C94452F8CF48A399240F7
:1043300011F00C94332F83E6E82E82E0F82E0BE187
:1043400019E097E2C92E99E0D92E0C94162F803AE5
:1043500033E0930709F44DC2873E934011F40C9467
:104360001E2F0C94332FE9E2F0E30C94B42DE3E21A
:10437000F0E30C940E2BE9E2F7E0AFC6A090CD1469
:10438000B090CE1480E50E94EC37882359F00E944B
:104390002C376B017C0111E0672B682B692B31F402
:1043A00010E004C010E0C12CD12C760183E50E94FE
:1043B000EC37882311F40C944F2F0E94703720E0C3
:1043C00030E04AE754E40F94B11C0F94E6246B01EB
:1043D0007C0111110BC0672B682B692B39F4A114D8
:1043E000B10421F0D5018C91811102C010E001C00F
:1043F00011E00E946A89112329F061E0C5010E9441
:104400006F6305C060E088E195E00E942A6383E065
:104410008093801481E080937F14C114D104E1045F
:10442000F104B1F00F94A30BC60ED71EE81EF91EBF
:104430000F94A30BDC01CB018C199D09AE09BF09B8
:10444000B7FF0EC080917F1481110C94542F08C0C7
:1044500080917F14882321F080E00E9470A0F8CF23
:104460000E942A9310927F140C94452F84918F01FF
:104470000F5F1F4F882321F00E94023CF801F6CF06
:1044800010927C1986EE96E10E946FCF8BE1E6EEEA
:10449000F6E1DE01159601900D928A95E1F7809183
:1044A000E4169091E5169C838B8383E293E09A83D4
:1044B000898340E050E0BE016F5F7F4F80E090E075
:1044C0000E9479FFCE0101960E940E9DE7E3F5E080
:1044D00084918F010F5F1F4F882311F40C94452F97
:1044E0000E94023CF801F4CF0E948A6B0C94452F85
:1044F00010928E1610928F160C94452F803209F46C
:104500001082319680818111F9CF40E061E0809185
:10451000CD149091CE140E948C6D0C94452F80E0A8
:1045200090E0A0EFB1E489839A83AB83BC8318A2A7
:1045300019A21AA21BA21CA21DA21EA21FA2809138
:104540003808882359F020E0AE014F5F5F4FBE016D
:10455000605E7F4FCE0184960E944CDD83E50E9411
:10456000EC37882381F00E943C37AB01BC014093BB
:1045700078195093791960937A1970937B1988EAA6
:1045800098E10E941BFC80918F16882319F081E02E
:1045900080938E1684E50E94EC378823B1F00E9448
:1045A0003C376B017C010E9458F2C092A015D0925A
:1045B000A115E092A215F092A315CD28CE28CF2800
:1045C00031F081E08093400802C00E9476C40E94CE
:1045D0002A930C94452F10928E160E9473F287E551
:1045E00095E090937314809372140E94323C0C9463
:1045F000452F80918F16882311F40C94452F83E565
:104600000E94EC3781110C94592F0C94452F83E4B0
:104610000E94A337882309F44EC0E9E8F5E08491AD
:104620008F010F5F1F4F882321F00E94023CF80189
:10463000F6CF8091AB18811103C0ECE5F5E012C014
:10464000BE016F5F7F4F88EA98E10E9436CE8E01EF
:104650000F5F1F4FF80181918F01882339F10E946C
:10466000023CF8CF84918F010F5F1F4F8823F1F038
:104670000E94023CF801F6CF9BE0C92E96E0D92EAD
:1046800000E010E020E08091AA1490E0002E02C02B
:10469000959587950A94E2F780FD9AC20F5F1F4FA8
:1046A00032E0C30ED11C0530110569F78AE00E9483
:1046B000023C0C94452F80918F16882339F080910D
:1046C0008E16882319F0E6E6F5E003C0E8E7F5E08A
:1046D00028C084918F010F5F1F4F882321F00E9413
:1046E000023CF801F6CF60917819709179198091A8
:1046F0007A1990917B194AE00E948B3C8FE20E94CC
:10470000023C60917419709175198091761990919D
:1047100077194AE00E948B3C8AE00E94023C0C948C
:10472000452F84918F010F5F1F4F882311F40C9444
:10473000452F0E94023CF801F4CF80918F16882308
:1047400011F40C94452F88EA98E10E94E8FB88EA6E
:1047500098E10E9411CE10928D1610928C168091C5
:10476000CD149091CE140E940B6F0C94452F809124
:104770008E1681110E946A8980918F16882311F408
:104780000C94452F80E50E94EC37882319F00E9495
:10479000603703C080E50E94A337182F482F61E0DF
:1047A0008091CD149091CE140E948C6D83E50E946F
:1047B000EC37882381F00E943C37AB01BC01409369
:1047C00078195093791960937A1970937B1988EA54
:1047D00098E10E941BFC80918F16882319F081E0DC
:1047E00080938E1611110C94452F0E9476C40C9460
:1047F000452F8091CD149091CE1421E020938D16F9
:1048000040E060E00E948C6D0C94452F0E9424F2E1
:1048100068A379A38AA39BA3BE016F5F7F4FCE01DC
:1048200080960E94A93860E0CE0101960E946F63D5
:10483000E3E2F0E384918F010F5F1F4F882321F0A3
:104840000E94023CF801F6CFBE016F5F7F4F88E9FE
:1048500095E00E945BC48AE00E94023C0C94452FC4
:1048600083E50E94EC37882311F40C94452F0E94B5
:104870004C37E82E80E50E94EC37882339F00E94FF
:104880004C37182F87FF03C00C94452F1DE089E497
:104890000E94EC37882351F00E94603781110C94FC
:1048A000C72FECE6F8E08FE998E00AC089E40E949F
:1048B000A337F4CF31968E179F0711F40C94C72FAE
:1048C00024911213F7CF0C949B2F0E9476C40C9462
:1048D000452F0E9473F20C94452F0E94BDC40C9486
:1048E000452F83E50E94EC37811103C0E3E0F6E039
:1048F0000CC00E943C376E347105C1F70F9442061C
:104900000C94452F0E94023CF80184918F010F5FA7
:104910001F4F8111F7CFEAEFF5E084918F010F5F10
:104920001F4F882321F00E94023CF801F6CF6091CE
:104930005F0E7091600E80E090E04AE00E948B3C38
:10494000EDEEF5E084918F010F5F1F4F882321F07A
:104950000E94023CF801F6CF6091610E7091620EE8
:1049600080E090E04AE00E948B3CE2EEF5E084912A
:104970008F010F5F1F4F882321F00E94023CF80136
:10498000F6CF60915F0E7091600E8091610E9091F4
:10499000620E681B790B80914008815021E030E065
:1049A000823010F020E030E0621B730B80E090E07A
:1049B0004AE00E948B3C8AE00E94023CEAEDF5E06E
:1049C00084918F010F5F1F4F882321F00E94023CCA
:1049D000F801F6CF8091630E9091640EA091650E60
:1049E000B091660E88A399A3AAA3BBA3BE016F5F73
:1049F0007F4FCE0180960E94A938EDECF5E08491BE
:104A00008F010F5F1F4F811106C09E012F5F3F4F27
:104A10007901890104C00E94023CF801F0CFD8015D
:104A20008D918D01882319F00E94023CF8CF80916E
:104A3000670E9091680EA091690EB0916A0E88A3DE
:104A400099A3AAA3BBA3BE016F5F7F4FCE0180963F
:104A50000E94A938EDEBF5E084918F010F5F1F4FA5
:104A6000882321F00E94023CF801F6CFF7018191E2
:104A70007F01882319F00E94023CF8CF8AE00E944F
:104A8000023CE5EBF5E084918F010F5F1F4F811130
:104A900003C0E5EAF5E004C00E94023CF801F3CF50
:104AA00084918F010F5F1F4F882321F00E94023CE9
:104AB000F801F6CF20E030E04AE754E460916B0E55
:104AC00070916C0E80916D0E90916E0E0F946D240E
:104AD00042E00E94563D8DE60E94023C8AE00E9420
:104AE000023C0C94452F88E690E00E94F83C81112E
:104AF0000C94452F8091AA1483FF02C00C94452F7B
:104B00009091B0158091A61498130C94452F83E5CD
:104B10000E94EC378823A9F00E9470370F94DF249D
:104B2000CB010E94B7620E94703720E030E040EA7B
:104B300052E40F944B1C181624F00E94BDC40E942E
:104B40002A930F9431080C94452F8EE40E94EC3781
:104B5000882311F40C94452F0E943C37609315165E
:104B60007093161680931716909318160C94452F71
:104B700083E50E94A337882359F083E50E94EC3730
:104B8000882319F00E944C3701C080E08093AA145A
:104B9000E3E2F0E384918F010F5F1F4F811103C0A7
:104BA000E9E1F6E004C00E94023CF801F3CF8491F1
:104BB0008F010F5F1F4F882321F00E94023CF801F4
:104BC000F6CF8091AA14811157CDE5E1F6E019C026
:104BD000BB24B394B20E222319F08CE20E94023C53
:104BE000F60185919491FC0184917F012FEFE21AE7
:104BF000F20A882321F00E94023CF701F5CF2B2D09
:104C00004DCD84918F010F5F1F4F882309F44ECD46
:104C10000E94023CF801F5CF10925C020C94452FE3
:104C20000E9437A60C94452F83E50E94EC37811132
:104C300003C0E3E2F0E30DC00E944C378D3320F453
:104C400080931B020C94452F8CE380931B020C94E1
:104C5000452F84918F010F5F1F4F882321F00E9401
:104C6000023CF801F6CF40911B0250E060E070E09A
:104C700089E296E00E9408C48AE00E94023C0C94FB
:104C8000452F89E690E00E94F83C811111C0E0E3D5
:104C9000F6E084918F010F5F1F4F882321F00E945F
:104CA000023CF801F6CF0E942DED8AE00E94023C02
:104CB000109280140C94DC2F83E50E94EC3788233B
:104CC00011F40C94452F0E944C37182F8D3308F0A7
:104CD0001CE3109374080F94A30B6B017C01212F2C
:104CE00030E0A8EEB3E00F940023C60ED71EE81EF6
:104CF000F91EC0927008D0927108E0927208F0928A
:104D000073080C94452F0E94C0AB0C94452F80E58E
:104D10000E94EC37811106C083E50E94EC3788239E
:104D200061F006C00E944C3781110C94452FF4CFDE
:104D30000E943C376F3F710510F06FEF70E0709389
:104D4000FA0F6093F90F0C94452F80E50E94EC3721
:104D5000811106C01092FA0F1092F90F0C94452F92
:104D60000E943C37672B11F00C94452FF3CF8CE455
:104D70000E94A337882381F00E9470376B017C0169
:104D800020E030E0A9010F94272687FF0BC0F7FA37
:104D9000F094F7F8F09406C0C12CD12C80E8E82EEE
:104DA00080E4F82EF7FAF094F7F8F094CCA2DDA2A4
:104DB000EEA2FFA219821A821B821C8280E090E080
:104DC000AEEBB2E48D839E83AF83B88780E090E042
:104DD000A6E6B3E489879A87AB87BC8788E50E94FB
:104DE000EC37882379F088E50E94EC37882319F0A6
:104DF0000E94703703C060E070E0CB0169837A8362
:104E00008B839C8389E50E94EC37882379F089E5C0
:104E10000E94EC37882319F00E94703703C060E0CD
:104E200070E0CB016D837E838F8398878AE50E9433
:104E3000EC37882379F08AE50E94EC37882319F053
:104E40000E94703703C060E070E0CB0169877A8709
:104E50008B879C8718A219A21AA21BA220E0AE0180
:104E6000405E5F4FBE016F5F7F4FCE0184960F940F
:104E7000DF0C0C94452F0E94BDED0E94A889109272
:104E8000FA0F1092F90F68EE73E080E090E00E9454
:104E9000646260E083E396E00E942A630C94452FED
:104EA000109265030C94452F81E0809365030C9468
:104EB000452F83E50E94EC378823A1F00E947037CC
:104EC00020E030E04AE754E40F94B11C0F94E6244C
:104ED00060931C0270931D0280931E0290931F0228
:104EE0000C94452F88E50E94A33781110C946A2FFA
:104EF00089E50E94A33781110C946A2F8AE50E94EC
:104F0000A33781110C946A2F85E40E94A337811185
:104F10000C946A2F0E94A889B8C783E50E94A33722
:104F2000882309F4B2C70E94703720E030E04AE7D6
:104F300054E40F94B11C0F94E62460936C087093B2
:104F40006D0880936E0890936F089FC713E6C12E7B
:104F500012E0D12E0FECE02E03E0F02E10E0D6018F
:104F60008D916D010E94A337882309F46DC0133021
:104F700009F063C00E9470374B015C0120E030E013
:104F800040EA51E40F944B1C87FF4EC0A5019401E9
:104F90006091DB037091DC038091DD039091DE036F
:104FA0000F946D242B013C019B01AC0160913114E5
:104FB0007091321480913314909134140F94B11C79
:104FC000609331147093321480933314909334149B
:104FD000A30192016091F5157091F6158091F71576
:104FE0009091F8150F94B11C6093F5157093F61518
:104FF0008093F7159093F8156091A3197091A419F7
:105000008091A5199091A6190F94501CA3019201AB
:105010000F94B11C0F94E6246093A3197093A41904
:105020008093A5199093A6198092DB039092DC03DC
:10503000A092DD03B092DE0307C00E947037F70133
:1050400060837183828393831F5FF4E0EF0EF11C12
:10505000143009F084CF0F94BC0817C70E946A89E6
:1050600083E50E94EC37882311F40C94DC1F0E9426
:105070003C376230710511F00C94DC1F0E94F9E19D
:105080008BE50E94023C60915415709155158091FA
:1050900056159091571542E00E94563D4091581583
:1050A0005091591560915A1570915B1587E496E0FF
:1050B0000E9425C440915C1550915D1560915E156C
:1050C00070915F1584E496E00E9425C48DE50E94EE
:1050D000023C8AE00E94023CD8C684918F010F5F97
:1050E0001F4F882321F00E94023CF801F6CF60E0B8
:1050F00089E197E00E94BFAA61E082E197E00E9407
:10510000BFAA61E087E097E00E94BFAA61E087EF55
:1051100096E00E94BFAA60E08EEE96E00E94BFAAD1
:1051200061E084EE96E00E94BFAA60E08AED96E01E
:105130000E94BFAA60E082ED96E00E94BFAA60E0F4
:1051400084EC96E00E94BFAA60E086EB96E00E94A5
:10515000BFAA60E087EA96E00E94BFAA60E089E902
:1051600096E00E94BFAA60E083E896E00E94BFAA92
:1051700060E082E796E00E94BFAA60E08DE596E0DD
:105180000E94BFAA60E08AE496E00E94BFAA7DC6A2
:105190008091CD149091CE14DC012C91222309F43E
:1051A00016CA60E00E946F6370C6E090CD14F09064
:1051B000CE1483E0D12C40E08150E1F0F7019081E2
:1051C000292F2B7F2134C1F721812133A9F7913475
:1051D00021F0953421F441E002C0DD24D3949701FD
:1051E0002E5F3F4F79012F5F3F4FD7019C91903247
:1051F000C9F3E2CF442361F0E3E2F0E384918F014D
:105200000F5F1F4F882321F00E94023CF801F6CF68
:10521000DD2061F0E0EFF7E084918F010F5F1F4F19
:10522000882321F00E94023CF801F6CFF70181911A
:105230007F01882309F43ACA0E94023CF7CF0F94F9
:10524000550423C681E08093700E80936F0E1DC6B7
:105250001092700E10926F0E18C683E50E94EC3704
:10526000882319F00E943C3702C060E070E07B01A7
:10527000FF24F2E0EF16F104D4F0E9E2F0E38491C8
:105280008F010F5F1F4F811103C0E4EFF7E004C0EF
:105290000E94023CF801F3CF84918F010F5F1F4FF2
:1052A000882309F4F2C50E94023CF801F5CF88E496
:1052B0000E94EC378823A9F00E943C37603A7105C0
:1052C0003CF0653021E072072CF064E071E002C030
:1052D00060EA70E0F701EE0FFF1FE358FC4F7183A7
:1052E000608386E40E94EC37882309F4CEC50E94CF
:1052F0003C37F701EE0FFF1FEF57FC4F71836083C0
:105300006F3F710519F014F06FEF70E077FF02C086
:1053100060E070E071836083B8C588EC90E00E9423
:10532000F83C8111B2C584E40E94A337882309F4B4
:105330005DC00E9470376B017C0111E020E030E01D
:10534000A9010F944B1C811101C010E010934D1462
:1053500020E030E0A901C701B6010F944B1C88235F
:1053600009F444C00E947037E091B01534E0E39F27
:10537000F0011124EB5BFB4E608371838283938386
:1053800020E030E0A90160914514709146148091AD
:105390004714909148140F944B1C81110CC080E06D
:1053A00090E0A0EEBFE38093451490934614A09341
:1053B0004714B093481420E030E0A90160914914EB
:1053C00070914A1480914B1490914C140F944B1C83
:1053D00081110CC080E090E0A0EEBFE380934914FF
:1053E00090934A14A0934B14B0934C140E94417BA9
:1053F0004CC5F3E6EF2EF2E0FF2E09EF15E1D701E1
:105400008D917D010E94A337882349F00E94703757
:105410000F94E624F80160837183828393830C5F89
:105420001F4FF6E109301F0751F70F9461082DC592
:105430000C5F1F4FF5E1093F1F0709F426C5D7018F
:105440008D917D010E94A337882391F30E947037CC
:10545000F8016083718382839383EACF83E50E949E
:10546000EC378823A1F00E94703760930D1670937B
:105470000E1680930F169093101660930916709372
:105480000A1680930B1690930C1610E001C011E0E1
:1054900080E50E94EC37882359F00E9470376093B2
:1054A0000D1670930E1680930F169093101610E041
:1054B00082E50E94EC37882359F00E947037609390
:1054C0007B1470937C1480937D1490937E1410E071
:1054D00084E50E94EC37882359F00E94703760936E
:1054E000091670930A1680930B1690930C16CDC470
:1054F000112309F4CAC440910D1650910E16609103
:105500000F16709110168CE198E00E9425C440910E
:105510007B1450917C1460917D1470917E1489E10C
:1055200098E00E9425C44091091650910A16609196
:105530000B1670910C1686E198E00E9425C48AE053
:105540000E94023CA2C481E50E94A337882351F047
:105550000E942C3760938E1970938F198093901945
:105560009093911983E50E94A337882351F00E94FC
:1055700070376093E5157093E6158093E715909367
:10558000E81584E50E94A337882351F00E94703704
:105590006093E1157093E2158093E3159093E41501
:1055A00088E50E94A337882351F00E9470376093EA
:1055B000251470932614809327149093281489E55A
:1055C0000E94A337882351F00E94703760932914FA
:1055D00070932A1480932B1490932C148AE50E94C4
:1055E000A337882351F00E94703760932D14709375
:1055F0002E1480932F149093301485E40E94A337C7
:10560000882309F442C40E94703760933114709368
:105610003214809333149093341437C484918F01DF
:105620000F5F1F4F882321F00E94023CF801F6CF44
:1056300083E50E94A337882321F00E94603780937E
:105640003C02E4E5F8E084918F010F5F1F4F88234F
:1056500021F00E94023CF801F6CF80913C028823A1
:1056600019F0ECE4F8E002C0E0E5F8E084917F0195
:105670002FEFE21AF20A811103C0E4E4F8E004C05B
:105680000E94023CF701F2CF84918F010F5F1F4F00
:10569000882321F00E94023CF801F6CF20912B09CB
:1056A00030912C0940912D0950912E0960913002C2
:1056B0007091310280913202909133020F947323E2
:1056C000AB01BC0182E498E00E9425C420912F091F
:1056D0003091300940913109509132096091340282
:1056E0007091350280913602909137020F947323A6
:1056F000AB01BC018FE398E00E9425C420913309DF
:105700003091340940913509509136096091380241
:105710007091390280913A0290913B020F94732369
:10572000AB01BC018CE398E00E9425C4E4E3F8E0FF
:1057300084918F010F5F1F4F882321F00E94023C4C
:10574000F801F6CF20912B0930912C0940912D09B9
:1057500050912E09609124027091250280912602B9
:10576000909127020F947323AB01BC0182E398E070
:105770000E9425C420912F093091300940913109B0
:1057800050913209609128027091290280912A0279
:1057900090912B020F947323AB01BC018FE298E030
:1057A0000E9425C420913309309134094091350974
:1057B0005091360960912C0270912D0280912E0239
:1057C00090912F020F947323AB01BC018CE298E0FF
:1057D0000E9425C48AE00E94023C57C383E50E94D0
:1057E000EC37882309F451C30E943C377093570269
:1057F000609356024AC38DED90E00E94F83C8111FF
:1058000044C383E50E94EC37811103C0E3E2F0E377
:105810003BC0E090B015F12C0E943C37F701EE0F31
:10582000FF1FEE5AFD4F718360838091B01590E0A9
:105830008C01000F111F000F111FA801465B5D4F67
:105840007A01880F991FFC01EE5AFD4F608171812A
:10585000072E000C880B990B0F94521C2AE037ED91
:1058600043E25CE30F94B11CF801E35EFB4E208140
:105870003181428153810F94B11CD7016D937D9387
:105880008D939C93139701C384918F010F5F1F4FDA
:10589000882321F00E94023CF801F6CF85E40E94A3
:1058A000023C8091B015805D0E94023CE091B015F1
:1058B000F0E0EE0FFF1FEE5AFD4F6081718184E62C
:1058C00098E00E9442C485E20E94023C8AE00E9465
:1058D000023CDBC280E50E94A337882309F4D5C2CD
:1058E0000E943C376B017C0183E50E94EC378823E2
:1058F00021F00E943C378B0102C00FEF1FEFC8015F
:105900000196039708F0C1C2D7FCBFC22C2DECE66C
:10591000F8E08FE998E03491231709F40CC331962D
:105920008E179F07C1F70AC383E50E94EC378823CF
:1059300019F00E943C3702C064E071E079A368A3CB
:1059400080E50E94EC37882339F00E943C376938A3
:10595000B3E17B0730F402C068EE73E07A836983B9
:1059600004C088E893E19A838983BE01605E7F4F1B
:10597000CE0101960E94006988C285E40E94EC373E
:10598000811110C080E50E94A337882391F00E9406
:1059900070376093700370937103809372039093D8
:1059A000730307C00E944C37882361F3E9E2F0E3F8
:1059B00071C089E40E94A337882381F00E94703768
:1059C0002CEA35EC47E25EE30F94B11C6093780358
:1059D0007093790380937A0390937B0384E40E940D
:1059E000A337882381F00E9470372CEA35EC47E218
:1059F0005EE30F946D24609374037093750380933A
:105A0000760390937703E3E2F0E384918F010F5FD5
:105A10001F4F882321F00E94023CF801F6CF4091ED
:105A2000700350917103609172037091730387EA60
:105A300098E00E9425C42CEA35EC47E25EE36091D1
:105A400078037091790380917A0390917B030F948E
:105A50006D24AB01BC0183EA98E00E9425C42CEAC6
:105A600035EC47E25EE360917403709175038091B9
:105A70007603909177030F94B11CAB01BC018FE9C1
:105A800098E00E9425C48AE00E94023CFEC10E9468
:105A9000023CF80184918F010F5F1F4F8111F7CFF6
:105AA000EBEAF8E084918F010F5F1F4F882309F420
:105AB000ECC10E94023CF801F5CF83E50E94A337B8
:105AC000182F882371F00E9470370F94DF24709391
:105AD0005E0260935D0221E0672B09F020E02093D5
