:100000000C94A91A0C94DA1A0C94DA1A0C94DA1AD1
:100010000C94DA1A0C94DA1A0C94DA1A0C94DA1A90
:100020000C94DA1A0C94DA1A0C94DA1A0C94DA1A80
:100030000C94DA1A0C94DA1A0C94DA1A0C94DA1A70
:100040000C94DA1A0C940BB10C94DA1A0C94DA1A98
:100050000C94DA1A0C94DA1A0C94F18E0D946A1B33
:100060000C94DA1A0C9434410C94DA1A0C94DA1ABF
:100070000C94DA1A0C94DA1A0C94DA1A0C94DA1A30
:100080000C94DA1A0C94DA1A0C94DA1A0C94DA1A20
:100090000C94DA1A0C94DA1A0C94DA1A0C94DA1A10
:1000A0000C94DA1A0C94DA1A0C94DA1A0C94DA1A00
:1000B0000C94DA1A0C94DA1A0C94DA1A0C94DA1AF0
:1000C0000C94DA1A0C94DA1A0C94DA1A0C94DA1AE0
:1000D0000C94DA1A0C94DA1A0C94DA1A0C94DA1AD0
:1000E0000C94DA1A4D911F9224924F925B923792A0
:1000F0003C923D91B2E698E69BE69EE6A1E6ADE62F
:10010000A4E6BEE6A7E6AAE6E401D801D400F4001E
:100110008A01440122010C01CE019801A001FE00D8
:100120004801C8014401060110017C017201E60189
:10013000E000AA0104012401A20180011201E201F0
:100140002E018C01EC0038012401E8008201BA0183
:10015000084AD73B3BCE016E84BCBFFDC12F3D6C2E
:1001600074319ABD56833DDA3D00C77F11BED9E494
:10017000BB4C3E916BAAAABE000000803F05A84C74
:10018000CDB2D44EB93836A9020C50B99186880840
:100190003CA6AAAA2ABE000000803F000C94CC6CAA
:1001A0000C945CF00C9437920D94A7190C9454F1B4
:1001B0000D94AF020C94B3A70C943B330C9499A00C
:1001C0000D948E1A0C942CE40C9482B90C94D5F2F4
:1001D0000D94FD1A0C94DB960D94E91A0C9490A6DC
:1001E0000C94F1A60C9466A40D94AB190C94E097B2
:1001F0000C94B1A70C943FEC0C94FE960D94D4197A
:100200000C9424920C94F5E40D94A21A0D94E21926
:100210000C949FDA0D94360B0D94C0190D94ED22B9
:100220000D94E6190D94BC1A0C9485F00C948DD79E
:100230000C94E8A20C9457F00C942FA60C94A4E60E
:100240000C948F320D94BC190D941B1B0C94C7A4F5
:100250000C94FBBC0C9421A40C9457F10D94D01A6F
:100260000C947CA70C9444FD0C9451BA0C946FBC74
:100270000D94F31A0C943D910C94DCA50D94AA02F4
:100280000C9428A50C94D0F20D94EF190D9447000E
:100290000D94D8190C94946E0C9413D30C94B29AB8
:1002A0000C947FF00C9474BE0C945B920C944DF003
:1002B0000C94E3A70C945C7E0C9425580C944F92FC
:1002C0000C9421BC0C94A7960C9423A20C940F9F21
:1002D0000C945AF10C94C7A70C941F920C94B2E69C
:1002E0000C94CDD40D94841A0C94ADE60C948E32FB
:1002F0000C9442FD0C94CA5A0D94EA190C94DBD864
:100300000D94B41A0D94071B0C944EBA0C9498E6F5
:100310000C949BE60D94B1190D94DA1A0C94F4EC3C
:100320000D941A250C94D49F0C94A6A70C94D1D4A8
:100330000D94CA190C949EE60C94A9A30C948BF00E
:100340000D94CE190D94AC1A0C94A1E60C9466F0A1
:100350000C94B7BB0D94981A0C948AD10C9478E243
:100360000C94F39B0D94AC020C9461F00C945EA180
:100370000C94AAE60D94111B0C9452F00C94A696C2
:100380000C94526E0C94E3970C9421970C94BABB86
:100390000D94DC190C94A4D70C9489A50D94C6195E
:1003A0000C944BBA0C944D910C94D4DE0C9476D7EB
:1003B0000D94B8190C94E6970C94A7E60C94DAF215
:1003C0000C943C920D94C61A0D94B5190D94891A8B
:1003D0000C94B4BB0C94BEE64E414E494E49545960
:1003E000494E46CDCCCC3D0AD7233C17B7D1387700
:1003F000CC2B329595E6241FB14F0A000020410016
:1004000000C84200401C4620BCBE4CCA1B0E5AAE5F
:10041000C59D7400407A10F35A00A0724E1809006E
:1004200010A5D4E80000E87648170000E40B540259
:100430000000CA9A3B000000E1F505000080969894
:1004400000000040420F000000A0860100000010E4
:100450002700000000E80300000000640000000026
:10046000000A00000000000100000000002C76D807
:1004700088DC674F0823DFC1DFAE59E1B1B796E5ED
:10048000E3E453C63AE651997696E8E6C28426EB51
:10049000898C9B62ED407C6FFCEFBC9C9F40F2BA64
:1004A000A56FA5F490055A2AF75C936B6CF9676DFC
:1004B000C11BFCE0E40D47FEF520E6B500D0ED9051
:1004C0002E0300943577050080841E080000204E1E
:1004D0000A000000C80C333333330F986E128311B7
:1004E00041EF8D2114893BE65516CFFEE6DB18D18E
:1004F000844B381BF77C1D901DA4BBE42420328460
:10050000725E228100C9F124ECA1E53D27434F4DE5
:100510004D554E49434154494F4E0044525952554E
:100520004E004552524F525300494E464F004543EC
:10053000484F0047322F4733206261642070617258
:10054000616D65746572730A00536F7370656E73C5
:10055000696F6E652E2E2E005072656D6920746174
:1005600073746F2E2E004E657373756E204D6F760B
:10057000696D656E746F00456E642066696C6520F8
:100580006C6973740A00426567696E2066696C6500
:10059000206C6973740A004D31323500286E6F206B
:1005A00066696C6529005344207072696E74696EC7
:1005B00067206279746520004E6F74205344207068
:1005C00072696E74696E670A0043757272656E7443
:1005D0002066696C653A20005072696E74207469F7
:1005E0006D653A20002E05290522051B050D056FB6
:1005F00066660044454255473A0055434349534FC8
:100600002E20004D3131332053006F6B0052616654
:1006100066722E2070696174746F2E2E2E005269DE
:1006200073632E2070696174746F2E2E2E00444304
:100630002D32302032454842207234204F66662EDB
:10064000002C20002C2000544845524D414C5F5056
:10065000524F54454354494F4E004155544F524513
:10066000504F52545F53445F5354415455530045C7
:100670004D455247454E43595F50415253455200F4
:10068000434153455F4C494748545F4252494748AC
:10069000544E45535300544F47474C455F4C4947D0
:1006A00048545300534F4654574152455F504F579B
:1006B0004552004255494C445F50455243454E54C3
:1006C000004C4556454C494E475F44415441005A01
:1006D0005F50524F4245004155544F4C4556454C92
:1006E000005052494E545F4A4F420050524F4752B9
:1006F000455353004155544F5245504F52545F5447
:10070000454D5000564F4C554D45545249430045B8
:100710004550524F4D0053455249414C5F584F4E42
:100720005F584F4646004649524D574152455F4E2D
:10073000414D453A4D61726C696E20312E312E3932
:1007400020284769746875622920534F55524345E4
:100750005F434F44455F55524C3A68747470733A26
:100760002F2F6769746875622E636F6D2F4D6172EC
:100770006C696E4669726D776172652F4D61726C3E
:10078000696E2050524F544F434F4C5F5645525361
:10079000494F4E3A312E30204D414348494E455F36
:1007A000545950453A44432D323020324548422076
:1007B00072342045585452554445525F434F554E6C
:1007C000543A3220555549443A6365646532613282
:1007D000662D343161322D343734382D396231325F
:1007E0002D6335356336326633363766660A002F39
:1007F0002F20004D31343520533C696E6465783EBE
:10080000206F7574206F662072616E6765202830D6
:100810002D31290A00205400205200416363656C89
:1008200065726174696F6E3A205000205A00205939
:1008300000580020204D61783A2000205A002059AD
:1008400000580020204D696E3A20004F6E20004F66
:10085000666600536F667420656E6473746F7073A0
:100860003A2000486F74656E64206F666673657425
:10087000733A0020466C6F773A2000000136372625
:10088000FF02FFFF353C3D38FF0FFFFF312E303EAA
:100890001213FFFFFF28FF0C0804FFFFFF1A1C18AC
:1008A000FFFF2A24221EFFFF2C08440AFF4309FFF2
:1008B0004520643A0020693A0020703A00496E767B
:1008C000616C69642065787472756465720A0043AE
:1008D000290A0061626C656420286D696E20746568
:1008E0006D702000436F6C64206578747275646568
:1008F000732061726520004E6F2063617365206C08
:10090000696768740A00454550524F4D204F4B0AA5
:10091000002569730025696D2025697300256968C4
:100920002025696D20256973002569642025696883
:100930002025696D20256973002569792025696462
:10094000202569682025696D2025697300656E7111
:1009500075657565696E6720220020496E76616C49
:10096000696420657874727564657220000000BE49
:10097000C20000BEC2000000000000BE420000BE77
:1009800042000066430000000000000000000082FA
:100990004320200020205261646975733A00547A24
:1009A0000054790054780020205261646975733ACC
:1009B00000457A004579004578002E4865696768EA
:1009C000743A007879007A7800797A00207A0020E9
:1009D000790020780063002E20202020002530336D
:1009E000692E7800302E25303369002073643A0078
:1009F000737464206465763A007374642064657669
:100A00003A004E6F20636F6E76657267656E636540
:100A100000497465726174696F6E203A2025303226
:100A20006900536176652077697468204D353030F0
:100A300020616E642F6F7220636F707920746F2055
:100A4000436F6E66696775726174696F6E2E6800B8
:100A5000253033692E7800302E253033690043610C
:100A60006C6962726174696F6E2073643A007374AA
:100A700064206465763A0043616C696272617469EE
:100A80006F6E204F4B00456E64204452592D5255D5
:100A90004E00436F72726563742064656C746120EC
:100AA00073657474696E67732077697468204D3656
:100AB000363520616E64204D3636360A00202844D3
:100AC00052592D52554E29003F284D363635204279
:100AD0002965642072616469757320697320696D8A
:100AE000706C61757369626C652E0A00436865639A
:100AF0006B696E672E2E2E20414300473333204111
:100B000075746F2043616C6962726174650A003F9D
:100B10002856296572626F7365206C6576656C2056
:100B2000697320696D706C61757369626C652028EA
:100B3000302D33292E0A003F2846296F7263652025
:100B4000697465726174696F6E20697320696D7074
:100B50006C61757369626C652028302D3330292EE5
:100B60000A003F284329616C6962726174696F6E83
:100B700020707265636973696F6E20697320696D97
:100B8000706C61757369626C6520283E3D30292E5A
:100B90000A003F2850296F696E74732069732069B9
:100BA0006D706C61757369626C652028302D313011
:100BB000292E0A00534420436172642072696D6FCC
:100BC000737361005344204361726420696E7365DE
:100BD0007269746100486F6D6520257325732573F4
:100BE000207072696D6100207072696D610A005A2F
:100BF0000059005800486F6D652000534420636120
:100C00007264206F6B0A006F70656E526F6F742094
:100C10006661696C65640A00766F6C756D652E6936
:100C20006E6974206661696C65640A0053442069CA
:100C30006E6974206661696C0A0057726974696E26
:100C40006720746F2066696C653A20006F70656E6E
:100C5000206661696C65642C2046696C653A2000E9
:100C60006F70656E206661696C65642C2046696CE6
:100C7000653A200046696C652073656C6563746530
:100C8000640A002053697A653A200046696C652041
:100C90006F70656E65643A20002066696C653A2065
:100CA00000646F696E67006672657368004E6F77E7
:100CB0002000454E4420535542524F5554494E450D
:100CC0000A002220706F73002220706172656E74BA
:100CD0003A2200535542524F5554494E4520434104
:100CE0004C4C207461726765743A22005543434945
:100CF000534F2E2000747279696E6720746F2063E1
:100D0000616C6C207375622D67636F646520666922
:100D10006C6573207769746820746F6F206D616EE5
:100D200079206C6576656C732E204D4158206C657A
:100D300076656C2069733A00642E0A00206661694A
:100D40006C65642E0A00506F7765722D6C6F73733B
:100D50002066696C652064656C6574650046696C25
:100D6000652064656C657465643A0044656C6574FF
:100D7000696F6E206661696C65642C2046696C65DC
:100D80003A20006F70656E206661696C65642C2086
:100D900046696C653A200000101010101010000019
:100DA000141414141414000015151515151500004D
:100DB0001C1F11111F0000000E191803130E000450
:100DC0000E1F041C000000000E1517110E00000776
:100DD0000F1810040201001F0E1F0E1F0A04000C42
:100DE00012120C0000000009120912000E1F000070
:100DF000000000010204040000001C1C0C04040498
:100E0000020100000000000408100000000000259E
:100E1000753A2530327500253032753A25303275F5
:100E2000002D2D2D0053440044432D3230203245F7
:100E300048422072342070726F6E746F2E005374AB
:100E4000616D706120696E20636F72736F2E2E2E3C
:100E5000005374616D706120736F7370657361000E
:100E60004D313235004D3234005374616D70612064
:100E7000616E6E756C6C617461004739310A47317F
:100E800020452D340A4732380A4D353234004F7030
:100E90006572617A696F6E6920636F6D756E690046
:100EA0005265676F6C6100417676696120537461A9
:100EB0006D70610041727265737461207374616D4D
:100EC00070610052697072656E6469207374616D3F
:100ED0007061004D616E7574656E7A696F6E650044
:100EE000506175736120652073616C766100536396
:100EF0006865726D617461205072696E6369702EED
:100F000000290A002062797465733B2063726320B4
:100F10000053657474696E67732053746F726564EF
:100F2000202800290A002062797465733B206372CF
:100F30006320002073746F72656420736574746934
:100F40006E67732072657472696576656420280027
:100F5000202863616C63756C6174656429210A00E3
:100F600020213D2000454550524F4D204352432003
:100F70006D69736D61746368202D202873746F72BE
:100F800065642920002053697A653A2000496E641F
:100F900065783A2000204D61726C696E3D56353699
:100FA000290A0028454550524F4D3D0045455052B5
:100FB0004F4D2076657273696F6E206D69736D6138
:100FC000746368200020746F6F206C6F6E672065FB
:100FD0007874727573696F6E2070726576656E7461
:100FE00065640A0020636F6C6420657874727573A1
:100FF000696F6E2070726576656E7465640A006252
:1010000065640A002C2073797374656D2073746FA6
:101010007070656421204865617465725F49443A67
:10102000200045322054454D502046554F5249200E
:10103000434F4E54524F4C4C4F0045312054454D78
:10104000502046554F524920434F4E54524F4C4C1E
:101050004F00546865726D616C2052756E617761E6
:10106000790045312052697363616C642E204661BA
:101070006C6C69746F0045322052697363616C64F3
:101080002E2046616C6C69746F0048656174696EEE
:1010900067206661696C6564001000AA03F0013A7C
:1010A000019002220130031001D00302017004F705
:1010B000001005ED00B005E5005006DD00F006D794
:1010C000009007D1003008CC00D008C7007009C3D9
:1010D00000100ABE00B00ABB00500BB700F00BB303
:1010E00000900CB000D00DAA00100FA5005010A069
:1010F0000090119B00D0129600B014900090168BB7
:101100000070188500501A8000301C7B00B01E75DE
:101110000030216F00B02369003026640010285F82
:1011200000902A5A00702C5500F02E4F0070314864
:1011300000B0324500F033410070363900103737C7
:10114000005038330090392D00D03A2700B03C1CB5
:1011500000503D1700F03D1100903E0900D03FE5E2
:10116000FF4532204572723A2054454D50204D4182
:101170005353494D41004531204572723A20544540
:101180004D50204D415353494D41004572723A2014
:1011900054454D50204D415353494D4120504941F4
:1011A00054544F004D415854454D50207472696756
:1011B0006765726564004532204572723A20544575
:1011C0004D50204D494E494D4100453120457272E8
:1011D0003A2054454D50204D494E494D41004572ED
:1011E000723A2054454D50204D494E494D412050B2
:1011F000494154544F004D494E54454D502074724E
:1012000069676765726564004D383420582059203D
:101210005A204500202F002040002042403A002064
:10122000403A00203FECED3F5C7C3F2263617F3F12
:101230003F52B0DF3F323327E4F1A52C31DF7E3F50
:101240003F3F3F3F3F3F3FE13F3F3F3F3F3F3F3F0C
:101250003F3F3F3F3F3F3F3F3FEF783F3F3F3FF5FF
:101260003F3FE23F3F3F3FE13F3F3F3F3F3F3F3F49
:101270003F3F3F3FEE3F3F3F3FEFFD3F3F3F3FF5AB
:101280003F3F3F494E56414C494420444154410060
:101290004D32342053256C642054256C64004D324B
:1012A0003320257300473930004731204525690038
:1012B000473931004739322E30205A2573204525D1
:1012C000730047312058257320592573205A257300
:1012D00020463530303000496E6974206A6F6220D4
:1012E0007265636F7665727920696E666F2E205322
:1012F000697A653A20004D313036205025692053F7
:10130000256900542569004D313039205325690085
:10131000542569004D313930205325690047323852
:10132000205230004D3432302053300020534420BE
:101330006E6F6E2070726573656E746500526970B1
:1013400072656E6469207374616D706100537461BD
:101350006D7061206461205344004D656E7520708E
:1013600072696E636970616C6500446174692073B1
:1013700074616D70616E746500496D706F73746136
:101380007A696F6E690043616C696272617A2E20BE
:1013900044656C7461004D656E75207072696E6392
:1013A0006970616C650043616D6269612066696C9A
:1013B000616D656E746F00466C7573736F203200DB
:1013C000466C7573736F203200466C7573736F20B3
:1013D0003200466C7573736F203100466C75737301
:1013E0006F203100466C7573736F203100466C7549
:1013F00073736F00466C7573736F00466C7573730F
:101400006F0056656C6F636974612076656E746FEA
:101410006C610056656C6F636974612076656E74EB
:101420006F6C610056656C6F636974612076656EE0
:10143000746F6C610050696174746F0050696174FD
:10144000746F0050696174746F005567656C6C6FE0
:101450002032005567656C6C6F2032005567656CF3
:101460006C6F2032005567656C6C6F2031005567DA
:10147000656C6C6F2031005567656C6C6F203100B6
:1014800056656C6F63697461270056656C6F63699C
:101490007461270056656C6F6369746127004D6540
:1014A0006E75207072696E636970616C6500507250
:1014B000657269732E504C4120547574746F0050DE
:1014C00072657269732E504C41205567656C6C6F64
:1014D000204532005072657269732E504C412032A3
:1014E000005072657269732E504C41205567656CCF
:1014F0006C6F204531005072657269732E504C41FB
:101500002050696174746F005072657269732E5057
:101510004C4120310045736369004C69626572611A
:10152000206469207069750052697072656E646923
:10153000207374616D7061004F505A494F4E493AA3
:101540000020205567656C6C6F3A20006469206646
:10155000696C616D656E746F0064656C2063616DAC
:1015600062696F00417474656E64657265206176AE
:1015700076696F0020205567656C6C6F3A200064B7
:10158000656C2066696C616D656E746F006C2765B3
:101590007370756C73696F6E6500417474656E6409
:1015A0006572650020205567656C6C6F3A200041BC
:1015B0007474656E646572652E2E2E0052697363B5
:1015C000616C642E207567656C6C6F002020556718
:1015D000656C6C6F3A200072697363616C6420758E
:1015E00067656C6C6F2E005072656D692070657256
:1015F0000020205567656C6C6F3A20007072656D35
:10160000692070657220636F6E740066696C616D2D
:10161000656E746F206500496E73657269736369E6
:1016200020696C0020205567656C6C6F3A2000645F
:10163000656C2066696C616D656E746F00696C2005
:101640006361726963616D656E746F004174746586
:101650006E646572650020205567656C6C6F3A207A
:101660000064656C2066696C616D656E746F006CFA
:101670006F2073707572676F00417474656E646576
:1016800072650064656C6C61207374616D706100DB
:101690006C61207269707265736100417474656E6B
:1016A00064657265002D2D2D2D2D2D2D2D2D2D2DAB
:1016B0002D007C44656C7461636F6D622033447CE3
:1016C000002D2D2D2D2D2D2D2D2D2D2D2D004D6150
:1016D000726C696E2046572076312E312E39004DBE
:1016E00061726C696E2046572076312E312E39009A
:1016F00044432D3230204455414C202B2048454155
:10170000544245440044432D3230204455414C203E
:101710002B204845415442454400002020506C6134
:101720006E6E657242756666657242797465733A6B
:1017300020002046726565204D656D6F72793A20F4
:1017400000436F6D70696C65643A204A616E2020B9
:101750003720323032300A00207C20417574686FA7
:10176000723A20286E6F6E652C2064656661756C18
:101770007420636F6E666967290A00323031382D34
:1017800030382D303100204C617374205570646105
:101790007465643A2000312E312E390A004D617291
:1017A0006C696E0020536F667477617265205265B4
:1017B0007365740A00205761746368646F67205210
:1017C000657365740A002042726F776E206F7574BE
:1017D0002052657365740A002045787465726E61E5
:1017E0006C2052657365740A00506F77657255708E
:1017F0000A0073746172740A006175746F25692E32
:1018000067006572726F722077726974696E672003
:10181000746F2066696C650A00456E6473746F703E
:1018200020256320256320256320256300205A3A64
:101830000020593A0020583A00656E6473746F7046
:1018400073206869743A2000446F6E652073617676
:10185000696E672066696C652E0A004D3239006238
:101860007573793A2070617573656420666F7220B4
:10187000696E7075740A00627573793A20706175CB
:1018800073656420666F7220757365720A006275F5
:1018900073793A2070726F63657373696E670A00BB
:1018A00055434349534F2E20004B494C4C20636114
:1018B0007573656420627920746F6F206D7563683D
:1018C00020696E6163746976652074696D65202D89
:1018D0002063757272656E7420636F6D6D616E64E6
:1018E0003A2000526961767669617265207072658E
:1018F000676F005354414D50414E54452046455268
:101900004D415441005072696E7465722068616C7B
:101910007465642E206B696C6C28292063616C6C83
:101920006564210A00000048430000484300004865
:1019300043000000005761726E696E673A20486F7D
:101940006D696E672042756D702044697669736FAA
:1019500072203C20310A000A0A0A0000A040000060
:10196000A0400000A04000003E4300003E430000B5
:1019700066430101014D33310053442072656164B7
:10198000206572726F720A00446F6E652070726912
:101990006E74696E672066696C650A005543434939
:1019A000534F2E200041525245535441544F2E2044
:1019B000005072696E7465722073746F7070656424
:1019C0002064756520746F206572726F72732E20AB
:1019D00046697820746865206572726F7220616E46
:1019E0006420757365204D39393920746F20726514
:1019F00073746172742E202854656D706572617401
:101A00007572652069732072657365742E20536545
:101A100074206974206166746572207265737461E4
:101A20007274696E67290A004E6F20436865636BA4
:101A300073756D2077697468206C696E65206E75AA
:101A40006D6265722C204C617374204C696E653A2E
:101A500020004E6F20436865636B73756D20776956
:101A60007468206C696E65206E756D6265722C20DD
:101A70004C617374204C696E653A2000636865633D
:101A80006B73756D206D69736D617463682C204C88
:101A9000617374204C696E653A20004C696E652054
:101AA0004E756D626572206973206E6F74204C6193
:101AB0007374204C696E65204E756D6265722B31B2
:101AC0002C204C617374204C696E653A20004D31B6
:101AD00031300024F4D43050C38E20C2A24017828B
:101AE0008B7011127A910D816CD90AA861E108C737
:101AF000586607615143061E4B5D05C145A7041A90
:101B0000411104093D9803713931034036DB026508
:101B1000339102D4305402802E1D02632CEE0175E5
:101B20002AC501B028A001102781018F2564012B4F
:101B3000244B01E0223401AC211F018D200D0180D6
:101B40001FFC00841EED00971DDF00B81CD200E6CC
:101B50001BC600201BBC00641AB200B219A8000A00
:101B600019A0006A189900D117910040178B00B591
:101B700016840031167E00B31579003A157300C73C
:101B8000146F0058146A00EE136600881363002572
:101B9000135E00C7125B006C12570015125400C18F
:101BA00011510070114F0021114B00D61049008DCA
:101BB0001047004610440002104200C00F40008051
:101BC0000F3E00420F3C00060F3B00CB0E38009347
:101BD0000E37005C0E3500270E3400F30D3200C1C5
:101BE0000D3100900D3000600D2E00320D2D0005DE
:101BF0000D2C00D90C2B00AE0C2900850C29005CA3
:101C00000C2700350C27000E0C2600E80B2400C41E
:101C10000B2400A00B23007D0B23005A0B2100395D
:101C20000B2100180B2000F80A1F00D90A1E00BB68
:101C30000A1E009D0A1D00800A1D00630A1C004741
:101C40000A1B002C0A1B00110A1A00F7091A00DDF2
:101C5000091900C4091900AB091900920917007B82
:101C6000091800630917004C0916003609160020F0
:101C70000916000A091500F5081500E0081400CC43
:101C8000081400B8081400A4081400900813007D7C
:101C90000812006B0813005808120046081200349E
:101CA000081100230811001208110001081100F0AA
:101CB000071000E0071000D0071000C0071000B0A8
:101CC000070F00A107100091070E0083070F007493
:101CD000070F0065070E0057070E0049070E003B6F
:101CE000070D002E070E0020070D0013070D00063C
:101CF000070D00F9060C00ED060D00E0060C00D4FF
:101D0000060C00C8060C00BC060C00B0060C00A4B3
:101D1000060B0099060C008D060B0082060B00775F
:101D2000060B006C060B0061060A0057060B004C00
:101D3000060A0042060A0038060A002E060A002497
:101D4000060A001A060A001006090007060A00FD26
:101D5000050900F4050900EB050900E2050900D9B1
:101D6000050900D0050900C7050900BE050900B531
:101D7000050800AD050800A50509009C05080094AC
:101D80000508008C050800840508007C050800741F
:101D90000508006C050700650508005D050700568D
:101DA0000508004E050700470507004005080038F4
:101DB000050700310507002A050700230507001C59
:101DC000050600160507000F0507000805060002B6
:101DD000050700FB040600F5040700EE040600E812
:101DE000040600E2040700DB040600D5040600CF69
:101DF000040600C9040600C3040600BD040600B7BB
:101E0000040600B1040500AC040600A6040600A008
:101E10000405009B04060095040500900406008A52
:101E200004050085040500800406007A0405007599
:101E3000040500700405006B0405006604050061DC
:101E40000405005C04050057040500520405004D1C
:101E500004050048040500430405003E0404003A5C
:101E600004050035040500300404002C0405002797
:101E7000040400230405001E0404001A04040016D0
:101E8000040500110404000D040400090405000405
:101E900004040000040400FC030400F8030400F43C
:101EA000030400F0030400EC030400E8030400E46E
:101EB000030400E0030400DC030400D8030400D49E
:101EC000030400D0030400CC030400C8030300C5CE
:101ED00003030024F404D9201BC40C5C0E9804C432
:101EE000095F0265077101F405F900FB04B30048BE
:101EF000048700C10369005803550003034500BE71
:101F0000023A008402310053022A0029022500040B
:101F1000022000E4011C00C8011900AF011700985D
:101F200001140084011300710110006101100051BF
:101F3000010E0043010D0036010B002B010B0020A8
:101F4000010B00150109000C01090003010800FB49
:101F5000000800F3000800EB000700E4000600DEC4
:101F6000000600D8000600D2000600CC000500C71D
:101F7000000500C2000500BD000400B9000400B562
:101F8000000400B1000400AD000400A9000400A595
:101F9000000300A20003009F0004009B00030098C0
:101FA0000003009500020093000300900003008DE1
:101FB0000002008B000300880002008600020084FB
:101FC000000300810002007F0002007D0002007B10
:101FD0000002007900020077000100760002007420
:101FE00000020072000100710002006F0002006D2B
:101FF0000001006C0002006A000100690002006735
:10200000000100660001006500010064000200623A
:1020100000010061000100600001005F0002005D3E
:102020000001005C0001005B0001005A0001005942
:102030000001005800010057000100560001005542
:102040000001005400010053000000530001005241
:1020500000010051000100500001004F0001004E3E
:102060000000004E0001004D0001004C0001004B3B
:102070000000004B0001004A000100490001004837
:102080000000004800010047000100460000004633
:10209000000100450000004500010044000100432C
:1020A0000000004300010042000000420001004126
:1020B00000000041000100400001003F0000003F1F
:1020C0000001003E0000003E0001003D0000003D18
:1020D0000001003C0000003C0000003C0001003B0F
:1020E0000000003B0001003A0000003A0001003906
:1020F00000000039000100380000003800000038FE
:1021000000010037000000370001003600000036F3
:1021100000000036000100350000003500000035E9
:1021200000010034000000340000003400010033DE
:1021300000000033000000330001003200000032D4
:1021400000000032000100310000003100000031C9
:102150000001003000000030000000300001002FBE
:102160000000002F0000002F0000002F0001002EB3
:102170000000002E0000002E0001002D0000002DA8
:102180000000002D0000002D0001002C0000002C9C
:102190000000002C0000002C0001002B0000002B90
:1021A0000000002B0000002B0001002A0000002A84
:1021B0000000002A0000002A000100290000002978
:1021C000000000290000002900000029000100286B
:1021D000000000280000002800000028000000285F
:1021E0000001002700000027000000270000002752
:1021F0000000002700010026000000260000002645
:102200000000002600000026000100250000002537
:10221000000000250000002500000025000000252A
:10222000000100240000002400000024000000241D
:102230000000002400010023000000230000002310
:102240000000002300000023000000230000002302
:1022500000010022000000220000002200000022F5
:1022600000000022000000220001002100000021E7
:1022700000000021000000210000002100000021DA
:1022800000000021000100200000002000000020CC
:1022900000000020000000200000002000000020BE
:1022A000000000200001001F0000001F0000001FB0
:1022B0000000001F0000001F0000001F0000001FA2
:1022C0000001001E0000001E0000001E0000001E95
:1022D000000000043700001E290000511B000058B8
:1022E00010000010090000CC04000078020000413A
:1022F00001000043616E6E6F7420656E746572201C
:102300007375626469723A2000052E2E004573636E
:10231000690000546F74616C652065737472757325
:102320006F3A2000256C642E25696D00004C6176A3
:102330006F726F207069C3B9206C756E676F3A2039
:10234000000054656D706F20746F74616C653A2085
:1023500000436F6D706C65746174693A2000436F5F
:102360006E7461742E207374616D70613A20005434
:10237000656D70206D61783A203135300054656D9F
:1023800070206D696E3A203500544265643A3125FB
:10239000206265746120333935300054656D7020DA
:1023A0006D61783A203237350054656D70206D6963
:1023B0006E3A20350054313A20312520626574612F
:1023C00020333935300054656D70206D61783A20C6
:1023D0003237350054656D70206D696E3A203500D6
:1023E00054303A203125206265746120333935300C
:1023F00000416C696D656E7461746F72653A204757
:10240000656E657269630050726F746F636F6C6C98
:102410006F3A20312E3000426175643A20323530F7
:102420003030300052414D505320312E340045732E
:10243000747275736F72693A203200687474703AFE
:102440002F2F6D61726C696E66772E6F7267004414
:10245000432D323020324548422072340032303130
:10246000382D30382D303100312E312E39004D616C
:10247000726C696E00537461746973746963686522
:10248000005465726D6973746F726900496E666F8E
:102490002E2073636865646100496E666F2E207339
:1024A00074616D70616E74650045736369004D37CA
:1024B000303220542564004D3630302042302054D4
:1024C0002564004D373032203B2564004D373031D4
:1024D00020542564004D36303020423020543100E5
:1024E00043616D6269612066696C616D656E746FD0
:1024F000204532004D3630302042302054300043E9
:10250000616D6269612066696C616D656E746F20D2
:1025100045310045736369005354414D5041204992
:102520004E2050415553410052494D554F56492078
:1025300046494C414D454E544F0043415249434159
:102540002046494C414D454E544F00205A3A0020F8
:10255000593A0020436F756E7420583A0020453A6E
:1025600000205A3A0020593A00583A003A00436194
:10257000703A0023646566696E652044454641559E
:102580004C545F4B64200023646566696E6520448B
:10259000454641554C545F4B69200023646566698C
:1025A0006E652044454641554C545F4B70200050A9
:1025B0004944204175746F74756E652066696E6953
:1025C00073686564212050757420746865206C619F
:1025D0007374204B702C204B6920616E64204B6417
:1025E00020636F6E7374616E74732066726F6D20FA
:1025F00062656C6F7720696E746F20436F6E6669D9
:102600006775726174696F6E2E680A0050494420C4
:102610004175746F74756E65206661696C656421BF
:102620002074696D656F75740A0045322054454DFC
:10263000502046554F524920434F4E54524F4C4C18
:102640004F0045312054454D502046554F524920AA
:10265000434F4E54524F4C4C4F00546865726D615D
:102660006C2052756E617761790045322052697332
:1026700063616C642E2046616C6C69746F00453137
:102680002052697363616C642E2046616C6C6974BE
:102690006F0048656174696E67206661696C656486
:1026A00000504944204175746F74756E65206661F1
:1026B000696C6564212054656D7065726174757212
:1026C0006520746F6F20686967680A00204B643A60
:1026D0002000204B693A2000204B703A20000A204D
:1026E000436C617373696320504944200A0020548D
:1026F000753A2000204B753A2000206D61783A2011
:1027000000206D696E3A200020643A200020626942
:1027100061733A2000504944204175746F74756E9E
:1027200065206661696C6564212054656D70657211
:10273000617475726520746F6F20686967680A003C
:10274000504944204175746F74756E6520737461CF
:1027500072740A00504944204175746F74756E6537
:10276000206661696C65642120426164206578742B
:102770007275646572206E756D6265720A00496ECD
:10278000736572742066696C616D656E7420616E2C
:102790006420707265737320627574746F6E0A00C2
:1027A000507265737320627574746F6E20746F203D
:1027B00068656174206E6F7A7A6C650A00496E7381
:1027C0006572742066696C616D656E7420616E64FB
:1027D00020707265737320627574746F6E20286F39
:1027E00072204D313038290A00496E76616C696477
:1027F0002065787472756465720A00416374697645
:10280000652045787472756465723A20007C3C3EA0
:102810005E2B3D3F2F5B5D3B2C2A225C0050726596
:102820007269732E41425320547574746F00507254
:10283000657269732E414253205567656C6C6F2039
:102840004532005072657269732E41425320320046
:102850005072657269732E414253205567656C6CE6
:102860006F204531005072657269732E41425320CA
:1028700050696174746F005072657269732E4142C1
:102880005320310045736369005072657269736348
:10289000616C6461204142530050726572697363D8
:1028A000616C646120504C410052616666726564DF
:1028B00064610043616D6269612066696C616D6588
:1028C0006E746F004469736162696C697461204D54
:1028D0006F746F7269004D3834004175746F204811
:1028E0006F6D6500473238004D756F766920417312
:1028F0007365004D656E75207072696E63697061F5
:102900006C6500426172726120446961676F6E613B
:102910006C6500426172726120446961676F6E612B
:102920006C6500547A00547A00547900547900544C
:10293000780054780052616767696F005261676779
:10294000696F00457A00457A004579004579004570
:102950007800457800416C74657A7A6100416C7446
:10296000657A7A61004573636900496E697A6961C5
:102970006C697A7A6120454550524F4D004573632A
:10298000690052697072697374696E6120696D7053
:102990002E00436172696361206461206D656D6F13
:1029A00072696100496E697A69616C697A7A61203D
:1029B000454550524F4D0053616C766120696E2041
:1029C0006D656D6F7269610046696C616D656E74ED
:1029D0006F004D6F76696D656E746F0054656D7034
:1029E0006572617475726100457363690050726548
:1029F0007269732E41425320636F6E660050726598
:102A00007269732E504C4120636F6E6600504944CA
:102A10002D44005049442D44005049442D49005054
:102A200049442D49005049442D50005049442D50EF
:102A30000002204661637400022046616374000254
:102A4000204D61780002204D61780002204D6178B0
:102A50000002204D696E0002204D696E0002204D7B
:102A6000696E004F6666004F6E20004175746F748A
:102A7000656D700056656C6F636974612076656E74
:102A8000746F6C610056656C6F6369746120766564
:102A90006E746F6C610056656C6F6369746120764B
:102AA000656E746F6C610050696174746F00506979
:102AB0006174746F0050696174746F005567656C60
:102AC0006C6F2032005567656C6C6F203200556763
:102AD000656C6C6F2032005567656C6C6F2031003F
:102AE0005567656C6C6F2031005567656C6C6F20A5
:102AF0003100457363690053616C766120696E2013
:102B00006D656D6F7269610050696174746F00501A
:102B1000696174746F0050696174746F0055676502
:102B20006C6C6F005567656C6C6F005567656C6CFD
:102B30006F0056656C6F636974612076656E746FA3
:102B40006C610056656C6F636974612076656E74A4
:102B50006F6C610056656C6F636974612076656E99
:102B6000746F6C610054656D70657261747572612B
:102B70000056652D6A65726B0056652D6A65726B2D
:102B80000056652D6A65726B0056632D6A65726B1F
:102B90000056632D6A65726B0056632D6A65726B11
:102BA0000056622D6A65726B0056622D6A65726B03
:102BB0000056622D6A65726B0056612D6A65726BF4
:102BC0000056612D6A65726B0056612D6A65726BE5
:102BD000004D6F76696D656E746F0045706173733B
:102BE000692F6D6D004570617373692F6D6D0043C2
:102BF00070617373692F6D6D004370617373692F1A
:102C00006D6D004270617373692F6D6D004270616C
:102C10007373692F6D6D004170617373692F6D6DF2
:102C2000004170617373692F6D6D004D6F76696D32
:102C3000656E746F0050617373692F6D6D004A6526
:102C4000726B00416363656C6572617A696F6E6572
:102C50000056656C6F636974C3A0004573636900B7
:102C6000436172696361206D6D2032004361726956
:102C70006361206D6D203200436172696361206D74
:102C80006D203200436172696361206D6D203100F7
:102C9000436172696361206D6D2031004361726927
:102CA0006361206D6D203100436172696361206D45
:102CB0006D00436172696361206D6D0043617269EB
:102CC0006361206D6D0052696D756F7669206D6D61
:102CD00020320052696D756F7669206D6D2032006B
:102CE00052696D756F7669206D6D20320052696D85
:102CF000756F7669206D6D20310052696D756F7644
:102D000069206D6D20310052696D756F7669206D97
:102D10006D20310052696D756F7669206D6D0052BE
:102D2000696D756F7669206D6D0052696D756F768E
:102D300069206D6D004469616D2E2066696C6F209D
:102D400032004469616D2E2066696C6F2032004448
:102D500069616D2E2066696C6F2031004469616D78
:102D60002E2066696C6F2031004469616D2E2066EB
:102D7000696C6F004469616D2E2066696C6F004F4D
:102D80006666004F6E20004520696E206D6D330031
:102D90004573636900000020002300260029002CF1
:102DA000002F0032000001000003010601090105A7
:102DB000050505070508080808020202020A0A08B4
:102DC00008040404040101010101010101030303DA
:102DD0000303030303040707070C0C0C0C0C0C0C77
:102DE0000C0202020206060606060606060B0B0B7E
:102DF0000B0B0B0B0B0102102020080810204010B9
:102E000020408002010201080402010102040810AE
:102E100020408080402010080402018004020180CC
:102E200040201008040201080402010102040810F5
:102E3000204080010204081020408000000A0B029C
:102E4000090C0D0E0807030401000000000000003B
:102E50000000000000000000000000000000000072
:102E6000000000000000001211100000000000002F
:102E70000000000000000000000000000000000052
:102E80000043616D6269612066696C616D656E7495
:102E90006F0050726572697363616C6461204142B6
:102EA000530050726572697363616C646120504CA9
:102EB000410043616D6269612066696C616D656E98
:102EC000746F004D3234004D323320257300556E3F
:102ED0006B6E6F776E20636F6D6D616E643A20224A
:102EE00000496E736572742066696C616D656E74FD
:102EF00020616E6420707265737320627574746FE4
:102F00006E20286F72204D313038290A006F7065AD
:102F10006E206661696C65642C2046696C653A2098
:102F20000057726974696E6720746F2066696C65FA
:102F30003A2000486F74656E6420746F6F20636F71
:102F40006C640A00496D706F7374617A2E20446559
:102F50006C746100496D702E20616C74657A7A61C1
:102F60002044656C7461004D363635204832363069
:102F70002E30300A4733332050310A4D353030007F
:102F80004175746F2063616C696272617A696F6EFA
:102F900065004D36363520483236302E30300A4DF9
:102FA000363636205830205930205A300A473333CD
:102FB0002050332054310A4D353030004573636959
:102FC000004D756F76692058004D756F76692059F0
:102FD000004D756F7669205A004573747275736F72
:102FE000726532004573747275736F726531004D8E
:102FF000756F766920646920302E316D6D004D75D6
:103000006F7669206469202020316D6D004D756FE9
:103010007669206469202031306D6D004D756F76C2
:10302000692041737365004573747275736F7265BF
:10303000004D756F7669205A004D756F766920597D
:10304000004D756F7669205800496E206D6F766966
:103050006D656E746F2E2E2E004573747275736FCE
:10306000726532004573747275736F726531004515
:1030700073747275736F7265004175746F20486F59
:103080006D6500473238004D756F7669205A0058DB
:1030900059206C6962657269004D756F76692059B7
:1030A000004D756F7669205800457363690052655D
:1030B00073656E643A20006F6B0020746F6F206C34
:1030C0006F6E6720657874727573696F6E207072A9
:1030D0006576656E7465640A0020636F6C642065B4
:1030E0007874727573696F6E2070726576656E7430
:1030F00065640A005654726176206D696E005654FC
:10310000726176206D696E005654726176206D6929
:103110006E00566D696E00566D696E00566D696E73
:1031200000566D6178204500566D61782045005647
:103130006D6178204500566D6178204300566D61C1
:1031400078204300566D6178204300566D617820E9
:103150004200566D6178204200566D617820420031
:10316000566D6178204100566D6178204100566DA2
:1031700061782041004D6F76696D656E746F004116
:103180006D6178204500416D6178204500416D6199
:1031900078204300416D6178204300416D617820C3
:1031A0004200416D6178204200416D61782041000C
:1031B000416D6178204100412D53706F7374616DD2
:1031C000656E746F00412D53706F7374616D656E21
:1031D000746F00412D7265747261637400412D72C9
:1031E00065747261637400416363656C004163637D
:1031F000656C004D6F76696D656E746F0043616E2E
:103200006E6F74206F70656E2073756264697220D2
:10321000006563686F3A004572726F723A004572DA
:10322000726F722077726974696E6720746F2045BF
:103230004550524F4D210A00454550524F4D206494
:1032400061746173697A65206572726F722E0A000B
:103250004D3630303A54726F70706F20667265640C
:10326000646F00486F74656E6420746F6F20636FC5
:103270006C640A0050726F746563746564205069F1
:103280006E0A0046696C616D656E742075736564C5
:103290003A200053746174733A20002C204C6F6EF6
:1032A00067657374206A6F623A2000546F74616CB2
:1032B0002074696D653A200053746174733A20007C
:1032C0002C204661696C65643A20002C2046696EAA
:1032D00069736865643A20005072696E74733A20AD
:1032E0000053746174733A200020573A00452569F1
:1032F000205261666672656464616D656E746F2EDE
:103300002E004525692052697363616C64616D65A7
:103310006E746F2E2E2E0048617264636F64656454
:103320002044656661756C742053657474696E67BA
:1033300073204C6F616465640A0010270000102739
:103340000000102700001027000000002A430000A2
:103350002A4300002A4300008C420000C8420000BB
:10336000C8420000C84200001243486F6D652066E5
:10337000616C6C69746F005452494747455245442B
:10338000006F70656E003A20007A5F6D6178007A98
:103390005F6D696E00795F6D617800785F6D61784F
:1033A000005265706F7274696E6720656E64737425
:1033B0006F70207374617475730A002D2D2D2D2D7F
:1033C0002D2D2D2D2D2D2D2D2D2D2D2D2D2D2D2D2D
:1033D0002D2D2D2D2D2D0A007072696E745F6A6F70
:1033E000625F656C61707365643A20007364706F2E
:1033F000733A200073645F66696C656E616D653A4F
:1034000020003E20003E2000636F6D6D616E64738E
:103410005F696E5F71756575653A2000636D645F05
:1034200071756575655F696E6465785F723A2000D5
:1034300066616E5370656564733A200074617267EB
:1034400065745F74656D70657261747572655F62D5
:1034500065643A20007461726765745F74656D70AD
:10346000657261747572653A20006163746976658E
:103470005F686F74656E643A2000666565647261AA
:1034800074653A200063757272656E745F706F7355
:103490006974696F6E3A2000494E56414C49442088
:1034A000444154410A002076616C69645F666F6F25
:1034B000743A0076616C69645F686561643A002DF6
:1034C0002D2D2D204A6F62205265636F76657279CB
:1034D00020496E666F202D2D2D2D0A00506F7765C7
:1034E000722D6C6F73732066696C652077726974D6
:1034F00065206661696C65642E0A00506F7765729D
:103500002D4C6F7373205265636F7665727900532B
:103510006176696E672E2E2E0A00000021002400BD
:1035200027002A002D0030003300010100000401B3
:1035300007010A0100002200250028002B002E00B0
:103540003100340002010000050108010B01900167
:103550000E0111241FBECFEFD1E2DEBFCDBF00E0D0
:103560000CBF13E0A0E0B2E0E8EDFBE602E00BBF29
:1035700002C007900D92A237B107D9F72AE1A2E75E
:10358000B3E001C01D92AC33B207E1F71AE1C8EA1B
:10359000DAE100E006C021970109802FFE010F94B7
:1035A000DF31C73AD10780E00807A9F70F94541D0F
:1035B0000D94DA350C9400002F923F924F925F9257
:1035C0006F927F928F929F92AF92BF92CF92DF9233
:1035D000EF92FF920F931F93CF93DF93CDB7DEB798
:1035E000CF55D1090FB6F894DEBF0FBECDBF21E095
:1035F0002093111580917C158D3409F45BC68435B8
:1036000011F40C940630873411F00C943230209071
:103610007A1530907B153BE12316310409F4A9C5D6
:103620008CF454E0251631043CF482E02816310471
:10363000ECF537FE34C03AC694E02916310409F49B
:1036400059C534C6AAE52A16310409F4C2C574F472
:10365000ECE12E16310409F4B8C5F1E22F1631045D
:1036600009F024C60E945E410C9434303BE52316D9
:10367000310409F4B2C54CE52416310409F016C62C
:10368000F9E62F2EF2E03F2EA7E4EA2EA5E1FA2E6E
:10369000B1EDCB2EB3E0DB2E00E010E0D7C580917A
:1036A000090281110C9439300C9434308091090254
:1036B000882311F40C9434300E94913A82E50E94E0
:1036C000843A882309F438C10E94083A4B015C010E
:1036D00020E030E0A9010F94C82A882309F458C1DA
:1036E0008091D1039091D203A091D303B091D403E0
:1036F0008CA79DA7AEA7BFA72091D5033091D60375
:103700004091D7035091D80328AB39AB4AAB5BABA0
:103710008091121590911315A0911415B091151563
:103720008CAF9DAFAEAFBFAF20911615309117157E
:10373000409118155091191528AF39AF4AAF5BAFBA
:103740009C01AD016CA57DA58EA59FA50F94C82AEF
:1037500081110DC028AD39AD4AAD5BAD68A979A91D
:103760008AA99BA90F94C82A882309F411C111E0E2
:1037700032E02316310409F010E020E030E0A90126
:10378000C501B4010F94C82A881F8827881F1817FD
:1037900059F080E090E0A0E8BFEB28968CAF9DAF99
:1037A000AEAFBFAF28970AC020E030E040E85FE34B
:1037B00028962CAF3DAF4EAF5FAF28972CA53DA507
:1037C0004EA55FA56CAD7DAD8EAD9FAD0F94EF3175
:1037D00024966CAF7DAF8EAF9FAF249728A939A9EF
:1037E0004AA95BA968AD79AD8AAD9BAD0F94EF3165
:1037F0006B017C0124962CAD3DAD4EAD5FAD2497A1
:10380000CA01B9010F942E2B2B013C01A70196018F
:10381000C701B6010F942E2B9B01AC01C301B2016D
:103820000F94F0310F94F2346CAB7DAB8EAB9FAB49
:1038300020E030E040E05FE30F942E2B2B013C01B1
:10384000A5019401C501B4010F942E2B4B015C011D
:10385000A3019201C301B2010F942E2B9B01AC0175
:10386000C501B4010F94EF310F94F23428962CADBA
:103870003DAD4EAD5FAD28970F942E2B4B015C01F3
:10388000C701B60190582CA93DA94EA95FA90F9474
:10389000EA32A50194010F942E2B6B017C012CAD13
:1038A0003DAD4EAD5FAD6CA57DA58EA59FA50F94DA
:1038B000F03120E030E040E05FE30F942E2B9B01DD
:1038C000AC01C701B6010F94F0312CA53DA54EA562
:1038D0005FA50F94EF316B017C0128AD39AD4AAD86
:1038E0005BAD68A979A98AA99BA90F94F03120E062
:1038F00030E040E05FE30F942E2B2B013C012CA91C
:103900003DA94EA95FA924966CAD7DAD8EAD9FAD4E
:1039100024970F94EA32A50194010F942E2B9B015A
:10392000AC01C301B2010F94F03128A939A94AA909
:103930005BA90F94EF3114C089E40E94843A882374
:1039400029F00E94083A6B017C0103C0C12CD12CE4
:1039500076018AE40E94843A8823E9F00E94083ABA
:103960006CAF7DAF8EAF9FAF20E030E0A901C70103
:10397000B6010F94C82A81111BC020E030E0A901D4
:103980006CAD7DAD8EAD9FAD0F94C82A811110C076
:10399000E7E1F2E39BC320E030E0A901C701B601F3
:1039A0000F94C82A8823A1F31CAE1DAE1EAE1FAE15
:1039B000D701C601B0588CA79DA7AEA7BFA72CAD55
:1039C0003DAD4EAD5FAD505828AB39AB4AAB5BABAC
:1039D0009C01AD01BC01CD010F942E2B4B015C016C
:1039E00028A939A94AA95BA9CA01B9010F942E2BAC
:1039F0009B01AC01C501B4010F94F0310F94F23476
:103A000064966CAF7DAF8EAF9FAF64978091D1030A
:103A10009091D203A091D303B091D40388AF99AF12
:103A2000AAAFBBAFA7019601BC01CD010F94F03145
:103A300028966CAF7DAF8EAF9FAF28972091D503AE
:103A40003091D6034091D7035091D80324962CAFE0
:103A50003DAF4EAF5FAF24972CAD3DAD4EAD5FADEA
:103A600024966CAD7DAD8EAD9FAD24970F94F03153
:103A700068966CAF7DAF8EAF9FAF6897809112153F
:103A800090911315A0911415B09115152C968CAF2B
:103A90009DAFAEAFBFAF2C9728962CAD3DAD4EADD0
:103AA0005FAD2897BC01CD010F94EF316B017C0114
:103AB0002091161530911715409118155091191530
:103AC00060962CAF3DAF4EAF5FAF609768962CAD60
:103AD0003DAD4EAD5FAD689760966CAD7DAD8EAD82
:103AE0009FAD60970F94EF314B015C018091D9033A
:103AF0009091DA03A091DB03B091DC036C968CAF5C
:103B00009DAFAEAFBFAF6C979C01AD0160911A1530
:103B100070911B1580911C1590911D150F94EF311C
:103B20006CAB7DAB8EAB9FABA70196016CA57DA561
:103B30008EA59FA50F942E2B2B013C01A50194016E
:103B400068A979A98AA99BA90F942E2B9B01AC0186
:103B5000C301B2010F94F0312B013C01A501940186
:103B60006CA57DA58EA59FA50F942E2B4B015C0106
:103B7000A701960168A979A98AA99BA90F942E2B60
:103B80009B01AC01C501B4010F94EF31A301920177
:103B90000F946F326B017C0120E030E0A9010F949B
:103BA000C82A87FF0AC02BED3FE049EC50E4C7016B
:103BB000B6010F94F0316B017C0192E029163104BB
:103BC00051F42BED3FE049EC50E4C701B6010F94EE
:103BD000EF316B017C0120E030E0A901C701B601A3
:103BE0000F94C82A811126C02C962CAD3DAD4EAD48
:103BF0005FAD2C9768AD79AD8AAD9BAD0F94C82AA7
:103C0000811118C060962CAD3DAD4EAD5FAD609793
:103C100024966CAD7DAD8EAD9FAD24970F94C82AD0
:103C2000811108C00BEDC02E0FE0D02E09ECE02E64
:103C300000E4F02EA701960164966CAD7DAD8EADCB
:103C40009FAD64970F942E2B4B015C0120E030E078
:103C5000A9016CA97DA98EA99FA90F94C82A8823C0
:103C6000D9F0A5019401C501B4010F942E2B4B018D
:103C70005C012CA93DA94EA95FA9CA01B9010F9405
:103C80002E2B9B01AC01C501B4010F94F0310F94B0
:103C9000F2344B015C010DC020E030E0A901C50108
:103CA000B4010F94A43487FF04C0B7FAB094B7F8F6
:103CB000B0942FE632E143E85AE3C501B4010F9412
:103CC000C82A87FF02C00C943430C501B4010F9498
:103CD00092330F94633322967FAF6EAF2297DB014E
:103CE000AB2B31F4E1E0F0E02296FFAFEEAF22978C
:103CF0004090DD035090DE036090DF037090E0039E
:103D000022962EAD3FAD2297B90180E090E00F944E
:103D1000CD2A4B015C019B01AC01C701B6010F9498
:103D2000EA3268AF79AF8AAF9BAFA50194016CA965
:103D30007DA98EA99FA90F94EA3264966CAF7DAFDE
:103D40008EAF9FAF6497A301920160911E15709191
:103D50001F1580912015909121150F94EF31A50129
:103D600094010F94EA32A0966CAF7DAF8EAF9FAFF7
:103D7000A09728AD39AD4AAD5BADCA01B9010F942A
:103D80002E2B20E030E040E05FE30F942E2B9B01D0
:103D9000AC0160E070E080E89FE30F94EF312C9677
:103DA0006CAF7DAF8EAF9FAF2C976C968CAD9DADF9
:103DB000AEADBFAD6C9789879A87AB87BC874D86C0
:103DC0005E866F86788A6091190270911A02072EBA
:103DD000000C880B990B0F94CF2A20910002309190
:103DE000010240910202509103020F942E2B2AE00F
:103DF00037ED43E25CE30F942E2B68A779A78AA7DF
:103E00009BA70F945E1B9B01AC0128533F4F4F4F64
:103E10005F4F60962CAF3DAF4EAF5FAF60974CA445
:103E20005DA46EA47FA422242394312C39E13CAB01
:103E300022964EAD5FAD22974215530509F41EC17F
:103E40000E9494920F945E1BDC01CB0160962CAD16
:103E50003DAD4EAD5FAD6097821B930BA40BB50BD0
:103E6000B7FD11C00F945E1B9B01AC0128533F4F5F
:103E70004F4F5F4F60962CAF3DAF4EAF5FAF609737
:103E800080E00E9421AD3CA931503CAB332309F4C2
:103E900041C028A939A94AA95BA92C966CAD7DAD72
:103EA0008EAD9FAD2C970F942E2B6B017C01920150
:103EB000A30168AD79AD8AAD9BAD0F942E2BA70100
:103EC00096010F94F0317B018C019201A3012C9695
:103ED0006CAD7DAD8EAD9FAD2C970F942E2B4B010D
:103EE0005C0128A939A94AA95BA968AD79AD8AAD59
:103EF0009BAD0F942E2B9B01AC01C501B4010F9417
:103F0000EF312B013C01C701D80188AB99ABAAABBB
:103F1000BBAB4DC0B10180E090E00F94CD2A28AD3D
:103F200039AD4AAD5BAD0F942E2B4B015C010F9464
:103F3000E5326B017C01C501B4010F94E4344B01FF
:103F40005C01A70196016CA57DA58EA59FA50F9488
:103F50002E2B2B013C012CAD3DAD4EAD5FADC5010F
:103F6000B4010F942E2BA30192010F94F0312B0179
:103F70003C01A50194016CA57DA58EA59FA50F947C
:103F80002E2B4B015C012CAD3DAD4EAD5FADC7019D
:103F9000B6010F942E2B9B01AC01C501B4010F9407
:103FA000EF3168AB79AB8AAB9BAB49E14CAB92018B
:103FB000A30128966CAD7DAD8EAD9FAD28970F9473
:103FC000F03169837A838B839C8328A939A94AA914
:103FD0005BA968966CAD7DAD8EAD9FAD68970F9473
:103FE000F0316D837E838F83988764962CAD3DADD1
:103FF0004EAD5FAD649769857A858B859C850F94FE
:10400000F03169877A878B879C87A0962CAD3DAD70
:104010004EAD5FADA0976D857E858F8598890F9495
:10402000F0316D877E878F87988B8091620288231D
:1040300021F0CE0101960E944FA8E090CA1618A266
:1040400019A21AA21BA2CE0101960E941FF6CE0150
:1040500080966C018E01085D1F4F9E01235F3F4FCC
:1040600049EE53E065EE73E081EE93E00E94DD7E61
:10407000882321F09FEF291A390ADACEE090CA1678
:104080001CA21DA21EA21FA282E195E10E941FF6A2
:10409000DE0194966D018E01085D1F4F2EE135E122
:1040A00049EE53E065EE73E081EE93E00E94DD7E21
:1040B00080E1E2E1F5E1A1EDB3E001900D928A9596
:1040C000E1F70C9434300E94B13EF80184918F01E5
:1040D0000F5F1F4F8111F7CFE3E3F5E084918F016C
:1040E0000F5F1F4F882311F40C9434300E94B13EAF
:1040F000F801F4CF80E50E94843A882329F00E94D9
:10410000C4396B017C0103C0C12CD12C760183E53D
:104110000E94843A882361F00E94083A20E030E04F
:104120004AE754E40F942E2B0F9463336B017C0108
:104130000E94868C80917416811105C060E089E42C
:1041400095E00E94BE5D0F945E1BC60ED71EE81E52
:10415000F91E0F945E1BDC01CB018C199D09AE0981
:10416000BF09B7FD02C00C94343080E00E9421AD3D
:10417000F0CF0E94706481110C94343019821A823D
:104180001B821C8280E090E0AEEBB2E48D839E83C4
:10419000AF83B88780E090E0A6E6B3E489879A878A
:1041A000AB87BC8780E50E94843A882319F00E947F
:1041B000D43901C060E068A3BE016F5F7F4FCE01BC
:1041C00080960F94D9120C9434300E9421A80C943C
:1041D0003430109276030C943430209376030C9490
:1041E00034300E94083A2B013C01133049F0D701CA
:1041F0002D913D914D915C910F94EF312B013C013C
:10420000F6012081318142815381C301B2010F94B3
:10421000EF314B015C012DEB37E346E855EB0F9492
:10422000A43487FD1BC02DEB37E346E855E3C501F9
:10423000B4010F94C82A18168CF01F5FF4E0EF0E3B
:10424000F11C24E0C20ED11C143031F1F101819136
:104250001F010E94843A882381F3C3CF133051F4A5
:104260004092DD035092DE036092DF037092E00320
:1042700001E0E3CFA5019401D7016D917D918D916E
:104280009C910F94F031F701608371838283938353
:10429000812F0E94A937D1CF002321F08DED93E02B
:1042A0000E940D640E941BC90C9434300E9424E9C2
:1042B0000C94343080917A1590917B158337910559
:1042C00009F4B7C10CF0ABC08C34910509F480C47B
:1042D0000CF050C08931910509F4F5C21CF5843108
:1042E000910509F4A9C17CF48131910509F41FC23B
:1042F0002CF4029708F4A3C10C940330429709F4FC
:1043000080C60C9403308631910509F462C20CF426
:104310005CC28731910509F462C2489709F477C2FB
:104320000C9403308E31910509F48BC384F48B31E6
:10433000910509F4E4C20CF4D4C28C31910509F45E
:1043400076C34D9711F40C9434300C9403308032C2
:10435000910509F490C30CF4DDC38A32910509F488
:1043600003C48B34910511F00C9403300E94CAB839
:104370000C9434308936910509F403C544F583352E
:10438000910509F43AC69CF48E34910509F428C4C9
:104390000CF422C48135910509F41AC682359105C1
:1043A00011F00C940330109275030C943430853561
:1043B000910509F45BC60CF424C68C35910509F40B
:1043C00070C68836910509F40FC40C9403308E36FC
:1043D000910509F437C49CF48B36910509F462C544
:1043E0000CF442C58C36910509F492C48D369105C2
:1043F00011F00C9403300F94480B0C943430803738
:10440000910509F489C40CF430C48137910509F48D
:104410008BC48237910509F4CDC60C940330823EDB
:10442000910511F40C94392D0CF074C08E3B91055C
:1044300009F405C5ACF58937910509F4B0C7DCF47A
:104440008637910509F45BC734F48537910509F483
:1044500049C70C9403308737910509F49DC7883705
:10446000910511F00C94033081E08093240D80932A
:10447000230D0C9434308C38910509F4C4C434F401
:104480008D37910509F420C50C94033081399105CD
:1044900009F48AC78B39910509F48EC40C94033052
:1044A0008D3C910511F40C94672BCCF4893C91055B
:1044B00011F40C94B82A3CF4883C910511F40C9446
:1044C0004C2A0C9403308B3C910511F40C94D72AA0
:1044D0008C3C910511F40C94F22A0C9403308A3D23
:1044E000910511F40C94B12C4CF4833D910511F01D
:1044F0000C940330E1E1F2E30C94D22B8C3D910556
:1045000011F40C94BD2C8D3D910511F40C94CA2C22
:104510000C940330863F31E0930711F40C94982EED
:104520000CF041C0833651E0950709F47EC0ECF4ED
:104530008D32B1E09B0711F40C948B2D3CF48C323E
:10454000914011F40C94622D0C9403308E3221E0D2
:10455000920711F40C942B2E8F32914011F00C9491
:1045600003300E942FC40C9434308A3941E0940700
:1045700009F4D6C34CF48039914011F00C94033007
:104580000E94868C0C943430843FB1E09B0711F478
:104590000C94952E853F914011F00C9403300F94AC
:1045A000B9150C9434308939F2E09F0711F40C945A
:1045B000542FDCF48C3032E0930711F40C94BF2EAE
:1045C0003CF4883F914011F40C949B2E0C940330E2
:1045D0008835A2E09A0711F40C94C82E8B359240CE
:1045E00011F40C94CB2E0C9403308B38E3E09E072F
:1045F00011F40C9434306CF48A39924011F00C941C
:10460000033089E6E82E82E0F82E0FE714E10C94DF
:10461000E62F803A33E0930709F46FC2873E934058
:1046200011F40C94EE2F0C940330E7E1F2E30C94B8
:10463000822EE6E2F7E0FBC5E6E8F5E088C0A09050
:104640007815B090791580E50E94843A882359F056
:104650000E94C4396B017C0111E0672B682B692B28
:1046600031F410E004C010E0C12CD12C760183E5B8
:104670000E94843A882311F40C943E300E94083A38
:1046800020E030E04AE754E40F942E2B0F9463337C
:104690006B017C0111110BC0672B682B692B39F45E
:1046A000A114B10421F0D5018C91811102C010E058
:1046B00001C011E00E94868C112329F061E0C50140
:1046C0000E94035E05C060E088E595E00E94BE5D43
:1046D00083E08093111581E080931015C114D104FB
:1046E000E104F104B1F00F945E1BC60ED71EE81E64
:1046F000F91E0F945E1BDC01CB018C199D09AE09DC
:10470000BF09B7FF0EC08091101581110C94433082
:1047100008C080911015882321F080E00E9421AD0F
:10472000F8CF0E94186B109210150C94343060E092
:1047300086E695E00E94BE5D5F988A9880910801A8
:10474000817080930601129847980C9434308491BC
:104750008F010F5F1F4F882321F00E94B13EF801A7
:10476000F6CF1092D91983E497E10E9448CC8BE1EF
:10477000E3E4F7E1DE01159601900D928A95E1F7E9
:1047800080914117909142179C838B8383E393E040
:104790009A83898340E050E0BE016F5F7F4F80E0E5
:1047A00090E00F94E503CE0101960E94BFA9E7E7D0
:1047B000F5E084918F010F5F1F4F882311F40C9453
:1047C00034300E94B13EF801F4CF0E9455660C943B
:1047D00034301092EB161092EC160C9434300E9488
:1047E0006A6AE0917815F09179158081882329F023
:1047F000803209F410823196F8CF40E061E0809178
:104800007815909179150E9457680C94343080E0A7
:1048100090E0A0EFB1E489839A83AB83BC8318A2B4
:1048200019A21AA21BA21CA21DA21EA21FA2809145
:104830002F08882359F020E0AE014F5F5F4FBE0183
:10484000605E7F4FCE0184960E9481E783E50E94DF
:10485000843A882381F00E94D439AB01BC01409393
:10486000D5195093D6196093D7197093D81985E04C
:1048700099E10E9400CA8091EC16882319F081E02A
:104880008093EB1684E50E94843A8823B1F00E945D
:10489000D4396B017C010E943A96C0927108D09283
:1048A0007208E0927308F0927408CD28CE28CF28C1
:1048B00031F081E08093350802C00E94CAB80E949E
:1048C000186B0C9434301092EB160E94559687E9C1
:1048D00095E0909300158093FF140E94E13E0C94A4
:1048E00034308091EC16882311F40C94343083E535
:1048F0000E94843A81110C9448300C94343083E443
:104900000E943B3A882309F450C0E9ECF5E0849119
:104910008F010F5F1F4F882321F00E94B13EF801E5
:10492000F6CF80910819811103C0ECE9F5E012C0BF
:10493000BE016F5F7F4F85E099E10E940FCB8E0132
:104940000F5F1F4FF80181918F01882349F10E9469
:10495000B13EF8CF84918F010F5F1F4F882301F183
:104960000E94B13EF801F6CFE5EECE2EE5E0DE2E58
:10497000E12CF12C20E08091411590E00E2C02C03A
:10498000959587950A94E2F780FD9FC13FEFE31A62
:10499000F30A42E0C40ED11C55E0E516F10459F7C4
:1049A0008AE00E94B13E0C9434308091EC1688234A
:1049B00039F08091EB16882319F0E6EAF5E003C0A0
:1049C000E8EBF5E028C084918F010F5F1F4F88232B
:1049D00021F00E94B13EF801F6CF6091D519709197
:1049E000D6198091D7199091D8194AE00E943A3F80
:1049F0008FE20E94B13E6091D1197091D2198091DD
:104A0000D3199091D4194AE00E943A3F8AE00E945B
:104A1000B13E0C94343084918F010F5F1F4F882377
:104A200011F40C9434300E94B13EF801F4CF40E010
:104A300060E080917815909179150E9457680C94E8
:104A400034308091EC16882311F40C94343085E0D6
:104A500099E10F94810985E099E10E94EACA1092D8
:104A6000EA161092E91680917815909179150E94B6
:104A7000D6690C9434308091EB1681110E94868C9B
:104A80008091EC16882311F40C94343080E50E9458
:104A9000843A882319F00E94F83903C080E50E9407
:104AA0003B3A182F482F61E0809178159091791545
:104AB0000E94576883E50E94843A882381F00E940F
:104AC000D439AB01BC014093D5195093D6196093EA
:104AD000D7197093D81985E099E10E9400CA809196
:104AE000EC16882319F081E08093EB1611110C94D9
:104AF00034300E94CAB80C9434308091781590916B
:104B0000791521E02093EA1640E060E00E945768A2
:104B10000C9434300E94069668A379A38AA39BA3C1
:104B2000BE016F5F7F4FCE0180960E94413B60E0E7
:104B3000CE0101960E94035EE1E1F2E384918F01D0
:104B40000F5F1F4F882321F00E94B13EF801F6CF7E
:104B5000BE016F5F7F4F88ED95E00E94AFB88AE09D
:104B60000E94B13E0C94343083E50E94843A88233D
:104B700011F40C9434300E94E439E82E80E50E9450
:104B8000843A882339F00E94E439182F87FF03C044
:104B90000C9434301DE089E40E94843A882341F06B
:104BA0000E94F83981110C945F32EBE7F8E00BC0FA
:104BB00089E40E943B3AF6CF319628E0E13BF207C8
:104BC00011F40C945F3284911813F6CF0C945C327C
:104BD0000E9455960C9434300E9411B90C943430D4
:104BE0000F94600D0C94343088E690E00E94A73F4B
:104BF00081110C9434308091411583FF02C00C94D4
:104C0000343083E50E94843A8823C1F00E94083A38
:104C10000F945C33DC01CB01609182080E94233C3D
:104C20000E94083A20E030E040EA52E40F94C82A9B
:104C3000181624F00E9411B90E94186B0F94EC17FB
:104C40000C9434308EE40E94843A882311F40C943E
:104C500034300E94D439609370167093711680932B
:104C60007216909373160C94343083E50E943B3A8D
:104C7000882359F083E50E94843A882319F00E9422
:104C8000E43901C080E080934115E1E1F2E38491D1
:104C90008F010F5F1F4F811103C0E3EFF5E004C0E8
:104CA0000E94B13EF801F3CF84918F010F5F1F4F37
:104CB000882321F00E94B13EF801F6CF8091411582
:104CC000811152CEEFEEF5E018C0BB24B394B20EC2
:104CD000222319F08CE20E94B13EF6018591949155
:104CE000FC0184918F010F5F1F4F882321F00E94E8
:104CF000B13EF801F6CF2B2D49CE84918F010F5F85
:104D00001F4F882309F44CCE0E94B13EF801F5CF25
:104D1000109247020C9434308AEF95E00E94E0A98B
:104D20000E94F6C30C94343083E50E94843A8111CA
:104D300003C0E1E1F2E30DC00E94E4398D3320F4B9
:104D4000809325020C9434308CE3809325020C94DC
:104D5000343084918F010F5F1F4F882321F00E9410
:104D6000B13EF801F6CF4091250250E060E070E0DE
:104D700083E096E00E945CB88AE00E94B13E0C9409
:104D8000343089E690E00E94A73F811111C0EAE02B
:104D9000F6E084918F010F5F1F4F882321F00E945E
:104DA000B13EF801F6CF0E940B8E8AE00E94B13E20
:104DB000109211150C94743283E50E94843A882372
:104DC00011F40C9434300E94E439182F8D3308F01C
:104DD0001CE31093BC0E0F945E1B6B017C01212F12
:104DE00030E0A8EEB3E00F947D31C60ED71EE81E6A
:104DF000F91EC092B80ED092B90EE092BA0EF0929F
:104E0000BB0E0C9434308091411583FF02C00C948A
:104E1000343083E50E94843A882311F40C943430B2
:104E20000E94083A0F945C336738710514F067E804
:104E300070E070939D1460939C140C9434308091B6
:104E4000411583FF02C00C94343083E50E94843AFC
:104E500088AB81110C94593082E50E94843A81110B
:104E60000C9459300C94343080E50E94843A8111BE
:104E700006C083E50E94843A882361F006C00E9440
:104E8000E43981110C943430F4CF0E94D4396F3F4F
:104E9000710510F06FEF70E07093AE0E6093AD0E81
:104EA0000C94343080E50E94843A811106C010923F
:104EB000AE0E1092AD0E0C9434300E94D439672B94
:104EC00011F00C943430F3CF8CE40E943B3A8823E9
:104ED00081F00E94083A6B017C0120E030E0A901DA
:104EE0000F94A43487FF0BC0F7FAF094F7F8F0940E
:104EF00006C0C12CD12C50E8E52E50E4F52EF7FA6F
:104F0000F094F7F8F094CCA2DDA2EEA2FFA21982F1
:104F10001A821B821C8280E090E0AEEBB2E48D83AB
:104F20009E83AF83B88780E090E0A6E6B3E48987EC
:104F30009A87AB87BC8788E50E94843A882379F0FA
:104F400088E50E94843A882319F00E94083A03C039
:104F500060E070E0CB0169837A838B839C8389E571
:104F60000E94843A882379F089E50E94843A882354
:104F700019F00E94083A03C060E070E0CB016D8335
:104F80007E838F8398878AE50E94843A882379F00C
:104F90008AE50E94843A882319F00E94083A03C0E7
:104FA00060E070E0CB0169877A878B879C8718A2C5
:104FB00019A21AA21BA220E0AE01405E5F4FBE0103
:104FC0006F5F7F4FCE0184960F945E0F0C94343048
:104FD0000E94298F0E94C48C1092AE0E1092AD0ECA
:104FE00068EE73E080E090E00E94095D60E08EE290
:104FF00096E00E94BE5D0C943430209375030C94AF
:10500000343083E50E94843A8823A1F00E94083A54
:1050100020E030E04AE754E40F942E2B0F946333E2
:1050200060932602709327028093280290932902AE
:105030000C94343088E50E943B3A81110C948831FD
:1050400089E50E943B3A81110C9488318AE50E94DF
:105050003B3A81110C94883185E40E943B3A8111DE
:105060000C9488310E94C48C0C94343083E50E94E7
:105070003B3A882311F40C9434300E94083A20E023
:1050800030E04AE754E40F942E2B0F94633360937F
:10509000B40E7093B50E8093B60E9093B70E0C9429
:1050A000343039E6C32E32E0D32E41ECE42E43E017
:1050B000F42E10E0F60181916F010E943B3A8823A3
:1050C00009F46EC0133009F063C00E94083A4B0126
:1050D0005C0120E030E040EA51E40F94C82A87FFE9
:1050E0004EC0A50194016091CD037091CE038091D3
:1050F000CF039091D0030F94EA322B013C019B0126
:10510000AC016091BE147091BF148091C014909155
:10511000C1140F942E2B6093BE147093BF14809310
:10512000C0149093C114A301920160915016709124
:10513000511680915216909153160F942E2B609316
:105140005016709351168093521690935316609197
:10515000191A70911A1A80911B1A90911C1A0F94A7
:10516000CD2AA30192010F942E2B0F9463336093E9
:10517000191A70931A1A80931B1A90931C1A809212
:10518000CD039092CE03A092CF03B092D00308C07B
:105190000E94083AD7016D937D938D939C9313974A
:1051A0001F5FB4E0EB0EF11C143009F083CF0F94B5
:1051B00077185AC70E94868C83E50E94843A882318
:1051C00009F470C80E94D4396230710509F06AC8C8
:1051D0000E94E2F28BE50E94B13E6091FF15709152
:1051E0000016809101169091021642E00E9405403F
:1051F00040910316509104166091051670910616A1
:1052000084E496E00E9479B8409107165091081600
:105210006091091670910A1681E496E00E9479B8AF
:105220008DE50E94B13E8AE00E94B13E1DC7849187
:105230008F010F5F1F4F882321F00E94B13EF801BC
:10524000F6CF60E086E197E00E94E4C861E08FE07D
:1052500097E00E94E4C861E084E097E00E94E4C81F
:1052600061E084EF96E00E94E4C860E08BEE96E097
:105270000E94E4C861E081EE96E00E94E4C860E02C
:1052800087ED96E00E94E4C860E08FEC96E00E9413
:10529000E4C860E081EC96E00E94E4C860E083EB43
:1052A00096E00E94E4C860E084EA96E00E94E4C8C8
:1052B00060E086E996E00E94E4C860E080E896E05D
:1052C0000E94E4C860E08FE696E00E94E4C860E0D7
:1052D0008AE596E00E94E4C860E087E496E00E94D8
:1052E000E4C8C2C68091781590917915FC0120819F
:1052F000222309F4E4CA60E00E94035EB5C600916F
:1053000078151091791583E0D12C40E08150E9F0B7
:10531000D8019C91292F2B7F2134C1F711962C9114
:105320002133A1F7913421F0953421F441E002C0FA
:10533000DD24D39498012E5F3F4F89012F5F3F4FAB
:10534000F80190819032C9F3E1CF442369F0E1E1A3
:10535000F2E384917F012FEFE21AF20A882321F011
:105360000E94B13EF701F5CFDD2069F0EFEEF7E0E6
:1053700084917F013FEFE31AF30A882321F00E9412
:10538000B13EF701F5CFD8018D918D01882309F445
:1053900007CB0E94B13EF7CF0F94CB1365C6109296
:1053A000240D1092230D60C683E50E94843A882361
:1053B00019F00E94D43902C060E070E08B0111271F
:1053C00002301105D4F0E7E1F2E384918F010F5F21
:1053D0001F4F811103C0E3EFF7E004C00E94B13E0C
:1053E000F801F3CF84918F010F5F1F4F882309F4D9
:1053F0003BC60E94B13EF801F5CF88E40E94843A92
:105400008823A9F00E94D439603A71053CF06530D8
:10541000B1E07B072CF064E071E002C060EA70E06C
:10542000F801EE0FFF1FEE55FB4E7183608386E49B
:105430000E94843A8823A9F00E94D439F801EE0F23
:10544000FF1FEA55FB4E718360836F3F710519F0B2
:1054500014F06FEF70E077FF02C060E070E07183DE
:10546000608382E40E94843A882309F4FDC50E9487
:10547000D4396530710534F0683871052CF067E86F
:1054800070E002C065E070E0000F111FF801E25605
:10549000FB4E71836083E8C588EC90E00E94A73FD3
:1054A0008111E2C584E40E943B3A882309F45DC07F
:1054B0000E94083A6B017C0111E020E030E0A90174
:1054C0000F94C82A811101C010E01093DA1420E073
:1054D00030E0A901C701B6010F94C82A882309F456
:1054E00044C00E94083AE091820824E0E29FF00163
:1054F0001124EE52FB4E608371838283938320E0FC
:1055000030E0A9016091D2147091D3148091D41429
:105510009091D5140F94C82A81110CC080E090E0BE
:10552000A0EEBFE38093D2149093D314A093D4142D
:10553000B093D51420E030E0A9016091D6147091A9
:10554000D7148091D8149091D9140F94C82A81113E
:105550000CC080E090E0A0EEBFE38093D61490935F
:10556000D714A093D814B093D9140E945C7E7CC544
:10557000B9E6EB2EB2E0FB2E04E516E1D7018D91E2
:105580007D010E943B3A882349F00E94083A0F941B
:105590006333F80160837183828393830C5F1F4FB1
:1055A000F6E104361F0751F70F941C185DC5A9E6F4
:1055B000EA2EA2E0FA2E04E416E1D7018D917D01D6
:1055C0000E943B3A882339F00E94083AF801608330
:1055D0007183828393830C5F1F4FF6E104351F07AD
:1055E00061F742C583E50E94843A8823A1F00E94B6
:1055F000083A609368167093691680936A169093C0
:105600006B1660936416709365168093661690937C
:10561000671610E001C011E080E50E94843A8823FB
:1056200059F00E94083A6093681670936916809347
:105630006A1690936B1610E082E50E94843A8823E4
:1056400059F00E94083A60930C1570930D158093E1
:105650000E1590930F1510E084E50E94843A88237C
:1056600059F00E94083A609364167093651680930F
:10567000661690936716F8C4112309F4F5C4409197
:1056800068165091691660916A1670916B168BE1DD
:1056900098E00E9479B840910C1550910D156091D9
:1056A0000E1570910F1588E198E00E9479B840912D
:1056B000641650916516609166167091671685E1C3
:1056C00098E00E9479B88AE00E94B13ECDC481E59D
:1056D0000E943B3A882351F00E94C4396093041A17
:1056E0007093051A8093061A9093071A83E50E9417
:1056F0003B3A882351F00E94083A60934016709319
:105700004116809342169093431684E50E943B3ADB
:10571000882351F00E94083A60933C1670933D161E
:1057200080933E1690933F1688E50E943B3A88236B
:1057300051F00E94083A6093B2147093B3148093AE
:10574000B4149093B51489E50E943B3A882351F034
:105750000E94083A6093B6147093B7148093B814FB
:105760009093B9148AE50E943B3A882351F00E9435
:10577000083A6093BA147093BB148093BC1490934E
:10578000BD1485E40E943B3A882309F46DC40E944D
:10579000083A6093BE147093BF148093C014909322
:1057A000C11462C484918F010F5F1F4F882321F0C1
:1057B0000E94B13EF801F6CF83E50E943B3A882370
:1057C00021F00E94F83980936202E3E5F8E08491C9
:1057D0008F010F5F1F4F882321F00E94B13EF80117
:1057E000F6CF80916202882319F0EBE4F8E002C062
:1057F000EFE4F8E084918F010F5F1F4F811103C028
:10580000E3E4F8E004C00E94B13EF801F3CF8491D4
:105810008F010F5F1F4F882321F00E94B13EF801D6
:10582000F6CF209147153091481540914915509178
:105830004A156091560270915702809158029091DA
:1058400059020F94F031AB01BC0181E498E00E9451
:1058500079B820914B1530914C1540914D155091D0
:105860004E1560915A0270915B0280915C0290919A
:105870005D020F94F031AB01BC018EE398E00E9411
:1058800079B820914F153091501540915115509194
:10589000521560915E0270915F028091600290915A
:1058A00061020F94F031AB01BC018BE398E00E94E0
:1058B00079B8E3E3F8E084918F010F5F1F4F8823ED
:1058C00021F00E94B13EF801F6CF209147153091AA
:1058D00048154091491550914A1560914A027091BE
:1058E0004B0280914C0290914D020F94F031AB012C
:1058F000BC0181E398E00E9479B820914B1530916A
:105900004C1540914D1550914E1560914E0270917D
:105910004F0280915002909151020F94F031AB01EF
:10592000BC018EE298E00E9479B820914F15309129
:10593000501540915115509152156091520270913D
:10594000530280915402909155020F94F031AB01B3
:10595000BC018BE298E00E9479B88AE00E94B13ED7
:1059600083C38AED90E00E94A73F81117DC380919F
:105970008208882309F478C3FCC483E50E94843A32
:10598000882309F471C30E94D43970931A0260937A
:1059900019026AC38DED90E00E94A73F811164C394
:1059A00083E50E94843A811103C0E1E1F2E33BC048
:1059B0000091820810E00E94D439000F111FF801F5
:1059C000EB5EFD4F718360838091820890E08C01D3
:1059D000000F111F000F111F9801235F3D4F790128
:1059E000880F991FFC01EB5EFD4F60817181072ECE
:1059F000000C880B990B0F94CF2A2AE037ED43E275
:105A00005CE30F942E2BF801E150F34F208131819C
:105A1000428153810F942E2BD7016D937D938D93EB
:105A20009C93139721C384918F010F5F1F4F88238D
:105A300021F00E94B13EF801F6CF85E40E94B13E0C
:105A400080918208805D0E94B13EE0918208F0E082
:105A5000EE0FFF1FEB5EFD4F6081718183E798E0E1
:105A60000E9496B885E20E94B13E8AE00E94B13E53
:105A7000FBC280E50E943B3A882309F4F5C20E94EC
:105A8000D4396B017C0183E50E94843A882321F09C
:105A90000E94D4398B0102C00FEF1FEFC80101969D
:105AA000039708F0E1C2D7FCDFC28C2DEBE7F8E0EA
:105AB0009491891709F400C53196B8E0E13BFB07E2
:105AC000B9F7D1C483E50E94843A882319F00E9473
:105AD000D43902C064E071E079A368A380E50E9434
