:100000000C94DC190C940D1A0C940D1A0C940D1A06
:100010000C940D1A0C940D1A0C940D1A0C940D1AC4
:100020000C940D1A0C940D1A0C940D1A0C940D1AB4
:100030000C940D1A0C940D1A0C940D1A0C940D1AA4
:100040000C940D1A0C9440AD0C940D1A0C940D1ACE
:100050000C940D1A0C940D1A0C94C3F70D94D3152F
:100060000C940D1A0C94E43F0C940D1A0C940D1A78
:100070000C940D1A0C940D1A0C940D1A0C940D1A64
:100080000C940D1A0C940D1A0C940D1A0C940D1A54
:100090000C940D1A0C940D1A0C940D1A0C940D1A44
:1000A0000C940D1A0C940D1A0C940D1A0C940D1A34
:1000B0000C940D1A0C940D1A0C940D1A0C940D1A24
:1000C0000C940D1A0C940D1A0C940D1A0C940D1A14
:1000D0000C940D1A0C940D1A0C940D1A0C940D1A04
:1000E0000C940D1AEBD4D1D4D4D4D7D4DAD4E6D42A
:1000F000DDD4F7D4E0D4E3D4B4012A0174010801BB
:100100001C0104017E01C801CA015A018A01BE0115
:100110004001E6000401CC0146014A0156010E01EE
:100120002C01D6002201FA005201CA0094011601E6
:100130007601E800EE006801FA003401F6001E01C5
:10014000084AD73B3BCE016E84BCBFFDC12F3D6C3E
:1001500074319ABD56833DDA3D00C77F11BED9E4A4
:10016000BB4C3E916BAAAABE000000803F05A84C84
:10017000CDB2D44EB93836A9020C50B99186880850
:100180003CA6AAAA2ABE000000803F000C94E0D43E
:100190000C940FA00D941D150C940CB90C94D4D490
:1001A0000C94DAD40C94D1D40C94179A0D940115B4
:1001B0000C94EBD40C9437980C94749C0C94EB3105
:1001C0000C9437B70C947A840C9405E20D94451482
:1001D0000D9443150C94ACDA0D942C160D94521515
:1001E0000C94E6E70C9499850C94E5B70D94701582
:1001F0000C9455990D9484150D94CA060C94BDF772
:100200000C946BE60C94C0F70D9458140C945EE5B6
:100210000D9414140C94A99B0C9455F20D94F214A3
:100220000C9468E50C9453F20C94F4980D942F15EB
:100230000C94B1830C94AF980D941A140D947A1504
:100240000D94001F0D940B150C947F9B0C94C7A16B
:100250000C94DDD40D9421140D94F7140C940287A2
:100260000C9450E10C9458F50D9466150C9426836B
:100270000C94E1840C9477E50C94D76A0C94569D09
:100280000D9441140C946A9A0C946DE50D944F14DE
:100290000C940DCD0D9453140C949CE50C949C85FA
:1002A0000C94CA9B0D9415150C94B6990D94ED14ED
:1002B0000C94B69B0D9433140C94E6D40C94E3D4B4
:1002C0000C94D5920C9410B90C9427950C942ED3C1
:1002D0000D945C150C94519C0C947E880C941D9C80
:1002E0000C94B49B0C94B1960D9410140D94391584
:1002F0000C9465E60C94FADB0C94B7B50D942514B8
:100300000C94D7D40C94EBE70C9476970C94BD9A8C
:100310000C94C3DA0D9437140C941E9B0C94599DC5
:100320000C945C9D0C94BBF70D9425150C94E69BE6
:100330000C9495DA0C9420A70C943F310C94E1E7CF
:100340000C94B3A60C9463E50C94B1D00C9405877F
:100350000C9472E50C94EC950C94979C0C942F855E
:100360000C9472DD0C949D930D941E140C94629465
:100370000C94F7D40C9465D20C943E310D943D143A
:100380000C9468E60C94FF860C9496850C948879FE
:100390000D9429140D942F140D944B140C9496E580
:1003A0000C9490E54E414E494E495459494E46CD24
:1003B000CCCC3D0AD7233C17B7D13877CC2B32951C
:1003C00095E6241FB14F0A000020410000C84200FA
:1003D000401C4620BCBE4CCA1B0E5AAEC59D7400C4
:1003E000407A10F35A00A0724E18090010A5D4E804
:1003F0000000E87648170000E40B54020000CA9A97
:100400003B000000E1F505000080969800000040E8
:10041000420F000000A0860100000010270000002D
:1004200000E803000000006400000000000A000073
:100430000000000100000000002C76D888DC674F27
:100440000823DFC1DFAE59E1B1B796E5E3E453C657
:100450003AE651997696E8E6C28426EB898C9B624F
:10046000ED407C6FFCEFBC9C9F40F2BAA56FA5F4F9
:1004700090055A2AF75C936B6CF9676DC11BFCE021
:10048000E40D47FEF520E6B500D0ED902E03009474
:100490003577050080841E080000204E0A00000009
:1004A000C80C333333330F986E12831141EF8D2113
:1004B00014893BE65516CFFEE6DB18D1844B381B7A
:1004C000F77C1D901DA4BBE424203284725E22813F
:1004D00000C9F124ECA1E53D27434F4D4D554E4950
:1004E000434154494F4E0044525952554E004552D3
:1004F000524F525300494E464F004543484F004724
:10050000322F47332062616420706172616D6574BF
:100510006572730A00536F7370656E73696F6E65F1
:100520002E2E2E005072656D6920746173746F2ECB
:100530002E004E657373756E204D6F76696D656E16
:10054000746F00456E642066696C65206C69737415
:100550000A00426567696E2066696C65206C697384
:10056000740A004D31323500286E6F2066696C6563
:1005700029005344207072696E74696E6720627935
:10058000746520004E6F74205344207072696E743D
:10059000696E670A0043757272656E742066696CD5
:1005A000653A20005072696E742074696D653A2056
:1005B0000046696C616D656E7420757365643A20E0
:1005C0000053746174733A20002C204C6F6E676581
:1005D0007374206A6F623A2000546F74616C2074E7
:1005E000696D653A200053746174733A20002C20C1
:1005F0004661696C65643A20002C2046696E697317
:100600006865643A20005072696E74733A20005332
:10061000746174733A2000FA04F504EE04E704D917
:10062000046F66660044454255473A0055434349C6
:10063000534F2E20004D3131332053006F6B004457
:10064000432D3230203245207234204F66662E0012
:100650002C20002C2000544845524D414C5F5052F4
:100660004F54454354494F4E004155544F52455005
:100670004F52545F53445F53544154555300454DBA
:10068000455247454E43595F5041525345520043EE
:100690004153455F4C494748545F4252494748548B
:1006A0004E45535300544F47474C455F4C494748CC
:1006B000545300534F4654574152455F504F57458E
:1006C00052004255494C445F50455243454E5400F8
:1006D0004C4556454C494E475F44415441005A5F92
:1006E00050524F4245004155544F4C4556454C00E1
:1006F0005052494E545F4A4F420050524F47524564
:100700005353004155544F5245504F52545F544536
:100710004D5000564F4C554D4554524943004545A8
:1007200050524F4D0053455249414C5F584F4E5F18
:10073000584F4646004649524D574152455F4E413B
:100740004D453A4D61726C696E20312E312E392043
:10075000284769746875622920534F555243455F95
:10076000434F44455F55524C3A68747470733A2F46
:100770002F6769746875622E636F6D2F4D61726C9F
:10078000696E4669726D776172652F4D61726C6931
:100790006E2050524F544F434F4C5F564552534971
:1007A0004F4E3A312E30204D414348494E455F541B
:1007B0005950453A44432D3230203245207234207E
:1007C00045585452554445525F434F554E543A3262
:1007D00020555549443A63656465326132662D346B
:1007E0003161322D343734382D396231322D633551
:1007F000356336326633363766660A002F2F20009F
:100800004D31343520533C696E6465783E206F75F8
:1008100074206F662072616E67652028302D312943
:100820000A00205400205200416363656C657261C8
:1008300074696F6E3A205000205A00205900580009
:1008400020204D61783A2000205A0020590058009D
:1008500020204D696E3A20004F6E20004F666600E2
:10086000536F667420656E6473746F70733A200002
:10087000486F74656E64206F6666736574733A00C2
:1008800020466C6F773A20000001363726FF02FFC2
:10089000FF353C3D38FF0FFFFF312E303E1213FF76
:1008A000FFFF28FF0C0804FFFFFF1A1C18FFFF2A98
:1008B00024221EFFFF2C08440AFF4309FF45206441
:1008C0003A0020693A0020703A00496E76616C69FE
:1008D000642065787472756465720A0043290A00A1
:1008E00061626C656420286D696E2074656D70208E
:1008F00000436F6C64206578747275646573206161
:10090000726520004E6F2063617365206C696768B3
:10091000740A00454550524F4D204F4B0A0025693F
:10092000730025696D202569730025696820256994
:100930006D20256973002569642025696820256973
:100940006D20256973002569792025696420256952
:10095000682025696D2025697300656E7175657560
:1009600065696E6720220020496E76616C6964209B
:10097000657874727564657220000000BEC2000064
:10098000BEC2000000000000BE420000BE420000E7
:1009900066430000000000000000000082432020A9
:1009A0000020205261646975733A00547A005479CA
:1009B0000054780020205261646975733A00457ACA
:1009C000004579004578002E4865696768743A00EB
:1009D0007879007A7800797A00207A0020790020EE
:1009E000780063002E2020202000253033692E78E7
:1009F00000302E25303369002073643A007374642C
:100A0000206465763A00737464206465763A004E1B
:100A10006F20636F6E76657267656E6365004974FB
:100A200065726174696F6E203A2025303269005317
:100A30006176652077697468204D35303020616EAD
:100A4000642F6F7220636F707920746F20436F6E14
:100A500066696775726174696F6E2E680025303340
:100A6000692E7800302E253033690043616C69624D
:100A7000726174696F6E2073643A007374642064E9
:100A800065763A0043616C6962726174696F6E20C9
:100A90004F4B00456E64204452592D52554E004331
:100AA0006F72726563742064656C74612073657421
:100AB00074696E67732077697468204D3636352007
:100AC000616E64204D3636360A0020284452592D76
:100AD00052554E29003F284D36363520422965644F
:100AE0002072616469757320697320696D706C612F
:100AF000757369626C652E0A00436865636B696E85
:100B0000672E2E2E20414300473333204175746FEA
:100B10002043616C6962726174650A003F2856293E
:100B20006572626F7365206C6576656C20697320F1
:100B3000696D706C61757369626C652028302D3346
:100B4000292E0A003F2846296F7263652069746563
:100B5000726174696F6E20697320696D706C617564
:100B60007369626C652028302D3330292E0A003FCE
:100B7000284329616C6962726174696F6E207072BA
:100B800065636973696F6E20697320696D706C614C
:100B9000757369626C6520283E3D30292E0A003F3E
:100BA0002850296F696E747320697320696D706CA9
:100BB00061757369626C652028302D3130292E0AE9
:100BC00000486F6D65202573257325732070726949
:100BD0006D6100207072696D610A005A00590058F9
:100BE00000486F6D65200053442063617264206F7C
:100BF0006B0A006F70656E526F6F74206661696C6E
:100C000065640A00766F6C756D652E696E69742077
:100C10006661696C65640A00534420696E697420DA
:100C20006661696C0A0057726974696E6720746F37
:100C30002066696C653A20006F70656E2066616998
:100C40006C65642C2046696C653A20006F70656E97
:100C5000206661696C65642C2046696C653A2000E9
:100C600046696C652073656C65637465640A002071
:100C700053697A653A200046696C65206F70656E2D
:100C800065643A20002066696C653A2000646F69EB
:100C90006E67006672657368004E6F772000454E80
:100CA0004420535542524F5554494E450A00222084
:100CB000706F73002220706172656E743A22005367
:100CC0005542524F5554494E452043414C4C207497
:100CD00061726765743A220055434349534F2E2091
:100CE00000747279696E6720746F2063616C6C2088
:100CF0007375622D67636F64652066696C65732028
:100D00007769746820746F6F206D616E79206C65EF
:100D100076656C732E204D4158206C6576656C208D
:100D200069733A00642E0A00206661696C65642E5E
:100D30000A00506F7765722D6C6F73732066696C53
:100D4000652064656C6574650046696C6520646542
:100D50006C657465643A0044656C6574696F6E20F7
:100D60006661696C65642C2046696C653A20006F89
:100D700070656E206661696C65642C2046696C65DF
:100D80003A2000290A002062797465733B2063725F
:100D900063200053657474696E67732053746F72B7
:100DA0006564202800290A002062797465733B205D
:100DB00063726320002073746F72656420736574BE
:100DC00074696E67732072657472696576656420F4
:100DD0002800202863616C63756C61746564292147
:100DE0000A0020213D2000454550524F4D204352DE
:100DF00043206D69736D61746368202D20287374BE
:100E00006F7265642920002053697A653A20004991
:100E10006E6465783A2000204D61726C696E3D56B3
:100E20003536290A0028454550524F4D3D0045456D
:100E300050524F4D2076657273696F6E206D6973E5
:100E40006D61746368200020746F6F206C6F6E6733
:100E500020657874727573696F6E2070726576653F
:100E60006E7465640A0020636F6C64206578747228
:100E70007573696F6E2070726576656E7465640A4D
:100E800000534420436172642072696D6F73736113
:100E9000005344204361726420696E736572697403
:100EA000610043616E6E6F7420656E7465722073AD
:100EB00075626469723A2000052E2E0045736369DD
:100EC0000000546F74616C65206573747275736F84
:100ED0003A2000256C642E25696D00004C61766F08
:100EE000726F207069C3B9206C756E676F3A20000D
:100EF0000054656D706F20746F74616C653A2000EA
:100F0000436F6D706C65746174693A2000436F6E55
:100F10007461742E207374616D70613A20005465A1
:100F20006D70206D61783A203237350054656D70F0
:100F3000206D696E3A20350054313A203125206207
:100F400065746120333935300054656D70206D61F2
:100F5000783A203237350054656D70206D696E3AED
:100F600020350054303A20312520626574612033E9
:100F700039353000416C696D656E7461746F7265EE
:100F80003A2047656E657269630050726F746F63D3
:100F90006F6C6C6F3A20312E3000426175643A20DC
:100FA0003235303030300052414D505320312E34E4
:100FB000004573747275736F72693A2032006874F9
:100FC00074703A2F2F6D61726C696E66772E6F7236
:100FD000670044432D3230203245207234003230D5
:100FE00031382D30382D303100312E312E39004D31
:100FF00061726C696E0053746174697374696368BB
:1010000065005465726D6973746F726900496E662C
:101010006F2E2073636865646100496E666F2E20D1
:101020007374616D70616E74650045736369004D22
:1010300037303220542564004D3630302042302085
:10104000542564004D373032203B2564004D373045
:101050003120542564004D36303020423020543148
:101060000043616D6269612066696C616D656E74D3
:101070006F204532004D3630302042302054300051
:1010800043616D6269612066696C616D656E746F44
:101090002045310045736369005354414D50412050
:1010A000494E2050415553410052494D554F5649E4
:1010B0002046494C414D454E544F0043415249430F
:1010C000412046494C414D454E544F004C696265A4
:1010D0007261206469207069750052697072656E72
:1010E0006469207374616D7061004F505A494F4EAE
:1010F000493A00627573793A2070617573656420AE
:10110000666F7220696E7075740A00627573793A41
:101110002070617573656420666F722075736572E7
:101120000A00627573793A2070726F636573736930
:101130006E670A0055434349534F2E20004B494CDC
:101140004C2063617573656420627920746F6F2031
:101150006D75636820696E61637469766520746972
:101160006D65202D2063757272656E7420636F6DDE
:101170006D616E643A2000526961767669617265CC
:1011800020707265676F005354414D50414E544575
:10119000204645524D415441005072696E7465724B
:1011A0002068616C7465642E206B696C6C28292042
:1011B00063616C6C6564210A0000004843000048CC
:1011C0004300004843000000005761726E696E677B
:1011D0003A20486F6D696E672042756D70204469D2
:1011E0007669736F72203C20310A000A0A0A0000F7
:1011F000A0400000A0400000A04000003E430000CE
:101200003E43000066430101014D33310053442049
:1012100072656164206572726F720A00446F6E6558
:10122000207072696E74696E672066696C650A0069
:1012300055434349534F2E20004152524553544188
:10124000544F2E20005072696E7465722073746F53
:10125000707065642064756520746F206572726FAC
:1012600072732E2046697820746865206572726FEB
:101270007220616E6420757365204D393939207490
:101280006F20726573746172742E202854656D70BE
:101290006572617475726520697320726573657417
:1012A0002E20536574206974206166746572207203
:1012B000657374617274696E67290A004E6F20430A
:1012C0006865636B73756D2077697468206C696EEF
:1012D00065206E756D6265722C204C617374204CB4
:1012E000696E653A20004E6F20436865636B7375C5
:1012F0006D2077697468206C696E65206E756D620B
:1013000065722C204C617374204C696E653A200024
:10131000636865636B73756D206D69736D6174636C
:10132000682C204C617374204C696E653A20004C27
:10133000696E65204E756D626572206973206E6FEF
:1013400074204C617374204C696E65204E756D621B
:1013500065722B312C204C617374204C696E653A98
:1013600020004D3131300020205567656C6C6F3A9C
:10137000200064692066696C616D656E746F00643D
:10138000656C2063616D62696F00417474656E64A1
:1013900065726520617676696F0020205567656CFF
:1013A0006C6F3A200064656C2066696C616D656ED7
:1013B000746F006C27657370756C73696F6E650070
:1013C000417474656E646572650020205567656CB4
:1013D0006C6F3A2000417474656E646572652E2EE0
:1013E0002E0052697363616C642E207567656C6CA6
:1013F0006F0020205567656C6C6F3A20007269732E
:1014000063616C64207567656C6C6F2E005072654B
:101410006D69207065720020205567656C6C6F3AAD
:1014200020007072656D692070657220636F6E7444
:101430000066696C616D656E746F206500496E733E
:1014400065726973636920696C0020205567656C5B
:101450006C6F3A200064656C2066696C616D656E26
:10146000746F00696C206361726963616D656E748D
:101470006F00417474656E64657265002020556765
:10148000656C6C6F3A200064656C2066696C616DF8
:10149000656E746F006C6F2073707572676F0041BA
:1014A0007474656E646572650064656C6C6120734C
:1014B00074616D7061006C61207269707265736136
:1014C00000417474656E64657265002D2D2D2D2D9F
:1014D0002D2D2D2D2D2D2D007C44656C7461636F99
:1014E0006D622033447C002D2D2D2D2D2D2D2D2D85
:1014F0002D2D2D004D61726C696E2046572076317E
:101500002E312E39004D61726C696E20465720765F
:10151000312E312E390044432D3230204455414C78
:101520002045585452554445520044432D323020F2
:101530004455414C204558545255444552000020D2
:1015400020506C616E6E6572427566666572427996
:101550007465733A20002046726565204D656D6F95
:1015600072793A2000436F6D70696C65643A204A65
:10157000616E20203720323032300A00207C20413A
:101580007574686F723A20286E6F6E652C206465E2
:101590006661756C7420636F6E666967290A003234
:1015A0003031382D30382D303100204C61737420AB
:1015B000557064617465643A2000312E312E390A09
:1015C000004D61726C696E0020536F6674776172B2
:1015D000652052657365740A0020576174636864FE
:1015E0006F672052657365740A002042726F776ED0
:1015F000206F75742052657365740A0020457874F5
:1016000065726E616C2052657365740A00506F7765
:10161000657255700A0073746172740A00617574A2
:101620006F25692E67006572726F72207772697418
:10163000696E6720746F2066696C650A00456E6488
:1016400073746F7020256320256320256320256334
:1016500000205A3A0020593A0020583A00656E643A
:1016600073746F7073206869743A2000446F6E65FC
:1016700020736176696E672066696C652E0A004D7D
:1016800032390044432D32302032452072342070EC
:10169000726F6E746F2E005374616D706120696E8D
:1016A00020636F72736F2E2E2E005374616D706104
:1016B00020736F7370657361004D313235004D32A8
:1016C00034005374616D706120616E6E756C6C6175
:1016D0007461004739310A473120452D340A4732B9
:1016E000380A4D353234004F706572617A696F6E19
:1016F0006920636F6D756E69005265676F6C61007C
:101700004176766961205374616D70610041727237
:1017100065737461207374616D70610052697072D9
:10172000656E6469207374616D7061004D616E75E2
:1017300074656E7A696F6E650050617573612065BE
:101740002073616C76610053636865726D617461CA
:10175000205072696E6369702E00494E56414C49A3
:10176000442044415441004D32342053256C6420C0
:1017700054256C64004D3233202573004739300006
:1017800047312045256900473931004739322E302D
:10179000205A257320452573004731205825732092
:1017A000592573205A257320463530303000496E54
:1017B0006974206A6F62207265636F766572792042
:1017C000696E666F2E2053697A653A20004D31307C
:1017D00036205025692053256900542569004D3174
:1017E000303920532569005425690047323820528A
:1017F00030004D34323020533000205344206E6F7F
:101800006E2070726573656E7465005269707265E2
:101810006E6469207374616D7061005374616D70E2
:1018200061206461205344004D656E7520707269BB
:101830006E636970616C65004461746920737461E2
:101840006D70616E746500496D706F7374617A6953
:101850006F6E690043616C696272617A2E20446523
:101860006C7461004D656E75207072696E6369708D
:10187000616C650043616D6269612066696C616DD0
:10188000656E746F00466C7573736F203200466C22
:101890007573736F203200466C7573736F2032005E
:1018A000466C7573736F203100466C7573736F20CF
:1018B0003100466C7573736F203100466C7573731D
:1018C0006F00466C7573736F00466C7573736F00B1
:1018D00056656C6F636974612076656E746F6C61B8
:1018E0000056656C6F636974612076656E746F6C09
:1018F000610056656C6F636974612076656E746F04
:101900006C61005567656C6C6F2032005567656CC3
:101910006C6F2032005567656C6C6F203200556724
:10192000656C6C6F2031005567656C6C6F20310001
:101930005567656C6C6F20310056656C6F63697418
:1019400061270056656C6F63697461270056656C8A
:101950006F6369746127004D656E75207072696EE2
:10196000636970616C65001000AA03F0013A019090
:1019700002220130031001D00302017004F70010AD
:1019800005ED00B005E5005006DD00F006D700903B
:1019900007D1003008CC00D008C7007009C3001080
:1019A0000ABE00B00ABB00500BB700F00BB30090AA
:1019B0000CB000D00DAA00100FA5005010A0009090
:1019C000119B00D0129600B014900090168B0070FE
:1019D000188500501A8000301C7B00B01E75003046
:1019E000216F00B02369003026640010285F00904A
:1019F0002A5A00702C5500F02E4F0070314800B06C
:101A0000324500F03341007036390010373700504E
:101A100038330090392D00D03A2700B03C1C0050DC
:101A20003D1700F03D1100903E0900D03FE5FF203A
:101A30002F0020400020403A00203FECED3F5C7C2E
:101A40003F2263617F3F3F52B0DF3F323327E4F1F3
:101A5000A52C31DF7E3F3F3F3F3F3F3F3FE13F3FD0
:101A60003F3F3F3F3F3F3F3F3F3F3F3F3F3F3FEFD6
:101A7000783F3F3F3FF53F3FE23F3F3F3FE13F3F42
:101A80003F3F3F3F3F3F3F3F3F3FEE3F3F3F3FEF07
:101A9000FD3F3F3F3FF53F3F3F001010101010103B
:101AA0000000141414141414000015151515151540
:101AB00000001C1F11111F0000000E191803130E47
:101AC00000040E1F041C000000000E1517110E006C
:101AD00000070F1810040201001F0E1F0E1F0A043A
:101AE000000C12120C0000000009120912000E1F57
:101AF0000000000000010204040000001C1C0C0493
:101B000004040201000000000004081000000000AE
:101B10000025753A2530327500253032753A25306A
:101B20003275002D2D2D0053440024F4D43050C3C1
:101B30008E20C2A24017828B7011127A910D816C97
:101B4000D90AA861E108C7586607615143061E4BD0
:101B50005D05C145A7041A411104093D9803713977
:101B600031034036DB0265339102D4305402802EBB
:101B70001D02632CEE01752AC501B028A0011027B3
:101B800081018F2564012B244B01E0223401AC211B
:101B90001F018D200D01801FFC00841EED00971D8C
:101BA000DF00B81CD200E61BC600201BBC00641A74
:101BB000B200B219A8000A19A0006A189900D1173A
:101BC000910040178B00B516840031167E00B315C6
:101BD00079003A157300C7146F0058146A00EE13A9
:101BE00066008813630025135E00C7125B006C1249
:101BF000570015125400C111510070114F002111EE
:101C00004B00D61049008D104700461044000210CA
:101C10004200C00F4000800F3E00420F3C00060F04
:101C20003B00CB0E3800930E37005C0E3500270EBC
:101C30003400F30D3200C10D3100900D3000600D05
:101C40002E00320D2D00050D2C00D90C2B00AE0CF2
:101C50002900850C29005C0C2700350C27000E0C90
:101C60002600E80B2400C40B2400A00B23007D0BEE
:101C700023005A0B2100390B2100180B2000F80A11
:101C80001F00D90A1E00BB0A1E009D0A1D00800A03
:101C90001D00630A1C00470A1B002C0A1B00110AC6
:101CA0001A00F7091A00DD091900C4091900AB0967
:101CB0001900920917007B091800630917004C09E5
:101CC000160036091600200916000A091500F50845
:101CD0001500E0081400CC081400B8081400A4088B
:101CE0001400900813007D0812006B0813005808B8
:101CF00012004608120034081100230811001208CF
:101D0000110001081100F0071000E0071000D007D3
:101D10001000C0071000B0070F00A10710009107C6
:101D20000E0083070F0074070F0065070E005707AA
:101D30000E0049070E003B070D002E070E0020077E
:101D40000D0013070D0006070D00F9060C00ED0647
:101D50000D00E0060C00D4060C00C8060C00BC0602
:101D60000C00B0060C00A4060B0099060C008D06B2
:101D70000B0082060B0077060B006C060B00610659
:101D80000A0057060B004C060A0042060A003806F5
:101D90000A002E060A0024060A001A060A00100687
:101DA000090007060A00FD050900F4050900EB0516
:101DB0000900E2050900D9050900D0050900C70599
:101DC0000900BE050900B5050800AD050800A50518
:101DD00009009C050800940508008C05080084058E
:101DE00008007C050800740508006C0507006505FF
:101DF00008005D050700560508004E050700470569
:101E000007004005080038050700310507002A05CE
:101E10000700230507001C050600160507000F052F
:101E200007000805060002050700FB040600F5048C
:101E30000700EE040600E8040600E2040700DB04E5
:101E40000600D5040600CF040600C9040600C3043A
:101E50000600BD040600B7040600B1040500AC048A
:101E60000600A6040600A00405009B0406009504D5
:101E70000500900406008A0405008504050080041E
:101E800006007A04050075040500700405006B0463
:101E9000050066040500610405005C0405005704A4
:101EA0000500520405004D040500480405004304E4
:101EB00005003E0404003A04050035040500300422
:101EC00004002C04050027040400230405001E045C
:101ED00004001A04040016040500110404000D0493
:101EE0000400090405000404040000040400FC03C9
:101EF0000400F8030400F4030400F0030400EC03FE
:101F00000400E8030400E4030400E0030400DC032D
:101F10000400D8030400D4030400D0030400CC035D
:101F20000400C8030300C503030024F404D9201BE4
:101F3000C40C5C0E9804C4095F0265077101F405C6
:101F4000F900FB04B30048048700C103690058038B
:101F5000550003034500BE023A00840231005302DB
:101F60002A002902250004022000E4011C00C80107
:101F70001900AF01170098011400840113007101CA
:101F800010006101100051010E0043010D003601E7
:101F90000B002B010B0020010B00150109000C01A7
:101FA000090003010800FB000800F3000800EB0033
:101FB0000700E4000600DE000600D8000600D2009C
:101FC0000600CC000500C7000500C2000500BD00EA
:101FD0000400B9000400B5000400B1000400AD0025
:101FE0000400A9000400A5000300A20003009F0054
:101FF00004009B000300980003009500020093007A
:102000000300900003008D0002008B000300880095
:1020100002008600020084000300810002007F00AD
:1020200002007D0002007B000200790002007700C0
:1020300001007600020074000200720001007100CD
:1020400002006F0002006D0001006C0002006A00D7
:1020500001006900020067000100660001006500E0
:1020600001006400020062000100610001006000E4
:1020700001005F0002005D0001005C0001005B00E8
:1020800001005A00010059000100580001005700EA
:1020900001005600010055000100540001005300EA
:1020A00000005300010052000100510001005000E7
:1020B00001004F0001004E0000004E0001004D00E5
:1020C00001004C0001004B0000004B0001004A00E1
:1020D00001004900010048000000480001004700DD
:1020E00001004600000046000100450000004500D8
:1020F00001004400010043000000430001004200D1
:1021000000004200010041000000410001004000C9
:1021100001003F0000003F0001003E0000003E00C3
:1021200001003D0000003D0001003C0000003C00BB
:1021300000003C0001003B0000003B0001003A00B1
:1021400000003A00010039000000390001003800A9
:1021500000003800000038000100370000003700A0
:102160000100360000003600000036000100350096
:10217000000035000000350001003400000034008C
:102180000000340001003300000033000000330081
:102190000100320000003200000032000100310076
:1021A000000031000000310001003000000030006C
:1021B0000000300001002F0000002F0000002F0061
:1021C00000002F0001002E0000002E0000002E0055
:1021D00001002D0000002D0000002D0000002D004A
:1021E00001002C0000002C0000002C0000002C003E
:1021F00001002B0000002B0000002B0000002B0032
:1022000001002A0000002A0000002A0000002A0025
:102210000100290000002900000029000000290019
:10222000000029000100280000002800000028000C
:1022300000002800000028000100270000002700FF
:1022400000002700000027000000270001002600F2
:1022500000002600000026000000260000002600E6
:1022600001002500000025000000250000002500D9
:1022700000002500000025000100240000002400CB
:1022800000002400000024000000240001002300BE
:1022900000002300000023000000230000002300B2
:1022A00000002300000023000100220000002200A3
:1022B0000000220000002200000022000000220096
:1022C0000100210000002100000021000000210089
:1022D000000021000000210000002100010020007A
:1022E000000020000000200000002000000020006E
:1022F00000002000000020000000200001001F005E
:1023000000001F0000001F0000001F0000001F0051
:1023100000001F0000001F0001001E0000001E0042
:1023200000001E0000001E000000043700001E29EF
:102330000000511B00005810000010090000CC04E0
:10234000000078020000410100005072657269735C
:102350002E504C412032005072657269732E504CE1
:102360004120547574746F005072657269732E50F9
:102370004C41203100457363690050726572697386
:102380002E4142532032005072657269732E4142D1
:102390005320547574746F005072657269732E41C6
:1023A000425320310045736369005072657269734E
:1023B00063616C64612041425300507265726973BD
:1023C00063616C646120504C4100526166667265C5
:1023D0006464610043616D6269612066696C616D6E
:1023E000656E746F004469736162696C6974612021
:1023F0004D6F746F7269004D3834004175746F20F1
:10240000486F6D6500473238004D756F7669204121
:10241000737365004D656E75207072696E636970C7
:10242000616C6500426172726120446961676F6E20
:10243000616C6500426172726120446961676F6E10
:10244000616C6500547A00547A0054790054790024
:1024500054780054780052616767696F0052616771
:1024600067696F00457A00457A0045790045790033
:10247000457800457800416C74657A7A6100416C5A
:1024800074657A7A61004573636900205A3A0020C6
:10249000593A0020436F756E7420583A0020453A2F
:1024A00000205A3A0020593A00583A003A00436155
:1024B000703A0023646566696E652044454641555F
:1024C0004C545F4B64200023646566696E6520444C
:1024D000454641554C545F4B69200023646566694D
:1024E0006E652044454641554C545F4B702000506A
:1024F0004944204175746F74756E652066696E6914
:1025000073686564212050757420746865206C615F
:102510007374204B702C204B6920616E64204B64D7
:1025200020636F6E7374616E74732066726F6D20BA
:1025300062656C6F7720696E746F20436F6E666999
:102540006775726174696F6E2E680A005049442085
:102550004175746F74756E65206661696C65642180
:102560002074696D656F75740A0045312054454DBE
:10257000502046554F524920434F4E54524F4C4CD9
:102580004F0045322054454D502046554F5249206A
:10259000434F4E54524F4C4C4F00546865726D611E
:1025A0006C2052756E6177617900453120526973F4
:1025B00063616C642E2046616C6C69746F004532F7
:1025C0002052697363616C642E2046616C6C69747F
:1025D0006F0048656174696E67206661696C656447
:1025E00000504944204175746F74756E65206661B2
:1025F000696C6564212054656D70657261747572D3
:102600006520746F6F20686967680A00204B643A20
:102610002000204B693A2000204B703A20000A200D
:10262000436C617373696320504944200A0020544D
:10263000753A2000204B753A2000206D61783A20D1
:1026400000206D696E3A200020643A200020626903
:1026500061733A2000504944204175746F74756E5F
:1026600065206661696C6564212054656D706572D2
:10267000617475726520746F6F20686967680A00FD
:10268000504944204175746F74756E652073746190
:1026900072740A00504944204175746F74756E65F8
:1026A000206661696C6564212042616420657874EC
:1026B0007275646572206E756D6265720A00496E8E
:1026C000736572742066696C616D656E7420616EED
:1026D0006420707265737320627574746F6E0A0083
:1026E000507265737320627574746F6E20746F20FE
:1026F00068656174206E6F7A7A6C650A00496E7342
:102700006572742066696C616D656E7420616E64BB
:1027100020707265737320627574746F6E20286FF9
:1027200072204D313038290A00496E76616C696437
:102730002065787472756465720A00416374697605
:10274000652045787472756465723A20007C3C3E61
:102750005E2B3D3F2F5B5D3B2C2A225C0056652D96
:102760006A65726B0056652D6A65726B0056652D41
:102770006A65726B0056632D6A65726B0056632D35
:102780006A65726B0056632D6A65726B0056622D26
:102790006A65726B0056622D6A65726B0056622D17
:1027A0006A65726B0056612D6A65726B0056612D09
:1027B0006A65726B0056612D6A65726B004D6F76AB
:1027C000696D656E746F004570617373692F6D6D0F
:1027D000004570617373692F6D6D00437061737391
:1027E000692F6D6D004370617373692F6D6D0042C9
:1027F00070617373692F6D6D004270617373692F1F
:102800006D6D004170617373692F6D6D0041706172
:102810007373692F6D6D004D6F76696D656E746FA2
:102820000050617373692F6D6D004A65726B0041D2
:102830006363656C6572617A696F6E650056656C7D
:102840006F636974C3A00045736369004361726973
:102850006361206D6D203200436172696361206D98
:102860006D203200436172696361206D6D2032001A
:10287000436172696361206D6D203100436172694B
:102880006361206D6D203100436172696361206D69
:102890006D203100436172696361206D6D00436199
:1028A00072696361206D6D00436172696361206DBF
:1028B0006D0052696D756F7669206D6D2032005222
:1028C000696D756F7669206D6D20320052696D7586
:1028D0006F7669206D6D20320052696D756F766973
:1028E000206D6D20310052696D756F7669206D6DB8
:1028F00020310052696D756F7669206D6D20310051
:1029000052696D756F7669206D6D0052696D756FD6
:102910007669206D6D0052696D756F7669206D6DF9
:10292000004469616D2E2066696C6F203200446935
:10293000616D2E2066696C6F2032004469616D2ED6
:102940002066696C6F2031004469616D2E206669D4
:102950006C6F2031004469616D2E2066696C6F00D8
:102960004469616D2E2066696C6F004F6666004F8A
:102970006E20004520696E206D6D330045736369DC
:1029800000000020002300260029002C002F003228
:102990000000010000030106010901050505050706
:1029A0000508080808020202020A0A0808040404CA
:1029B00004010101010101010103030303030303F6
:1029C00003040707070C0C0C0C0C0C0C0C02020285
:1029D0000206060606060606060B0B0B0B0B0B0B78
:1029E0000B01021020200808102040102040800217
:1029F0000102010804020101020408102040808045
:102A000040201008040201800402018040201008C8
:102A100004020108040201010204081020408001A0
:102A20000204081020408000000A0B02090C0D0E61
:102A3000080703040100000000000000000000007F
:102A40000000000000000000000000000000000086
:102A50000000001211100000000000000000000043
:102A60000000000000000000000000000043616D55
:102A70006269612066696C616D656E746F00507289
:102A80006572697363616C646120414253005072E6
:102A90006572697363616C646120504C41004361ED
:102AA0006D6269612066696C616D656E746F004D61
:102AB0003234004D323320257300556E6B6E6F77C4
:102AC0006E20636F6D6D616E643A202200496E73F3
:102AD0006572742066696C616D656E7420616E64E8
:102AE00020707265737320627574746F6E20286F26
:102AF00072204D313038290A006F70656E20666192
:102B0000696C65642C2046696C653A2000577269CF
:102B100074696E6720746F2066696C653A2000489E
:102B20006F74656E6420746F6F20636F6C640A004D
:102B3000496E697A69616C697A7A612045455052BB
:102B40004F4D00457363690052697072697374690F
:102B50006E6120696D702E0043617269636120644B
:102B600061206D656D6F72696100496E697A696196
:102B70006C697A7A6120454550524F4D0053616C23
:102B8000766120696E206D656D6F726961004669BE
:102B90006C616D656E746F004D6F76696D656E74F6
:102BA0006F0054656D706572617475726100457374
:102BB0006369005072657269732E41425320636FDE
:102BC0006E66005072657269732E504C4120636FBF
:102BD0006E66005049442D44005049442D44005035
:102BE00049442D49005049442D49005049442D5035
:102BF000005049442D5000022046616374000220B9
:102C0000466163740002204D61780002204D6178B6
:102C10000002204D61780002204D696E0002204DB7
:102C2000696E0002204D696E004F6666004F6E208F
:102C3000004175746F74656D700056656C6F6369E3
:102C400074612076656E746F6C610056656C6F639D
:102C50006974612076656E746F6C610056656C6F87
:102C6000636974612076656E746F6C610055676589
:102C70006C6C6F2032005567656C6C6F20320055AC
:102C800067656C6C6F2032005567656C6C6F203126
:102C9000005567656C6C6F2031005567656C6C6F13
:102CA000203100457363690053616C766120696E61
:102CB000206D656D6F726961005567656C6C6F00A2
:102CC0005567656C6C6F005567656C6C6F00566579
:102CD0006C6F636974612076656E746F6C61005609
:102CE000656C6F636974612076656E746F6C6100EA
:102CF00056656C6F636974612076656E746F6C6184
:102D00000054656D706572617475726100496D7013
:102D10006F7374617A2E2044656C746100496D7024
:102D20002E20616C74657A7A612044656C74610050
:102D30004D36363520483236302E30300A47333360
:102D40002050310A4D353030004175746F20636179
:102D50006C696272617A696F6E65004D3636352036
:102D6000483236302E30300A4D3636362058302034
:102D70005930205A300A4733332050332054310A17
:102D80004D3530300045736369004D756F766920AD
:102D900058004D756F76692059004D756F76692022
:102DA0005A004573747275736F726532004573749F
:102DB0007275736F726531004D756F766920646945
:102DC00020302E316D6D004D756F7669206469205D
:102DD0002020316D6D004D756F766920646920206B
:102DE00031306D6D004D756F7669204173736500EC
:102DF0004573747275736F7265004D756F766920D7
:102E00005A004D756F76692059004D756F766920AF
:102E10005800496E206D6F76696D656E746F2E2E49
:102E20002E004573747275736F726532004573744A
:102E30007275736F726531004573747275736F725A
:102E400065004175746F20486F6D6500473238002A
:102E50004D756F7669205A005859206C6962657209
:102E600069004D756F76692059004D756F76692040
:102E700058004573636900526573656E643A2000BB
:102E80006F6B0020746F6F206C6F6E6720657874B5
:102E9000727573696F6E2070726576656E746564A5
:102EA0000A0020636F6C6420657874727573696FB3
:102EB0006E2070726576656E7465640A0056547291
:102EC0006176206D696E005654726176206D696E70
:102ED000005654726176206D696E00566D696E0001
:102EE000566D696E00566D696E00566D61782045AD
:102EF00000566D6178204500566D6178204500567A
:102F00006D6178204300566D6178204300566D61F5
:102F100078204300566D6178204200566D6178201C
:102F20004200566D6178204200566D617820410064
:102F3000566D6178204100566D61782041004D6FDB
:102F400076696D656E746F00416D61782045004152
:102F50006D6178204500416D6178204300416D61CD
:102F600078204300416D6178204200416D617820F6
:102F70004200416D6178204100416D61782041003F
:102F8000412D53706F7374616D656E746F00412DC8
:102F900053706F7374616D656E746F00412D72654F
:102FA000747261637400412D7265747261637400A0
:102FB000416363656C00416363656C004D6F7669C6
:102FC0006D656E746F006265640A002C20737973FE
:102FD00074656D2073746F7070656421204865613D
:102FE0007465725F49443A200045312054454D5084
:102FF0002046554F524920434F4E54524F4C4C4F50
:103000000045322054454D502046554F52492043EB
:103010004F4E54524F4C4C4F00546865726D616C6A
:103020002052756E61776179004531205269736372
:10303000616C642E2046616C6C69746F00453220AF
:1030400052697363616C642E2046616C6C69746FA5
:103050000048656174696E67206661696C6564002B
:103060004531204572723A2054454D50204D415310
:1030700053494D41004532204572723A2054454D26
:1030800050204D415353494D41004D415854454DF9
:103090005020747269676765726564004531204528
:1030A00072723A2054454D50204D494E494D4100D1
:1030B0004532204572723A2054454D50204D494EBC
:1030C000494D41004D494E54454D50207472696739
:1030D0006765726564004D383420582059205A20A5
:1030E000450043616E6E6F74206F70656E2073755E
:1030F0006264697220006563686F3A004572726F9E
:10310000723A004572726F722077726974696E67E5
:1031100020746F20454550524F4D210A00454550BF
:10312000524F4D206461746173697A6520657272D3
:103130006F722E0A0048617264636F646564204494
:10314000656661756C742053657474696E6773206D
:103150004C6F616465640A001027000010270000AE
:10316000102700001027000000002A4300002A4317
:1031700000002A4300008C420000C8420000C84200
:103180000000C84200001243486F6D652066616C04
:103190006C69746F00545249474745524544006F6B
:1031A00070656E003A20007A5F6D6178007A5F6D1D
:1031B000696E00795F6D617800785F6D61780052AB
:1031C00065706F7274696E6720656E6473746F707A
:1031D000207374617475730A002D2D2D2D2D2D2DE6
:1031E0002D2D2D2D2D2D2D2D2D2D2D2D2D2D2D2D0F
:1031F0002D2D2D2D0A007072696E745F6A6F625FEB
:10320000656C61707365643A20007364706F733A23
:10321000200073645F66696C656E616D653A2000BD
:103220003E20003E2000636F6D6D616E64735F69C8
:103230006E5F71756575653A2000636D645F7175C9
:103240006575655F696E6465785F723A20006661D6
:103250006E5370656564733A2000746172676574BB
:103260005F74656D70657261747572653A20006196
:1032700063746976655F686F74656E643A20006692
:10328000656564726174653A200063757272656E7B
:10329000745F706F736974696F6E3A2000494E569F
:1032A000414C494420444154410A002076616C69F4
:1032B000645F666F6F743A0076616C69645F68651D
:1032C00061643A002D2D2D2D204A6F6220526563D6
:1032D0006F7665727920496E666F202D2D2D2D0A2F
:1032E00000506F7765722D6C6F73732066696C6523
:1032F000207772697465206661696C65642E0A00C6
:10330000506F7765722D4C6F7373205265636F76C3
:1033100065727900536176696E672E2E2E0A004D14
:103320003630303A54726F70706F20667265646424
:103330006F00486F74656E6420746F6F20636F6CEC
:10334000640A0050726F7465637465642050696E1E
:103350000A0020573A004525692052616666726569
:103360006464616D656E746F2E2E00452569205270
:10337000697363616C64616D656E746F2E2E2E00CF
:1033800000002100240027002A002D003000330017
:1033900001010000040107010A01000022002500CC
:1033A00028002B002E00310034000201000005012E
:1033B00008010B012001EC0011241FBECFEFD1E268
:1033C000DEBFCDBF00E00CBF13E0A0E0B2E0E4EA56
:1033D000FFE502E00BBF02C007900D92A437B107D2
:1033E000D9F72AE1A4E7B3E001C01D92A932B207E0
:1033F000E1F719E1CBEDD9E100E006C02197010921
:10340000802FFE010F94C52BCA3DD10780E008072D
:10341000A9F70F94C9160D94C02F0C9400002F9299
:103420003F924F925F926F927F928F929F92AF9254
:10343000BF92CF92DF92EF92FF920F931F93CF93A1
:10344000DF93CDB7DEB7CF55D1090FB6F894DEBF05
:103450000FBECDBF91E0909370148091F8148D341D
:1034600009F45BC6843511F40C94E52F873411F010
:103470000C9411302090F6143090F7142BE12216A2
:10348000310409F4A9C58CF444E0241631043CF459
:1034900052E025163104ECF537FE34C03AC684E01C
:1034A0002816310409F459C534C6AAE52A16310490
:1034B00009F4C2C574F4ECE12E16310409F4B8C560
:1034C000F1E22F16310409F024C60E940E400C943C
:1034D00013302BE52216310409F4B2C53CE523165E
:1034E000310409F016C667E6262E62E0362E73EC2C
:1034F000E72E74E1F72EE3EACE2EE3E0DE2E00E0C5
:1035000010E0D7C58091630281110C9418300C949F
:10351000133080916302882311F40C9413300E94BD
:10352000413982E50E943439882309F438C10E9468
:10353000B8384B015C0120E030E0A9010F94AE24C3
:10354000882309F458C18091A3039091A403A0910A
:10355000A503B091A6038CA79DA7AEA7BFA72091F6
:10356000A7033091A8034091A9035091AA0328AB67
:1035700039AB4AAB5BAB8091711490917214A091FE
:103580007314B09174148CAF9DAFAEAFBFAF2091E8
:10359000751430917614409177145091781428AFB7
:1035A00039AF4AAF5BAF9C01AD016CA57DA58EA57F
:1035B0009FA50F94AE2481110DC028AD39AD4AAD41
:1035C0005BAD68A979A98AA99BA90F94AE24882329
:1035D00009F411C111E032E02316310409F010E0C2
:1035E00020E030E0A901C501B4010F94AE24881F8A
:1035F0008827881F181759F080E090E0A0E8BFEBFB
:1036000028968CAF9DAFAEAFBFAF28970AC020E021
:1036100030E040E85FE328962CAF3DAF4EAF5FAFA0
:1036200028972CA53DA54EA55FA56CAD7DAD8EADB3
:103630009FAD0F94D52B24966CAF7DAF8EAF9FAF0F
:10364000249728A939A94AA95BA968AD79AD8AADA3
:103650009BAD0F94D52B6B017C0124962CAD3DAD19
:103660004EAD5FAD2497CA01B9010F9414252B010B
:103670003C01A7019601C701B6010F9414259B01D7
:10368000AC01C301B2010F94D62B0F94D82E6CABB2
:103690007DAB8EAB9FAB20E030E040E05FE30F946A
:1036A00014252B013C01A5019401C501B4010F941F
:1036B00014254B015C01A3019201C301B2010F94D7
:1036C00014259B01AC01C501B4010F94D52B0F94B7
:1036D000D82E28962CAD3DAD4EAD5FAD28970F94FA
:1036E00014254B015C01C701B60190582CA93DA9D6
:1036F0004EA95FA90F94D02CA50194010F94142515
:103700006B017C012CAD3DAD4EAD5FAD6CA57DA5D3
:103710008EA59FA50F94D62B20E030E040E05FE31C
:103720000F9414259B01AC01C701B6010F94D62B51
:103730002CA53DA54EA55FA50F94D52B6B017C0153
:1037400028AD39AD4AAD5BAD68A979A98AA99BA915
:103750000F94D62B20E030E040E05FE30F94142577
:103760002B013C012CA93DA94EA95FA924966CAD63
:103770007DAD8EAD9FAD24970F94D02CA501940103
:103780000F9414259B01AC01C301B2010F94D62BF9
:1037900028A939A94AA95BA90F94D52B14C089E49B
:1037A0000E943439882329F00E94B8386B017C01CB
:1037B00003C0C12CD12C76018AE40E9434398823BD
:1037C000E9F00E94B8386CAF7DAF8EAF9FAF20E0BC
:1037D00030E0A901C701B6010F94AE2481111BC0CE
:1037E00020E030E0A9016CAD7DAD8EAD9FAD0F94B2
:1037F000AE24811110C0ECEFF0E39BC320E030E079
:10380000A901C701B6010F94AE248823A1F31CAE11
:103810001DAE1EAE1FAED701C601B0588CA79DA726
:10382000AEA7BFA72CAD3DAD4EAD5FAD505828AB98
:1038300039AB4AAB5BAB9C01AD01BC01CD010F9430
:1038400014254B015C0128A939A94AA95BA9CA0121
:10385000B9010F9414259B01AC01C501B4010F946B
:10386000D62B0F94D82E64966CAF7DAF8EAF9FAFE2
:1038700064978091A3039091A403A091A503B091B4
:10388000A60388AF99AFAAAFBBAFA7019601BC0151
:10389000CD010F94D62B28966CAF7DAF8EAF9FAF26
:1038A00028972091A7033091A8034091A903509134
:1038B000AA0324962CAF3DAF4EAF5FAF24972CAD3B
:1038C0003DAD4EAD5FAD24966CAD7DAD8EAD9FAD83
:1038D00024970F94D62B68966CAF7DAF8EAF9FAFB9
:1038E00068978091711490917214A0917314B091A3
:1038F00074142C968CAF9DAFAEAFBFAF2C972896AB
:103900002CAD3DAD4EAD5FAD2897BC01CD010F9400
:10391000D52B6B017C012091751430917614409168
:1039200077145091781460962CAF3DAF4EAF5FAFD7
:10393000609768962CAD3DAD4EAD5FAD68976096D3
:103940006CAD7DAD8EAD9FAD60970F94D52B4B01C7
:103950005C018091AB039091AC03A091AD03B09159
:10396000AE036C968CAF9DAFAEAFBFAF6C979C01B2
:10397000AD016091791470917A1480917B149091CB
:103980007C140F94D52B6CAB7DAB8EAB9FABA7019A
:1039900096016CA57DA58EA59FA50F9414252B01DE
:1039A0003C01A501940168A979A98AA99BA90F9452
:1039B00014259B01AC01C301B2010F94D62B2B013E
:1039C0003C01A50194016CA57DA58EA59FA50F9432
:1039D00014254B015C01A701960168A979A98AA960
:1039E0009BA90F9414259B01AC01C501B4010F9450
:1039F000D52BA30192010F94552C6B017C0120E083
:103A000030E0A9010F94AE2487FF0AC02BED3FE000
:103A100049EC50E4C701B6010F94D62B6B017C0131
:103A200092E02916310451F42BED3FE049EC50E4CB
:103A3000C701B6010F94D52B6B017C0120E030E06B
:103A4000A901C701B6010F94AE24811126C02C969E
:103A50002CAD3DAD4EAD5FAD2C9768AD79AD8AAD67
:103A60009BAD0F94AE24811118C060962CAD3DAD76
:103A70004EAD5FAD609724966CAD7DAD8EAD9FADC4
:103A800024970F94AE24811108C0ABEDCA2EAFE08D
:103A9000DA2EA9ECEA2EA0E4FA2EA701960164968C
:103AA0006CAD7DAD8EAD9FAD64970F9414254B0129
:103AB0005C0120E030E0A9016CA97DA98EA99FA935
:103AC0000F94AE248823D9F0A5019401C501B40157
:103AD0000F9414254B015C012CA93DA94EA95FA9A7
:103AE000CA01B9010F9414259B01AC01C501B401B1
:103AF0000F94D62B0F94D82E4B015C010DC020E003
:103B000030E0A901C501B4010F948A2E87FF04C0DB
:103B1000B7FAB094B7F8B0942FE632E143E85AE32D
:103B2000C501B4010F94AE2487FF02C00C9413307A
:103B3000C501B4010F94782D0F94492D22967FAFC3
:103B40006EAF2297DB01AB2B31F4E1E0F0E022967F
:103B5000FFAFEEAF22974090AF035090B00360905C
:103B6000B1037090B20322962EAD3FAD2297B901FA
:103B700080E090E00F94B3244B015C019B01AC0109
:103B8000C701B6010F94D02C68AF79AF8AAF9BAF55
:103B9000A50194016CA97DA98EA99FA90F94D02C91
:103BA00064966CAF7DAF8EAF9FAF6497A301920117
:103BB00060917D1470917E1480917F149091801497
:103BC0000F94D52BA50194010F94D02CA0966CAF27
:103BD0007DAF8EAF9FAFA09728AD39AD4AAD5BAD3D
:103BE000CA01B9010F94142520E030E040E05FE302
:103BF0000F9414259B01AC0160E070E080E89FE326
:103C00000F94D52B2C966CAF7DAF8EAF9FAF2C97BA
:103C10006C968CAD9DADAEADBFAD6C9789879A8724
:103C2000AB87BC874D865E866F86788A6091260258
:103C300070912702072E000C880B990B0F94B52466
:103C40002091040230910502409106025091070232
:103C50000F9414252AE037ED43E25CE30F9414251A
:103C600068A779A78AA79BA70F94C7159B01AC01EA
:103C700028533F4F4F4F5F4F60962CAF3DAF4EAF35
:103C80005FAF60974CA45DA46EA47FA4222423940C
:103C9000312C39E13CAB22964EAD5FAD22974215F7
:103CA000530509F41EC10E948FFA0F94C715DC0159
:103CB000CB0160962CAD3DAD4EAD5FAD6097821BE4
:103CC000930BA40BB50BB7FD11C00F94C7159B0147
:103CD000AC0128533F4F4F4F5F4F60962CAF3DAF25
:103CE0004EAF5FAF609780E00E94438F3CA9315098
:103CF0003CAB332309F441C028A939A94AA95BA9DF
:103D00002C966CAD7DAD8EAD9FAD2C970F94142588
:103D10006B017C019201A30168AD79AD8AAD9BADC9
:103D20000F941425A70196010F94D62B6B017C01EB
:103D30009201A3012C966CAD7DAD8EAD9FAD2C97FD
:103D40000F9414254B015C0128A939A94AA95BA944
:103D500068AD79AD8AAD9BAD0F9414259B01AC0184
:103D6000C501B4010F94D52B2B013C01C601D7012D
:103D700088AB99ABAAABBBAB4DC0B10180E090E082
:103D80000F94B32428AD39AD4AAD5BAD0F94142523
:103D90004B015C010F94CB2C6B017C01C501B4017C
:103DA0000F94CA2E4B015C01A70196016CA57DA55D
:103DB0008EA59FA50F9414252B013C012CAD3DAD84
:103DC0004EAD5FADC501B4010F941425A30192015E
:103DD0000F94D62B2B013C01A50194016CA57DA568
:103DE0008EA59FA50F9414254B015C012CAD3DAD14
:103DF0004EAD5FADC701B6010F9414259B01AC0118
:103E0000C501B4010F94D52B68AB79AB8AAB9BABE2
:103E100049E14CAB9201A30128966CAD7DAD8EAD0E
:103E20009FAD28970F94D62B69837A838B839C83CD
:103E300028A939A94AA95BA968966CAD7DAD8EAD5C
:103E40009FAD68970F94D62B6D837E838F83988761
:103E500064962CAD3DAD4EAD5FAD649769857A85B6
:103E60008B859C850F94D62B69877A878B879C8757
:103E7000A0962CAD3DAD4EAD5FADA0976D857E8516
:103E80008F8598890F94D62B6D877E878F87988B27
:103E900080915C02882321F0CE0101960E94718AF4
:103EA000E090B31618A219A21AA21BA2CE01019685
:103EB0000E9430EBCE0180966C018E01085D1F4F91
:103EC0009E01235F3F4F4BEB53E067EB73E083EBC7
:103ED00093E00E94586B882321F09FEF291A390A3A
:103EE000DACEE090B3161CA21DA21EA21FA281E78B
:103EF00094E10E9430EBDE0194966D018E01085D25
:103F00001F4F2DE734E14BEB53E067EB73E083EB9E
:103F100093E00E94586B80E1E1E7F4E1A3EAB3E0AB
:103F200001900D928A95E1F70C9413300E94613D47
:103F3000F80184918F010F5F1F4F8111F7CFEFEFD1
:103F4000F4E084918F010F5F1F4F882311F40C94CC
:103F500013300E94613DF801F4CF80E50E943439AE
:103F6000882329F00E9474386B017C0103C0C12CA6
:103F7000D12C760183E50E943439882361F00E94B8
:103F8000B83820E030E04AE754E40F9414250F9449
:103F9000492D6B017C010E94017980915D16811190
:103FA00005C060E085E195E00E94DA7E0F94C715B8
:103FB000C60ED71EE81EF91E0F94C715DC01CB01F3
:103FC0008C199D09AE09BF09B7FD02C00C941330CE
:103FD00080E00E94438FF0CF0E94315981110C94F0
:103FE000133019821A821B821C8280E090E0AEEBB3
:103FF000B2E48D839E83AF83B88780E090E0A6E62D
:10400000B3E489879A87AB87BC8780E50E943439FF
:10401000882319F00E94843801C060E068A3BE01C3
:104020006F5F7F4FCE0180960F94FF080C94133082
:104030000E94438A0C941330109278030C9413302E
:10404000909378030C9413300E94B8382B013C01F4
:10405000133049F0D7012D913D914D915C910F9412
:10406000D52B2B013C01F601208131814281538106
:10407000C301B2010F94D52B4B015C012DEB37E34B
:1040800046E855EB0F948A2E87FD1BC02DEB37E3D6
:1040900046E855E3C501B4010F94AE2418168CF020
:1040A0001F5FF4E0EF0EF11C24E0C20ED11C1430AF
:1040B00031F1F10181911F010E943439882381F38C
:1040C000C3CF133051F44092AF035092B0036092CB
:1040D000B1037092B20301E0E3CFA5019401D701CF
:1040E0006D917D918D919C910F94D62BF7016083FA
:1040F000718382839383812F0E945936D1CF00230D
:1041000021F08FEA93E00E94CE580E949EC40C9446
:1041100013300E945DD70C9413308091F614909167
:10412000F7148237910511F40C94CA280CF0E4C0FE
:104130008B34910509F484C40CF06EC0883191056C
:1041400009F4A9C2E4F58231910509F454C7E4F4F5
:1041500097FF02C00C94E22F823091050CF4CAC183
:10416000419711F00C94E22F60E082E395E00E9409
:10417000DA7E5F988A9880910801817080930601A9
:10418000129847980C9413308531910509F468C250
:104190003CF4449711F00C94E22FE2E5F5E022C2E2
:1041A0008631910509F460C2479711F00C94E22F13
:1041B0000E942B5FE091F414F091F5145FC28D31F1
:1041C000910511F40C941330C4F48A31910509F46B
:1041D000CCC20CF4BCC28B31910509F4D4C24C970B
:1041E00011F00C94E22F40E060E08091F414909183
:1041F000F5140E94185D0C9413308F31910509F469
:10420000C1C30CF456C38032910509F46CC38A977C
:1042100009F4E2C30C94E22F8836910509F41EC517
:104220000CF042C08235910509F4DCC624F58D34CA
:10423000910509F40DC40CF407C48E34910509F4FA
:104240000BC48135910511F00C94E22F0E94FBF70D
:104250000E943F7910925D1410925C1468EE73E036
:1042600080E090E00E94257E60E08FE396E00E946F
:10427000DA7E0C9413308435910509F4BCC60CF435
:10428000B5C68535910509F4EBC68C35910511F05D
:104290000C94E22F27E6C22E22E0D22E33E9E32E41
:1042A00033E0F32E10E0F7C68D36910509F4E2C530
:1042B0009CF48A36910509F4E1C50CF499C58B3656
:1042C000910509F4F9C58C36910511F00C94E22F93
:1042D000109235020C9413308F36910509F4FFC407
:1042E0000CF4EAC48037910509F44DC58137910576
:1042F00009F451C50C94E22F823E910511F40C94FF
:10430000172D0CF068C08B39910509F48CC54CF55C
:104310008737910511F40C94BB2984F485379105F6
:1043200011F40C94642914F00C94712983379105CD
:1043300011F00C94E22FE5E3F7E06BC789379105A4
:1043400011F40C94C42914F40C94BE298D379105F2
:1043500009F4C4C58139910511F40C94C9290C9450
:10436000E22F8D3C910511F40C94442BCCF4893C44
:10437000910511F40C94952A3CF4883C910511F4B4
:104380000C94292A0C94E22F8B3C910511F40C9487
:10439000B42A8C3C910511F40C94CF2A0C94E22F92
:1043A0008A3D910511F40C948F2C4CF4833D9105BA
:1043B00011F00C94E22FE6EFF0E30C94AF2B8C3D60
:1043C000910511F40C949B2C8D3D910511F40C94E6
:1043D000A82C0C94E22F863F31E0930711F40C9443
:1043E000772E0CF041C0833651E0950709F47EC06A
:1043F000ECF48D32B1E09B0711F40C946A2D3CF47F
:104400008C32914011F40C94412D0C94E22F8E3299
:1044100021E0920711F40C940A2E8F32914011F092
:104420000C94E22F0E94B2BF0C9413308A3941E001
:10443000940709F4ACC44CF48039914011F00C9409
:10444000E22F0E9401790C941330843FB1E09B0766
:1044500011F40C94742E853F914011F00C94E22FCE
:104460000F94DF0B0C9413308939F2E09F0711F49D
:104470000C94332FDCF48C3032E0930711F40C945D
:104480009E2E3CF4883F914011F40C947A2E0C94AB
:10449000E22F8835A2E09A0711F40C94A72E8B35F1
:1044A000924011F40C94AA2E0C94E22F8B38E3E086
:1044B0009E0711F40C9413306CF48A39924011F079
:1044C0000C94E22F87E6E82E82E0F82E0FEF13E13E
:1044D0000C94C52F803A33E0930709F446C2873E17
:1044E000934011F40C94CD2F0C94E22FECEFF0E3F9
:1044F0000C94612EA090F414B090F51480E50E9405
:104500003439882359F00E9474386B017C0111E022
:10451000672B682B692B31F410E004C010E0C12C2C
:10452000D12C760183E50E943439882311F40C9450
:104530001D300E94B83820E030E04AE754E40F9480
:1045400014250F94492D6B017C0111110BC0672BB1
:10455000682B692B39F4A114B10421F0D5018C9199
:10456000811102C010E001C011E00E940179112305
:1045700029F061E0C5010E941F7F05C060E084E270
:1045800095E00E94DA7E83E08093701481E080934E
:104590006F14C114D104E104F104B1F00F94C715F4
:1045A000C60ED71EE81EF91E0F94C715DC01CB01FD
:1045B0008C199D09AE09BF09B7FF0EC080916F1419
:1045C00081110C94223008C080916F14882321F04F
:1045D00080E00E94438FF8CF0E94B6A110926F1422
:1045E0000C94133084918F010F5F1F4F882321F0AB
:1045F0000E94613DF801F6CF1092C2198CE297E15A
:104600000E94CBC78BE1ECE2F7E1DE011596019049
:104610000D928A95E1F780912A1790912B179C8330
:104620008B8385E393E09A83898340E050E0BE0169
:104630006F5F7F4F80E090E00E9479FFCE0101968E
:104640000E94E18BE3E4F5E084918F010F5F1F4F3F
:10465000882311F40C9413300E94613DF801F4CFCB
:104660000E94165B0C9413301092D4161092D5163B
:104670000C941330803209F41082319680818111BC
:10468000F9CF40E061E08091F4149091F5140E941C
:10469000185D0C94133080E090E0A0EFB1E48983C2
:1046A0009A83AB83BC8318A219A21AA21BA21CA2D4
:1046B0001DA21EA21FA28091FF07882359F020E0AF
:1046C000AE014F5F5F4FBE01605E7F4FCE018496AB
:1046D0000E94BAD583E50E943439882381F00E9474
:1046E0008438AB01BC014093BE195093BF1960934D
:1046F000C0197093C1198EEE98E10E9483C5809114
:10470000D516882319F081E08093D41684E50E94A1
:1047100034398823B1F00E9484386B017C010E94F7
:10472000DAFDC092F715D092F815E092F915F092E3
:10473000FA15CD28CE28CF2831F081E080937B0A6E
:1047400002C00E94FFB40E94B6A10C9413301092D4
:10475000D4160E94F5FD83E695E090935F14809354
:104760005E140E94913D0C9413308091D5168823DD
:1047700011F40C94133083E50E94343981110C94A8
:1047800027300C94133083E40E94EB38882309F41B
:104790004EC0E5E9F5E084918F010F5F1F4F88233C
:1047A00021F00E94613DF801F6CF8091F11881114E
:1047B00003C0E8E6F5E012C0BE016F5F7F4F8EEEEA
:1047C00098E10E9492C68E010F5F1F4FF801819100
:1047D0008F01882339F10E94613DF8CF84918F01C8
:1047E0000F5F1F4F8823F1F00E94613DF801F6CF63
:1047F00057E1C52E56E0D52E00E010E020E0809174
:10480000A01490E0002E02C0959587950A94E2F7D7
:1048100080FD95C20F5F1F4F32E0C30ED11C0530E3
:10482000110569F78AE00E94613D0C941330809174
:10483000D516882339F08091D416882319F0E2E741
:10484000F5E003C0E4E8F5E028C084918F010F5F34
:104850001F4F882321F00E94613DF801F6CF60913F
:10486000BE197091BF198091C0199091C1194AE089
:104870000E94EA3D8FE20E94613D6091BA197091F9
:10488000BB198091BC199091BD194AE00E94EA3D84
:104890008AE00E94613D0C94133084918F010F5F78
:1048A0001F4F882311F40C9413300E94613DF801CE
:1048B000F4CF8091D516882311F40C9413308EEE2A
:1048C00098E10F9415058EEE98E10E946DC6109246
:1048D000D3161092D2168091F4149091F5140E9480
:1048E000975E0C9413308091D41681110E94017947
:1048F0008091D516882311F40C94133080E50E9422
:104900003439882319F00E94A83803C080E50E943A
:10491000EB38182F482F61E08091F4149091F51432
:104920000E94185D83E50E943439882381F00E943B
:104930008438AB01BC014093BE195093BF196093FA
:10494000C0197093C1198EEE98E10E9483C58091C1
:10495000D516882319F081E08093D41611110C9498
:1049600013300E94FFB40C9413308091F414909192
:10497000F51421E02093D31640E060E00E94185D1A
:104980000C9413300E94A6FD68A379A38AA39BA36D
:10499000BE016F5F7F4FCE0180960E94F13960E0CB
:1049A000CE0101960E941F7FE6EFF0E384918F0114
:1049B0000F5F1F4F882321F00E94613DF801F6CF61
:1049C000BE016F5F7F4F84EA95E00E94E4B48AE005
:1049D0000E94613D0C94133083E50E943439882392
:1049E00011F40C9413300E949438E82E80E50E9454
:1049F0003439882339F00E949438182F87FF03C078
:104A00000C9413301DE089E40E943439882341F06E
:104A10000E94A83881110C940F31E8E8F8E00BC02F
:104A200089E40E94EB38F6CF319628E0EE3BF2079E
:104A300011F40C940F3184911813F6CF0C940C31AF
:104A40000E94FFB40C9413300E94F5FD0C941330B7
:104A50000E9446B50C94133083E50E9434398111CD
:104A600003C0EFE0F6E00CC00E9484386E3471059C
:104A7000C1F70F94ED0B0C9413300E94613DF801C7
:104A800084918F010F5F1F4F8111F7CFE6E0F6E0B1
:104A900084918F010F5F1F4F882321F00E94613D99
:104AA000F801F6CF6091E0087091E10880E090E0B5
:104AB0004AE00E94EA3DE9EFF5E084918F010F5F43
:104AC0001F4F882321F00E94613DF801F6CF6091CD
:104AD000E2087091E30880E090E04AE00E94EA3D3D
:104AE000EEEEF5E084918F010F5F1F4F882321F0D8
:104AF0000E94613DF801F6CF6091E0087091E108F5
:104B00008091E2089091E308681B790B80917B0A01
:104B1000815021E030E0823010F020E030E0621B74
:104B2000730B80E090E04AE00E94EA3D8AE00E9438
:104B3000613DE6EEF5E084918F010F5F1F4F882302
:104B400021F00E94613DF801F6CF8091E408909138
:104B5000E508A091E608B091E70888A399A3AAA365
:104B6000BBA3BE016F5F7F4FCE0180960E94F139DB
:104B7000E9EDF5E084918F010F5F1F4F811106C0B1
:104B8000AE014F5F5F4F7A018A0104C00E94613D10
:104B9000F801F0CFD8018D918D01882319F00E9482
:104BA000613DF8CF8091E8089091E908A091EA086A
:104BB000B091EB0888A399A3AAA3BBA3BE016F5F22
:104BC0007F4FCE0180960E94F139E9ECF5E08491A7
:104BD0008F010F5F1F4F882321F00E94613DF80174
:104BE000F6CFF70181917F01882319F00E94613D82
:104BF000F8CF8AE00E94613DE1ECF5E084918F01FD
:104C00000F5F1F4F811103C0E1EBF5E004C00E946C
:104C1000613DF801F3CF84918F010F5F1F4F88230F
:104C200021F00E94613DF801F6CF20E030E04AE734
:104C300054E46091EC087091ED088091EE08909139
:104C4000EF080F94D02C42E00E94B53E8DE60E9402
:104C5000613D8AE00E94613D0C94133088E690E04B
:104C60000E94573E81110C9413308091A01483FF51
:104C700002C00C94133083E50E9434398823C1F0BC
:104C80000E94B8380F94422DDC01CB016091A70E31
:104C90000E94D33A0E94B83820E030E040EA52E463
:104CA0000F94AE24181624F00E9446B50E94B6A1B7
:104CB0000F94FF0D0C9413308EE40E943439882336
:104CC00011F40C9413300E94843860935916709339
:104CD0005A1680935B1690935C160C94133083E500
:104CE0000E94EB38882359F083E50E9434398823E9
:104CF00019F00E94943801C080E08093A014E6EF80
:104D0000F0E384918F010F5F1F4F811103C0E5E233
:104D1000F6E004C00E94613DF801F3CF84918F0159
:104D20000F5F1F4F882321F00E94613DF801F6CFED
:104D30008091A01481115CCDE1E2F6E019C0BB24A2
:104D4000B394B20E222319F08CE20E94613DF60169
:104D500085919491FC0184917F012FEFE21AF20A70
:104D6000882321F00E94613DF701F5CF2B2D52CD14
:104D700084918F010F5F1F4F882309F453CD0E9448
:104D8000613DF801F5CF8CE296E00E94028C0E9412
:104D900079BF0C94133083E50E943439811103C02C
:104DA000E6EFF0E30DC00E9494388D3320F4809339
:104DB0000D020C9413308CE380930D020C9413308D
:104DC00084918F010F5F1F4F882321F00E94613D66
:104DD000F801F6CF40910D0250E060E070E085E30D
:104DE00096E00E9491B48AE00E94613D0C941330D9
:104DF00089E690E00E94573E811111C0ECE3F6E095
:104E000084918F010F5F1F4F882321F00E94613D25
:104E1000F801F6CF0E9437AC8AE00E94613D109203
:104E200070140C94243183E50E943439882311F4E2
:104E30000C9413300E949438182F8D3308F01CE323
:104E4000109343080F94C7156B017C01212F30E0AC
:104E5000A8EEB3E00F94632BC60ED71EE81EF91E12
:104E6000C0923F08D0924008E0924108F092420878
:104E70000C9413300F94880F0C94133080E50E942B
:104E80003439811106C083E50E943439882361F0EA
:104E900006C00E94943881110C941330F4CF0E9404
:104EA00084386F3F710510F06FEF70E070935D1400
:104EB00060935C140C94133080E50E9434398111A6
:104EC00006C010925D1410925C140C9413300E9472
:104ED0008438672B11F00C941330F3CF8CE40E94CC
:104EE000EB38882381F00E94B8386B017C0120E008
:104EF00030E0A9010F948A2E87FF0BC0F7FAF094D7
:104F0000F7F8F09406C0C12CD12C40E8E42E40E420
:104F1000F42EF7FAF094F7F8F094CCA2DDA2EEA20A
:104F2000FFA219821A821B821C8280E090E0AEEB05
:104F3000B2E48D839E83AF83B88780E090E0A6E6DD
:104F4000B3E489879A87AB87BC8788E50E943439A8
:104F5000882379F088E50E943439882319F00E946B
:104F6000B83803C060E070E0CB0169837A838B833B
:104F70009C8389E50E943439882379F089E50E9471
:104F80003439882319F00E94B83803C060E070E01B
:104F9000CB016D837E838F8398878AE50E943439A5
:104FA000882379F08AE50E943439882319F00E9419
:104FB000B83803C060E070E0CB0169877A878B87DF
:104FC0009C8718A219A21AA21BA220E0AE01405E83
:104FD0005F4FBE016F5F7F4FCE0184960F948612A4
:104FE0000C941330109277030C94133081E080936B
:104FF00077030C94133083E50E9434398823A1F0A1
:105000000E94B83820E030E04AE754E40F941425B9
:105010000F94492D60930E0270930F02809310023B
:10502000909311020C94133088E50E94EB388111A3
:105030000C94383089E50E94EB3881110C9438309B
:105040008AE50E94EB3881110C94383085E40E9487
:10505000EB3881110C9438300E943F790C94133056
:1050600083E50E94EB38882311F40C9413300E94DE
:10507000B83820E030E04AE754E40F9414250F9448
:10508000492D60933B0870933C0880933D089093B2
:105090003E080C941330D6018D916D010E94EB38BF
:1050A000882309F46DC0133009F063C00E94B8383A
:1050B0004B015C0120E030E040EA51E40F94AE2463
:1050C00087FF4EC0A501940160919F037091A003DA
:1050D0008091A1039091A2030F94D02C2B013C014D
:1050E0009B01AC0160911B1470911C1480911D14E4
:1050F00090911E140F94142560931B1470931C142C
:1051000080931D1490931E14A30192016091CC15FD
:105110007091CD158091CE159091CF150F941425D7
:105120006093CC157093CD158093CE159093CF15C9
:105130006091011A7091021A8091031A9091041AD9
:105140000F94B324A30192010F9414250F94492DB9
:105150006093011A7093021A8093031A9093041AB1
:1051600080929F039092A003A092A103B092A20309
:1051700007C00E94B838F7016083718382839383EC
:105180001F5FF4E0EF0EF11C143009F084CF0F9490
:105190008A0E49C70E94017983E50E943439882329
:1051A00011F40C9485200E9484386230710511F04E
:1051B0000C9485200E94F3E78BE50E94613D60918D
:1051C0007B1570917C1580917D1590917E1542E044
:1051D0000E94B53E40917F155091801560918115D8
:1051E0007091821583E596E00E94AEB440918315DC
:1051F00050918415609185157091861580E596E033
:105200000E94AEB48DE50E94613D8AE00E94613D3E
:105210000AC784918F010F5F1F4F882321F00E94DE
:10522000613DF801F6CF60E085E297E00E9467C437
:1052300061E08EE197E00E9467C461E083E197E05E
:105240000E9467C461E083E097E00E9467C460E069
:105250008AEF96E00E9467C461E080EF96E00E94CA
:1052600067C460E086EE96E00E9467C460E08EED61
:1052700096E00E9467C460E080ED96E00E9467C4FB
:1052800060E082EC96E00E9467C460E083EB96E009
:105290000E9467C460E085EA96E00E9467C460E00F
:1052A0008FE896E00E9467C460E08EE796E00E9477
:1052B00067C460E089E696E00E9467C460E086E526
:1052C00096E00E9467C4AFC68091F4149091F514E3
:1052D000DC012C91222309F436CA60E00E941F7F72
:1052E000A2C6E090F414F090F51483E0D12C40E0D5
:1052F0008150E1F0F7019081292F2B7F2134C1F7F4
:1053000021812133A9F7913421F0953421F441E032
:1053100002C0DD24D39497012E5F3F4F79012F5FA8
:105320003F4FD7019C919032C9F3E2CF442361F003
:10533000E6EFF0E384918F010F5F1F4F882321F088
:105340000E94613DF801F6CFDD2061F0ECEFF7E05F
:1053500084918F010F5F1F4F882321F00E94613DD0
:10536000F801F6CFF70181917F01882309F45ACA29
:105370000E94613DF7CF0F94F10955C681E08093FB
:10538000F1088093F0084FC61092F1081092F008CF
:105390004AC683E50E943439882319F00E94843874
:1053A00002C060E070E07B01FF24F2E0EF16F10440
:1053B000D4F0ECEFF0E384918F010F5F1F4F811168
:1053C00003C0E0E0F8E004C00E94613DF801F3CFC3
:1053D00084918F010F5F1F4F882309F424C60E9418
:1053E000613DF801F5CF88E40E9434398823A9F0A3
:1053F0000E948438603A71053CF0653021E0720704
:105400002CF064E071E002C060EA70E0F701EE0F9A
:10541000FF1FED54FB4E7183608386E40E94343994
:10542000882309F400C60E948438F701EE0FFF1F9D
:10543000E954FB4E718360836F3F710519F014F0DE
:105440006FEF70E077FF02C060E070E0718360830F
:10545000EAC588EC90E00E94573E8111E4C584E4DF
:105460000E94EB38882309F45DC00E94B8386B01B4
:105470007C0111E020E030E0A9010F94AE248111FD
:1054800001C010E01093371420E030E0A901C701FB
:10549000B6010F94AE24882309F444C00E94B838A2
:1054A000E091A70E34E0E39FF0011124E15DFB4E93
:1054B000608371838283938320E030E0A90160914F
:1054C0002F147091301480913114909132140F94F4
:1054D000AE2481110CC080E090E0A0EEBFE3809389
:1054E0002F1490933014A0933114B093321420E011
:1054F00030E0A90160913314709134148091351417
:10550000909136140F94AE2481110CC080E090E08D
:10551000A0EEBFE38093331490933414A09335141A
:10552000B09336140E94D76A7EC507E6E02E02E0EB
:10553000F02E00ED15E1D7018D917D010E94EB3831
:10554000882349F00E94B8380F94492DF8016083F0
:105550007183828393830C5F1F4FF5E1003E1F0729
:1055600051F70F942F0E5FC517E6E12E12E0F12ED2
:1055700000EC15E1D7018D917D010E94EB38882365
:1055800039F00E94B838F801608371838283938375
:105590000C5F1F4FF5E1003D1F0761F744C583E530
:1055A0000E9434398823A1F00E94B8386093E41532
:1055B0007093E5158093E6159093E7156093E015D9
:1055C0007093E1158093E2159093E31510E001C00C
:1055D00011E080E50E943439882359F00E94B838E0
:1055E0006093E4157093E5158093E6159093E715A5
:1055F00010E082E50E943439882359F00E94B838BF
:1056000060936B1470936C1480936D1490936E146C
:1056100010E084E50E943439882359F00E94B8389C
:105620006093E0157093E1158093E2159093E31574
:10563000FAC4112309F4F7C44091E4155091E5151B
:105640006091E6157091E71588E298E00E94AEB48B
:1056500040916B1450916C1460916D1470916E14A4
:1056600085E298E00E94AEB44091E0155091E115BA
:105670006091E2157091E31582E298E00E94AEB469
:105680008AE00E94613DCFC481E50E94EB38882307
:1056900051F00E9474386093EC197093ED19809367
:1056A000EE199093EF1983E50E94EB38882351F0AF
:1056B0000E94B8386093BC157093BD158093BE15D9
:1056C0009093BF1584E50E94EB38882351F00E9427
:1056D000B8386093B8157093B9158093BA15909344
:1056E000BB1588E50E94EB38882351F00E94B8383A
:1056F00060930F14709310148093111490931214EC
:1057000089E50E94EB38882351F00E94B8386093F5
:1057100013147093141480931514909316148AE53F
:105720000E94EB38882351F00E94B8386093171418
:10573000709318148093191490931A1485E40E949E
:10574000EB38882309F46FC40E94B83860931B14A7
:1057500070931C1480931D1490931E1464C4849140
:105760008F010F5F1F4F882321F00E94613DF801D8
:10577000F6CF83E50E94EB38882321F00E94A838F9
:1057800080935C02E0E6F8E084918F010F5F1F4F89
:10579000882321F00E94613DF801F6CF80915C02E0
:1057A000882319F0E8E5F8E002C0ECE5F8E0849120
:1057B0007F012FEFE21AF20A811103C0E0E5F8E061
:1057C00004C00E94613DF701F2CF84918F010F5F09
:1057D0001F4F882321F00E94613DF801F6CF2091F0
:1057E000C3143091C4144091C5145091C6146091F3
:1057F00050027091510280915202909153020F9485
:10580000D62BAB01BC018EE498E00E94AEB420918F
:10581000C7143091C8144091C9145091CA146091B2
:1058200054027091550280915602909157020F9444
:10583000D62BAB01BC018BE498E00E94AEB4209162
:10584000CB143091CC144091CD145091CE14609172
:1058500058027091590280915A0290915B020F9404
:10586000D62BAB01BC0188E498E00E94AEB4E0E422
:10587000F8E084918F010F5F1F4F882321F00E9471
:10588000613DF801F6CF2091C3143091C4144091CA
:10589000C5145091C61460914402709145028091E4
:1058A0004602909147020F94D62BAB01BC018EE3C8
:1058B00098E00E94AEB42091C7143091C814409172
:1058C000C9145091CA1460914802709149028091A4
:1058D0004A0290914B020F94D62BAB01BC018BE393
:1058E00098E00E94AEB42091CB143091CC1440913A
:1058F000CD145091CE1460914C0270914D02809164
:105900004E0290914F020F94D62BAB01BC0188E35D
:1059100098E00E94AEB48AE00E94613D84C38AEDA3
:1059200090E00E94573E81117EC38091A70E88238C
:1059300009F479C3CEC383E50E943439882309F47E
:1059400072C30E94843870932702609326026BC34F
:105950008DED90E00E94573E811165C383E50E9462
:105960003439811103C0E6EFF0E33BC0E090A70EAD
:10597000F12C0E948438F701EE0FFF1FEE5DFD4F02
:10598000718360838091A70E90E08C01000F111F3E
:10599000000F111F9801265E3D4F7901880F991F56
:1059A000FC01EE5DFD4F60817181072E000C880BBC
:1059B000990B0F94B5242AE037ED43E25CE30F9492
:1059C0001425F801E356F14F208131814281538142
:1059D0000F941425D7016D937D938D939C9313970A
:1059E00022C384918F010F5F1F4F882321F00E94F3
:1059F000613DF801F6CF85E40E94613D8091A70EDC
:105A0000805D0E94613DE091A70EF0E0EE0FFF1F68
:105A1000EE5DFD4F6081718180E898E00E94CBB41B
:105A200085E20E94613D8AE00E94613DFCC280E502
:105A30000E94EB38882309F4F6C20E9484386B0177
:105A40007C0183E50E943439882321F00E94843848
:105A50008B0102C00FEF1FEFC8010196039708F0FA
:105A6000E2C2D7FCE0C22C2DE8E8F8E08EEB98E02B
:105A70003491231709F4D0C331968E179F07C1F7CD
:105A8000A2C383E50E943439882319F00E94843828
:105A900002C064E071E079A368A380E50E94343914
:105AA000882339F00E9484386938B3E17B0730F4E9
:105AB00002C068EE73E07A83698304C088E893E1EA
:105AC0009A838983BE01605E7F4FCE0101960E945A
:105AD0008C58A9C285E40E943439811110C080E538
