:100000000C9415190C9446190C9446190C94461925
:100010000C9446190C9446190C9446190C944619E4
:100020000C9446190C9446190C9446190C944619D4
:100030000C9446190C9446190C9446190C944619C4
:100040000C9446190C942B560C9446190C94461992
:100050000C9446190C9446190C9448F50C94C6A4BB
:100060000C9446190C94FC3E0C9446190C944619B9
:100070000C9446190C9446190C9446190C94461984
:100080000C9446190C9446190C9446190C94461974
:100090000C9446190C9446190C9446190C94461964
:1000A0000C9446190C9446190C9446190C94461954
:1000B0000C9446190C9446190C9446190C94461944
:1000C0000C9446190C9446190C9446190C94461934
:1000D0000C9446190C9446190C9446190C94461924
:1000E0000C944619349D379D269D2A9D309D6E9D0A
:1000F0003B9D3F9D459D499D4D9D539D579D5B9DBE
:100100006E9D619D659D699DB19D979D9A9D9D9DEB
:10011000A09DAC9DA39DBD9DA69DA99DFCA201A3F4
:1001200006A310A31AA393A324A32CA334A33EA332
:1001300048A352A361A36BA393A375A37FA389A331
:10014000084AD73B3BCE016E84BCBFFDC12F3D6C3E
:1001500074319ABD56833DDA3D00C77F11BED9E4A4
:10016000BB4C3E916BAAAABE000000803F05A84C84
:10017000CDB2D44EB93836A9020C50B99186880850
:100180003CA6AAAA2ABE000000803F000C9436A418
:100190000D9477180C94BFC90C94B1850C9434AFAE
:1001A0000C946D300C941DEF0C947FA30C944AA416
:1001B0000C94E9B40C94F9AF0C946BA30C9406A3C3
:1001C0000C9481B30C94A69D0C94C3C40C943EF57E
:1001D0000C94A7AD0C945B9D0C94349D0C9443F54A
:1001E0000C9463CC0C947ECB0C9489A30C945A6B26
:1001F0000C94B5C50C94C8850C94699D0C94459DD0
:100200000C94659D0C9451B60C949D9D0C9401A387
:100210000C944D9D0D94D8010C94BEB00C94A09DEF
:100220000C94FEB90C942A9D0C94979D0C9429A4CF
:100230000C94E7F20C941AA30C94266F0C942B8860
:100240000C94379D0C9434A40C9452A30C94D08A33
:100250000C94B9C90C94309D0D94FE160C941CC7D7
:100260000C946FAE0C946E300C948FB50C94AD8ED4
:100270000C94539D0C94E5C70C94C6B30C9488B4AD
:100280000C944EC50C942D880C94619D0C9448A33D
:100290000C9448B20C9439F50C946AC60C94B6D000
:1002A0000C94F0B50C9427B40C94A6690C94499D59
:1002B0000C94C8B80C9402BA0C94FECE0C943CB5C5
:1002C0000C943B9D0C94269D0C94A99D0C946E9DC2
:1002D0000C94CD8A0C94CA8A0C94236C0C94AC9D1B
:1002E0000C944DF30C94BDEE0C94BD9D0C943F9D6D
:1002F0000C949A850C949A9D0C9475A30C94E2F23C
:100300000C94F97B0C943EA30C94B19D0C9405F3D2
:100310000C94ECF20C94BCC90C941A310C94FCA211
:100320000C94FFA30C94A39D0C9411F30C947DCB1F
:100330000C942CA30C9410A30C9439BF0C9409B307
:100340000C94CCBE0C940BF30C940BB80C94579DEE
:100350000C9460CC0C9461A30C9424A30C94D2EF65
:100360000C94A1CB0C940F680C9403C60C942F88AA
:100370000C9466A40C9493A30C9434A30C9483B1B2
:100380000C94DDF24E414E494E495459494E46CDEA
:10039000CCCC3D0AD7233C17B7D13877CC2B32953C
:1003A00095E6241FB14F0A000020410000C842001A
:1003B000401C4620BCBE4CCA1B0E5AAEC59D7400E4
:1003C000407A10F35A00A0724E18090010A5D4E824
:1003D0000000E87648170000E40B54020000CA9AB7
:1003E0003B000000E1F50500008096980000004009
:1003F000420F000000A0860100000010270000004E
:1004000000E803000000006400000000000A000093
:100410000000000100000000002C76D888DC674F47
:100420000823DFC1DFAE59E1B1B796E5E3E453C677
:100430003AE651997696E8E6C28426EB898C9B626F
:10044000ED407C6FFCEFBC9C9F40F2BAA56FA5F419
:1004500090055A2AF75C936B6CF9676DC11BFCE041
:10046000E40D47FEF520E6B500D0ED902E03009494
:100470003577050080841E080000204E0A00000029
:10048000C80C333333330F986E12831141EF8D2133
:1004900014893BE65516CFFEE6DB18D1844B381B9A
:1004A000F77C1D901DA4BBE424203284725E22815F
:1004B00000C9F124ECA1E53D27434F4D4D554E4970
:1004C000434154494F4E0044525952554E004552F3
:1004D000524F525300494E464F004543484F004744
:1004E000322F47332062616420706172616D6574E0
:1004F0006572730A00536F7370656E73696F6E6512
:100500002E2E2E005072656D6920746173746F2EEB
:100510002E004E657373756E204D6F76696D656E36
:10052000746F00456E642066696C65206C69737435
:100530000A00426567696E2066696C65206C6973A4
:10054000740A004D31323500286E6F2066696C6583
:1005500029005344207072696E74696E6720627955
:10056000746520004E6F74205344207072696E745D
:10057000696E670A0043757272656E742066696CF5
:10058000653A20005072696E742074696D653A2076
:1005900000DA04D504CE04C704B9046F66660044CB
:1005A000454255473A0055434349534F2E20004D8D
:1005B0003131332053006F6B0052616666722E201A
:1005C00070696174746F2E2E2E00526973632E2031
:1005D00070696174746F2E2E2E0044432D323020CA
:1005E0004842207234204F66662E002C20002C20BA
:1005F00000544845524D414C5F50524F544543546E
:10060000494F4E004155544F5245504F52545F533D
:10061000445F53544154555300454D455247454E50
:1006200043595F50415253455200434153455F4C3B
:10063000494748545F4252494748544E4553530036
:10064000544F47474C455F4C494748545300534F1C
:100650004654574152455F504F5745520042554905
:100660004C445F50455243454E54004C4556454C12
:10067000494E475F44415441005A5F50524F4245F2
:10068000004155544F4C4556454C005052494E542C
:100690005F4A4F420050524F475245535300415515
:1006A000544F5245504F52545F54454D5000564F91
:1006B0004C554D455452494300454550524F4D000D
:1006C00053455249414C5F584F4E5F584F46460084
:1006D0004649524D574152455F4E414D453A4D6155
:1006E000726C696E20312E312E392028476974686A
:1006F00075622920534F555243455F434F44455F30
:1007000055524C3A68747470733A2F2F6769746845
:1007100075622E636F6D2F4D61726C696E466972E2
:100720006D776172652F4D61726C696E2050524F0A
:10073000544F434F4C5F56455253494F4E3A312E1A
:1007400030204D414348494E455F545950453A4445
:10075000432D32302048422072342045585452559F
:100760004445525F434F554E543A31205555494404
:100770003A63656465326132662D343161322D34FD
:100780003734382D396231322D6335356336326670
:1007900033363766660A002F2F20004D313435205E
:1007A000533C696E6465783E206F7574206F6620D7
:1007B00072616E67652028302D31290A00205400AF
:1007C000205200416363656C65726174696F6E3AB3
:1007D000205000205A00205900580020204D6178F8
:1007E0003A2000205A00205900580020204D696E00
:1007F0003A20004F6E20004F666600536F667420EB
:10080000656E6473746F70733A200020466C6F7766
:100810003A20000001363726FF02FFFF353C3D3805
:10082000FF0FFFFF312E303E1213FFFFFF28FF0C9A
:100830000809FFFFFF1A1C18FFFF2A08440AFF439C
:1008400020643A0020693A0020703A00496E7661CF
:100850006C69642065787472756465720A00432956
:100860000A0061626C656420286D696E2074656D94
:10087000702000436F6C64206578747275646573D2
:100880002061726520004E6F2063617365206C6982
:100890006768740A00454550524F4D204F4B0A007F
:1008A0004163746976652045787472756465723A3F
:1008B0002000496E76616C69642065787472756495
:1008C00065720A002569730025696D20256973002A
:1008D0002569682025696D202569730025696420D4
:1008E0002569682025696D202569730025697920AF
:1008F000256964202569682025696D2025697300B4
:10090000656E7175657565696E6720220020496E98
:1009100076616C6964206578747275646572200014
:100920000000BEC20000BEC2000000000000BE42C7
:100930000000BE420000664300000000000000000E
:100940000000824320200020205261646975733AC0
:1009500000547A0054790054780020205261646970
:1009600075733A00457A004579004578002E486550
:10097000696768743A007879007A7800797A00209B
:100980007A0020790020780063002E2020202000AB
:10099000253033692E7800302E25303369002073DE
:1009A000643A00737464206465763A00737464205A
:1009B0006465763A004E6F20636F6E766572676588
:1009C0006E636500497465726174696F6E203A20C8
:1009D0002530326900536176652077697468204D4F
:1009E00035303020616E642F6F7220636F70792014
:1009F000746F20436F6E66696775726174696F6E9C
:100A00002E6800253033692E7800302E253033696A
:100A10000043616C6962726174696F6E2073643A3D
:100A200000737464206465763A0043616C69627295
:100A30006174696F6E204F4B00456E6420445259BB
:100A40002D52554E00436F72726563742064656C5D
:100A500074612073657474696E6773207769746854
:100A6000204D36363520616E64204D3636360A000C
:100A700020284452592D52554E29003F284D3636D4
:100A80003520422965642072616469757320697339
:100A900020696D706C61757369626C652E0A004324
:100AA0006865636B696E672E2E2E204143004733C5
:100AB00033204175746F2043616C696272617465A3
:100AC0000A003F2856296572626F7365206C65764F
:100AD000656C20697320696D706C61757369626CF7
:100AE000652028302D33292E0A003F2846296F72B1
:100AF000636520697465726174696F6E2069732023
:100B0000696D706C61757369626C652028302D3376
:100B100030292E0A003F284329616C696272617492
:100B2000696F6E20707265636973696F6E20697397
:100B300020696D706C61757369626C6520283E3D3B
:100B400030292E0A003F2850296F696E747320697E
:100B50007320696D706C61757369626C65202830F3
:100B60002D3130292E0A00506F7765722D6C6F730E
:100B7000732066696C6520777269746520666169A7
:100B80006C65642E0A00506F7765722D4C6F73731D
:100B9000205265636F7665727900536176696E677E
:100BA0002E2E2E0A0024F4D43050C38E20C2A24030
:100BB00017828B7011127A910D816CD90AA861E1AC
:100BC00008C7586607615143061E4B5D05C145A71E
:100BD000041A411104093D9803713931034036DB91
:100BE0000265339102D4305402802E1D02632CEE34
:100BF00001752AC501B028A001102781018F256445
:100C0000012B244B01E0223401AC211F018D200D6A
:100C100001801FFC00841EED00971DDF00B81CD270
:100C200000E61BC600201BBC00641AB200B219A863
:100C3000000A19A0006A189900D117910040178B7B
:100C400000B516840031167E00B31579003A15738D
:100C500000C7146F0058146A00EE1366008813630F
:100C60000025135E00C7125B006C1257001512546A
:100C700000C111510070114F0021114B00D61049D5
:100C8000008D1047004610440002104200C00F4083
:100C900000800F3E00420F3C00060F3B00CB0E3899
:100CA00000930E37005C0E3500270E3400F30D3232
:100CB00000C10D3100900D3000600D2E00320D2D61
:100CC00000050D2C00D90C2B00AE0C2900850C2939
:100CD000005C0C2700350C27000E0C2600E80B24C6
:100CE00000C40B2400A00B23007D0B23005A0B2112
:100CF00000390B2100180B2000F80A1F00D90A1E2A
:100D000000BB0A1E009D0A1D00800A1D00630A1C0C
:100D100000470A1B002C0A1B00110A1A00F7091AC7
:100D200000DD091900C4091900AB0919009209175F
:100D3000007B091800630917004C091600360916D4
:100D400000200916000A091500F5081500E008142E
:100D500000CC081400B8081400A40814009008136C
:100D6000007D0812006B0813005808120046081294
:100D700000340811002308110012081100010811A5
:100D800000F0071000E0071000D0071000C00710A7
:100D900000B0070F00A107100091070E0083070F96
:100DA0000074070F0065070E0057070E0049070E75
:100DB000003B070D002E070E0020070D0013070D46
:100DC0000006070D00F9060C00ED060D00E0060C0C
:100DD00000D4060C00C8060C00BC060C00B0060CC3
:100DE00000A4060B0099060C008D060B0082060B72
:100DF0000077060B006C060B0061060A0057060B15
:100E0000004C060A0042060A0038060A002E060AAE
:100E10000024060A001A060A001006090007060A3E
:100E200000FD050900F4050900EB050900E20509CC
:100E300000D9050900D0050900C7050900BE05094C
:100E400000B5050800AD050800A50509009C0508CA
:100E500000940508008C050800840508007C05083E
:100E600000740508006C050700650508005D0507AE
:100E700000560508004E0507004705070040050815
:100E80000038050700310507002A0507002305077C
:100E9000001C050600160507000F050700080506DB
:100EA0000002050700FB040600F5040700EE040637
:100EB00000E8040600E2040700DB040600D504068F
:100EC00000CF040600C9040600C3040600BD0406E2
:100ED00000B7040600B1040500AC040600A6040631
:100EE00000A00405009B040600950405009004067C
:100EF000008A04050085040500800406007A0405C4
:100F00000075040500700405006B04050066040507
:100F100000610405005C0405005704050052040547
:100F2000004D04050048040500430405003E040488
:100F3000003A04050035040500300404002C0405C3
:100F40000027040400230405001E0404001A0404FE
:100F50000016040500110404000D04040009040532
:100F6000000404040000040400FC030400F803046B
:100F700000F4030400F0030400EC030400E803049D
:100F800000E4030400E0030400DC030400D80304CD
:100F900000D4030400D0030400CC030400C80303FE
:100FA00000C503030024F404D9201BC40C5C0E9874
:100FB00004C4095F0265077101F405F900FB04B37D
:100FC0000048048700C10369005803550003034526
:100FD00000BE023A008402310053022A0029022591
:100FE0000004022000E4011C00C8011900AF011731
:100FF00000980114008401130071011000610110B8
:101000000051010E0043010D0036010B002B010BB6
:101010000020010B00150109000C01090003010863
:1010200000FB000800F3000800EB000700E40006E6
:1010300000DE000600D8000600D2000600CC000545
:1010400000C7000500C2000500BD000400B900048F
:1010500000B5000400B1000400AD000400A90004C4
:1010600000A5000300A20003009F0004009B0003F2
:101070000098000300950002009300030090000315
:10108000008D0002008B0003008800020086000231
:101090000084000300810002007F0002007D000246
:1010A000007B000200790002007700010076000258
:1010B000007400020072000100710002006F000263
:1010C000006D0001006C0002006A0001006900026E
:1010D0000067000100660001006500010064000275
:1010E000006200010061000100600001005F000279
:1010F000005D0001005C0001005B0001005A00017E
:10110000005900010058000100570001005600017D
:10111000005500010054000100530000005300017D
:10112000005200010051000100500001004F000179
:10113000004E0000004E0001004D0001004C000177
:10114000004B0000004B0001004A00010049000173
:101150000048000000480001004700010046000070
:101160000046000100450000004500010044000168
:101170000043000000430001004200000042000163
:10118000004100000041000100400001003F00005C
:10119000003F0001003E0000003E0001003D000055
:1011A000003D0001003C0000003C0000003C00014C
:1011B000003B0000003B0001003A0000003A000143
:1011C000003900000039000100380000003800003C
:1011D0000038000100370000003700010036000031
:1011E0000036000000360001003500000035000028
:1011F000003500010034000000340000003400011C
:101200000033000000330000003300010032000012
:101210000032000000320001003100000031000007
:1012200000310001003000000030000000300001FB
:10123000002F0000002F0000002F0000002F0001F1
:10124000002E0000002E0000002E0001002D0000E6
:10125000002D0000002D0000002D0001002C0000DA
:10126000002C0000002C0000002C0001002B0000CE
:10127000002B0000002B0000002B0001002A0000C2
:10128000002A0000002A0000002A000100290000B6
:1012900000290000002900000029000000290001A9
:1012A000002800000028000000280000002800009E
:1012B0000028000100270000002700000027000090
:1012C0000027000000270001002600000026000083
:1012D0000026000000260000002600010025000076
:1012E000002500000025000000250000002500006A
:1012F000002500010024000000240000002400005C
:10130000002400000024000100230000002300004E
:101310000023000000230000002300000023000041
:101320000023000100220000002200000022000033
:101330000022000000220000002200010021000025
:101340000021000000210000002100000021000019
:10135000002100000021000100200000002000000A
:1013600000200000002000000020000000200000FD
:101370000020000000200001001F0000001F0000EE
:10138000001F0000001F0000001F0000001F0000E1
:10139000001F0001001E0000001E0000001E0000D3
:1013A000001E000000043700001E290000511B0031
:1013B000005810000010090000CC04000078020062
:1013C0000041010000486F6D65202573257325736A
:1013D000207072696D6100207072696D610A005A37
:1013E0000059005800486F6D652000534420636128
:1013F0007264206F6B0A006F70656E526F6F74209D
:101400006661696C65640A00766F6C756D652E693E
:101410006E6974206661696C65640A0053442069D2
:101420006E6974206661696C0A0057726974696E2E
:101430006720746F2066696C653A20006F70656E76
:10144000206661696C65642C2046696C653A2000F1
:101450006F70656E206661696C65642C2046696CEE
:10146000653A200046696C652073656C6563746538
:10147000640A002053697A653A200046696C652049
:101480006F70656E65643A20002066696C653A206D
:1014900000646F696E67006672657368004E6F77EF
:1014A0002000454E4420535542524F5554494E4515
:1014B0000A002220706F73002220706172656E74C2
:1014C0003A2200535542524F5554494E452043410C
:1014D0004C4C207461726765743A2200554343494D
:1014E000534F2E2000747279696E6720746F2063E9
:1014F000616C6C207375622D67636F64652066692B
:101500006C6573207769746820746F6F206D616EED
:1015100079206C6576656C732E204D4158206C6582
:1015200076656C2069733A00642E0A002066616952
:101530006C65642E0A00506F7765722D6C6F737343
:101540002066696C652064656C6574650046696C2D
:10155000652064656C657465643A0044656C657407
:10156000696F6E206661696C65642C2046696C65E4
:101570003A20006F70656E206661696C65642C208E
:1015800046696C653A2000416D6178204500416DE7
:101590006178204500416D6178204300416D61789C
:1015A000204300416D6178204200416D6178204206
:1015B00000416D6178204100416D6178204100411A
:1015C0002D53706F7374616D656E746F00412D5390
:1015D000706F7374616D656E746F00412D72657408
:1015E0007261637400412D726574726163740041AD
:1015F0006363656C00416363656C004D6F76696D74
:10160000656E746F0056652D6A65726B0056652DA8
:101610006A65726B0056652D6A65726B0056632DA4
:101620006A65726B0056632D6A65726B0056632D96
:101630006A65726B0056622D6A65726B0056622D88
:101640006A65726B0056622D6A65726B0056612D79
:101650006A65726B0056612D6A65726B0056612D6A
:101660006A65726B004D6F76696D656E746F0045CB
:1016700070617373692F6D6D004570617373692FAD
:101680006D6D004370617373692F6D6D0043706100
:101690007373692F6D6D004270617373692F6D6D87
:1016A000004270617373692F6D6D004170617373D7
:1016B000692F6D6D004170617373692F6D6D004D01
:1016C0006F76696D656E746F0050617373692F6D0D
:1016D0006D004A65726B00416363656C6572617A87
:1016E000696F6E650056656C6F636974C3A00045D1
:1016F00073636900436172696361206D6D004361CA
:1017000072696361206D6D00436172696361206D70
:101710006D0052696D756F7669206D6D0052696D4F
:10172000756F7669206D6D0052696D756F766920F1
:101730006D6D004469616D2E2066696C6F004469AF
:10174000616D2E2066696C6F004F6666004F6E20DB
:10175000004520696E206D6D330045736369004557
:101760004550524F4D206461746173697A652065FC
:1017700072726F722E0A00290A00206279746573F2
:101780003B20637263200053657474696E67732035
:1017900053746F726564202800290A0020627974EE
:1017A00065733B2063726320002073746F726564FD
:1017B0002073657474696E677320726574726965ED
:1017C000766564202800202863616C63756C617401
:1017D000656429210A0020213D2000454550524FD3
:1017E0004D20435243206D69736D61746368202DF1
:1017F000202873746F7265642920002053697A650C
:101800003A2000496E6465783A2000204D61726C80
:10181000696E3D563536290A0028454550524F4DD0
:101820003D00454550524F4D2076657273696F6E8D
:10183000206D69736D6174636820005344204361B7
:1018400072642072696D6F73736100534420436149
:10185000726420696E736572697461005269707296
:10186000697374696E6120696D702E0043617269DD
:101870006361206461206D656D6F72696100496EFE
:10188000697A69616C697A7A6120454550524F4D99
:101890000053616C766120696E206D656D6F7269B1
:1018A000610046696C616D656E746F004D6F76699D
:1018B0006D656E746F0054656D70657261747572DC
:1018C000610045736369005072657269732E41420D
:1018D0005320636F6E66005072657269732E504CB0
:1018E0004120636F6E66005049442D4400504944C6
:1018F0002D44005049442D49005049442D49005081
:1019000049442D50005049442D5000022046616347
:1019100074000220466163740002204D6178000269
:10192000204D61780002204D61780002204D696EE3
:101930000002204D696E0002204D696E004F666600
:10194000004F6E20004175746F74656D70005665B0
:101950006C6F636974612076656E746F6C6100569C
:10196000656C6F636974612076656E746F6C61007D
:1019700056656C6F636974612076656E746F6C6117
:101980000050696174746F0050696174746F005025
:10199000696174746F005567656C6C6F005567659D
:1019A0006C6C6F005567656C6C6F00457363690004
:1019B00053616C766120696E206D656D6F7269612F
:1019C0000050696174746F0050696174746F0050E5
:1019D000696174746F005567656C6C6F005567655D
:1019E0006C6C6F005567656C6C6F0056656C6F634F
:1019F0006974612076656E746F6C610056656C6FFA
:101A0000636974612076656E746F6C610056656CF5
:101A10006F636974612076656E746F6C61005465E4
:101A20006D706572617475726100565472617620D2
:101A30006D696E005654726176206D696E00565461
:101A4000726176206D696E00566D696E00566D6923
:101A50006E00566D696E00566D6178204500566DBA
:101A60006178204500566D6178204500566D61789B
:101A7000204300566D6178204300566D6178204305
:101A800000566D6178204200566D61782042005604
:101A90006D6178204200566D6178204100566D617D
:101AA00078204100566D61782041004D6F76696D58
:101AB000656E746F0020746F6F206C6F6E672065A9
:101AC0007874727573696F6E2070726576656E7466
:101AD00065640A0020636F6C6420657874727573A6
:101AE000696F6E2070726576656E7465640A0000B9
:101AF000002100240027002A002D003000330001BF
:101B0000010000040107010A01000022002500284D
:101B1000002B002E003100340002010000050108F6
:101B2000010B01000020002300260029002C002FBB
:101B3000003200000100000301060109010505054E
:101B400005070508080808020202020A0A08080434
:101B50000404040101010101010101030303030362
:101B6000030303040707070C0C0C0C0C0C0C0C02F1
:101B700002020206060606060606060B0B0B0B0BF8
:101B80000B0B0B01021020200808102040102040F1
:101B90008002010201080402010102040810204031
:101BA000808040201008040201800402018040204F
:101BB0001008040201080402010102040810204078
:101BC00080010204081020408000000A0B02090C6A
:101BD0000D0E0807030401000000000000000000D3
:101BE00000000000000000000000000000000000F5
:101BF00000000000001211100000000000000000B2
:101C00000000000000000000000000000000004D87
:101C10003234004D323320257300556E6B6E6F7772
:101C20006E20636F6D6D616E643A202200496E73A1
:101C30006572742066696C616D656E7420616E6496
:101C400020707265737320627574746F6E20286FD4
:101C500072204D313038290A006F70656E20666140
:101C6000696C65642C2046696C653A20005772697E
:101C700074696E6720746F2066696C653A2000484D
:101C80006F74656E6420746F6F20636F6C640A00FC
:101C90002D2D2D2D2D2D2D2D2D2D2D2D007C446503
:101CA0006C7461636F6D622033447C002D2D2D2D8B
:101CB0002D2D2D2D2D2D2D2D004D61726C696E2039
:101CC00046572076312E312E39004D61726C696E87
:101CD0002046572076312E312E390044432D3230A4
:101CE00020484541544245440044432D3230204869
:101CF00045415442454400002020506C616E6E65A1
:101D00007242756666657242797465733A20002086
:101D100046726565204D656D6F72793A2000436F9C
:101D20006D70696C65643A204A616E2020372032FC
:101D30003032300A00207C20417574686F723A207E
:101D4000286E6F6E652C2064656661756C74206307
:101D50006F6E666967290A00323031382D30382DB0
:101D6000303100204C617374205570646174656477
:101D70003A2000312E312E390A004D61726C696EA5
:101D80000020536F667477617265205265736574C5
:101D90000A00205761746368646F67205265736539
:101DA000740A002042726F776E206F75742052653E
:101DB0007365740A002045787465726E616C2052F8
:101DC000657365740A00506F77657255700A007309
:101DD000746172740A006175746F25692E670065FD
:101DE00072726F722077726974696E6720746F20E7
:101DF00066696C650A00456E6473746F70202563B4
:101E000020256320256320256300205A3A002059AD
:101E10003A0020583A00656E6473746F70732068DE
:101E200069743A2000446F6E6520736176696E674D
:101E30002066696C652E0A004D323900627573792F
:101E40003A2070617573656420666F7220696E70E8
:101E500075740A00627573793A20706175736564F0
:101E600020666F7220757365720A00627573793A25
:101E70002070726F63657373696E670A0055434320
:101E800049534F2E20004B494C4C206361757365BC
:101E90006420627920746F6F206D75636820696EAD
:101EA0006163746976652074696D65202D206375A2
:101EB0007272656E7420636F6D6D616E643A20009E
:101EC00052696176766961726520707265676F002C
:101ED0005354414D50414E5445204645524D415476
:101EE00041005072696E7465722068616C7465643B
:101EF0002E206B696C6C28292063616C6C656421F1
:101F00000A00000048430000484300004843000026
:101F100000005761726E696E673A20486F6D696E96
:101F2000672042756D702044697669736F72203C3A
:101F300020310A000A0A0A0000A0400000A0400068
:101F400000A04000003E4300003E43000066430105
:101F500001014D3331005344207265616420657284
:101F6000726F720A00446F6E65207072696E7469D8
:101F70006E672066696C650A0055434349534F2ECE
:101F8000200041525245535441544F2E200050726C
:101F9000696E7465722073746F7070656420647507
:101FA0006520746F206572726F72732E2046697897
:101FB00020746865206572726F7220616E6420758E
:101FC0007365204D39393920746F207265737461DF
:101FD00072742E202854656D706572617475726517
:101FE0002069732072657365742E205365742069AF
:101FF00074206166746572207265737461727469AD
:102000006E67290A004E6F20436865636B73756DB8
:102010002077697468206C696E65206E756D6265E5
:10202000722C204C617374204C696E653A20004E0E
:102030006F20436865636B73756D207769746820E2
:102040006C696E65206E756D6265722C204C6173D3
:1020500074204C696E653A2000636865636B737524
:102060006D206D69736D617463682C204C617374AD
:10207000204C696E653A20004C696E65204E756D86
:10208000626572206973206E6F74204C61737420D6
:102090004C696E65204E756D6265722B312C204C3B
:1020A000617374204C696E653A20004D3131300007
:1020B00020205567656C6C6F3A2000646920666962
:1020C0006C616D656E746F0064656C2063616D6238
:1020D000696F00417474656E64657265206176761F
:1020E000696F0020205567656C6C6F3A200064654D
:1020F0006C2066696C616D656E746F006C2765732A
:1021000070756C73696F6E6500417474656E64659B
:1021100072650020205567656C6C6F3A2000417431
:1021200074656E646572652E2E2E0052697363614C
:102130006C642E207567656C6C6F00202055676598
:102140006C6C6F3A200072697363616C6420756710
:10215000656C6C6F2E005072656D69207065720041
:1021600020205567656C6C6F3A20007072656D6950
:102170002070657220636F6E740066696C616D65B6
:102180006E746F206500496E7365726973636920B0
:10219000696C0020205567656C6C6F3A200064659F
:1021A0006C2066696C616D656E746F00696C20638C
:1021B00061726963616D656E746F00417474656E00
:1021C000646572650020205567656C6C6F3A20006D
:1021D00064656C2066696C616D656E746F006C6F10
:1021E0002073707572676F00417474656E646572F8
:1021F000650064656C6C61207374616D7061006C66
:1022000061207269707265736100417474656E64F7
:10221000657265005072657269732E504C4120558D
:1022200067656C6C6F005072657269732E504C411B
:102230002050696174746F005072657269736361D4
:102240006C646120504C41004573636900507265B5
:102250007269732E414253205567656C6C6F005054
:1022600072657269732E4142532050696174746FB4
:102270000050726572697363616C646120414253FE
:1022800000457363690050726572697363616C64C1
:1022900061204142530050726572697363616C64DE
:1022A0006120504C41005261666672656464610051
:1022B00043616D6269612066696C616D656E746F02
:1022C0000043616D6269612066696C616D656E7461
:1022D0006F004D36303020423000446973616269CE
:1022E0006C697461204D6F746F7269004D383400F1
:1022F0004175746F20486F6D6500473238004D7529
:102300006F76692041737365004D656E752070723C
:10231000696E636970616C6500426172726120442C
:102320006961676F6E616C65004261727261204421
:102330006961676F6E616C6500547A00547A00546D
:1023400079005479005478005478005261676769C5
:102350006F0052616767696F00457A00457A0045F2
:102360007900457900457800457800416C74657ABC
:102370007A6100416C74657A7A6100457363690023
:102380001000AA03F0013A0190022201300310016B
:10239000D00302017004F7001005ED00B005E50060
:1023A0005006DD00F006D7009007D1003008CC00C1
:1023B000D008C7007009C300100ABE00B00ABB00F5
:1023C000500BB700F00BB300900CB000D00DAA007A
:1023D000100FA5005010A00090119B00D012960085
:1023E000B014900090168B0070188500501A800071
:1023F000301C7B00B01E750030216F00B0236900D7
:102400003026640010285F00902A5A00702C550076
:10241000F02E4F0070314800B0324500F0334100DB
:1024200070363900103737005038330090392D009E
:10243000D03A2700B03C1C00503D1700F03D110081
:10244000903E0900D03FE5FF202F002042403A0097
:1024500020403A00203FECED3F5C7C3F2263617FEF
:102460003F3F52B0DF3F323327E4F1A52C31DF7E0E
:102470003F3F3F3F3F3F3F3FE13F3F3F3F3F3F3FCA
:102480003F3F3F3F3F3F3F3F3F3FEF783F3F3F3F73
:10249000F53F3FE23F3F3F3FE13F3F3F3F3F3F3F51
:1024A0003F3F3F3F3FEE3F3F3F3FEFFD3F3F3F3F1F
:1024B000F53F3F3F001010101010100000141414CE
:1024C000141414000015151515151500001C1F1106
:1024D000111F0000000E191803130E00040E1F0434
:1024E0001C000000000E1517110E0000070F181039
:1024F000040201001F0E1F0E1F0A04000C12120C12
:102500000000000009120912000E1F000000000068
:10251000010204040000001C1C0C0404040201005D
:1025200000000000040810000000000025753A2596
:1025300030327500253032753A25303275002D2D38
:102540002D0053440043616E6E6F7420656E746598
:1025500072207375626469723A2000052E2E004560
:102560007363690000546F74616C652065737472E5
:1025700075736F3A2000256C642E25696D00004C40
:1025800061766F726F207069C3B9206C756E676F6A
:102590003A20000054656D706F20746F74616C6533
:1025A0003A2000436F6D706C65746174693A200065
:1025B000436F6E7461742E207374616D70613A2084
:1025C0000054656D70206D61783A203135300054CB
:1025D000656D70206D696E3A203500544265643A2D
:1025E0003125206265746120333935300054656DC2
:1025F00070206D61783A203237350054656D702057
:102600006D696E3A20350054303A203125206265DC
:102610007461203339353000416C696D656E7461C9
:10262000746F72653A2047656E6572696300507217
:102630006F746F636F6C6C6F3A20312E30004261A3
:1026400075643A203235303030300052414D5053AD
:1026500020312E34004573747275736F72693A209D
:102660003100687474703A2F2F6D61726C696E66F8
:10267000772E6F72670044432D323020484220721B
:102680003400323031382D30382D303100312E3198
:102690002E39004D61726C696E00537461746973F8
:1026A0007469636865005465726D6973746F7269EB
:1026B00000496E666F2E2073636865646100496E21
:1026C000666F2E207374616D70616E746500457362
:1026D0006369004D37303220542564004D36303068
:1026E00020423020542564004D373032203B256491
:1026F000004D373031205425640043616D626961BB
:102700002066696C616D656E746F005072657269E8
:102710007363616C64612041425300507265726959
:102720007363616C646120504C410043616D626968
:10273000612066696C616D656E746F005354414D24
:10274000504120494E2050415553410052494D556A
:102750004F56492046494C414D454E544F00434148
:10276000524943412046494C414D454E544F004C3F
:1027700069626572612064692070697500526970D0
:1027800072656E6469207374616D7061004F505A98
:10279000494F4E493A0044432D323020484220727E
:1027A000342070726F6E746F2E005374616D70619F
:1027B00020696E20636F72736F2E2E2E005374612A
:1027C0006D706120736F7370657361004D313235C8
:1027D000004D3234005374616D706120616E6E750E
:1027E0006C6C617461004739310A473120452D34E2
:1027F0000A4732380A4D353234004F706572617ABB
:10280000696F6E6920636F6D756E69005265676FE1
:102810006C61004176766961205374616D7061006E
:1028200041727265737461207374616D70610052DE
:10283000697072656E6469207374616D7061004DBA
:10284000616E7574656E7A696F6E6500506175733F
:102850006120652073616C76610053636865726DF9
:10286000617461205072696E6369702E00494E5622
:10287000414C49442044415441004D3234205325B9
:102880006C642054256C64004D323320257300475E
:102890003930004731204525690047393100473933
:1028A000322E30205A257320452573004731205899
:1028B000257320592573205A257320463530303032
:1028C00000496E6974206A6F62207265636F766575
:1028D000727920696E666F2E2053697A653A2000FE
:1028E0004D3130362050256920532569004D313057
:1028F0003920532569004D3139302053256900476F
:102900003238205230004D343230205330002053C2
:1029100044206E6F6E2070726573656E7465005230
:10292000697072656E6469207374616D70610053C3
:1029300074616D7061206461205344004D656E7553
:10294000207072696E636970616C650044617469BE
:10295000207374616D70616E746500496D706F7382
:1029600074617A696F6E690043616C696272617A41
:102970002E2044656C7461004D656E75207072691F
:102980006E636970616C650043616D6269612066A8
:10299000696C616D656E746F0043616D6269612081
:1029A00066696C616D656E746F004D363030204223
:1029B0003000466C7573736F00466C7573736F00EF
:1029C000466C7573736F0056656C6F636974612034
:1029D00076656E746F6C610056656C6F63697461C7
:1029E0002076656E746F6C610056656C6F636974F8
:1029F000612076656E746F6C610050696174746FEC
:102A00000050696174746F0050696174746F00558F
:102A100067656C6C6F005567656C6C6F005567651A
:102A20006C6C6F0056656C6F636974612700566546
:102A30006C6F63697461270056656C6F63697461BC
:102A400027004D656E75207072696E636970616CE8
:102A5000650020573A0045205261666672656464DD
:102A6000616D656E746F2E2E00452052697363612F
:102A70006C64616D656E746F2E2E2E00205A3A00C4
:102A800020593A0020436F756E7420583A00204553
:102A90003A00205A3A0020593A00583A003A004386
:102AA00061703A0023646566696E6520444546415D
:102AB000554C545F4B64200023646566696E652045
:102AC00044454641554C545F4B692000236465667C
:102AD000696E652044454641554C545F4B7020005B
:102AE000504944204175746F74756E652066696E37
:102AF0006973686564212050757420746865206C62
:102B0000617374204B702C204B6920616E64204BE4
:102B10006420636F6E7374616E74732066726F6D80
:102B20002062656C6F7720696E746F20436F6E66EC
:102B3000696775726174696F6E2E680A0050494446
:102B4000204175746F74756E65206661696C65648B
:102B5000212074696D656F75740A004531205445F4
:102B60004D502046554F524920434F4E54524F4CE2
:102B70004C4F00546865726D616C2052756E6177C0
:102B800061790045312052697363616C642E20467F
:102B9000616C6C69746F0048656174696E6720666A
:102BA00061696C656400504944204175746F7475A7
:102BB0006E65206661696C6564212054656D706581
:102BC00072617475726520746F6F20686967680A36
:102BD00000204B643A2000204B693A2000204B70C3
:102BE0003A20000A20436C617373696320504944A2
:102BF000200A002054753A2000204B753A2000200E
:102C00006D61783A2000206D696E3A200020643AA8
:102C1000200020626961733A2000504944204175C8
:102C2000746F74756E65206661696C6564212054EB
:102C3000656D706572617475726520746F6F206860
:102C40006967680A00504944204175746F74756E55
:102C5000652073746172740A005049442041757490
:102C60006F74756E65206661696C656421204261D0
:102C700064206578747275646572206E756D626526
:102C8000720A00496E736572742066696C616D65C5
:102C90006E7420616E642070726573732062757447
:102CA000746F6E0A00507265737320627574746F6E
:102CB0006E20746F2068656174206E6F7A7A6C651F
:102CC0000A00496E736572742066696C616D656E89
:102CD0007420616E64207072657373206275747401
:102CE0006F6E20286F72204D313038290A007C3CED
:102CF0003E5E2B3D3F2F5B5D3B2C2A225C005265E4
:102D000073656E643A20006F6B0020746F6F206CE7
:102D10006F6E6720657874727573696F6E2070725C
:102D20006576656E7465640A0020636F6C64206567
:102D30007874727573696F6E2070726576656E74E3
:102D400065640A00496D706F7374617A2E20446562
:102D50006C746100496D702E20616C74657A7A61C3
:102D60002044656C7461004D36363520483236306B
:102D70002E30300A4733332050310A4D3530300081
:102D80004175746F2063616C696272617A696F6EFC
:102D900065004D36363520483236302E30300A4DFB
:102DA000363636205830205930205A300A473333CF
:102DB0002050332054310A4D35303000457363695B
:102DC000004D756F76692058004D756F76692059F2
:102DD000004D756F7669205A004573747275736F74
:102DE0007265004D756F766920646920302E316DF3
:102DF0006D004D756F7669206469202020316D6DFE
:102E0000004D756F7669206469202031306D6D004A
:102E10004D756F76692041737365004573747275E3
:102E2000736F7265004D756F7669205A004D756F2E
:102E300076692059004D756F7669205800496E20DB
:102E40006D6F76696D656E746F2E2E2E00457374EE
:102E50007275736F7265004175746F20486F6D6590
:102E600000473238004D756F7669205A0058592056
:102E70006C6962657269004D756F76692059004D05
:102E8000756F76692058004573636900496E697AE9
:102E900069616C697A7A6120454550524F4D004511
:102EA000736369006265640A002C2073797374652A
:102EB0006D2073746F70706564212048656174655E
:102EC000725F49443A200045312054454D50204618
:102ED000554F524920434F4E54524F4C4C4F005483
:102EE0006865726D616C2052756E6177617900451D
:102EF000312052697363616C642E2046616C6C6989
:102F0000746F0048656174696E67206661696C65FD
:102F100064004531204572723A2054454D50204D91
:102F2000415353494D41004572723A2054454D502A
:102F3000204D415353494D412050494154544F0075
:102F40004D415854454D50207472696767657265EC
:102F500064004531204572723A2054454D50204D51
:102F6000494E494D41004572723A2054454D50201A
:102F70004D494E494D412050494154544F004D490F
:102F80004E54454D502074726967676572656400E0
:102F90004D383420582059205A2045004572726F10
:102FA000722077726974696E6720746F204545508E
:102FB000524F4D210A0043616E6E6F74206F706531
:102FC0006E2073756264697220006563686F3A00F1
:102FD0004572726F723A0048617264636F6465642F
:102FE0002044656661756C742053657474696E67FE
:102FF00073204C6F616465640A001027000010277D
:103000000000102700001027000000002A430000E5
:103010002A4300002A4300008C420000C8420000FE
:10302000C8420000C84200001243486F6D65206628
:10303000616C6C69746F005452494747455245446E
:10304000006F70656E003A20007A5F6D6178007ADB
:103050005F6D696E00795F6D617800785F6D617892
:10306000005265706F7274696E6720656E64737468
:103070006F70207374617475730A004D3630303A86
:1030800054726F70706F2066726564646F00486F71
:1030900074656E6420746F6F20636F6C640A0050F7
:1030A000726F7465637465642050696E0A004669C6
:1030B0006C616D656E7420757365643A200053749D
:1030C0006174733A20002C204C6F6E676573742016
:1030D0006A6F623A2000546F74616C2074696D6588
:1030E0003A200053746174733A20002C20466169C1
:1030F0006C65643A20002C2046696E6973686564CB
:103100003A20005072696E74733A200053746174EF
:10311000733A20002D2D2D2D2D2D2D2D2D2D2D2DC6
:103120002D2D2D2D2D2D2D2D2D2D2D2D2D2D2D0AF2
:10313000007072696E745F6A6F625F656C61707354
:1031400065643A20007364706F733A200073645FA3
:1031500066696C656E616D653A20003E20003E2018
:1031600000636F6D6D616E64735F696E5F7175652D
:1031700075653A2000636D645F71756575655F699B
:103180006E6465785F723A200066616E53706565A3
:1031900064733A20007461726765745F74656D7062
:1031A000657261747572655F6265643A200074616E
:1031B000726765745F74656D706572617475726550
:1031C0003A200066656564726174653A2000637533
:1031D0007272656E745F706F736974696F6E3A2096
:1031E00000494E56414C494420444154410A002074
:1031F00076616C69645F666F6F743A0076616C69C2
:10320000645F686561643A002D2D2D2D204A6F6240
:10321000205265636F7665727920496E666F202D46
:103220002D2D2D0A0000C8002C0111241FBECFEF48
:10323000D1E2DEBFCDBF00E00CBF13E0A0E0B2E002
:10324000EAE8F2E502E00BBF02C007900D92AE354E
:10325000B107D9F729E1AEE5B3E001C01D92AA3C60
:10326000B207E1F719E1C4E1D9E100E006C0219716
:103270000109802FFE010F943825C331D10780E06A
:103280000807A9F70F94B1110D9433290C9400008D
:103290002F923F924F925F926F927F928F929F9266
:1032A000AF92BF92CF92DF92EF92FF920F931F9354
:1032B000CF93DF93CDB7DEB7CF55D1090FB6F894D2
:1032C000DEBF0FBECDBF21E02093D70D8091F31458
:1032D0008D3409F45BC6843511F40C94482E873480
:1032E00011F00C948C2E2090F1143090F2143BE1EC
:1032F0002316310409F4A9C58CF454E025163104D1
:103300003CF482E028163104ECF537FE34C03AC6AE
:1033100094E02916310409F459C534C6AAE52A16E1
:10332000310409F4C2C574F4ECE12E16310409F439
:10333000B8C5F1E22F16310409F024C60E94263FD9
:103340000C948E2E3BE52316310409F4B2C54CE5EE
:103350002416310409F016C67FE5272E72E0372EB9
:10336000E3EBEE2EE5E1FE2EF8EACF2EF8E0DF2EBD
:1033700000E010E0D7C580915B0281110C94932E80
:103380000C948E2E80915B02882311F40C948E2E67
:103390000E94703882E50E946338882309F438C19E
:1033A0000E94E7374B015C0120E030E0A9010F9457
:1033B000211E882309F458C18091A8089091A9087A
:1033C000A091AA08B091AB088CA79DA7AEA7BFA7F4
:1033D0002091AC083091AD084091AE085091AF08F3
:1033E00028AB39AB4AAB5BAB8091D80D9091D90D2E
:1033F000A091DA0DB091DB0D8CAF9DAFAEAFBFAF3A
:103400002091DC0D3091DD0D4091DE0D5091DF0DEE
:1034100028AF39AF4AAF5BAF9C01AD016CA57DA56C
:103420008EA59FA50F94211E81110DC028AD39AD29
:103430004AAD5BAD68A979A98AA99BA90F94211E01
:10344000882309F411C111E032E02316310409F098
:1034500010E020E030E0A901C501B4010F94211E65
:10346000881F8827881F181759F080E090E0A0E88F
:10347000BFEB28968CAF9DAFAEAFBFAF28970AC009
:1034800020E030E040E85FE328962CAF3DAF4EAF40
:103490005FAF28972CA53DA54EA55FA56CAD7DAD72
:1034A0008EAD9FAD0F94482524966CAF7DAF8EAF47
:1034B0009FAF249728A939A94AA95BA968AD79AD1E
:1034C0008AAD9BAD0F9448256B017C0124962CADF1
:1034D0003DAD4EAD5FAD2497CA01B9010F94871E73
:1034E0002B013C01A7019601C701B6010F94871E6D
:1034F0009B01AC01C301B2010F9449250F944B28E5
:103500006CAB7DAB8EAB9FAB20E030E040E05FE387
:103510000F94871E2B013C01A5019401C501B40144
:103520000F94871E4B015C01A3019201C301B201FC
:103530000F94871E9B01AC01C501B4010F9448256F
:103540000F944B2828962CAD3DAD4EAD5FAD28971E
:103550000F94871E4B015C01C701B60190582CA93E
:103560003DA94EA95FA90F944326A50194010F948C
:10357000871E6B017C012CAD3DAD4EAD5FAD6CA5E2
:103580007DA58EA59FA50F94492520E030E040E061
:103590005FE30F94871E9B01AC01C701B6010F9436
:1035A00049252CA53DA54EA55FA50F9448256B0187
:1035B0007C0128AD39AD4AAD5BAD68A979A98AA96E
:1035C0009BA90F94492520E030E040E05FE30F9491
:1035D000871E2B013C012CA93DA94EA95FA9249669
:1035E0006CAD7DAD8EAD9FAD24970F944326A501A4
:1035F00094010F94871E9B01AC01C301B2010F948B
:10360000492528A939A94AA95BA90F94482514C0BE
:1036100089E40E946338882329F00E94E7376B0110
:103620007C0103C0C12CD12C76018AE40E9463384E
:103630008823E9F00E94E7376CAF7DAF8EAF9FAF74
:1036400020E030E0A901C701B6010F94211E8111CD
:103650001BC020E030E0A9016CAD7DAD8EAD9FAD0B
:103660000F94211E811110C0E0EDFFE29BC320E00A
:1036700030E0A901C701B6010F94211E8823A1F3F0
:103680001CAE1DAE1EAE1FAED701C601B0588CA732
:103690009DA7AEA7BFA72CAD3DAD4EAD5FAD5058B9
:1036A00028AB39AB4AAB5BAB9C01AD01BC01CD0192
:1036B0000F94871E4B015C0128A939A94AA95BA96F
:1036C000CA01B9010F94871E9B01AC01C501B40169
:1036D0000F9449250F944B2864966CAF7DAF8EAF45
:1036E0009FAF64978091A8089091A908A091AA081B
:1036F000B091AB0888AF99AFAAAFBBAFA701960155
:10370000BC01CD010F94492528966CAF7DAF8EAFDB
:103710009FAF28972091AC083091AD084091AE083A
:103720005091AF0824962CAF3DAF4EAF5FAF2497BA
:103730002CAD3DAD4EAD5FAD24966CAD7DAD8EAD87
:103740009FAD24970F94492568966CAF7DAF8EAFDF
:103750009FAF68978091D80D9091D90DA091DA0D07
:10376000B091DB0D2C968CAF9DAFAEAFBFAF2C9759
:1037700028962CAD3DAD4EAD5FAD2897BC01CD0177
:103780000F9448256B017C012091DC0D3091DD0DFB
:103790004091DE0D5091DF0D60962CAF3DAF4EAFE6
:1037A0005FAF609768962CAD3DAD4EAD5FAD68974D
:1037B00060966CAD7DAD8EAD9FAD60970F94482542
:1037C0004B015C018091B0089091B108A091B208C2
:1037D000B091B3086C968CAF9DAFAEAFBFAF6C9796
:1037E0009C01AD016091E00D7091E10D8091E20DC1
:1037F0009091E30D0F9448256CAB7DAB8EAB9FABE6
:10380000A70196016CA57DA58EA59FA50F94871E87
:103810002B013C01A501940168A979A98AA99BA95A
:103820000F94871E9B01AC01C301B2010F9449257F
:103830002B013C01A50194016CA57DA58EA59FA53A
:103840000F94871E4B015C01A701960168A979A915
:103850008AA99BA90F94871E9B01AC01C501B401E5
:103860000F944825A30192010F94C8256B017C0198
:1038700020E030E0A9010F94211E87FF0AC02BED44
:103880003FE049EC50E4C701B6010F9449256B01B4
:103890007C0192E02916310451F42BED3FE049EC14
:1038A00050E4C701B6010F9448256B017C0120E06C
:1038B00030E0A901C701B6010F94211E811126C075
:1038C0002C962CAD3DAD4EAD5FAD2C9768AD79AD6E
:1038D0008AAD9BAD0F94211E811118C060962CAD4E
:1038E0003DAD4EAD5FAD609724966CAD7DAD8EADB8
:1038F0009FAD24970F94211E811108C0BBEDCB2EE4
:10390000BFE0DB2EB9ECEB2EB0E4FB2EA701960155
:1039100064966CAD7DAD8EAD9FAD64970F94871EA0
:103920004B015C0120E030E0A9016CA97DA98EA9C2
:103930009FA90F94211E8823D9F0A5019401C501E8
:10394000B4010F94871E4B015C012CA93DA94EA91F
:103950005FA9CA01B9010F94871E9B01AC01C50183
:10396000B4010F9449250F944B284B015C010DC005
:1039700020E030E0A901C501B4010F94FD2787FFC5
:1039800004C0B7FAB094B7F8B0942FE632E143E838
:103990005AE3C501B4010F94211E87FF02C00C94A5
:1039A0008E2EC501B4010F94EB260F94BC262296EF
:1039B0007FAF6EAF2297DB01AB2B31F4E1E0F0E09B
:1039C0002296FFAFEEAF22974090B4085090B50812
:1039D0006090B6087090B70822962EAD3FAD229742
:1039E000B90180E090E00F94261E4B015C019B0121
:1039F000AC01C701B6010F94432668AF79AF8AAF17
:103A00009BAFA50194016CA97DA98EA99FA90F94D4
:103A1000432664966CAF7DAF8EAF9FAF6497A301D2
:103A200092016091E40D7091E50D8091E60D909109
:103A3000E70D0F944825A50194010F944326A09605
:103A40006CAF7DAF8EAF9FAFA09728AD39AD4AADBB
:103A50005BADCA01B9010F94871E20E030E040E061
:103A60005FE30F94871E9B01AC0160E070E080E88B
:103A70009FE30F9448252C966CAF7DAF8EAF9FAF20
:103A80002C976C968CAD9DADAEADBFAD6C97898714
:103A90009A87AB87BC874D865E866F86788A6091F1
:103AA0003A0270913B02072E000C880B990B0F9481
:103AB000281E20910D0230910E0240910F0250916C
:103AC00010020F94871E2AE037ED43E25CE30F9467
:103AD000871E68A779A78AA79BA70E94BAA49B0103
:103AE000AC0128533F4F4F4F5F4F60962CAF3DAF17
:103AF0004EAF5FAF60974CA45DA46EA47FA4222458
:103B00002394312C39E13CAB22964EAD5FAD229728
:103B10004215530509F41EC10E944DF80E94BAA433
:103B2000DC01CB0160962CAD3DAD4EAD5FAD609735
:103B3000821B930BA40BB50BB7FD11C00E94BAA456
:103B40009B01AC0128533F4F4F4F5F4F60962CAF06
:103B50003DAF4EAF5FAF609780E00E9418AA3CA9CE
:103B600031503CAB332309F441C028A939A94AA9F3
:103B70005BA92C966CAD7DAD8EAD9FAD2C970F944F
:103B8000871E6B017C019201A30168AD79AD8AADFE
:103B90009BAD0F94871EA70196010F9449257B01C9
:103BA0008C019201A3012C966CAD7DAD8EAD9FADC5
:103BB0002C970F94871E4B015C0128A939A94AA9AB
:103BC0005BA968AD79AD8AAD9BAD0F94871E9B0153
:103BD000AC01C501B4010F9448252B013C01C7017C
:103BE000D80188AB99ABAAABBBAB4DC0B10180E0AB
:103BF00090E00F94261E28AD39AD4AAD5BAD0F9411
:103C0000871E4B015C010F943E266B017C01C501B0
:103C1000B4010F943D284B015C01A70196016CA5EE
:103C20007DA58EA59FA50F94871E2B013C012CAD71
:103C30003DAD4EAD5FADC501B4010F94871EA3012C
:103C400092010F9449252B013C01A50194016CA51B
:103C50007DA58EA59FA50F94871E4B015C012CAD01
:103C60003DAD4EAD5FADC701B6010F94871E9B0100
:103C7000AC01C501B4010F94482568AB79AB8AABA0
:103C80009BAB49E14CAB9201A30128966CAD7DAD95
:103C90008EAD9FAD28970F94492569837A838B83D6
:103CA0009C8328A939A94AA95BA968966CAD7DAD0A
:103CB0008EAD9FAD68970F9449256D837E838F836A
:103CC000988764962CAD3DAD4EAD5FAD6497698528
:103CD0007A858B859C850F94492569877A878B87A0
:103CE0009C87A0962CAD3DAD4EAD5FADA0976D8588
:103CF0007E858F8598890F9449256D877E878F876C
:103D0000988B80915402882321F0CE0101960E9465
:103D100046A5E090FD0D18A219A21AA21BA2CE0181
:103D200001960E94C6E6CE0180966C018E01085D68
:103D30001F4F9E01235F3F4F40EC58E06CEB78E053
:103D400088EB98E00E94128F882321F09FEF291AB8
:103D5000390ADACEE090FD0D1CA21DA21EA21FA200
:103D600088ED9DE00E94C6E6DE0194966D018E010D
:103D7000085D1F4F24EE3DE040EC58E06CEB78E02E
:103D800088EB98E00E94128F80E1E8EDFDE0A8EA60
:103D9000B8E001900D928A95E1F70C948E2E0E9466
:103DA000793CF80184918F010F5F1F4F8111F7CF8C
:103DB000EFEDF4E084918F010F5F1F4F882311F422
:103DC0000C948E2E0E94793CF801F4CF80E50E947D
:103DD0006338882329F00E94A3376B017C0103C05C
:103DE000C12CD12C760183E50E946338882361F0D1
:103DF0000E94E73720E030E04AE754E40F94871E42
:103E00000F94BC266B017C010E949C9C809125161E
:103E1000811105C060E085EF94E00E945C810E9402
:103E2000BAA4C60ED71EE81EF91E0E94BAA4DC0171
:103E3000CB018C199D09AE09BF09B7FD02C00C94D6
:103E40008E2E80E00E9418AAF0CF0E94D9618111C5
:103E50000C948E2E19821A821B821C8280E090E0C4
:103E6000AEEBB2E48D839E83AF83B88780E090E0B1
:103E7000A6E6B3E489879A87AB87BC8780E50E9472
:103E80006338882319F00E94B33701C060E068A34B
:103E9000BE016F5F7F4FCE0180960F9407070C9491
:103EA0008E2E0E941FA50C948E2E109262030C94ED
:103EB0008E2E209362030C948E2E0E94E7372B01E6
:103EC0003C01133049F0D7012D913D914D915C910A
:103ED0000F9448252B013C01F6012081318142815C
:103EE0005381C301B2010F9448254B015C012DEBB6
:103EF00037E346E855EB0F94FD2787FD1BC02DEBFC
:103F000037E346E855E3C501B4010F94211E1816A6
:103F10008CF01F5FF4E0EF0EF11C24E0C20ED11C08
:103F2000143031F1F10181911F010E94633888231F
:103F300081F3C3CF133051F44092B4085092B508C6
:103F40006092B6087092B70801E0E3CFA501940132
:103F5000D7016D917D918D919C910F944925F70129
:103F60006083718382839383812F0E948835D1CFB0
:103F7000002321F084EB98E00E9476610E94C1D971
:103F80000C948E2E0E94FF9F0C948E2E8091F11423
:103F90009091F2148237910509F47FC70CF0E3C0C9
:103FA0008B34910509F49FC40CF06DC088319105E4
:103FB00009F4C2C2DCF58231910509F49EC6DCF435
:103FC00097FF02C00C94452E823091050CF4E3C19A
:103FD000419711F00C94452E60E082E195E00E943B
:103FE0005C815F988A9880910801817080930601B6
:103FF00012980C948E2E8531910509F482C23CF4FE
:10400000449711F00C94452EE2E3F5E03CC2863172
:10401000910509F47AC2479711F00C94452E0E943D
:10402000D367E091EF14F091F01479C28D319105CE
:1040300011F40C948E2EC4F48A31910509F4E6C271
:104040000CF4D6C28B31910509F4EEC24C9711F0F5
:104050000C94452E40E060E08091EF149091F014B4
:104060000E94C0650C948E2E8F31910509F4DDC33A
:104070000CF472C38032910509F488C38A9709F45D
:10408000FEC30C94452E8836910509F43CC40CF00F
:1040900042C08235910509F427C624F58D34910577
:1040A00009F429C40CF423C48E34910509F427C4FF
:1040B0008135910511F00C94452E0E9480F50E94E7
:1040C000DA9C1092C80D1092C70D68EE73E080E084
:1040D00090E00E94968060E08AED95E00E945C810D
:1040E0000C948E2E8435910509F407C60CF400C695
:1040F0008535910509F436C68C35910511F00C947F
:10410000452E9FE5C92E92E0D92E28E9E22E28E01F
:10411000F22E10E042C68D36910509F4FCC49CF4E1
:104120008A36910509F42CC50CF4B3C48B3691057D
:1041300009F444C58C36910511F00C94452E10926B
:1041400022020C948E2E8F36910509F41AC40CF4B9
:1041500005C48037910509F467C48137910509F4D6
:104160006BC40C94452E823E910511F40C947C2B6B
:104170000CF07AC08B39910509F4A6C4CCF58837C8
:10418000910509F47CC7D4F48537910509F41DC75E
:1041900044F48337910511F00C94452EE0EDF6E0E0
:1041A000B9C68637910509F41DC78737910511F007
:1041B0000C94452E0F94F9070C948E2E8D37910593
:1041C00009F40EC55CF48937910511F00C94452E65
:1041D0001092200E10921F0E0C948E2E8C3891058A
:1041E00009F49DC48139910509F44EC70C94452EFC
:1041F0008C3C910511F40C944129F4F4883C910510
:1042000011F40C94BC2834F48E3B910509F4A3C43A
:104210000C94452E893C910511F40C940C298B3C8F
:10422000910511F00C94452EEFE5EE2EE2E0FE2E06
:104230000BE81DE00C943229833D910509F4A7C0D9
:104240003CF48D3C910511F40C94B6290C94452E48
:104250008C3D910511F40C94002B8D3D910511F4CA
:104260000C940D2B0C94452E863F31E0930711F4EE
:104270000C94DB2C0CF041C0833651E0950709F417
:1042800082C0ECF48D32B1E09B0711F40C94CE2B7C
:104290003CF48C32914011F40C94A52B0C94452ED7
:1042A0008E3221E0920711F40C946E2C8F329140E3
:1042B00011F00C94452E0E943BD50C948E2E8A3919
:1042C00041E0940709F4B4C34CF48039914011F0F3
:1042D0000C94452E0E949C9C0C948E2E843FB1E041
:1042E0009B0711F40C94D82C853F914011F00C944D
:1042F000452E0F94C0090C948E2E8939F2E09F0749
:1043000011F40C94972DDCF48C3032E0930711F407
:104310000C94022D3CF4883F914011F40C94DE2C57
:104320000C94452E8835A2E09A0711F40C940B2DBD
:104330008B35924011F40C940E2D0C94452E8B3835
:10434000E3E09E0711F40C948E2E8CF48A3992408F
:1043500011F00C94452E8FE5E82E82E0F82E08E649
:1043600010E194E7C92E90E1D92E0C94282E803AC2
:1043700033E0930709F44CC2873E934011F40C9448
:10438000302E0C94452EE0EDFFE20C94C52CEAECA7
:10439000FFE20C94212AA090EF14B090F01480E575
:1043A0000E946338882359F00E94A3376B017C0177
:1043B00011E0672B682B692B31F410E004C010E08A
:1043C000C12CD12C760183E50E946338882311F437
:1043D0000C94982E0E94E73720E030E04AE754E43E
:1043E0000F94871E0F94BC266B017C0111110BC02A
:1043F000672B682B692B39F4A114B10421F0D50186
:104400008C91811102C010E001C011E00E949C9CBF
:10441000112329F061E0C5010E94A18105C060E07F
:1044200084E095E00E945C8183E08093D70D81E079
:104430008093D60DC114D104E104F104B1F00E94BF
:10444000BAA4C60ED71EE81EF91E0E94BAA4DC014B
:10445000CB018C199D09AE09BF09B7FF0EC0809131
:10446000D60D81110C949D2E08C08091D60D882305
:1044700021F080E00E9418AAF8CF0E94A5D01092E7
:10448000D60D0C948E2E84918F010F5F1F4F8823C1
:1044900021F00E94793CF801F6CF1092881982EF42
:1044A00096E10E9447DE8BE1E2EFF6E1DE01159630
:1044B00001900D928A95E1F78091F0169091F11696
:1044C0009C838B838FE193E09A83898340E050E063
:1044D000BE016F5F7F4F80E090E00F941D03CE011F
:1044E00001960E94B6A6E3E2F5E084918F010F5F8A
:1044F0001F4F882311F40C948E2E0E94793CF801F2
:10450000F4CF0E94BE630C948E2E10929A161092D5
:104510009B160C948E2E803209F410823196808185
:104520008111F9CF40E061E08091EF149091F01497
:104530000E94C0650C948E2E80E090E0A0EFB1E464
:1045400089839A83AB83BC8318A219A21AA21BA2E7
:104550001CA21DA21EA21FA28091030D882359F048
:1045600020E0AE014F5F5F4FBE01605E7F4FCE0126
:1045700084960E94709E83E50E946338882381F0B0
:104580000E94B337AB01BC01409384195093851945
:10459000609386197093871984EB98E10E94BFFF9E
:1045A00080919B16882319F081E080939A1684E508
:1045B0000E9463388823B1F00E94B3376B017C01FD
:1045C0000E946CFBC092D515D092D615E092D715FB
:1045D000F092D815CD28CE28CF2831F081E08093F5
:1045E000AB1002C00E94D25D0E94A5D00C948E2E0A
:1045F00010929A160E9487FB83E495E09093CA0D6F
:104600008093C90D0E94A93C0C948E2E80919B161C
:10461000882311F40C948E2E83E50E946338811157
:104620000C94A22E0C948E2E83E40E941A388823B8
:1046300009F450C0E5E7F5E084918F010F5F1F4F4B
:10464000882321F00E94793CF801F6CF8091B718B9
:10465000811103C0E8E4F5E012C0BE016F5F7F4F37
:1046600084EB98E10E940EDD8E010F5F1F4FF80171
:1046700081918F01882349F10E94793CF8CF849180
:104680008F010F5F1F4F882301F10E94793CF801D1
:10469000F6CF61E9C62E65E0D62EE12CF12C20E0A4
:1046A0008091010E90E00E2C02C0959587950A949A
:1046B000E2F780FD96C13FEFE31AF30A42E0C40E31
:1046C000D11C55E0E516F10459F78AE00E94793CC7
:1046D0000C948E2E80919B16882339F080919A1627
:1046E000882319F0E2E5F5E003C0E4E6F5E028C030
:1046F00084918F010F5F1F4F882321F00E94793C26
:10470000F801F6CF6091841970918519809186190E
:10471000909187194AE00E94023D8FE20E94793C05
:1047200060918019709181198091821990918319FB
:104730004AE00E94023D8AE00E94793C0C948E2E51
:1047400084918F010F5F1F4F882311F40C948E2EDC
:104750000E94793CF801F4CF80919B16882311F4D4
:104760000C948E2E84EB98E10E948CFF84EB98E1F0
:104770000E94E9DC10929916109298168091EF141D
:104780009091F0140E943F670C948E2E80919A169F
:1047900081110E949C9C80919B16882311F40C949B
:1047A0008E2E80E50E946338882319F00E94D73747
:1047B00003C080E50E941A38182F482F61E08091CD
:1047C000EF149091F0140E94C06583E50E94633855
:1047D000882381F00E94B337AB01BC014093841958
:1047E00050938519609386197093871984EB98E12B
:1047F0000E94BFFF80919B16882319F081E080936F
:104800009A1611110C948E2E0E94D25D0C948E2E4D
:104810008091EF149091F01421E02093991640E0DC
:1048200060E00E94C0650C948E2E0E9438FB68A345
:1048300079A38AA39BA3BE016F5F7F4FCE018096B1
:104840000E94203960E0CE0101960E94A181EAEC2D
:10485000FFE284918F010F5F1F4F882321F00E9498
:10486000793CF801F6CFBE016F5F7F4F84E895E099
:104870000E94B75D8AE00E94793C0C948E2E83E5FD
:104880000E946338882311F40C948E2E0E94C33743
:10489000E82E80E50E946338882339F00E94C337F0
:1048A000182F87FF03C00C948E2E1DE089E40E9410
:1048B0006338882341F00E94D73781110C943E3031
:1048C000E3E1F8E00BC089E40E941A38F6CF319694
:1048D00028E0E034F20711F40C943E308491181370
:1048E000F6CF0C943B300E94D25D0C948E2E0E9429
:1048F00087FB0C948E2E0E94195E0C948E2E0F94C2
:10490000CE090C948E2E88E690E00E946F3D8111B6
:104910000C948E2E8091010E83FF02C00C948E2E7B
:1049200083E50E9463388823A9F00E94E7370F943B
:10493000B526CB010E94E9800E94E73720E030E0F5
:1049400040EA52E40F94211E181624F00E94195ECA
:104950000E94A5D00F942F0E0C948E2E8EE40E94F0
:104960006338882311F40C948E2E0E94B337609321
:1049700021167093221680932316909324160C947C
:104980008E2E83E50E941A38882359F083E50E9411
:104990006338882319F00E94C33701C080E08093F8
:1049A000010EEAECFFE284918F010F5F1F4F81112E
:1049B00003C0EFE9F5E004C00E94793CF801F3CFB1
:1049C00084918F010F5F1F4F882321F00E94793C53
:1049D000F801F6CF8091010E81115BCEEBE9F5E095
:1049E00018C0BB24B394B20E222319F08CE20E94AB
:1049F000793CF60185919491FC0184918F010F5FC0
:104A00001F4F882321F00E94793CF801F6CF2B2D0F
:104A100052CE84918F010F5F1F4F882309F455CE2A
:104A20000E94793CF801F5CF86EA95E00E94D7A66E
:104A30000E9402D50C948E2E83E50E94633881116A
:104A400003C0EAECFFE20DC00E94C3378D3320F4AF
:104A500080932B020C948E2E8CE380932B020C946B
:104A60008E2E84918F010F5F1F4F882321F00E94AB
:104A7000793CF801F6CF40912B0250E060E070E005
:104A80008FEA95E00E94645D8AE00E94793C0C9474
:104A90008E2E89E690E00E946F3D811111C0E6EBF9
:104AA000F5E084918F010F5F1F4F882321F00E9452
:104AB000793CF801F6CF0E943EC48AE00E94793C1E
:104AC0001092D70D0C94533083E50E9463388823ED
:104AD00011F40C948E2E0E94C337182F8D3308F0DA
:104AE0001CE31093BF0F0E94BAA46B017C01212F1D
:104AF00030E0A8EEB3E00F94D624C60ED71EE81E11
:104B0000F91EC092BB0FD092BC0FE092BD0FF09285
:104B1000BE0F0C948E2E0E948BDA0C948E2E8091F8
:104B2000010E83FF02C00C948E2E83E50E94633831
:104B3000882311F40C948E2E0E94E7370F94B5262B
:104B40006738710514F067E870E07093C60D6093E4
:104B5000C50D0C948E2E8091010E83FF02C00C9423
:104B60008E2E83E50E94633888AB81110C94B32E9E
:104B700082E50E94633881110C94B32E0C948E2E22
:104B800080E50E946338811106C083E50E94633886
:104B9000882361F006C00E94C33781110C948E2EC9
:104BA000F4CF0E94B3376F3F710510F06FEF70E0E4
:104BB0007093C80D6093C70D0C948E2E80E50E94F3
:104BC0006338811106C01092C80D1092C70D0C9465
:104BD0008E2E0E94B337672B11F00C948E2EF3CFDC
:104BE0008CE40E941A38882381F00E94E7376B0119
:104BF0007C0120E030E0A9010F94FD2787FF0BC066
:104C0000F7FAF094F7F8F09406C0C12CD12C30E8F4
:104C1000E32E30E4F32EF7FAF094F7F8F094CCA2F8
:104C2000DDA2EEA2FFA219821A821B821C8280E002
:104C300090E0AEEBB2E48D839E83AF83B88780E0D3
:104C400090E0A6E6B3E489879A87AB87BC8788E5BE
:104C50000E946338882379F088E50E9463388823AE
:104C600019F00E94E73703C060E070E0CB01698370
:104C70007A838B839C8389E50E946338882379F04B
:104C800089E50E946338882319F00E94E73703C042
:104C900060E070E0CB016D837E838F8398878AE527
:104CA0000E946338882379F08AE50E94633888235C
:104CB00019F00E94E73703C060E070E0CB0169871C
:104CC0007A878B879C8718A219A21AA21BA220E0C0
:104CD000AE01405E5F4FBE016F5F7F4FCE01849695
:104CE0000F94CC0B0C948E2E109261030C948E2E8C
:104CF00081E0809361030C948E2E83E50E946338DB
:104D00008823A1F00E94E73720E030E04AE754E42E
:104D10000F94871E0F94BC2660932C0270932D0273
:104D200080932E0290932F020C948E2E88E50E9481
:104D30001A3881110C94E22F89E50E941A388111EA
:104D40000C94E22F8AE50E941A3881110C94E22F0C
:104D500085E40E941A3881110C94E22F0E94DA9C9B
:104D60000C948E2E83E50E941A38882311F40C943B
:104D70008E2E0E94E73720E030E04AE754E40F949B
:104D8000871E0F94BC266093B70F7093B80F809363
:104D9000B90F9093BA0F0C948E2EF60181916F018A
:104DA0000E941A38882309F46EC0133009F063C0DA
:104DB0000E94E7374B015C0120E030E040EA51E41B
:104DC0000F94211E87FF4EC0A50194016091A40895
:104DD0007091A5088091A6089091A7080F9443268A
:104DE0002B013C019B01AC016091280D7091290DB4
:104DF00080912A0D90912B0D0F94871E6093280DA2
:104E00007093290D80932A0D90932B0DA30192018D
:104E10006091970D7091980D8091990D90919A0DD8
:104E20000F94871E6093970D7093980D8093990D42
:104E300090939A0D6091B0197091B1198091B21947
:104E40009091B3190F94261EA30192010F94871E0F
:104E50000F94BC266093B0197093B1198093B21966
:104E60009093B3198092A4089092A508A092A608E6
:104E7000B092A70808C00E94E737D7016D937D93D1
:104E80008D939C9313971F5FB4E0EB0EF11C1430CD
:104E900009F083CF0F94BA0E41C70E949C9C83E512
:104EA0000E946338882309F469C80E94B3376230CE
:104EB000710509F063C80E9489E38BE50E94793C83
:104EC000609176157091771580917815909179158C
:104ED00042E00E94CD3D40917A1550917B15609142
:104EE0007C1570917D158EEE95E00E94815D40915C
:104EF0007E1550917F1560918015709181158BEE14
:104F000095E00E94815D8DE50E94793C8AE00E94D7
:104F1000793C04C784918F010F5F1F4F882321F0D4
:104F20000E94793CF801F6CF60E080EC96E00E94A8
:104F30008AD961E089EB96E00E948AD961E08EEA25
:104F400096E00E948AD961E08EE996E00E948AD9B3
:104F500060E085E996E00E948AD961E08BE896E0FE
:104F60000E948AD960E081E896E00E948AD960E0D8
:104F700089E796E00E948AD960E08BE696E00E947D
:104F80008AD960E08DE596E00E948AD960E08EE4DF
:104F900096E00E948AD960E080E496E00E948AD977
:104FA00060E08AE296E00E948AD960E089E196E0BA
:104FB0000E948AD960E084E096E00E948AD960E08D
:104FC00081EF95E00E948AD9A9C68091EF14909153
:104FD000F014FC012081222309F406CB60E00E943A
:104FE000A1819CC60091EF141091F01483E0D12CA4
:104FF00040E08150E9F0D8019C91292F2B7F21348A
:10500000C1F711962C912133A1F7913421F09534F9
:1050100021F441E002C0DD24D39498012E5F3F4F7C
:1050200089012F5F3F4FF80190819032C9F3E1CFA2
:10503000442369F0EAECFFE284917F012FEFE21A4A
:10504000F20A882321F00E94793CF701F5CFDD2098
:1050500069F0E7E9F7E084917F013FEFE31AF30A93
:10506000882321F00E94793CF701F5CFD8018D917A
:105070008D01882309F429CB0E94793CF7CF209336
:10508000200E20931F0E4AC683E50E9463388823B2
:1050900019F00E94B33702C060E070E08B01112765
:1050A00002301105D4F0E0EDFFE284918F010F5F33
:1050B0001F4F811103C0EBE9F7E004C00E94793C67
:1050C000F801F3CF84918F010F5F1F4F882309F4FC
:1050D00025C60E94793CF801F5CF88E40E94633828
:1050E0008823A9F00E94B337603A71053CF065301F
:1050F000B1E07B072CF064E071E002C060EA70E090
:10510000F801EE0FFF1FE558F24F7183608386E4CC
:105110000E9463388823A9F00E94B337F801EE0F8C
:10512000FF1FE158F24F718360836F3F710519F0E3
:1051300014F06FEF70E077FF02C060E070E0718301
:10514000608382E40E946338882309F4E7C50E94E3
:10515000B3376530710534F0683871052CF067E8B5
:1051600070E002C065E070E0000F111FF801E9581F
:10517000F24F71836083D2C588EC90E00E946F3D4E
:105180008111CCC584E40E941A38882309F441C0F7
:105190000E94E7376B017C0111E020E030E0A901BB
:1051A0000F94211E811101C010E01093380D20E0F2
:1051B00030E0A901C701B6010F94211E882349F1EF
:1051C0000E94E737E0917A1024E0E29FF001112479
:1051D000EC5CF24F608371838283938320E030E044
:1051E000A9016091340D7091350D8091360D90912B
:1051F000370D0F94211E81110CC080E090E0A0EECD
:10520000BFE38093340D9093350DA093360DB0938A
:10521000370D0E94AD8E82C5FFE5EF2EF2E0FF2E26
:1052200004E01DE0D7018D917D010E941A3888238A
:1052300049F00E94E7370F94BC26F8016083718320
:10524000828393830C5F1F4FFDE004311F0751F7EA
:105250000F945F0E63C50C5F1F4FFDE00B391F07F6
:1052600009F45CC5D7018D917D010E941A3888230D
:1052700091F30E94E737F8016083718382839383FF
:10528000EACF83E50E9463388823A1F00E94E737C4
:105290006093180D7093190D80931A0D90931B0D48
:1052A0006093140D7093150D8093160D9093170D48
:1052B00010E001C011E080E50E946338882359F0B6
:1052C0000E94E7376093180D7093190D80931A0DA3
:1052D00090931B0D10E082E50E946338882359F0FB
:1052E0000E94E7376093D20D7093D30D8093D40D55
:1052F0009093D50D10E084E50E946338882359F01F
:105300000E94E7376093140D7093150D8093160D6E
:105310009093170D03C5112309F400C54091180D92
:105320005091190D60911A0D70911B0D83EC97E04F
:105330000E94815D4091D20D5091D30D6091D40DAA
:105340007091D50D80EC97E00E94815D4091140D25
:105350005091150D6091160D7091170D8DEB97E022
:105360000E94815D8AE00E94793CD8C481E50E9458
:105370001A38882351F00E94A337609396197093CE
:105380009719809398199093991983E50E941A3878
:10539000882351F00E94E7376093870D7093880D42
:1053A0008093890D90938A0D84E50E941A38882392
:1053B00051F00E94E7376093830D7093840D8093C2
:1053C000850D9093860D88E50E941A38882351F048
:1053D0000E94E73760931C0D70931D0D80931E0D86
:1053E00090931F0D89E50E941A38882351F00E947E
:1053F000E7376093200D7093210D8093220D9093D9
:10540000230D8AE50E941A38882351F00E94E7375D
:105410006093240D7093250D8093260D9093270D96
:1054200085E40E941A38882309F478C40E94E7377B
:105430006093280D7093290D80932A0D90932B0D66
:105440006DC484918F010F5F1F4F882321F00E944C
:10545000793CF801F6CF83E50E941A38882321F0C1
:105460000E94D73780935402EBEFF7E084918F01CD
:105470000F5F1F4F882321F00E94793CF801F6CF7F
:1054800080915402882319F0E3EFF7E002C0E7EFC0
:10549000F7E084918F010F5F1F4F811103C0EBEE86
:1054A000F7E004C00E94793CF801F3CF84918F01AA
:1054B0000F5F1F4F882321F00E94793CF801F6CF3F
:1054C0002091B3153091B4154091B5155091B61592
:1054D000609148027091490280914A0290914B027A
:1054E0000F944925AB01BC0189EE97E00E94815DD4
:1054F0002091B7153091B8154091B9155091BA1552
:1055000060914C0270914D0280914E0290914F0239
:105510000F944925AB01BC0186EE97E00E94815DA6
:105520002091BB153091BC154091BD155091BE1511
:1055300060915002709151028091520290915302F9
:105540000F944925AB01BC0183EE97E00E94815D79
:10555000EBEDF7E084918F010F5F1F4F882321F05F
:105560000E94793CF801F6CF2091B3153091B41523
:105570004091B5155091B61560913C0270913D0275
:1055800080913E0290913F020F944925AB01BC01EE
:1055900089ED97E00E94815D2091B7153091B81593
:1055A0004091B9155091BA15609140027091410235
:1055B00080914202909143020F944925AB01BC01B6
:1055C00086ED97E00E94815D2091BB153091BC155E
:1055D0004091BD155091BE156091440270914502F5
:1055E00080914602909147020F944925AB01BC017E
:1055F00083ED97E00E94815D8AE00E94793C8EC332
:1056000083E50E946338882309F488C30E94B33776
:1056100070933B0260933A0281C38DED90E00E944B
:105620006F3D81117BC383E50E946338811103C004
:10563000EAECFFE23BC000917A1010E00E94B33721
:10564000000F111FF801E85CFD4F718360838091AA
:105650007A1090E08C01000F111F000F111F9801AC
:105660002C5C3D4F7901880F991FFC01E85CFD4FD0
:1056700060817181072E000C880B990B0F94281EF6
:105680002AE037ED43E25CE30F94871EF801E35311
:10569000FB4E20813181428153810F94871ED701B7
:1056A0006D937D938D939C93139738C384918F0151
:1056B0000F5F1F4F882321F00E94793CF801F6CF3D
:1056C00085E40E94793C80917A10805D0E94793C4B
:1056D000E0917A10F0E0EE0FFF1FE85CFD4F608173
:1056E00071818BE098E00E949E5D85E20E94793C8A
:1056F0008AE00E94793C12C380E50E941A38882310
:1057000009F40CC30E94B3376B017C0183E50E944E
:105710006338882321F00E94B3378B0102C00FEF5A
:105720001FEFC8010196039708F0F8C2D7FCF6C234
:105730008C2DE3E1F8E09491891709F49CC431962B
:10574000B8E0E034FB07B9F76DC483E50E94633825
:10575000882319F00E94B33702C064E071E079A396
:1057600068A380E50E946338882339F00E94B3372C
:105770006938E3E17E0730F402C068EE73E07A83B3
:10578000698304C088E893E19A838983BE01605EDF
:105790007F4FCE0101960E943461C0C285E40E9411
:1057A0006338811110C080E50E941A38882391F077
:1057B0000E94E73760936A0D70936B0D80936C0DB8
:1057C00090936D0D07C00E94C337882361F3E0ED0D
:1057D000FFE271C089E40E941A38882381F00E9498
:1057E000E7372CEA35EC47E25EE30F94871E6093BF
:1057F000720D7093730D8093740D9093750D84E406
:105800000E941A38882381F00E94E7372CEA35EC91
:1058100047E25EE30F94432660936E0D70936F0D25
:105820008093700D9093710DEAECFFE284918F01EB
:105830000F5F1F4F882321F00E94793CF801F6CFBB
:1058400040916A0D50916B0D60916C0D70916D0DD2
:1058500088E498E00E94815D2CEA35EC47E25EE343
:105860006091720D7091730D8091740D9091750D12
:105870000F944326AB01BC0184E498E00E94815D53
:105880002CEA35EC47E25EE360916E0D70916F0D8E
:105890008091700D9091710D0F94871EAB01BC012A
:1058A00080E498E00E94815D8AE00E94793C36C2E3
:1058B0000E94793CF80184918F010F5F1F4F811185
:1058C000F7CFECE4F8E084918F010F5F1F4F88233E
:1058D00009F424C20E94793CF801F5CF83E50E94C7
:1058E0001A38182F882371F00E94E7370F94B526D5
:1058F000709324026093230221E0672B09F020E0DB
:105900002093FE0D80E50E941A38882359F02091DB
:10591000230230912402232B11F00E94D737809369
:10592000FE0DFCC11111FAC1EAECFFE284918F0176
:105930000F5F1F4F882321F00E94793CF801F6CFBA
:105940008091FE0D882319F063E373E002C066E3E3
:1059500073E083E798E00E94B75D60912302709145
:10596000240282E698E00E949E5DEEE5F8E08491D4
:105970008F010F5F1F4F882309F4D0C10E94793C2B
:10598000F801F5CF0E94793CF80184918F010F5FF7
:105990001F4F8111F7CFE6E8F8E084918F010F5F88
:1059A0001F4F882309F4BAC10E94793CF801F5CF52
:1059B0000E94BF76B3C10F943608B0C181E08093D6
:1059C0008D190E94C27010928D19882309F4A6C106
:1059D000EAECFFE284918F010F5F1F4F811103C03A
:1059E000E5E9F8E004C00E94793CF801F3CF849126
:1059F0008F010F5F1F4F882309F490C10E94793CEB
:105A0000F801F5CF80919A16882309F487C181E0C7
:105A100080939D1683C10E9415D380C18BE592E0CF
:105A20000E946F3D81117AC185E50E941A38882352
:105A3000D9F100917A1010E00E94E7376B017C01E8
:105A400020E030E0A9010F94FD2787FF04C0F7FA9A
:105A5000F094F7F8F094000F111F000F111FF801D8
:105A6000E05DF24FC082D182E282F38200917A102F
:105A7000F4E00F9F80011124005D124F20E030E818
:105A800049E054E4D8016D917D918D919C910F94E2
:105A9000FD2718164CF480E090E8A9E0B4E4F80182
:105AA00080839183A283B3838CE40E941A38882375
:105AB00009F434C100917A1010E00E94E7376B01BD
:105AC0007C0120E030E0A9010F94FD2787FF04C08E
:105AD000F7FAF094F7F8F094000F111F000F111F60
