:100000000C94A1160C94D2160C94D2160C94D21601
:100010000C94D2160C94D2160C94D2160C94D216C0
:100020000C94D2160C94D2160C94D2160C94D216B0
:100030000C94D2160C94D2160C94D2160C94D216A0
:100040000C94D2160C9452F70C94D2160C94D2162F
:100050000C94D2160C94D2160C943B640D94FB01B4
:100060000C94D2160C949E3C0C94D2160C94D2167E
:100070000C94D2160C94D2160C94D2160C94D21660
:100080000C94D2160C94D2160C94D2160C94D21650
:100090000C94D2160C94D2160C94D2160C94D21640
:1000A0000C94D2160C94D2160C94D2160C94D21630
:1000B0000C94D2160C94D2160C94D2160C94D21620
:1000C0000C94D2160C94D2160C94D2160C94D21610
:1000D0000C94D2160C94D2160C94D2160C94D21600
:1000E0000C94D2164FD252D241D245D24BD289D2A1
:1000F00056D25AD260D264D268D26ED272D276D23E
:1001000089D27CD280D284D2B5D29BD29ED2A1D2C7
:10011000A4D2B0D2A7D2C1D2AAD2ADD258D75DD77D
:1001200062D76CD776D7EFD780D788D790D79AD7B2
:10013000A4D7AED7BDD7C7D7EFD7D1D7DBD7E5D7B1
:10014000084AD73B3BCE016E84BCBFFDC12F3D6C3E
:1001500074319ABD56833DDA3D00C77F11BED9E4A4
:10016000BB4C3E916BAAAABE000000803F05A84C84
:10017000CDB2D44EB93836A9020C50B99186880850
:100180003CA6AAAA2ABE000000803F000D94F00CF5
:100190000D94C90A4E414E494E495459494E46CDD7
:1001A000CCCC3D0AD7233C17B7D13877CC2B32952E
:1001B00095E6241FB14F0A000020410000C842000C
:1001C000401C4620BCBE4CCA1B0E5AAEC59D7400D6
:1001D000407A10F35A00A0724E18090010A5D4E816
:1001E0000000E87648170000E40B54020000CA9AA9
:1001F0003B000000E1F505000080969800000040FB
:10020000420F000000A0860100000010270000003F
:1002100000E803000000006400000000000A000085
:100220000000000100000000002C76D888DC674F39
:100230000823DFC1DFAE59E1B1B796E5E3E453C669
:100240003AE651997696E8E6C28426EB898C9B6261
:10025000ED407C6FFCEFBC9C9F40F2BAA56FA5F40B
:1002600090055A2AF75C936B6CF9676DC11BFCE033
:10027000E40D47FEF520E6B500D0ED902E03009486
:100280003577050080841E080000204E0A0000001B
:10029000C80C333333330F986E12831141EF8D2125
:1002A00014893BE65516CFFEE6DB18D1844B381B8C
:1002B000F77C1D901DA4BBE424203284725E228151
:1002C00000C9F124ECA1E53D27434F4D4D554E4962
:1002D000434154494F4E0044525952554E004552E5
:1002E000524F525300494E464F004543484F004736
:1002F000322F47332062616420706172616D6574D2
:100300006572730A00536F7370656E73696F6E6503
:100310002E2E2E005072656D6920746173746F2EDD
:100320002E004E657373756E204D6F76696D656E28
:10033000746F00456E642066696C65206C69737427
:100340000A00426567696E2066696C65206C697396
:10035000740A004D31323500286E6F2066696C6575
:1003600029005344207072696E74696E6720627947
:10037000746520004E6F74205344207072696E744F
:10038000696E670A0043757272656E742066696CE7
:10039000653A20005072696E742074696D653A2068
:1003A00000EA02E502DE02D702C9026F6666004477
:1003B000454255473A0055434349534F2E20004D7F
:1003C0003131332053006F6B0020573A00452052E3
:1003D00061666672656464616D656E746F2E2E0071
:1003E000452052697363616C64616D656E746F2E34
:1003F0002E2E0044454C5441434F4D422032302074
:100400002D207265762E34204F66662E002C20003B
:100410002C2000544845524D414C5F50524F54459A
:100420004354494F4E004155544F5245504F52543A
:100430005F53445F53544154555300454D45524713
:10044000454E43595F504152534552004341534535
:100450005F4C494748545F4252494748544E4553C0
:100460005300544F47474C455F4C4947485453004D
:10047000534F4654574152455F504F5745520042E3
:1004800055494C445F50455243454E54004C4556E7
:10049000454C494E475F44415441005A5F50524FCA
:1004A0004245004155544F4C4556454C0050524929
:1004B0004E545F4A4F420050524F475245535300EB
:1004C0004155544F5245504F52545F54454D500082
:1004D000564F4C554D455452494300454550524F97
:1004E0004D0053455249414C5F584F4E5F584F465F
:1004F00046004649524D574152455F4E414D453A9F
:100500004D61726C696E20312E312E392028476979
:10051000746875622920534F555243455F434F44D9
:10052000455F55524C3A68747470733A2F2F67695F
:10053000746875622E636F6D2F4D61726C696E46C3
:1005400069726D776172652F4D61726C696E2050B2
:10055000524F544F434F4C5F56455253494F4E3ABA
:10056000312E30204D414348494E455F5459504546
:100570003A44454C5441434F4D42203230202D20C7
:100580007265762E342045585452554445525F4387
:100590004F554E543A3120555549443A6365646588
:1005A000326132662D343161322D343734382D3991
:1005B0006231322D633535633632663336376666DF
:1005C0000A002F2F20004D31343520533C696E64D2
:1005D00065783E206F7574206F662072616E676566
:1005E0002028302D31290A00205400205200416378
:1005F00063656C65726174696F6E3A205000205AB1
:1006000000205900580020204D61783A2000205ADF
:1006100000205900580020204D696E3A20004F6E8E
:1006200020004F666600536F667420656E647374B5
:100630006F70733A200020466C6F773A20000001FB
:10064000363726FF02FFFF353C3D38FF0FFFFF31F5
:100650002E303E1213FFFFFF28FF0C0809FFFFFF9B
:100660001A1C18FFFF2A08440AFF4320643A00209E
:10067000693A0020703A00496E76616C69642065C1
:10068000787472756465720A0043290A0061626CAD
:10069000656420286D696E2074656D702000436F5D
:1006A0006C6420657874727564657320617265206E
:1006B000004E6F2063617365206C696768740A007F
:1006C000454550524F4D204F4B0A004163746976A7
:1006D000652045787472756465723A2000496E76BB
:1006E000616C69642065787472756465720A0025AE
:1006F00069730025696D20256973002569682025C7
:10070000696D2025697300256964202569682025A5
:10071000696D202569730025697920256964202584
:1007200069682025696D2025697300656E7175659E
:100730007565696E6720220020496E76616C696478
:1007400020657874727564657220000000BEC20076
:1007500000BEC2000000000000BE420000BE420019
:1007600080804300000000000000000080804320E3
:10077000200020205261646975733A00547A005455
:10078000790054780020205261646975733A0045FD
:100790007A004579004578002E4865696768743AA3
:1007A000002D2D2D2D2D2D007C4D61726C696E7CE0
:1007B000002D2D2D2D2D2D00687474703A2F2F775C
:1007C00077772E64656C7461636F6D622E636F6DF5
:1007D0000044432D32302846572076312E312E39B1
:1007E000290044432D32302846572076312E312EB1
:1007F00039290000494E56414C4944204441544156
:10080000004D32342053256C642054256C64004D17
:100810003233202573004739322E30205A25732079
:1008200045257300473238205230004731205A3274
:10083000004739322E30205A30002020506C616E33
:100840006E657242756666657242797465733A20A8
:10085000002046726565204D656D6F72793A200003
:10086000436F6D70696C65643A2041707220313657
:1008700020323031390A00207C20417574686F7253
:100880003A20286E6F6E652C2064656661756C7405
:1008900020636F6E666967290A00323031382D3067
:1008A000382D303100204C617374205570646174B0
:1008B00065643A2000312E312E390A004D61726C88
:1008C000696E0020536F667477617265205265739C
:1008D00065740A00205761746368646F672052650D
:1008E0007365740A002042726F776E206F757420F2
:1008F00052657365740A002045787465726E616C88
:100900002052657365740A00506F77657255700ADE
:100910000073746172740A006175746F25692E67C3
:10092000006572726F722077726974696E672074E5
:100930006F2066696C650A0057726974696E67207A
:10094000746F2066696C653A2000456E6473746F3D
:100950007020256320256320256320256300205A0D
:100960003A0020593A0020583A00656E6473746F5B
:100970007073206869743A2000446F6E652073615B
:1009800076696E672066696C652E0A004D32390003
:100990007879007A7800797A00207A00207900202E
:1009A000780063002E2020202000253033692E7827
:1009B00000302E25303369002073643A007374646C
:1009C000206465763A00737464206465763A004E5C
:1009D0006F20636F6E76657267656E63650049743C
:1009E00065726174696F6E203A2025303269005358
:1009F0006176652077697468204D35303020616EEE
:100A0000642F6F7220636F707920746F20436F6E54
:100A100066696775726174696F6E2E680025303380
:100A2000692E7800302E253033690043616C69628D
:100A3000726174696F6E2073643A00737464206429
:100A400065763A0043616C6962726174696F6E2009
:100A50004F4B00456E64204452592D52554E004371
:100A60006F72726563742064656C74612073657461
:100A700074696E67732077697468204D3636352047
:100A8000616E64204D3636360A0020284452592DB6
:100A900052554E29003F284D36363520422965648F
:100AA0002072616469757320697320696D706C616F
:100AB000757369626C652E0A00436865636B696EC5
:100AC000672E2E2E20414300473333204175746F2B
:100AD0002043616C6962726174650A003F2856297F
:100AE0006572626F7365206C6576656C2069732032
:100AF000696D706C61757369626C65202830202D9A
:100B00002033292E0A003F2846296F726365206929
:100B10007465726174696F6E20697320696D706CA1
:100B200061757369626C65202830202D203330296F
:100B30002E0A003F284329616C6962726174696FF3
:100B40006E20707265636973696F6E2069732069C6
:100B50006D706C61757369626C6520283E3D30294B
:100B60002E0A003F2850296F696E74732069732024
:100B7000696D706C61757369626C6520282D312018
:100B80002D203130292E0A00416D61782045004129
:100B90006D6178204500416D6178204300416D61B1
:100BA00078204300416D6178204200416D617820DA
:100BB0004200416D6178204100416D617820410023
:100BC000412D53706F7374616D656E746F00412DAC
:100BD00053706F7374616D656E746F00412D726533
:100BE000747261637400412D726574726163740084
:100BF000416363656C00416363656C004D6F7669AA
:100C00006D656E746F0056652D6A65726B00566572
:100C10002D6A65726B0056652D6A65726B005663AE
:100C20002D6A65726B0056632D6A65726B005663A0
:100C30002D6A65726B0056622D6A65726B00566292
:100C40002D6A65726B0056622D6A65726B00566183
:100C50002D6A65726B0056612D6A65726B00566174
:100C60002D6A65726B004D6F76696D656E746F00ED
:100C70004570617373692F6D6D00457061737369A1
:100C80002F6D6D004370617373692F6D6D0043703C
:100C9000617373692F6D6D004270617373692F6D9D
:100CA0006D004270617373692F6D6D0041706173E7
:100CB00073692F6D6D004170617373692F6D6D00E5
:100CC0004D6F76696D656E746F0050617373692F37
:100CD0006D6D004A65726B00416363656C6572619E
:100CE0007A696F6E650056656C6F636974C3A000A6
:100CF000436F6E74726F6C6C6F00436172696361F5
:100D0000206D6D00436172696361206D6D00436108
:100D100072696361206D6D0052696D756F7669202F
:100D20006D6D0052696D756F7669206D6D00526949
:100D30006D756F7669206D6D004469616D2E20665A
:100D4000696C6F004469616D2E2066696C6F004F9D
:100D50006666004F6E20004520696E206D6D330081
:100D6000436F6E74726F6C6C6F001000AA03F00119
:100D70003A019002220130031001D00302017004F5
:100D8000F7001005ED00B005E5005006DD00F006A7
:100D9000D7009007D1003008CC00D008C7007009F8
:100DA000C300100ABE00B00ABB00500BB700F00B26
:100DB000B300900CB000D00DAA00100FA500501089
:100DC000A00090119B00D0129600B01490009016D5
:100DD0008B0070188500501A8000301C7B00B01EFC
:100DE000750030216F00B0236900302664001028A0
:100DF0005F00902A5A00702C5500F02E4F00703181
:100E00004800B0324500F0334100703639001037E9
:100E100037005038330090392D00D03A2700B03CCD
:100E20001C00503D1700F03D1100903E0900D03FDE
:100E3000E5FF4531204572723A2054454D50204D12
:100E4000415353494D41004D415854454D50207434
:100E50007269676765726564004531204572723A50
:100E60002054454D50204D494E494D41004D494E6D
:100E700054454D5020747269676765726564004D12
:100E8000383420582059205A204500202F00204077
:100E90003A00203FECED3F5C7C3F2263617F3F3FA7
:100EA00052B0DF3F323327E4F1A52C31DF7E3F3FE4
:100EB0003F3F3F3F3F3FE13F3F3F3F3F3F3F3F3FA0
:100EC0003F3F3F3F3F3F3F3FEF783F3F3F3FF53F93
:100ED0003FE23F3F3F3FE13F3F3F3F3F3F3F3F3FDD
:100EE0003F3F3FEE3F3F3F3FEFFD3F3F3F3FF53F3F
:100EF0003F3F0010101010101000001414141414B0
:100F000014000015151515151500001C1F11111FD3
:100F100000000006191803130C00040E1F041C0027
:100F20000000000E1315110E00001C101817050606
:100F30000500040A0A0A0A11110E0C12120C000014
:100F40000000001F1511151F000000000000010225
:100F500004040000001C1C0C040404020100000036
:100F60000000040810000000000025753A2530320A
:100F70007500253032753A25303275002D2D2D0043
:100F80005344002020202020200020202020004842
:100F90006F6D6520257325732573207072696D61EF
:100FA00000207072696D610A005A005900580048AB
:100FB0006F6D65200053442063617264206F6B0A7B
:100FC000006F70656E526F6F74206661696C656446
:100FD0000A00766F6C756D652E696E6974206661A6
:100FE000696C65640A00534420696E697420666107
:100FF000696C0A0057726974696E6720746F2066A5
:10100000696C653A20006F70656E206661696C6579
:10101000642C2046696C653A20006F70656E20660E
:1010200061696C65642C2046696C653A20004669EC
:101030006C652073656C65637465640A0020536990
:101040007A653A200046696C65206F70656E65644C
:101050003A20002066696C653A2000646F696E670B
:10106000006672657368004E6F772000454E44201D
:10107000535542524F5554494E450A002220706F35
:1010800073002220706172656E743A2200535542DB
:10109000524F5554494E452043414C4C2074617287
:1010A0006765743A220055434349534F2E2000741C
:1010B0007279696E6720746F2063616C6C20737540
:1010C000622D67636F64652066696C65732077695C
:1010D000746820746F6F206D616E79206C65766521
:1010E0006C732E204D4158206C6576656C206973B9
:1010F0003A0046696C652064656C657465643A0005
:1011000044656C6574696F6E206661696C65642CFA
:101110002046696C653A20006F70656E20666169D3
:101120006C65642C2046696C653A2000534420436A
:101130006172642072696D6F737361005344204360
:1011400061726420696E736572697461004545500F
:10115000524F4D206461746173697A6520657272C3
:101160006F722E0A00290A002062797465733B2091
:10117000637263200053657474696E6773205374DF
:101180006F726564202800290A00206279746573F3
:101190003B2063726320002073746F726564207358
:1011A000657474696E6773207265747269657665BB
:1011B00064202800202863616C63756C6174656429
:1011C00029210A0020213D2000454550524F4D2045
:1011D000435243206D69736D61746368202D20282C
:1011E00073746F7265642920002053697A653A2010
:1011F00000496E6465783A2000204D61726C696E1A
:101200003D563535290A0028454550524F4D3D0081
:10121000454550524F4D2076657273696F6E206D53
:1012200069736D61746368200052697072697374C8
:10123000696E6120696D702E00436172696361207F
:101240006461206D656D6F72696100496E697A69CC
:10125000616C697A7A6120454550524F4D00536167
:101260006C766120696E206D656D6F7269610046F4
:10127000696C616D656E746F004D6F76696D656E3A
:10128000746F0054656D7065726174757261004DA4
:10129000656E75207072696E636970616C6500506F
:1012A00072657269732E41425320636F6E660050FF
:1012B00072657269732E504C4120636F6E660050E8
:1012C00049442D44005049442D44005049442D497F
:1012D000005049442D49005049442D500050494484
:1012E0002D50000220466163740002204661637441
:1012F0000002204D61780002204D61780002204DEF
:1013000061780002204D696E0002204D696E000276
:10131000204D696E004F6666004F6E200041757467
:101320006F74656D700056656C6F636974612076CB
:10133000656E746F6C610056656C6F6369746120D3
:1013400076656E746F6C61005567656C6C6F0055E7
:1013500067656C6C6F00436F6E74726F6C6C6F00BE
:1013600053616C766120696E206D656D6F72696185
:10137000005567656C6C6F005567656C6C6F005647
:10138000656C6F636974612076656E746F6C610063
:1013900056656C6F636974612076656E746F6C61FD
:1013A0000054656D70657261747572610056547297
:1013B0006176206D696E005654726176206D696E9B
:1013C000005654726176206D696E00566D696E002C
:1013D000566D696E00566D696E00566D61782045D8
:1013E00000566D6178204500566D617820450056A5
:1013F0006D6178204300566D6178204300566D6121
:1014000078204300566D6178204200566D61782047
:101410004200566D6178204200566D61782041008F
:10142000566D6178204100566D61782041004D6F06
:1014300076696D656E746F0020746F6F206C6F6ECF
:101440006720657874727573696F6E207072657647
:10145000656E7465640A0020636F6C64206578743F
:10146000727573696F6E2070726576656E746564EF
:101470000A0024F4D43050C38E20C2A24017828BBD
:101480007011127A910D816CD90AA861E108C758D0
:101490006607615143061E4B5D05C145A7041A410D
:1014A0001104093D9803713931034036DB0265337D
:1014B0009102D4305402802E1D02632CEE01752A55
:1014C000C501B028A001102781018F2564012B24BC
:1014D0004B01E0223401AC211F018D200D01801F42
:1014E000FC00841EED00971DDF00B81CD200E61B37
:1014F000C600201BBC00641AB200B219A8000A1969
:10150000A0006A189900D117910040178B00B516FA
:10151000840031167E00B31579003A157300C714A4
:101520006F0058146A00EE136600881363002513D9
:101530005E00C7125B006C12570015125400C111F7
:10154000510070114F0021114B00D61049008D1031
:1015500047004610440002104200C00F4000800FB8
:101560003E00420F3C00060F3B00CB0E3800930EAE
:1015700037005C0E3500270E3400F30D3200C10D2C
:101580003100900D3000600D2E00320D2D00050D44
:101590002C00D90C2B00AE0C2900850C29005C0C0A
:1015A0002700350C27000E0C2600E80B2400C40B86
:1015B0002400A00B23007D0B23005A0B2100390BC4
:1015C0002100180B2000F80A1F00D90A1E00BB0AD0
:1015D0001E009D0A1D00800A1D00630A1C00470AA8
:1015E0001B002C0A1B00110A1A00F7091A00DD095A
:1015F0001900C4091900AB091900920917007B09E9
:101600001800630917004C09160036091600200956
:1016100016000A091500F5081500E0081400CC08AA
:101620001400B8081400A4081400900813007D08E2
:1016300012006B0813005808120046081200340804
:101640001100230811001208110001081100F00711
:101650001000E0071000D0071000C0071000B0070E
:101660000F00A107100091070E0083070F007407F9
:101670000F0065070E0057070E0049070E003B07D5
:101680000D002E070E0020070D0013070D000607A2
:101690000D00F9060C00ED060D00E0060C00D40666
:1016A0000C00C8060C00BC060C00B0060C00A4061A
:1016B0000B0099060C008D060B0082060B007706C6
:1016C0000B006C060B0061060A0057060B004C0667
:1016D0000A0042060A0038060A002E060A002406FE
:1016E0000A001A060A001006090007060A00FD058E
:1016F0000900F4050900EB050900E2050900D90518
:101700000900D0050900C7050900BE050900B50597
:101710000800AD050800A50509009C050800940512
:1017200008008C050800840508007C050800740585
:1017300008006C050700650508005D0507005605F3
:1017400008004E050700470507004005080038055A
:101750000700310507002A050700230507001C05BF
:101760000600160507000F0507000805060002051C
:101770000700FB040600F5040700EE040600E80479
:101780000600E2040700DB040600D5040600CF04CF
:101790000600C9040600C3040600BD040600B70421
:1017A0000600B1040500AC040600A6040600A0046F
:1017B00005009B04060095040500900406008A04B9
:1017C000050085040500800406007A040500750400
:1017D0000500700405006B04050066040500610443
:1017E00005005C04050057040500520405004D0483
:1017F000050048040500430405003E0404003A04C3
:10180000050035040500300404002C0405002704FD
:101810000400230405001E0404001A040400160436
:101820000500110404000D0404000904050004046B
:10183000040000040400FC030400F8030400F403A3
:101840000400F0030400EC030400E8030400E403D4
:101850000400E0030400DC030400D8030400D40304
:101860000400D0030400CC030400C8030300C50334
:10187000030024F404D9201BC40C5C0E9804C40992
:101880005F0265077101F405F900FB04B300480429
:101890008700C10369005803550003034500BE02D9
:1018A0003A008402310053022A0029022500040272
:1018B0002000E4011C00C8011900AF0117009801C5
:1018C0001400840113007101100061011000510126
:1018D0000E0043010D0036010B002B010B0020010F
:1018E0000B00150109000C01090003010800FB00B1
:1018F0000800F3000800EB000700E4000600DE002B
:101900000600D8000600D2000600CC000500C70083
:101910000500C2000500BD000400B9000400B500C8
:101920000400B1000400AD000400A9000400A500FB
:101930000300A20003009F0004009B000300980026
:1019400003009500020093000300900003008D0047
:1019500002008B0003008800020086000200840061
:101960000300810002007F0002007D0002007B0076
:101970000200790002007700010076000200740086
:10198000020072000100710002006F0002006D0091
:1019900001006C0002006A0001006900020067009B
:1019A00001006600010065000100640002006200A1
:1019B000010061000100600001005F0002005D00A5
:1019C00001005C0001005B0001005A0001005900A9
:1019D00001005800010057000100560001005500A9
:1019E00001005400010053000000530001005200A8
:1019F000010051000100500001004F0001004E00A5
:101A000000004E0001004D0001004C0001004B00A1
:101A100000004B0001004A0001004900010048009D
:101A20000000480001004700010046000000460099
:101A30000100450000004500010044000100430092
:101A4000000043000100420000004200010041008C
:101A5000000041000100400001003F0000003F0085
:101A600001003E0000003E0001003D0000003D007E
:101A700001003C0000003C0000003C0001003B0075
:101A800000003B0001003A0000003A00010039006C
:101A90000000390001003800000038000000380064
:101AA000010037000000370001003600000036005A
:101AB0000000360001003500000035000000350050
:101AC0000100340000003400000034000100330045
:101AD000000033000000330001003200000032003B
:101AE0000000320001003100000031000000310030
:101AF00001003000000030000000300001002F0025
:101B000000002F0000002F0000002F0001002E0019
:101B100000002E0000002E0001002D0000002D000E
:101B200000002D0000002D0001002C0000002C0002
:101B300000002C0000002C0001002B0000002B00F6
:101B400000002B0000002B0001002A0000002A00EA
:101B500000002A0000002A000100290000002900DE
:101B600000002900000029000000290001002800D1
:101B700000002800000028000000280000002800C5
:101B800001002700000027000000270000002700B8
:101B900000002700010026000000260000002600AB
:101BA000000026000000260001002500000025009E
:101BB0000000250000002500000025000000250091
:101BC0000100240000002400000024000000240084
:101BD0000000240001002300000023000000230077
:101BE0000000230000002300000023000000230069
:101BF000010022000000220000002200000022005C
:101C0000000022000000220001002100000021004D
:101C10000000210000002100000021000000210040
:101C20000000210001002000000020000000200032
:101C30000000200000002000000020000000200024
:101C40000000200001001F0000001F0000001F0016
:101C500000001F0000001F0000001F0000001F0008
:101C600001001E0000001E0000001E0000001E00FB
:101C70000000043700001E290000511B000058100E
:101C8000000010090000CC040000780200004101AF
:101C900000006265640A002C2073797374656D20FE
:101CA00073746F7070656421204865617465725F3C
:101CB00049443A200045312054454D502046554F67
:101CC000524920434F4E54524F4C4C4F005468657C
:101CD000726D616C2052756E6177617900453120BB
:101CE00052697363616C642E2046616C6C69746F19
:101CF0000048656174696E67206661696C6564009F
:101D000020205567656C6C6F3A2000646920666915
:101D10006C616D656E746F0064656C2063616D62EB
:101D2000696F00417474656E6465726520617676D2
:101D3000696F0020205567656C6C6F3A2000646500
:101D40006C2066696C616D656E746F006C276573DD
:101D500070756C73696F6E6500417474656E64654F
:101D600072650020205567656C6C6F3A20004174E5
:101D700074656E646572652E2E2E00526973636100
:101D80006C642E207567656C6C6F0020205567654C
:101D90006C6C6F3A200072697363616C64207567C4
:101DA000656C6C6F2E005072656D692070657200F5
:101DB00020205567656C6C6F3A20007072656D6904
:101DC0002070657220636F6E740066696C616D656A
:101DD0006E746F206500496E736572697363692064
:101DE000696C0020205567656C6C6F3A2000646553
:101DF0006C2066696C616D656E746F00696C206340
:101E000061726963616D656E746F00417474656EB3
:101E1000646572650020205567656C6C6F3A200020
:101E200064656C2066696C616D656E746F006C6FC3
:101E30002073707572676F00417474656E646572AB
:101E4000650064656C6C61207374616D7061006C19
:101E500061207269707265736100417474656E64AB
:101E60006572650043616C69627261205A0043616A
:101E70006C6962726120590043616C696272612011
:101E800058004175746F20486F6D6500496D706F23
:101E90007374617A2E2044656C74610043617269C9
:101EA0006361206461206D656D6F726961004361DB
:101EB0006C696272612043656E7465720053616C77
:101EC000766120696E206D656D6F72696100507278
:101ED0006F6265205A2D6F666673657400473333F1
:101EE00020502D3100496D702E20616C74657A7A16
:101EF000612044656C7461004733332050310041E8
:101F000075746F2063616C696272617A696F6E6566
:101F100000473333004D656E75207072696E6369DA
:101F200070616C65004D756F76692058004D756F56
:101F300076692059004D756F7669205A0045737493
:101F40007275736F7265004D756F766920646920D4
:101F5000302E316D6D004D756F76692064692020DB
:101F600020316D6D004D756F7669206469202031D8
:101F7000306D6D004D756F76692041737365004556
:101F800073747275736F7265004D756F7669205A40
:101F9000004D756F76692059004D756F7669205830
:101FA00000496E206D6F76696D656E746F2E2E2EF2
:101FB000004573747275736F7265004175746F209C
:101FC000486F6D6500473238004D756F7669205A4D
:101FD000005859206C6962657269004D756F7669A9
:101FE0002059004D756F76692058005072657061F8
:101FF000726100496E697A69616C697A7A6120451B
:102000004550524F4D00436F6E74726F6C6C6F0091
:1020100050726F7465637465642050696E0A00467F
:10202000696C616D656E7420757365643A20005348
:10203000746174733A20002C204C6F6E6765737462
:10204000206A6F623A2000546F74616C2074696D6D
:10205000653A200053746174733A20002C20466165
:10206000696C65643A20002C2046696E6973686566
:10207000643A20005072696E74733A2000537461A0
:1020800074733A2000205A3A0020593A0020436FD6
:10209000756E7420583A0020453A00205A3A0020C4
:1020A000593A00583A003A004361703A0023646597
:1020B00066696E652044454641554C545F4B64202B
:1020C0000023646566696E652044454641554C545D
:1020D0005F4B69200023646566696E652044454650
:1020E00041554C545F4B7020005049442041757459
:1020F0006F74756E652066696E697368656421200A
:1021000050757420746865206C617374204B702C5A
:10211000204B6920616E64204B6420636F6E737482
:10212000616E74732066726F6D2062656C6F7720CC
:10213000696E746F20436F6E66696775726174694A
:102140006F6E2E680A00504944204175746F747593
:102150006E65206661696C6564212074696D656FC8
:1021600075740A0045312054454D502046554F5254
:102170004920434F4E54524F4C4C4F0054686572A7
:102180006D616C2052756E61776179004531205226
:10219000697363616C642E2046616C6C69746F00B6
:1021A00048656174696E67206661696C656400509A
:1021B0004944204175746F74756E65206661696C61
:1021C0006564212054656D70657261747572652057
:1021D000746F6F20686967680A00204B643A2000BA
:1021E000204B693A2000204B703A20000A20436CB3
:1021F000617373696320504944200A002054753A82
:102200002000204B753A2000206D61783A20002094
:102210006D696E3A200020643A2000206269617383
:102220003A2000504944204175746F74756E6520E2
:102230006661696C6564212042616420657874720E
:1022400075646572206E756D6265720A005049444E
:10225000204175746F74756E652073746172740AB1
:1022600000496E736572742066696C616D656E7489
:1022700020616E6420707265737320627574746F70
:102280006E0A00507265737320627574746F6E20ED
:10229000746F2068656174206E6F7A7A6C650A00CD
:1022A000496E736572742066696C616D656E742029
:1022B000616E6420707265737320627574746F6EE2
:1022C00020286F72204D313038290A0062757379E9
:1022D0003A2070617573656420666F7220696E7054
:1022E00075740A00627573793A207061757365645C
:1022F00020666F7220757365720A00627573793A91
:102300002070726F63657373696E670A005543438B
:1023100049534F2E20004B494C4C20636175736527
:102320006420627920746F6F206D75636820696E18
:102330006163746976652074696D65202D2063750D
:102340007272656E7420636F6D6D616E643A200009
:1023500052696176766961726520707265676F0097
:102360005354414D50414E5445204645524D4154E1
:1023700041005072696E7465722068616C746564A6
:102380002E206B696C6C28292063616C6C6564215C
:102390000A00000048430000484300004843000092
:1023A00000005761726E696E673A20486F6D696E02
:1023B000672042756D702044697669736F72203CA6
:1023C00020310A000A0A0A0000A0400000A04000D4
:1023D00000A04000003E4300003E430080804301D7
:1023E00001014D33310053442072656164206572F0
:1023F000726F720A00446F6E65207072696E746944
:102400006E672066696C650A0055434349534F2E39
:10241000200041525245535441544F2E20005072D7
:10242000696E7465722073746F7070656420647572
:102430006520746F206572726F72732E2046697802
:1024400020746865206572726F7220616E642075F9
:102450007365204D39393920746F2072657374614A
:1024600072742E202854656D706572617475726582
:102470002069732072657365742E2053657420691A
:102480007420616674657220726573746172746918
:102490006E67290A004E6F20436865636B73756D24
:1024A0002077697468206C696E65206E756D626551
:1024B000722C204C617374204C696E653A20004E7A
:1024C0006F20436865636B73756D2077697468204E
:1024D0006C696E65206E756D6265722C204C61733F
:1024E00074204C696E653A2000636865636B737590
:1024F0006D206D69736D617463682C204C61737419
:10250000204C696E653A20004C696E65204E756DF1
:10251000626572206973206E6F74204C6173742041
:102520004C696E65204E756D6265722B312C204CA6
:10253000617374204C696E653A20004D3131300072
:1025400043616E6E6F7420656E7465722073756280
:102550006469723A2000052E2E004D656E7520705C
:1025600072696E636970616C650000546F74616CB0
:1025700065206573747275736F3A2000256C642E44
:1025800025696D00004C61766F726F207069C3B968
:10259000206C756E676F3A20000054656D706F2077
:1025A000746F74616C653A2000436F6D706C657474
:1025B0006174693A2000436F6E7461742E207374E5
:1025C000616D70613A200054656D70206D61783ADC
:1025D000203237350054656D70206D696E3A2035B4
:1025E0000054303A2031252062657461203339353A
:1025F0003000416C696D656E7461746F72653A206C
:1026000047656E657269630050726F746F636F6CBB
:102610006C6F3A20312E3000426175643A203235B9
:10262000303030300052414D505320312E3400456F
:1026300073747275736F72693A20310068747470C4
:102640003A2F2F6D61726C696E66772E6F7267001C
:1026500044454C5441434F4D42203230202D20728E
:1026600065762E3400323031382D30382D3031003F
:10267000312E312E39004D61726C696E00537461D8
:102680007469737469636865005465726D69737405
:102690006F726900496E666F2E20736368656461AE
:1026A00000496E666F2E207374616D70616E746583
:1026B000004D656E75207072696E636970616C653E
:1026C000004D37303220542564004D3630302042E2
:1026D0003020542564004D373032203B2564004DB6
:1026E000373031205425640043616D626961206692
:1026F000696C616D656E746F0050726572697363A9
:10270000616C646120414253005072657269736369
:10271000616C646120504C410043616D62696120CD
:1027200066696C616D656E746F005354414D504124
:1027300020494E2050415553410052494D554F5666
:10274000492046494C414D454E544F004341524962
:1027500043412046494C414D454E544F004C69621F
:1027600065726120646920706975005269707265D4
:102770006E6469207374616D7061004F505A494FE7
:102780004E493A007C3C3E5E2B3D3F2F5B5D3B2C2F
:102790002A225C0000002100240027002A002D00CE
:1027A0003000330001010000040107010A010000AC
:1027B0002200250028002B002E00310034000201E9
:1027C0000000050108010B01000020002300260085
:1027D00029002C002F003200000100000301060137
:1027E0000901050505050705080808080202020297
:1027F0000A0A08080404040401010101010101019D
:102800000303030303030303040707070C0C0C0C67
:102810000C0C0C0C02020202060606060606060650
:102820000B0B0B0B0B0B0B0B0102102020080810DD
:102830002040102040800201020108040201010230
:102840000408102040808040201008040201800409
:102850000201804020100804020108040201010264
:10286000040810204080010204081020408000006D
:102870000A0B02090C0D0E080703040100000000FA
:102880000000000000000000000000000000000048
:102890000000000000000000000012111000000005
:1028A0000000000000000000000000000000000028
:1028B000000000004D3234004D32332025730055A6
:1028C0006E6B6E6F776E20636F6D6D616E643A2014
:1028D0002200496E736572742066696C616D656E65
:1028E0007420616E642070726573732062757474F5
:1028F0006F6E20286F72204D313038290A00486FE2
:1029000074656E6420746F6F20636F6C640A00508E
:10291000726572697363616C646120414253005057
:10292000726572697363616C646120504C4100434D
:10293000616C696272617A2E2044656C7461005228
:1029400061666672656464610043616D62696120FD
:1029500066696C616D656E746F0043616D6269617B
:102960002066696C616D656E746F004D3630302085
:102970004230004469736162696C697461204D6F13
:10298000746F7269004D3834004175746F20486F60
:102990006D6500473238004D756F7669204173735D
:1029A00065004D656E75207072696E636970616C4B
:1029B0006500486F6D6520617373692058595A002E
:1029C00047323800426172726120446961676F6EFC
:1029D000616C6500426172726120446961676F6E6B
:1029E000616C6500547A00547A005479005479007F
:1029F00054780054780052616767696F00526167CC
:102A000067696F00457A00457A004579004579008D
:102A1000457800457800416C74657A7A6100416CB4
:102A200074657A7A610043616C696272617A2E2002
:102A300044656C746100526573656E643A20006F82
:102A40006B0020746F6F206C6F6E672065787472F6
:102A50007573696F6E2070726576656E7465640A51
:102A60000020636F6C6420657874727573696F6E93
:102A70002070726576656E7465640A0043616E6EDF
:102A80006F74206F70656E207375626469722000C8
:102A90006563686F3A004572726F723A0044454C44
:102AA0005441434F4D42203230202D207265762E06
:102AB000342070726F6E746F2E005072696E74697C
:102AC0006E672E2E2E005374616D706120736F73CC
:102AD00070657361004D31303620502569205325D3
:102AE00069004D31303920532569004D3432302092
:102AF00053300A4732382052300041727265737485
:102B000061207374616D70610052697072656E64EA
:102B100069207374616D706100506F7765722D4C20
:102B20006F7373205265636F76657279004D313231
:102B300035004D3234005374616D706120616E6EEA
:102B4000756C6C617461005344206E6F6E207072FE
:102B50006573656E7465005374616D7061206461A6
:102B60002053440041727265737461207374616D07
:102B700070610052697072656E6469207374616D72
:102B8000706100526967756172646F207374616D62
:102B900070616E746500506175736100436F6E748F
:102BA000726F6C6C6F00507265706172610052657B
:102BB000676F6C61004775617264610043616D62AB
:102BC00069612066696C616D656E746F0043616D4B
:102BD0006269612066696C616D656E746F004D3667
:102BE000303020423000466C7573736F00466C7550
:102BF00073736F0056656C6F636974612076656EE0
:102C0000746F6C610056656C6F63697461207665E2
:102C10006E746F6C61005567656C6C6F005567650D
:102C20006C6C6F0056656C6F636974C3A000566569
:102C30006C6F636974C3A0004D656E752070726916
:102C40006E636970616C65006F70656E20666169A6
:102C50006C65642C2046696C653A20004572726F81
:102C6000722077726974696E6720746F20454550D1
:102C7000524F4D210A0048617264636F646564209D
:102C800044656661756C742053657474696E67730E
:102C9000204C6F616465640A001027000010270053
:102CA0000010270000102700000000164300001647
:102CB0004300001643000048420000C8420000C81C
:102CC000420000C84200001243486F6D65206661F3
:102CD0006C6C69746F005452494747455245440033
:102CE0006F70656E003A20007A5F6D6178007A5FE0
:102CF0006D696E00795F6D617800785F6D61780055
:102D00005265706F7274696E6720656E6473746F5C
:102D100070207374617475730A004D3630303A5404
:102D2000726F70706F2066726564646F00486F74B4
:102D3000656E6420746F6F20636F6C640A00C60058
:102D4000C80011241FBECFEFD1E2DEBFCDBF00E02F
:102D50000CBF13E0A0E0B2E0ECE7FAE302E00BBF47
:102D600002C007900D92A635B107D9F729E1A6E573
:102D7000B3E001C01D92AB3AB207E1F716E1C0EA39
:102D8000D6E100E006C021970109802FFE010F94D3
:102D90009C1CCF39D10780E00807A9F70F944502A2
:102DA0000D942D1D0C9400002F923F924F925F9234
:102DB0006F927F928F929F92AF92BF92CF92DF924B
:102DC000EF92FF920F931F93CF93DF93CDB7DEB7B0
:102DD000CF55D1090FB6F894DEBF0FBECDBF91E03D
:102DE0009093E30F80915C108D3409F455C68435BF
:102DF00011F40C94202D873411F00C94642D209044
:102E00005A1030905B102BE12216310409F4A3C54F
:102E10008CF444E0241631043CF452E025163104CD
:102E2000ECF537FE34C034C684E02816310409F4CA
:102E300053C52EC6AAE52A16310409F4BCC574F49C
:102E4000ECE12E16310409F4B2C5F1E22F1631047B
:102E500009F01EC60E94C83C0C94662D2BE5221674
:102E6000310409F4ACC53CE52316310409F010C661
:102E700099E5292E92E0392E25E0E22E2FE0F22E60
:102E80003AEBC32E39E0D32E00E010E0D1C580919B
:102E9000250281110C946B2D0C94662D80912502D6
:102EA000882311F40C94662D0E94283682E50E9436
:102EB0001C36882309F438C10E94A0354B015C01FF
:102EC00020E030E0A9010F948812882309F458C14A
:102ED0008091BA099091BB09A091BC09B091BD093C
:102EE0008CA79DA7AEA7BFA72091BE093091BF09AF
:102EF0004091C0095091C10928AB39AB4AAB5BABDB
:102F00008091E40F9091E50FA091E60FB091E70F4B
:102F10008CAF9DAFAEAFBFAF2091E80F3091E90FFE
:102F20004091EA0F5091EB0F28AF39AF4AAF5BAF3A
:102F30009C01AD016CA57DA58EA59FA50F9488125F
:102F400081110DC028AD39AD4AAD5BAD68A979A935
:102F50008AA99BA90F948812882309F411C111E052
:102F600032E02316310409F010E020E030E0A9013E
:102F7000C501B4010F948812881F8827881F18176D
:102F800059F080E090E0A0E8BFEB28968CAF9DAFB1
:102F9000AEAFBFAF28970AC020E030E040E85FE363
:102FA00028962CAF3DAF4EAF5FAF28972CA53DA51F
:102FB0004EA55FA56CAD7DAD8EAD9FAD0F94301964
:102FC00024966CAF7DAF8EAF9FAF249728A939A907
:102FD0004AA95BA968AD79AD8AAD9BAD0F94301954
:102FE0006B017C0124962CAD3DAD4EAD5FAD2497B9
:102FF000CA01B9010F94ED122B013C01A701960102
:10300000C701B6010F94ED129B01AC01C301B201DF
:103010000F9431190F94EC1B6CAB7DAB8EAB9FAB57
:1030200020E030E040E05FE30F94ED122B013C0123
:10303000A5019401C501B4010F94ED124B015C018F
:10304000A3019201C301B2010F94ED129B01AC01E7
:10305000C501B4010F9430190F94EC1B28962CADC8
:103060003DAD4EAD5FAD28970F94ED124B015C0165
:10307000C701B60190582CA93DA94EA95FA90F948C
:103080000D1AA50194010F94ED126B017C012CAD7A
:103090003DAD4EAD5FAD6CA57DA58EA59FA50F94F2
:1030A000311920E030E040E05FE30F94ED129B0126
:1030B000AC01C701B6010F9431192CA53DA54EA551
:1030C0005FA50F9430196B017C0128AD39AD4AAD75
:1030D0005BAD68A979A98AA99BA90F94311920E051
:1030E00030E040E05FE30F94ED122B013C012CA98E
:1030F0003DA94EA95FA924966CAD7DAD8EAD9FAD67
:1031000024970F940D1AA50194010F94ED129B01C1
:10311000AC01C301B2010F94311928A939A94AA9F8
:103120005BA90F94301914C089E40E941C368823CF
:1031300029F00E94A0356B017C0103C0C12CD12C69
:1031400076018AE40E941C368823E9F00E94A035AB
:103150006CAF7DAF8EAF9FAF20E030E0A901C7011B
:10316000B6010F94881281111BC020E030E0A90144
:103170006CAD7DAD8EAD9FAD0F948812811110C0E6
:10318000E6E9FAE295C320E030E0A901C701B60103
:103190000F9488128823A1F31CAE1DAE1EAE1FAE85
:1031A000D701C601B0588CA79DA7AEA7BFA72CAD6D
:1031B0003DAD4EAD5FAD505828AB39AB4AAB5BABC4
:1031C0009C01AD01BC01CD010F94ED124B015C01DE
:1031D00028A939A94AA95BA9CA01B9010F94ED121E
:1031E0009B01AC01C501B4010F9431190F94EC1B84
:1031F00064966CAF7DAF8EAF9FAF64978091BA0934
:103200009091BB09A091BC09B091BD0988AF99AF5D
:10321000AAAFBBAFA7019601BC01CD010F94311934
:1032200028966CAF7DAF8EAF9FAF28972091BE09D7
:103230003091BF094091C0095091C10924962CAF2B
:103240003DAF4EAF5FAF24976CAD7DAD8EAD9FAD02
:103250000F94311968966CAF7DAF8EAF9FAF6897B2
:103260008091E40F9091E50FA091E60FB091E70FE8
:103270002C968CAF9DAFAEAFBFAF2C9728962CADE0
:103280003DAD4EAD5FAD2897BC01CD010F94301917
:103290006B017C012091E80F3091E90F4091EA0F1A
:1032A0005091EB0F60962CAF3DAF4EAF5FAF609784
:1032B00068962CAD3DAD4EAD5FAD689760966CAD38
:1032C0007DAD8EAD9FAD60970F9430194B015C01C1
:1032D0008091C2099091C309A091C409B091C50918
:1032E0006C968CAF9DAFAEAFBFAF6C979C01AD013C
:1032F0006091EC0F7091ED0F8091EE0F9091EF0FB8
:103300000F9430196CAB7DAB8EAB9FABA7019601D0
:103310006CA57DA58EA59FA50F94ED122B013C01F8
:10332000A501940168A979A98AA99BA90F94ED1216
:103330009B01AC01C301B2010F9431192B013C0177
:10334000A50194016CA57DA58EA59FA50F94ED12F6
:103350004B015C01A701960168A979A98AA99BA9DB
:103360000F94ED129B01AC01C501B4010F9430190B
:10337000A30192010F94A4196B017C0120E030E0BD
:10338000A9010F94881287FF0AC02BED3FE049EC9A
:1033900050E4C701B6010F9431196B017C0192E032
:1033A0002916310451F42BED3FE049EC50E4C701FC
:1033B000B6010F9430196B017C0120E030E0A901C7
:1033C000C701B6010F948812811126C02C962CAD2E
:1033D0003DAD4EAD5FAD2C9768AD79AD8AAD9BAD7F
:1033E0000F948812811118C060962CAD3DAD4EAD82
:1033F0005FAD609724966CAD7DAD8EAD9FAD24978B
:103400000F948812811108C05BEDC52E5FE0D52EA8
:1034100059ECE52E50E4F52EA701960164966CADAB
:103420007DAD8EAD9FAD64970F94ED124B015C01A5
:1034300020E030E0A9016CA97DA98EA99FA90F9475
:1034400088128823D9F0A5019401C501B4010F9415
:10345000ED124B015C012CA93DA94EA95FA9CA013F
:10346000B9010F94ED129B01AC01C501B4010F9499
:1034700031190F94EC1B4B015C010DC020E030E0D2
:10348000A901C501B4010F94A61B87FF04C0B7FAB8
:10349000B094B7F8B0942FE632E143E85AE3C5019F
:1034A000B4010F94881287FF02C00C94662DC501E9
:1034B000B4010F94A61A0F947A1A22967FAF6EAFBA
:1034C0002297DB01AB2B31F4E1E0F0E02296FFAF75
:1034D000EEAF22974090C6095090C7096090C80986
:1034E0007090C90922962EAD3FAD2297B90180E0B8
:1034F00090E00F948C124B015C019B01AC01C70161
:10350000B6010F940D1A68AF79AF8AAF9BAFA501D2
:1035100094016CA97DA98EA99FA90F940D1A649698
:103520006CAF7DAF8EAF9FAF6497A30192016091A6
:10353000F00F7091F10F8091F20F9091F30F0F94B3
:103540003019A50194010F940D1AA0966CAF7DAFB0
:103550008EAF9FAFA09728AD39AD4AAD5BADCA0124
:10356000B9010F94ED1220E030E040E05FE30F94EA
:10357000ED129B01AC0160E070E080E89FE30F94E6
:1035800030192C966CAF7DAF8EAF9FAF2C976C9699
:103590008CAD9DADAEADBFAD6C9789879A87AB877B
:1035A000BC874D865E866F86788A609157027091DF
:1035B0005802072E000C880B990B0F948E12209145
:1035C00004023091050240910602509107020F94C7
:1035D000ED122AE037ED43E25CE30F94ED1268A7A9
:1035E00079A78AA79BA70F94EF019B01AC012853F1
:1035F0003F4F4F4F5F4F60962CAF3DAF4EAF5FAF29
:1036000060974CA45DA46EA47FA422242394312C43
:1036100039E13CAB22964EAD5FAD22974215530582
:1036200009F41EC10E94CF980F94EF01DC01CB0179
:1036300060962CAD3DAD4EAD5FAD6097821B930B98
:10364000A40BB50BB7FD11C00F94EF019B01AC01AA
:1036500028533F4F4F4F5F4F60962CAF3DAF4EAF5B
:103660005FAF609780E00E94CBC03CA931503CAB7B
:10367000332309F441C028A939A94AA95BA92C968A
:103680006CAD7DAD8EAD9FAD2C970F94ED126B019F
:103690007C019201A30168AD79AD8AAD9BAD0F9419
:1036A000ED12A70196010F9431196B017C01920173
:1036B000A3012C966CAD7DAD8EAD9FAD2C970F9474
:1036C000ED124B015C0128A939A94AA95BA968AD93
:1036D00079AD8AAD9BAD0F94ED129B01AC01C50194
:1036E000B4010F9430192B013C01C601D70188ABFE
:1036F00099ABAAABBBAB4DC0B10180E090E00F9499
:103700008C1228AD39AD4AAD5BAD0F94ED124B0173
:103710005C010F940A1A6B017C01C501B4010F947E
:10372000E21B4B015C01A70196016CA57DA58EA54E
:103730009FA50F94ED122B013C01A50194016CADE6
:103740007DAD8EAD9FAD0F94ED12A30192010F944C
:1037500031192B013C01A50194016CA57DA58EA515
:103760009FA50F94ED124B015C01A70196016CAD72
:103770007DAD8EAD9FAD0F94ED129B01AC01C501E7
:10378000B4010F94301968AB79AB8AAB9BAB49E1BC
:103790004CAB9201A30128966CAD7DAD8EAD9FAD73
:1037A00028970F94311969837A838B839C8328A986
:1037B00039A94AA95BA968966CAD7DAD8EAD9FAD68
:1037C00068970F9431196D837E838F8398876496F1
:1037D0002CAD3DAD4EAD5FAD649769857A858B8527
:1037E0009C850F94311969877A878B879C87A0966F
:1037F0002CAD3DAD4EAD5FADA0976D857E858F85BF
:1038000098890F9431196D877E878F87988B809167
:103810003E02882321F0CE0101960E941EBCE0905A
:10382000091018A219A21AA21BA2CE0101960E9489
:1038300093E1CE0180966C018E01085D1F4F9E01C1
:10384000235F3F4F42ED59E06EEC79E08AEC99E05E
:103850000E94118A882321F09FEF291A390ADACEB3
:10386000E09009101CA21DA21EA21FA284EE9FE0E0
:103870000E9493E1DE0194966D018E01085D1F4F59
:1038800020EF3FE042ED59E06EEC79E08AEC99E000
:103890000E94118A80E1E4EEFFE0AAEBB9E001901A
:1038A0000D928A95E1F70C94662D0E943C3AF8013E
:1038B00084918F010F5F1F4F8111F7CFEFEEF2E080
:1038C00084918F010F5F1F4F882311F40C94662D94
:1038D0000E943C3AF801F4CF80E50E941C36882310
:1038E00029F00E9460356B017C0103C0C12CD12CF2
:1038F000760183E50E941C36882361F00E94A03582
:1039000020E030E04AE754E40F94ED120F947A1A65
:103910006B017C010E94959780912211811105C055
:1039200060E085E093E00E9424720F94EF01C60EE0
:10393000D71EE81EF91E0F94EF01DC01CB018C1994
:103940009D09AE09BF09B7FD02C00C94662D80E049
:103950000E94CBC0F0CF0E94E66681110C94662DC8
:1039600080E090E0AAEAB2EC89839A83AB83BC83BF
:103970001D821E821F82188680E090E0A0EAB0E4DB
:1039800089879A87AB87BC8780E50E941C3688238D
:1039900019F00E94703501C060E068A3BE016F5F3E
:1039A0007F4FCE0180960E94DDFC0C94662D0E9414
:1039B000E1BB0C94662D10925A030C94662D9093E3
:1039C0005A030C94662D0E94A0352B013C01133044
:1039D00049F0D7012D913D914D915C910F94301993
:1039E0002B013C01F6012081318142815381C301C9
:1039F000B2010F9430194B015C012DEB37E346E81F
:103A000055EB0F94A61B87FD1BC02DEB37E346E853
:103A100055E3C501B4010F94881218168CF01F5F8E
:103A2000F4E0EF0EF11C24E0C20ED11C143031F191
:103A3000F10181911F010E941C36882381F3C3CFBD
:103A4000133051F44092C6095092C7096092C809D8
:103A50007092C90901E0E3CFA5019401D7016D91EE
:103A60007D918D919C910F943119F7016083718341
:103A700082839383812F0E944433D1CF002321F08E
:103A800086EC99E00E9483660E94F8B90C94662D3A
:103A90000E94C9D40C94662D80915A1090915B10AD
:103AA0008137910509F40EC50CF0C9C08B3491051E
:103AB00009F463C40CF06DC08831910509F487C224
:103AC000DCF58231910509F4FEC7DCF497FF02C0F2
:103AD0000C941D2D823091050CF4A8C1419711F072
:103AE0000C941D2D60E082E293E00E9424725F98A6
:103AF0008A988091080181708093060112980C9435
:103B0000662D8531910509F447C23CF4449711F0C4
:103B10000C941D2DE2E4F3E001C28631910509F415
:103B20003FC2479711F00C941D2D0E94A96CE091A3
:103B30005810F09159103EC28D31910511F40C943A
:103B4000662DC4F48A31910509F4E8C20CF4D8C298
:103B50008B31910509F4F0C24C9711F00C941D2D96
:103B600040E060E080915810909159100E949D6A49
:103B70000C94662D8F31910509F4A1C30CF474C324
:103B80008032910509F47DC28A9709F4C2C30C946E
:103B90001D2D8C35910509F4E2C724F58135910579
:103BA00009F473C77CF48D34910509F4EEC30CF469
:103BB000E8C38E34910511F00C941D2D0E94C2BAF9
:103BC0000C94662D8335910509F478C70CF472C7FF
:103BD0008435910509F477C78535910509F4A6C7A1
:103BE0000C941D2D8C36910509F464C4ACF489360F
:103BF000910509F494C434F48836910509F4C9C3D5
:103C00000C941D2D8A36910509F48BC68B369105CF
:103C100009F4A5C60C941D2D8E36910509F4E4C354
:103C20000CF4BFC48F36910509F4F1C380379105B8
:103C300011F00C941D2D86EB93E00E94AFBD823EE7
:103C4000910511F40C94592A0CF069C08139910541
:103C500011F40C943A273CF58637910511F40C9435
:103C6000DF2674F48337910509F4DDC014F40C9455
:103C700038268537910511F40C94D2260C941D2D0D
:103C80008837910511F40C942F2714F40C942C27E9
:103C90008937910511F40C9435278D37910509F476
:103CA00070C60C941D2D8C3C910511F40C941E28AB
:103CB000F4F4883C910511F40C94992734F48B3971
:103CC000910509F447C40C941D2D893C910511F40C
:103CD0000C94E9278B3C910511F00C941D2D79E58E
:103CE000E72E72E0F72E03E61EE00C940F28833DCA
:103CF000910509F494C03CF48D3C910511F40C94A9
:103D000093280C941D2D8C3D910511F40C94DD2904
:103D10008D3D910511F40C94EA290C941D2D853FDD
:103D200031E0930711F40C94BB2BACF58F3251E0CA
:103D3000950711F40C949F2B84F48D32B1E09B070E
:103D400011F40C94AB2A14F00C944B2B8C32914050
:103D500011F40C94822A0C941D2D803921E09207D5
:103D600011F40C94B82B4CF48336914011F00C9460
:103D70001D2DE6E9FAE20C94A52B8A3951E095074E
:103D800009F49CC3843F914011F00C941D2D0E94B6
:103D90007B7C0C94662D8939B2E09B0711F40C945E
:103DA0006E2CECF4883FF1E09F0711F40C94BE2BCD
:103DB0004CF4863F914011F00C941D2D0E9408FE9A
:103DC0000C94662D883542E0940711F40C94E22B94
:103DD0008B35924011F40C94E52B0C941D2D8B38EF
:103DE000A3E09A0711F40C94662D6CF48A39924082
:103DF00011F00C941D2D89E5E82E82E0F82E0AE2E0
:103E000010E10C94002D803AF3E09F0709F44AC2B8
:103E1000873E934011F40C94082D0C941D2DE0E97D
:103E2000FAE20C94FE28E2EFF4E061C7A09058108B
:103E3000B090591080E50E941C36882359F00E94EA
:103E400060356B017C0111E0672B682B692B31F425
:103E500010E004C010E0C12CD12C760183E50E9453
:103E60001C36882311F40C94702D0E94A03520E09C
:103E700030E04AE754E40F94ED120F947A1A6B0184
:103E80007C0111110BC0672B682B692B39F4A1142D
:103E9000B10421F0D5018C91811102C010E001C064
:103EA00011E00E949597112329F061E0C5010E945D
:103EB000687205C060E084E193E00E94247283E0B0
:103EC0008093E30F81E08093E20FC114D104E104F9
:103ED000F104B1F00F94EF01C60ED71EE81EF91ED3
:103EE0000F94EF01DC01CB018C199D09AE09BF09CC
:103EF000B7FF0EC08091E20F81110C94752D08C0A0
:103F00008091E20F882321F080E00E94CBC0F8CF9F
:103F10000E94D4EF1092E20F0C94662D84918F01D1
:103F20000F5F1F4F882321F00E943C3AF801F6CF23
:103F3000109285148FEE91E10E9411CD8BE1EFEE8E
:103F4000F1E1DE01159601900D928A95E1F78091DD
:103F5000ED119091EE119C838B8383E093E09A8323
:103F6000898340E050E0BE016F5F7F4F80E090E0CA
:103F70000E9416EBCE0101960E948EBDE3E3F3E0B2
:103F800084918F010F5F1F4F882311F40C94662DCD
:103F90000E943C3AF801F4CF0E949E680C94662D72
:103FA00010929811109299110C94662D803209F498
:103FB0001082319680818111F9CF40E061E08091DB
:103FC0005810909159100E949D6A0C94662D80E0C3
:103FD00090E0A0EFB1E489839A83AB83BC8318A2FD
:103FE00019A21AA21BA21CA21DA21EA21FA280918E
:103FF000130E882359F020E0AE014F5F5F4FBE01E2
:10400000605E7F4FCE0184960E9442D383E50E947A
:104010001C36882381F00E947035AB01BC014093AF
:10402000811450938214609383147093841481EBF1
:1040300093E10E94CACA80919911882319F081E006
:104040008093981184E50E941C36882309F454C09B
:104050000E9470356B017C010E94B09BC0928F0E54
:10406000D092900EE092910EF092920ECD28CE2832
:10407000CF2811F40C94662D81E080938C140C945D
:10408000662D8091981181110E94959780919911C8
:10409000882311F40C94662D80E50E941C36882339
:1040A00009F4FCC00E949135182F482F61E08091DF
:1040B0005810909159100E949D6A83E50E941C3609
:1040C000882381F00E947035AB01BC0140938114BC
:1040D00050938214609383147093841481EB93E162
:1040E0000E94CACA80919911882319F081E08093B7
:1040F000981111110C94662D0E949BF80C94662D5A
:10410000109298110E94CB9B83E593E09093D60F79
:104110008093D50F0E94683A0C94662D8091991176
:10412000882311F40C94662D83E50E941C368111BE
:104130000C947A2D0C94662D83E40E94D335882349
:1041400009F450C0E5E8F3E084918F010F5F1F4F41
:10415000882321F00E943C3AF801F6CF8091B413F5
:10416000811103C0E8E5F3E012C0BE016F5F7F4F2D
:1041700081EB93E10E94D9CB8E010F5F1F4FF801B5
:1041800081918F01882349F10E943C3AF8CF8491B4
:104190008F010F5F1F4F882301F10E943C3AF80105
:1041A000F6CF81EAC82E83E0D82EE12CF12C20E056
:1041B00080910D1090E00E2C02C0959587950A9481
:1041C000E2F780FD54C13FEFE31AF30A42E0C40E68
:1041D000D11C55E0E516F10459F78AE00E943C3AFB
:1041E0000C94662D80919911882339F08091981153
:1041F000882319F0E2E6F3E003C0E4E7F3E028C027
:1042000084918F010F5F1F4F882321F00E943C3A59
:10421000F801F6CF6091811470918214809183141B
:10422000909184144AE00E94C03A8FE20E943C3A86
:1042300060917D1470917E1480917F149091801410
:104240004AE00E94C03A8AE00E943C3A0C94662DF3
:1042500084918F010F5F1F4F882311F40C94662DFA
:104260000E943C3AF801F4CF80919911882311F40F
:104270000C94662D81EB93E10E9491F581EB93E123
:104280000E94B4CB10929711109296118091581001
:10429000909159100E94186C0C94662D80E50E9434
:1042A000D33502CF809158109091591021E020937E
:1042B000971140E060E00E949D6A0C94662D0E9478
:1042C0007C9B68A379A38AA39BA3BE016F5F7F4FEA
:1042D000CE0180960E94D33660E0CE0101960E9406
:1042E0006872E0E9FAE284918F010F5F1F4F882323
:1042F00021F00E943C3AF801F6CFBE016F5F7F4F7C
:1043000084E993E00E9480F88AE00E943C3A0C9491
:10431000662D83E50E941C36882311F40C94662DCB
:104320000E948035E82E80E50E941C36882339F0F3
:104330000E948035182F87FF03C00C94662D1DE066
:1043400089E40E941C36882341F00E949135811136
:104350000C94FC2DEEE3F6E00BC089E40E94D3350B
:10436000F6CF319626E0EB36F20711F40C94FC2DD3
:1043700084911813F6CF0C94D02D0E949BF80C94C6
:10438000662D0E94CB9B0C94662D0E94E2F80C9443
:10439000662D88E690E00E942B3B81110C94662DDF
:1043A00080910D1083FF02C00C94662D83E50E945E
:1043B0001C368823A9F00E94A0350F94751ACB01F2
:1043C0000E94BB710E94A03520E030E040EA52E438
:1043D0000F948812181624F00E94E2F80E94D4EF7D
:1043E0000F94EF0D0C94662D8EE40E941C368823EA
:1043F00011F40C94662D0E94703560931E11709319
:104400001F1180932011909321110C94662D83E548
:104410000E94D335882359F083E50E941C368823F7
:1044200019F00E94803501C080E080930D10E0E912
:10443000FAE284918F010F5F1F4F811103C0EFEAF1
:10444000F3E004C00E943C3AF801F3CF84918F015D
:104450000F5F1F4F882321F00E943C3AF801F6CFEE
:1044600080910D1081119DCEEBEAF3E018C0BB24C2
:10447000B394B20E222319F08CE20E943C3AF6016A
:1044800085919491FC0184918F010F5F1F4F8823C8
:1044900021F00E943C3AF801F6CF2B2D94CE849166
:1044A0008F010F5F1F4F882309F497CE0E943C3A7B
:1044B000F801F5CF10924E020C94662D0E945AB569
:1044C0000C94662D83E50E941C36811103C0E0E93F
:1044D000FAE20DC00E9480358D3320F480934502AE
:1044E0000C94662D8CE3809345020C94662D849188
:1044F0008F010F5F1F4F882321F00E943C3AF80183
:10450000F6CF4091450250E060E070E08FEB93E021
:104510000E942DF88AE00E943C3A0C94662D89E6B0
:1045200090E00E942B3B811111C0E6ECF3E08491F6
:104530008F010F5F1F4F882321F00E943C3AF80142
:10454000F6CF0E94FD628AE00E943C3A1092E30F8F
:104550000C94112E83E50E941C36882311F40C94D0
:10456000662D0E948035182F8D3308F01CE31093C0
:10457000230F0F94EF016B017C01212F30E0A8EE97
:10458000B3E00F942119C60ED71EE81EF91EC09283
:104590001F0FD092200FE092210FF092220F0C9467
:1045A000662D8DE690E00E942B3B81110C94662DC8
:1045B00080910D1083FF02C00C94662D83E50E944C
:1045C0001C368CAF811106C082E50E941C36182F64
:1045D0008823C9F10E94A0350F94751ACB010E945F
:1045E000BB710E94A03520E030E040EA52E40F9415
:1045F0008812181614F40C948A2D0E94E2F80E9476
:10460000D4EF60910B1070910C10072E000C880BEA
:10461000990B0F948E126B017C0180900510909085
:104620000610A0900710B0900810A50194010F94F7
:10463000A61B181614F40C94962D8CAD882311F437
:104640000C948E2D11E00F94EF0D112311F40C94A6
:10465000662D81E080934E021CAA1DAA1EAA1FAAE5
:1046600068961CAE1DAE1EAE1FAE689718AE29969A
:104670001FAE29979CE32D969FAF2D97ACE16996CD
:10468000AFAF6997B6E46196BFAF6197E12CF12CAB
:1046900000E81FEB212C312C210160910B1070914F
:1046A0000C10072E000C880B990B0F948E126CA720
:1046B00078AB782E692E9701A8010F948812882371
:1046C00009F120910510309106104091071050918A
:1046D0000810ECAD6CA578A9872D962DE11107C0C7
:1046E0000F948812881F8827881F88AF11C00F94E5
:1046F000881287FF0CC080914E02882311F40C941D
:10470000662D0BC1ECA6F8AA702E612E01C018AE62
:104710000F94EF016B017C01DC01CB0168962CAD9D
:104720003DAD4EAD5FAD6897821B930BA40BB50BEF
:10473000B7FD3DC0D701C60188519C4FAF4FBF4F59
:1047400068968CAF9DAFAEAFBFAF68970E94FD6219
:10475000E9ECF3E084914F019FEF891A990A8823CD
:1047600021F00E943C3AF401F5CF211431044104B8
:104770005104B9F0D201C101805F984DAF4FBF4FD6
:10478000BC01CD016C197D098E099F0928EE33E02B
:1047900040E050E00F94F518CA01B9010E94673B50
:1047A00003C08FE30E943C3A8AE00E943C3A80E0DA
:1047B0000E94CBC00F94EF016093170F7093180FF6
:1047C0008093190F90931A0F009105101091061005
:1047D000A09107102196AFAF2197B09108102596B0
:1047E000BFAF25979801AD016CA578A9872D962DAF
:1047F0000F9430194B015C0120E030E0A9010F94C7
:10480000A61B87FF04C0B7FAB094B7F8B094211480
:1048100031044104510459F420E030E040E85FE302
:10482000C501B4010F94881287FF0DC00AC020E0B3
:1048300030E040E450E4C501B4010F94A61B181603
:1048400014F416012701E8ADEE2309F44AC02CA99F
:104850003DA94EA95FA9211531054105510541F03A
:10486000D701C601821B930BA40BB50BB7FD39C052
:10487000980121964FAD219725965FAD25972996F2
:104880006FAD29972D967FAD2D9769968FAD69975E
:1048900061969FAD61970F94301920E030E040ECB5
:1048A0005FE30F94881287FD26CFD701C601805A97
:1048B0009541AF4FBF4F8CAB9DABAEABBFAB299615
:1048C0000FAF29972D961FAF2D9721969FAD21975A
:1048D00069969FAF69972596AFAD25976196AFAF63
:1048E000619780914E02882309F405CF2114310489
:1048F0004104510429F4ECA4F8A8072D162DCDCEBF
:10490000B0E1CB1AB7E2DB0AE108F108C218D3081C
:10491000E408F508F7FEEFCEEECF0E94D4EF0C943A
:10492000662D80E50E941C36811106C083E50E9439
:104930001C36882361F006C00E94803581110C94DA
:10494000662DF4CF0E9470356F3F710510F06FEF48
:1049500070E070932509609324090C94662D80E51E
:104960000E941C36811106C010922509109224095C
:104970000C94662D0E947035672B11F00C94662DF7
:10498000F3CF8CE40E94D335882381F00E94A035B8
:104990006B017C0120E030E0A9010F94A61B87FF8A
:1049A0000BC0F7FAF094F7F8F09406C0C12CD12CA4
:1049B00000E8E02E00E4F02EF7FAF094F7F8F09417
:1049C000CCA2DDA2EEA2FFA280E090E0AAEAB2ECC7
:1049D00089839A83AB83BC831D821E821F821886C3
:1049E00080E090E0A0EAB0E489879A87AB87BC8733
:1049F00088E50E941C36882379F088E50E941C36E1
:104A0000882319F00E94A03503C060E070E0CB015C
:104A100069837A838B839C8389E50E941C36882373
:104A200079F089E50E941C36882319F00E94A03590
:104A300003C060E070E0CB016D837E838F83988735
:104A40008AE50E941C36882379F08AE50E941C368C
:104A5000882319F00E94A03503C060E070E0CB010C
:104A600069877A878B879C8718A219A21AA21BA232
:104A700020E0AE01405E5F4FBE016F5F7F4FCE0111
:104A800084960F9483000C94662D0E9472640E9499
:104A9000D397109225091092240968EE73E080E004
:104AA00090E00E94977160E083EF93E00E9424728F
:104AB0000C94662D109259030C94662D81E080931E
:104AC00059030C94662D83E50E941C36882399F0C7
:104AD0000E94A03520E030E04AE754E40F94ED1244
:104AE0000F947A1A609346027093470280934802AB
:104AF00090934902EBC788E50E94D33581110C944D
:104B0000A02D89E50E94D33581110C94A02D8AE552
:104B10000E94D33581110C94A02D85E40E94D335D9
:104B200081110C94A02D0E94D397D0C783E50E94D9
:104B3000D335882309F4CAC70E94A03520E030E0AD
:104B40004AE754E40F94ED120F947A1A60931B0F06
:104B500070931C0F80931D0F90931E0FB7C7B9E57C
:104B6000CB2EB2E0DB2E1AEAE12E19E0F12E10E096
:104B7000F60181916F010E94D335882309F46EC03C
:104B8000133009F063C00E94A0354B015C0120E0A6
:104B900030E040EA51E40F94881287FF4EC0A5012F
:104BA00094016091B6097091B7098091B80990910C
:104BB000B9090F940D1A2B013C019B01AC016091C6
:104BC0004C0970914D0980914E0990914F090F94B5
:104BD000ED1260934C0970934D0980934E099093A8
:104BE0004F09A301920160916F0E7091700E809138
:104BF000710E9091720E0F94ED1260936F0E709380
:104C0000700E8093710E9093720E6091A11470914A
:104C1000A2148091A3149091A4140F948C12A30158
:104C200092010F94ED120F947A1A6093A11470936D
:104C3000A2148093A3149093A4148092B609909226
:104C4000B709A092B809B092B90908C00E94A0356E
:104C5000D7016D937D938D939C9313971F5FB4E061
:104C6000EB0EF11C143009F083CF0E94BDF92EC762
:104C70000E94959783E50E941C36882311F40C94BA
:104C8000441D0E9470356230710511F00C94441D72
:104C90000E9456DE8BE50E943C3A6091DF107091D5
:104CA000E0108091E1109091E21042E00E94813B7F
:104CB0004091E3105091E4106091E5107091E6107E
:104CC00080E194E00E944AF84091E7105091E8108A
:104CD0006091E9107091EA108DE094E00E944AF82A
:104CE0008DE50E943C3A8AE00E943C3AEFC68491EE
:104CF0008F010F5F1F4F882321F00E943C3AF8017B
:104D0000F6CF60E082EE94E00E94C1B961E08BEDE5
:104D100094E00E94C1B961E080ED94E00E94C1B9C5
:104D200061E080EC94E00E94C1B960E087EB94E020
:104D30000E94C1B961E08DEA94E00E94C1B960E0CF
:104D400083EA94E00E94C1B960E08BE994E00E949C
:104D5000C1B960E08DE894E00E94C1B960E08FE7DE
:104D600094E00E94C1B960E080E794E00E94C1B97C
:104D700060E082E694E00E94C1B960E08CE494E0D7
:104D80000E94C1B960E08BE394E00E94C1B960E089
:104D900086E294E00E94C1B960E083E194E00E9461
:104DA000C1B994C68091581090915910FC0120818E
:104DB000222309F4B2CD60E00E94687287C6009198
:104DC00058101091591083E0D12C40E08150E9F047
:104DD000D8019C91292F2B7F2134C1F711962C915A
:104DE0002133A1F7913421F0953421F441E002C040
:104DF000DD24D39498012E5F3F4F89012F5F3F4FF1
:104E0000F80190819032C9F3E1CF442369F0E0E9E1
:104E1000FAE284917F012FEFE21AF20A882321F04F
:104E20000E943C3AF701F5CFDD2069F0E2ECF5E0B5
:104E300084917F013FEFE31AF30A882321F00E9457
:104E40003C3AF701F5CFD8018D918D01882309F403
:104E5000C4C90E943C3AF7CF0E94CFFD37C681E01B
:104E600080937A038093790331C610927A0310926B
:104E700079032CC683E50E941C36882319F00E9412
:104E8000703502C060E070E08B011127023011051F
:104E9000D4F0E6E9FAE284918F010F5F1F4F811190
:104EA00003C0E6ECF5E004C00E943C3AF801F3CF01
:104EB00084918F010F5F1F4F882309F407C60E945A
:104EC0003C3AF801F5CF88E40E941C368823A9F00B
:104ED0000E947035603A71053CF06530B1E07B07A7
:104EE0002CF064E071E002C060EA70E0F801EE0FBF
:104EF000FF1FED5AF14F7183608386E40E941C36D8
:104F0000882309F4E3C50E947035000F111FF801D2
:104F1000E95AF14F718360836F3F710519F014F006
:104F20006FEF70E077FF02C060E070E07183608334
:104F3000CDC588EC90E00E942B3B8111C7C584E46D
:104F40000E94D335882309F441C00E94A0356B012B
:104F50007C0111E020E030E0A9010F94881281115A
:104F600001C010E010935C0920E030E0A901C70106
:104F7000B6010F948812882349F10E94A035E09170
:104F8000630924E0E29FF0011124E85AF64F6083A0
:104F900071838283938320E030E0A90160915809F6
:104FA0007091590980915A0990915B090F94881268
:104FB00081110CC080E090E0A0EEBFE3809358091F
:104FC00090935909A0935A09B0935B090E94AC8948
:104FD0007DC5E9E5EE2EE2E0FE2E08E219E0D701FC
:104FE0008D917D010E94D335882349F00E94A03520
:104FF0000F947A1AF80160837183828393830C5F24
:105000001F4FF9E008331F0751F70E9462F95EC590
:105010000C5F1F4FFEE003371F0709F457C5D70188
:105020008D917D010E94D335882391F30E94A03594
:10503000F8016083718382839383EACF83E50E94C2
:105040001C368823A1F00E94A03560933C09709320
:105050003D0980933E0990933F096093380970930E
:10506000390980933A0990933B0910E001C011E09F
:1050700080E50E941C36882359F00E94A035609379
:105080003C0970933D0980933E0990933F0910E0DD
:1050900082E50E941C36882359F00E94A035609357
:1050A000DE0F7093DF0F8093E00F9093E10F10E01D
:1050B00084E50E941C36882359F00E94A035609335
:1050C00038097093390980933A0990933B09FEC4DB
:1050D000112309F4FBC440913C0950913D096091B2
:1050E0003E0970913F098EEE95E00E944AF840918A
:1050F000DE0F5091DF0F6091E00F7091E10F8BEEAA
:1051000095E00E944AF84091380950913909609120
:105110003A0970913B0988EE95E00E944AF88AE0CE
:105120000E943C3AD3C481E50E94D335882351F0D4
:105130000E9460356093921970939319809394192B
:105140009093951983E50E94D335882351F00E94EE
:10515000A03560935F0E7093600E8093610E909304
:10516000620E84E50E94D335882351F00E94A03559
:1051700060935B0E70935C0E80935D0E90935E0E59
:1051800088E50E94D335882351F00E94A0356093B2
:10519000400970934109809342099093430989E53E
:1051A0000E94D335882351F00E94A03560934409B2
:1051B0007093450980934609909347098AE50E94B8
:1051C000D335882351F00E94A0356093480970932D
:1051D000490980934A0990934B0985E40E94D3358D
:1051E000882309F473C40E94A03560934C0970931E
:1051F0004D0980934E0990934F0968C484918F01A3
:105200000F5F1F4F882321F00E943C3AF801F6CF30
:1052100083E50E94D335882321F00E949135809345
:105220003E02E6E2F6E084918F010F5F1F4F882374
:1052300021F00E943C3AF801F6CF80913E0288238B
:1052400019F0EEE1F6E002C0E2E2F6E084918F01AF
:105250000F5F1F4F811103C0E6E1F6E004C00E941A
:105260003C3AF801F3CF84918F010F5F1F4F8823E1
:1052700021F00E943C3AF801F6CF2091050F3091C1
:10528000060F4091070F5091080F60913202709104
:10529000330280913402909135020F943119AB01A1
:1052A000BC0184E196E00E944AF82091090F3091F8
:1052B0000A0F40910B0F50910C0F609136027091C4
:1052C000370280913802909139020F943119AB0165
:1052D000BC0181E196E00E944AF820910D0F3091C7
:1052E0000E0F40910F0F5091100F60913A02709184
:1052F0003B0280913C0290913D020F943119AB0129
:10530000BC018EE096E00E944AF8E6E0F6E0849167
:105310008F010F5F1F4F882321F00E943C3AF80154
:10532000F6CF2091050F3091060F4091070F509155
:10533000080F6091260270912702809128029091B7
:1053400029020F943119AB01BC0184E096E00E9460
:105350004AF82091090F30910A0F40910B0F50919C
:105360000C0F60912A0270912B0280912C02909177
:105370002D020F943119AB01BC0181E096E00E942F
:105380004AF820910D0F30910E0F40910F0F509160
:10539000100F60912E0270912F0280913002909137
:1053A00031020F943119AB01BC018EEF95E00E94E0
:1053B0004AF88AE00E943C3A89C383E50E941C3681
:1053C000882309F483C30E94703570935802609358
:1053D00057027CC38DED90E00E942B3B811176C378
:1053E00083E50E941C36811103C0E0E9FAE23BC06C
:1053F0000091630910E00E947035000F111FF80141
:10540000EB5AFD4F718360838091630990E08C01BA
:10541000000F111F000F111F98012F5A3D4F7901E6
:10542000880F991FFC01EB5AFD4F60817181072E97
:10543000000C880B990B0F948E122AE037ED43E293
:105440005CE30F94ED12F801E357FB4E20813181AC
:10545000428153810F94ED12D7016D937D938D930B
:105460009C93139733C384918F010F5F1F4F882341
:1054700021F00E943C3AF801F6CF85E40E943C3AC4
:1054800080916309805D0E943C3AE0916309F0E0FD
:10549000EE0FFF1FEB5AFD4F6081718186E396E0AE
:1054A0000E9467F885E20E943C3A8AE00E943C3AFA
:1054B0000DC380E50E94D335882309F407C30E94F9
:1054C00070356B017C0183E50E941C36882321F036
:1054D0000E9470358B0102C00FEF1FEFC8010196CB
:1054E000039708F0F3C2D7FCF1C28C2DEEE3F6E08F
:1054F0009491891709F454C33196B6E0EB36FB0753
:10550000B9F751C383E50E941C36882319F00E9425
:10551000703502C064E071E079A368A380E50E9461
:105520001C36882339F00E9470356938E3E17E0724
:1055300030F402C068EE73E07A83698304C088E8BF
:1055400093E19A838983BE01605E7F4FCE0101960D
:105550000E944166BBC285E40E941C36811110C0C6
:1055600080E50E94D335882391F00E94A035609396
:10557000460E7093470E8093480E9093490E07C0D5
:105580000E948035882361F3E6E9FAE271C089E47C
:105590000E94D335882381F00E94A0352CEA35EC97
:1055A00047E25EE30F94ED1260934E0E70934F0E40
:1055B0008093500E9093510E84E40E94D33588233B
:1055C00081F00E94A0352CEA35EC47E25EE30F94AF
:1055D0000D1A60934A0E70934B0E80934C0E90936D
:1055E0004D0EE0E9FAE284918F010F5F1F4F88238F
:1055F00021F00E943C3AF801F6CF4091460E5091BE
:10560000470E6091480E7091490E83E796E00E9424
:105610004AF82CEA35EC47E25EE360914E0E709159
:105620004F0E8091500E9091510E0F940D1AAB01B8
:10563000BC018FE696E00E944AF82CEA35EC47E27E
:105640005EE360914A0E70914B0E80914C0E9091EA
:105650004D0E0F94ED12AB01BC018BE696E00E945B
:105660004AF88AE00E943C3A31C20E943C3AF80172
:1056700084918F010F5F1F4F8111F7CFE7E7F6E0AD
:1056800084918F010F5F1F4F882309F41FC20E946E
:105690003C3AF801F5CF83E50E94D335182F8823D3
:1056A00071F00E94A0350F94751A709350026093A8
:1056B0004F0221E0672B09F020E020930A1080E5DB
:1056C0000E94D335882359F020914F023091500227
:1056D000232B11F00E94913580930A10F7C111110C
:1056E000F5C1E0E9FAE284918F010F5F1F4F882333
:1056F00021F00E943C3AF801F6CF80910A108823ED
:1057000019F067E173E002C06AE173E08EE996E0A8
:105710000E9480F860914F02709150028DE896E0EF
:105720000E9467F8E9E8F6E084918F010F5F1F4F50
:10573000882309F4CBC10E943C3AF801F5CF0E94BE
:1057400093B5C4C10E943C3AF80184918F010F5F68
:105750001F4F8111F7CFE1EBF6E084918F010F5FCE
:105760001F4F882309F4B2C10E943C3AF801F5CFDB
:105770000E949597ABC10E9491FFA8C181E08093E0
:1057800089190E948C7610928919882309F49EC188
:10579000E0E9FAE284918F010F5F1F4F811103C08E
:1057A000E0ECF6E004C00E943C3AF801F3CF8491AB
:1057B0008F010F5F1F4F882309F488C10E943C3A74
:1057C000F801F5CF0E946DB381C18BE592E00E9494
:1057D0002B3B81117BC185E50E94D3358823D9F10C
:1057E0000091630910E00E94A0356B017C0120E06C
:1057F00030E0A9010F94A61B87FF04C0F7FAF094CC
:10580000F7F8F094000F111F000F111FF801EC5A68
:10581000F64FC082D182E282F38200916309F4E004
:105820000F9F800111240C5A164F20E030E849E008
:1058300054E4D8016D917D918D919C910F94A61B9C
:1058400018164CF480E090E8A9E0B4E4F8018083F5
:105850009183A283B3838CE40E94D335882309F417
:1058600035C10091630910E00E94A0356B017C01F5
:1058700020E030E0A9010F94A61B87FF04C0F7FACF
:10588000F094F7F8F094000F111F000F111FF801AA
:10589000E05BF64FC082D182E282F382009163091D
:1058A000F4E00F9F80011124005B164F20E030E8E8
:1058B00049E054E4D8016D917D918D919C910F94B4
:1058C000A61B18160CF002C180E090E8A9E0B4E431
:1058D000F80180839183A283B383F8C088E40E9497
:1058E000D335882351F00E94A03560933610709311
:1058F000371080933810909339108CE40E94D33580
:10590000882351F00E94A0356093161070931710F1
:10591000809318109093191082E50E94D335882344
:1059200051F00E94A0356093261070932710809349
:1059300028109093291083E50E94D335882351F0D5
:105940000E94A03560938E1970938F1980939019DF
:105950009093911982E40E94D335882351F00E94DC
:10596000A0356093121070931310809314109093CD
:10597000151088E50E94D335882351F00E94A03588
:1059800060931A1070931B1080931C1090931D103D
:1059900089E50E94D335882351F00E94A035609399
:1059A0001E1070931F1080932010909321108AE591
:1059B0000E94D335882351F00E94A03560932210B5
:1059C0007093231080932410909325100E94B0E6CA
:1059D0007DC00E94A03520E030E0A9010F9488121C
:1059E00018163CF00E94A035F80160837183828311
:1059F00093830C5F1F4FF0E106331F0709F466C065
:105A0000D7018D917D010E94D335882391F3E1CF99
:105A100081E0809325021092990983E50E941C364B
:105A2000882339F00E949135811150C00E94C0E74F
:105A30004DC083E50E94D335F7CF0E94C9D446C03C
:105A4000F0905A100E949597FF2029F1E0E9FAE2C0
:105A500084918F010F5F1F4F882321F00E943C3AF1
:105A6000F801F6CF84E50E943C3A6F2D70E080E0AB
:105A700090E04AE00E94C03A80E20E943C3AEDED9C
:105A8000F6E084918F010F5F1F4F8823F9F00E9489
:105A90003C3AF801F6CF10920910E0E9FAE284915D
:105AA0008F010F5F1F4F882321F00E943C3AF801BD
:105AB000F6CF6091091070E08BEC96E00E9467F8D9
:105AC0008AE00E943C3A02C00E94C9D41092E30FBF
:105AD0000E94A3E7A6C00E9428360E94BAE2F6CF31
