:100000000C94E8190C94191A0C94191A0C94191AD6
:100010000C94191A0C94191A0C94191A0C94191A94
:100020000C94191A0C94191A0C94191A0C94191A84
:100030000C94191A0C94191A0C94191A0C94191A74
:100040000C94191A0C9471B60C94191A0C94191A70
:100050000C94191A0C94191A0C945CF20D94361520
:100060000C94191A0C94BB3F0C94191A0C94191A7D
:100070000C94191A0C94191A0C94191A0C94191A34
:100080000C94191A0C94191A0C94191A0C94191A24
:100090000C94191A0C94191A0C94191A0C94191A14
:1000A0000C94191A0C94191A0C94191A0C94191A04
:1000B0000C94191A0C94191A0C94191A0C94191AF4
:1000C0000C94191A0C94191A0C94191A0C94191AE4
:1000D0000C94191A0C94191A0C94191A0C94191AD4
:1000E0000C94191A57D33DD340D343D346D352D39C
:1000F00049D363D34CD34FD3D6008A0120014401A6
:100100004201B801C800B60156010E016C01E000C1
:100110006001D800B801EA003A018601F2007001DE
:100120009C018E015A017801CE016A015801C20179
:10013000F00006012E019E017801AC01E600CE0020
:10014000084AD73B3BCE016E84BCBFFDC12F3D6C3E
:1001500074319ABD56833DDA3D00C77F11BED9E4A4
:10016000BB4C3E916BAAAABE000000803F05A84C84
:10017000CDB2D44EB93836A9020C50B99186880850
:100180003CA6AAAA2ABE000000803F000C94FFAE45
:100190000D9488130C942C310C94D9310D94DD14EA
:1001A0000C9442880D948F150C9473930D948113C5
:1001B0000D94A8130C9452D30C9446D30C942FC5D1
:1001C0000D94A0130D94421E0C94D1F00D94D314F1
:1001D0000C94C5AD0D94AE130C940ADF0C94FAADDB
:1001E0000D949C140D9450140C942D310C94AE84E9
:1001F0000C94EEF80C945CC20C9485980C94F1FB72
:100200000C94F3820C9452F20C9449D30D94A614DE
:100210000C9402F00C943DD30C9422C10D949613CF
:100220000C94D4F00C947A9D0C94FCEF0C94E3EFB6
:100230000C9457D30C94FD940C9458C20C944C9786
:100240000D9473130C94C2950C9455B30C94CFEF8A
:100250000C9466C60C9466850C94D4EF0D94B5147A
:100260000C9427AD0C9459FE0C9402AF0C944D7471
:100270000C9401C50D94B2130C94939A0C94ED99BF
:100280000C9447840D947D130D9477130C9440AE19
:100290000C948C990C9443D30C94DEEF0C94FC8456
:1002A0000C94ECF80C945CAD0C9454FE0D949213E9
:1002B0000D9488140D946E140C9457F20C9465C030
:1002C0000D94A4130C944CD30C9472AD0C94BCEB11
:1002D0000C9463850D9480140D949A130C94409A99
:1002E0000D9455140C9440D30C948EAD0C945EADCB
:1002F0000D94E7140C943C880C947E830C94D9EFF5
:100300000C949E6A0C942B990C94E9D80D94B61316
:100310000C942AC80D9484130C94F49A0D946414CC
:100320000C9471EC0C94E8BE0C941DAE0C9441DE60
:100330000C9451AD0C94CA980D945A140D94BF149A
:100340000C943F880C9463D30D945C040C9456FE7B
:100350000C9408F00C944FD30D94C9140C94CAEF6C
:100360000C944DF20C9469850C94D7F00D948C1379
:100370000D94BB130C9438940C948DDC0C94E79D75
:100380000C9418C50D9492140C9468860C94C6AD08
:100390000C9487960C94AB920C940D980D94781451
:1003A0000C949DB14E414E494E495459494E46CD4B
:1003B000CCCC3D0AD7233C17B7D13877CC2B32951C
:1003C00095E6241FB14F0A000020410000C84200FA
:1003D000401C4620BCBE4CCA1B0E5AAEC59D7400C4
:1003E000407A10F35A00A0724E18090010A5D4E804
:1003F0000000E87648170000E40B54020000CA9A97
:100400003B000000E1F505000080969800000040E8
:10041000420F000000A0860100000010270000002D
:1004200000E803000000006400000000000A000073
:100430000000000100000000002C76D888DC674F27
:100440000823DFC1DFAE59E1B1B796E5E3E453C657
:100450003AE651997696E8E6C28426EB898C9B624F
:10046000ED407C6FFCEFBC9C9F40F2BAA56FA5F4F9
:1004700090055A2AF75C936B6CF9676DC11BFCE021
:10048000E40D47FEF520E6B500D0ED902E03009474
:100490003577050080841E080000204E0A00000009
:1004A000C80C333333330F986E12831141EF8D2113
:1004B00014893BE65516CFFEE6DB18D1844B381B7A
:1004C000F77C1D901DA4BBE424203284725E22813F
:1004D00000C9F124ECA1E53D27434F4D4D554E4950
:1004E000434154494F4E0044525952554E004552D3
:1004F000524F525300494E464F004543484F004724
:10050000322F47332062616420706172616D6574BF
:100510006572730A00536F7370656E73696F6E65F1
:100520002E2E2E005072656D6920746173746F2ECB
:100530002E004E657373756E204D6F76696D656E16
:10054000746F00456E642066696C65206C69737415
:100550000A00426567696E2066696C65206C697384
:10056000740A004D31323500286E6F2066696C6563
:1005700029005344207072696E74696E6720627935
:10058000746520004E6F74205344207072696E743D
:10059000696E670A0043757272656E742066696CD5
:1005A000653A20005072696E742074696D653A2056
:1005B00000FA04F504EE04E704D9046F666600440B
:1005C000454255473A0055434349534F2E20004D6D
:1005D0003131332053006F6B0052616666722E20FA
:1005E00070696174746F2E2E2E00526973632E2011
:1005F00070696174746F2E2E2E0044432D323020AA
:1006000046434842207234204F66662E002C20005C
:100610002C2000544845524D414C5F50524F544598
:100620004354494F4E004155544F5245504F525438
:100630005F53445F53544154555300454D45524711
:10064000454E43595F504152534552004341534533
:100650005F4C494748545F4252494748544E4553BE
:100660005300544F47474C455F4C4947485453004B
:10067000534F4654574152455F504F5745520042E1
:1006800055494C445F50455243454E54004C4556E5
:10069000454C494E475F44415441005A5F50524FC8
:1006A0004245004155544F4C4556454C0050524927
:1006B0004E545F4A4F420050524F475245535300E9
:1006C0004155544F5245504F52545F54454D500080
:1006D000564F4C554D455452494300454550524F95
:1006E0004D0053455249414C5F584F4E5F584F465D
:1006F00046004649524D574152455F4E414D453A9D
:100700004D61726C696E20312E312E392028476977
:10071000746875622920534F555243455F434F44D7
:10072000455F55524C3A68747470733A2F2F67695D
:10073000746875622E636F6D2F4D61726C696E46C1
:1007400069726D776172652F4D61726C696E2050B0
:10075000524F544F434F4C5F56455253494F4E3AB8
:10076000312E30204D414348494E455F5459504544
:100770003A44432D323020464348422072342045CB
:10078000585452554445525F434F554E543A3220C7
:10079000555549443A63656465326132662D34319A
:1007A00061322D343734382D396231322D6335358D
:1007B0006336326633363766660A002F2F20004DC7
:1007C00031343520533C696E6465783E206F757412
:1007D000206F662072616E67652028302D31290AEE
:1007E00000205400205200416363656C657261749F
:1007F000696F6E3A205000205A002059005800209E
:10080000204D61783A2000205A00205900580020DD
:10081000204D696E3A20004F6E20004F66660053EF
:100820006F667420656E6473746F70733A20002075
:10083000466C6F773A20000001363726FF02FFFF33
:10084000353C3D38FF0FFFFF312E303E1213FFFFC6
:10085000FF28FF0C0809FFFFFF1A1C18FFFF2A24BE
:10086000221EFFFF2C08440AFF4320643A0020693F
:100870003A0020703A00496E76616C6964206578B0
:100880007472756465720A0043290A0061626C65BE
:100890006420286D696E2074656D702000436F6C54
:1008A00064206578747275646573206172652000D8
:1008B0004E6F2063617365206C696768740A004538
:1008C0004550524F4D204F4B0A0025697300256952
:1008D0006D20256973002569682025696D202569CB
:1008E0007300256964202569682025696D202569C4
:1008F00073002569792025696420256968202569A8
:100900006D2025697300656E7175657565696E6723
:1009100020220020496E76616C69642065787472CB
:100920007564657220000000BEC20000BEC20000F7
:1009300000000000BE420000BE420000664300000E
:100940000000000000000000824320200020205210
:1009500061646975733A00547A00547900547800E0
:1009600020205261646975733A00457A0045790028
:100970004578002E4865696768743A007879007A8E
:100980007800797A00207A002079002078006300CE
:100990002E2020202000253033692E7800302E258F
:1009A000303369002073643A0073746420646576A0
:1009B0003A00737464206465763A004E6F20636F6A
:1009C0006E76657267656E63650049746572617401
:1009D000696F6E203A2025303269005361766520B8
:1009E00077697468204D35303020616E642F6F72E6
:1009F00020636F707920746F20436F6E666967752E
:100A0000726174696F6E2E6800253033692E78002C
:100A1000302E253033690043616C696272617469FC
:100A20006F6E2073643A00737464206465763A00D4
:100A300043616C6962726174696F6E204F4B00454F
:100A40006E64204452592D52554E00436F727265A8
:100A500063742064656C74612073657474696E6777
:100A6000732077697468204D36363520616E6420B6
:100A70004D3636360A0020284452592D52554E29FB
:100A8000003F284D36363520422965642072616466
:100A900069757320697320696D706C617573696223
:100AA0006C652E0A00436865636B696E672E2E2E97
:100AB00020414300473333204175746F2043616CFC
:100AC0006962726174650A003F2856296572626F17
:100AD0007365206C6576656C20697320696D706C38
:100AE00061757369626C652028302D33292E0A00E8
:100AF0003F2846296F726365206974657261746965
:100B00006F6E20697320696D706C61757369626CBA
:100B1000652028302D3330292E0A003F28432961D3
:100B20006C6962726174696F6E207072656369735B
:100B3000696F6E20697320696D706C61757369628D
:100B40006C6520283E3D30292E0A003F2850296F31
:100B5000696E747320697320696D706C6175736957
:100B6000626C652028302D3130292E0A00486F6DC7
:100B70006520257325732573207072696D610020CF
:100B80007072696D610A005A0059005800486F6D13
:100B900065200053442063617264206F6B0A006F0C
:100BA00070656E526F6F74206661696C65640A00CF
:100BB000766F6C756D652E696E6974206661696CFF
:100BC00065640A00534420696E6974206661696C2B
:100BD0000A0057726974696E6720746F2066696CC9
:100BE000653A20006F70656E206661696C65642CE3
:100BF0002046696C653A20006F70656E20666169F9
:100C00006C65642C2046696C653A200046696C6509
:100C10002073656C65637465640A002053697A65A6
:100C20003A200046696C65206F70656E65643A20F5
:100C3000002066696C653A2000646F696E67006623
:100C400072657368004E6F772000454E44205355FF
:100C500042524F5554494E450A002220706F73008E
:100C60002220706172656E743A2200535542524FD1
:100C70005554494E452043414C4C20746172676580
:100C8000743A220055434349534F2E200074727921
:100C9000696E6720746F2063616C6C207375622DC0
:100CA00067636F64652066696C6573207769746833
:100CB00020746F6F206D616E79206C6576656C7342
:100CC0002E204D4158206C6576656C2069733A0082
:100CD000642E0A00206661696C65642E0A00506FFC
:100CE0007765722D6C6F73732066696C652064651F
:100CF0006C6574650046696C652064656C65746537
:100D0000643A0044656C6574696F6E206661696C55
:100D100065642C2046696C653A20006F70656E2012
:100D20006661696C65642C2046696C653A200045F3
:100D30004550524F4D206461746173697A65206536
:100D400072726F722E0A00290A002062797465732C
:100D50003B20637263200053657474696E6773206F
:100D600053746F726564202800290A002062797428
:100D700065733B2063726320002073746F72656437
:100D80002073657474696E67732072657472696527
:100D9000766564202800202863616C63756C61743B
:100DA000656429210A0020213D2000454550524F0D
:100DB0004D20435243206D69736D61746368202D2B
:100DC000202873746F7265642920002053697A6546
:100DD0003A2000496E6465783A2000204D61726CBB
:100DE000696E3D563536290A0028454550524F4D0B
:100DF0003D00454550524F4D2076657273696F6EC8
:100E0000206D69736D6174636820005344204361F1
:100E100072642072696D6F73736100534420436183
:100E2000726420696E7365726974610020746F6FFB
:100E3000206C6F6E6720657874727573696F6E20B1
:100E400070726576656E7465640A0020636F6C6409
:100E500020657874727573696F6E2070726576653F
:100E60006E7465640A0043616E6E6F7420656E7403
:100E70006572207375626469723A2000052E2E0037
:100E8000457363690000546F74616C652065737409
:100E90007275736F3A2000256C642E25696D000011
:100EA0004C61766F726F207069C3B9206C756E6784
:100EB0006F3A20000054656D706F20746F74616C20
:100EC000653A2000436F6D706C65746174693A20F7
:100ED00000436F6E7461742E207374616D70613A9B
:100EE000200054656D70206D61783A2031353000F6
:100EF00054656D70206D696E3A203500544265640A
:100F00003A312520626574612033393530005465EB
:100F10006D70206D61783A203237350054656D7000
:100F2000206D696E3A20350054303A203125206218
:100F3000657461203339353000416C696D656E74BC
:100F400061746F72653A2047656E6572696300501F
:100F5000726F746F636F6C6C6F3A20312E30004289
:100F60006175643A203235303030300052414D5096
:100F70005320312E34004573747275736F72693A61
:100F8000203200687474703A2F2F6D61726C696E34
:100F900066772E6F72670044432D323020464348F7
:100FA0004220723400323031382D30382D3031004B
:100FB000312E312E39004D61726C696E00537461AF
:100FC0007469737469636865005465726D697374DC
:100FD0006F726900496E666F2E2073636865646185
:100FE00000496E666F2E207374616D70616E74655A
:100FF0000045736369004D37303220542564004D3D
:1010000036303020423020542564004D37303220B5
:101010003B2564004D37303120542564004D363077
:10102000302042302054310043616D626961206696
:10103000696C616D656E746F204532004D363030DD
:101040002042302054300043616D6269612066693E
:101050006C616D656E746F20453100457363690086
:101060005354414D504120494E2050415553410069
:1010700052494D554F56492046494C414D454E54D5
:101080004F004341524943412046494C414D454E52
:10109000544F004C69626572612064692070697503
:1010A0000052697072656E6469207374616D70615D
:1010B000004F505A494F4E493A00627573793A20B1
:1010C00070617573656420666F7220696E707574E7
:1010D0000A00627573793A207061757365642066E1
:1010E0006F7220757365720A00627573793A2070A9
:1010F000726F63657373696E670A005543434953A2
:101100004F2E20004B494C4C206361757365642061
:10111000627920746F6F206D75636820696E6163FA
:10112000746976652074696D65202D20637572720F
:10113000656E7420636F6D6D616E643A2000526954
:101140006176766961726520707265676F005354CD
:10115000414D50414E5445204645524D4154410069
:101160005072696E7465722068616C7465642E20BB
:101170006B696C6C28292063616C6C6564210A00C2
:1011800000004843000048430000484300000000BE
:101190005761726E696E673A20486F6D696E67209D
:1011A00042756D702044697669736F72203C2031FE
:1011B0000A000A0A0A0000A0400000A0400000A0A7
:1011C0004000003E4300003E430000664301010131
:1011D0004163746976652045787472756465723A06
:1011E00020004D33310053442072656164206572E4
:1011F000726F720A00446F6E65207072696E746956
:101200006E672066696C650A0055434349534F2E4B
:10121000200041525245535441544F2E20005072E9
:10122000696E7465722073746F7070656420647584
:101230006520746F206572726F72732E2046697814
:1012400020746865206572726F7220616E6420750B
:101250007365204D39393920746F2072657374615C
:1012600072742E202854656D706572617475726594
:101270002069732072657365742E2053657420692C
:10128000742061667465722072657374617274692A
:101290006E67290A004E6F20436865636B73756D36
:1012A0002077697468206C696E65206E756D626563
:1012B000722C204C617374204C696E653A20004E8C
:1012C0006F20436865636B73756D20776974682060
:1012D0006C696E65206E756D6265722C204C617351
:1012E00074204C696E653A2000636865636B7375A2
:1012F0006D206D69736D617463682C204C6173742B
:10130000204C696E653A20004C696E65204E756D03
:10131000626572206973206E6F74204C6173742053
:101320004C696E65204E756D6265722B312C204CB8
:10133000617374204C696E653A20004D3131300084
:1013400020205567656C6C6F3A20006469206669DF
:101350006C616D656E746F0064656C2063616D62B5
:10136000696F00417474656E64657265206176769C
:10137000696F0020205567656C6C6F3A20006465CA
:101380006C2066696C616D656E746F006C276573A7
:1013900070756C73696F6E6500417474656E646519
:1013A00072650020205567656C6C6F3A20004174AF
:1013B00074656E646572652E2E2E005269736361CA
:1013C0006C642E207567656C6C6F00202055676516
:1013D0006C6C6F3A200072697363616C642075678E
:1013E000656C6C6F2E005072656D692070657200BF
:1013F00020205567656C6C6F3A20007072656D69CE
:101400002070657220636F6E740066696C616D6533
:101410006E746F206500496E73657269736369202D
:10142000696C0020205567656C6C6F3A200064651C
:101430006C2066696C616D656E746F00696C206309
:1014400061726963616D656E746F00417474656E7D
:10145000646572650020205567656C6C6F3A2000EA
:1014600064656C2066696C616D656E746F006C6F8D
:101470002073707572676F00417474656E64657275
:10148000650064656C6C61207374616D7061006CE3
:1014900061207269707265736100417474656E6475
:1014A000657265001000AA03F0013A019002220162
:1014B00030031001D00302017004F7001005ED00A5
:1014C000B005E5005006DD00F006D7009007D1001A
:1014D0003008CC00D008C7007009C300100ABE0055
:1014E000B00ABB00500BB700F00BB300900CB0007B
:1014F000D00DAA00100FA5005010A00090119B0065
:10150000D0129600B014900090168B0070188500D1
:10151000501A8000301C7B00B01E750030216F0017
:10152000B02369003026640010285F00902A5A001A
:10153000702C5500F02E4F0070314800B03245003D
:10154000F03341007036390010373700503833001F
:1015500090392D00D03A2700B03C1C00503D1700B8
:10156000F03D1100903E0900D03FE5FF202F002004
:1015700042403A0020403A00203FECED3F5C7C3F87
:101580002263617F3F3F52B0DF3F323327E4F1A552
:101590002C31DF7E3F3F3F3F3F3F3F3FE13F3F3FFB
:1015A0003F3F3F3F3F3F3F3F3F3F3F3F3F3FEF7862
:1015B0003F3F3F3FF53F3FE23F3F3F3FE13F3F3F40
:1015C0003F3F3F3F3F3F3F3F3FEE3F3F3F3FEFFD0E
:1015D0003F3F3F3FF53F3F3F0010101010101000FD
:1015E0000014141414141400001515151515150005
:1015F000001C1F11111F0000000E191803130E000C
:10160000040E1F041C000000000E1517110E000030
:10161000070F1810040201001F0E1F0E1F0A0400FE
:101620000C12120C0000000009120912000E1F001B
:1016300000000000010204040000001C1C0C040453
:101640000402010000000000040810000000000077
:1016500025753A2530327500253032753A253032FD
:1016600075002D2D2D0053440020573A004520527F
:1016700061666672656464616D656E746F2E2E00BE
:10168000452052697363616C64616D656E746F2E81
:101690002E2E00205A3A0020593A0020436F756ED2
:1016A0007420583A0020453A00205A3A0020593A0E
:1016B00000583A003A004361703A00236465666955
:1016C0006E652044454641554C545F4B64200023D1
:1016D000646566696E652044454641554C545F4BD0
:1016E00069200023646566696E652044454641555E
:1016F0004C545F4B702000504944204175746F7406
:10170000756E652066696E69736865642120507521
:101710007420746865206C617374204B702C204BAE
:101720006920616E64204B6420636F6E7374616E18
:1017300074732066726F6D2062656C6F7720696EBE
:10174000746F20436F6E66696775726174696F6E3E
:101750002E680A00504944204175746F74756E6597
:10176000206661696C6564212074696D656F7574AC
:101770000A0045312054454D502046554F524920CE
:10178000434F4E54524F4C4C4F00546865726D613C
:101790006C2052756E617761790045312052697312
:1017A00063616C642E2046616C6C69746F004865DF
:1017B0006174696E67206661696C656400504944B4
:1017C000204175746F74756E65206661696C65641F
:1017D000212054656D706572617475726520746F37
:1017E0006F20686967680A00204B643A2000204B2C
:1017F000693A2000204B703A20000A20436C617344
:1018000073696320504944200A002054753A20002F
:10181000204B753A2000206D61783A2000206D69D8
:101820006E3A200020643A200020626961733A20F9
:1018300000504944204175746F74756E652066616F
:10184000696C6564212054656D7065726174757290
:101850006520746F6F20686967680A0050494420EA
:101860004175746F74756E652073746172740A00CB
:10187000504944204175746F74756E6520666169C6
:101880006C656421204261642065787472756465BA
:1018900072206E756D6265720A00496E73657274AE
:1018A0002066696C616D656E7420616E6420707273
:1018B00065737320627574746F6E0A00507265737D
:1018C0007320627574746F6E20746F206865617424
:1018D000206E6F7A7A6C650A00496E7365727420A7
:1018E00066696C616D656E7420616E6420707265EE
:1018F000737320627574746F6E20286F72204D317F
:101900003038290A00496E76616C69642065787404
:1019100072756465720A002D2D2D2D2D2D2D2D2D06
:101920002D2D2D007C44656C7461636F6D622033D6
:10193000447C002D2D2D2D2D2D2D2D2D2D2D2D00CB
:101940004D61726C696E2046572076312E312E39EA
:10195000004D61726C696E2046572076312E312E13
:10196000390044432D323020464C5558202B204816
:101970004541544245420044432D323020464C55A7
:1019800058202B2048454154424542000020205019
:101990006C616E6E657242756666657242797465D9
:1019A000733A20002046726565204D656D6F72792F
:1019B0003A2000436F6D70696C65643A204A616E2D
:1019C00020203720323032300A00207C20417574CC
:1019D000686F723A20286E6F6E652C2064656661B0
:1019E000756C7420636F6E666967290A0032303146
:1019F000382D30382D303100204C617374205570F3
:101A000064617465643A2000312E312E390A004D2C
:101A100061726C696E0020536F6674776172652025
:101A200052657365740A00205761746368646F6758
:101A30002052657365740A002042726F776E206FC2
:101A400075742052657365740A0020457874657258
:101A50006E616C2052657365740A00506F77657211
:101A600055700A0073746172740A006175746F2591
:101A7000692E67006572726F722077726974696E81
:101A80006720746F2066696C650A00456E64737424
:101A90006F702025632025632025632025630020A7
:101AA0005A3A0020593A0020583A00656E6473741F
:101AB0006F7073206869743A2000446F6E652073FC
:101AC0006176696E672066696C652E0A004D323951
:101AD0000044432D32302046434842207234207067
:101AE000726F6E746F2E005374616D706120696E39
:101AF00020636F72736F2E2E2E005374616D7061B0
:101B000020736F7370657361004D313235004D3253
:101B100034005374616D706120616E6E756C6C6120
:101B20007461004739310A473020452D3135204650
:101B300031303030300A4731205A320A4734205091
:101B4000333030300A4730204531342E372046318B
:101B5000303030300A473120452D36392E37204677
:101B600031303030300A4732380A4D353234004F88
:101B7000706572617A696F6E6920636F6D756E69E9
:101B8000005265676F6C610041767669612053741D
:101B9000616D70610041727265737461207374616C
:101BA0006D70610052697072656E64692073746152
:101BB0006D7061004D616E7574656E7A696F6E65EA
:101BC00000506175736120652073616C766100530C
:101BD000636865726D617461205072696E636970CB
:101BE0002E00494E56414C49442044415441004D39
:101BF00032342053256C642054256C64004D3233FC
:101C000020257300473930004731204525690047BA
:101C10003931004739322E30205A2573204525733B
:101C20000047312058257320592573205A257320E9
:101C3000463530303000496E6974206A6F62207218
:101C400065636F7665727920696E666F2E205369C1
:101C50007A653A20004D31303620502569205325D1
:101C600069004D31303920532569004D313930201C
:101C700053256900473238205230004D343230202D
:101C8000533000205344206E6F6E20707265736570
:101C90006E74650052697072656E64692073746158
:101CA0006D7061005374616D7061206461205344F4
:101CB000004D656E75207072696E636970616C6548
:101CC0000044617469207374616D70616E746500A5
:101CD000496D706F7374617A696F6E690043616CEE
:101CE000696272617A2E2044656C7461004D656E84
:101CF00075207072696E636970616C650043616D17
:101D00006269612066696C616D656E746F00466C16
:101D10007573736F203200466C7573736F203200D9
:101D2000466C7573736F203200466C7573736F2049
:101D30003100466C7573736F203100466C75737398
:101D40006F203100466C7573736F00466C7573734A
:101D50006F00466C7573736F0056656C6F636974C2
:101D6000612076656E746F6C610056656C6F636997
:101D700074612076656E746F6C610056656C6F637C
:101D80006974612076656E746F6C6100506961746E
:101D9000746F0050696174746F0050696174746F7E
:101DA000005567656C6C6F005567656C6C6F00550E
:101DB00067656C6C6F0056656C6F636974612700B2
:101DC00056656C6F63697461270056656C6F636953
:101DD000746127004D656E75207072696E6369705D
:101DE000616C650024F4D43050C38E20C2A2401729
:101DF000828B7011127A910D816CD90AA861E10869
:101E0000C7586607615143061E4B5D05C145A704CF
:101E10001A411104093D9803713931034036DB0240
:101E200065339102D4305402802E1D02632CEE01E2
:101E3000752AC501B028A001102781018F256401F2
:101E40002B244B01E0223401AC211F018D200D0118
:101E5000801FFC00841EED00971DDF00B81CD2001F
:101E6000E61BC600201BBC00641AB200B219A80011
:101E70000A19A0006A189900D117910040178B0029
:101E8000B516840031167E00B31579003A1573003B
:101E9000C7146F0058146A00EE13660088136300BD
:101EA00025135E00C7125B006C1257001512540018
:101EB000C111510070114F0021114B00D610490083
:101EC0008D1047004610440002104200C00F400031
:101ED000800F3E00420F3C00060F3B00CB0E380047
:101EE000930E37005C0E3500270E3400F30D3200E0
:101EF000C10D3100900D3000600D2E00320D2D000F
:101F0000050D2C00D90C2B00AE0C2900850C2900E6
:101F10005C0C2700350C27000E0C2600E80B240073
:101F2000C40B2400A00B23007D0B23005A0B2100BF
:101F3000390B2100180B2000F80A1F00D90A1E00D7
:101F4000BB0A1E009D0A1D00800A1D00630A1C00BA
:101F5000470A1B002C0A1B00110A1A00F7091A0075
:101F6000DD091900C4091900AB091900920917000D
:101F70007B091800630917004C0916003609160082
:101F8000200916000A091500F5081500E0081400DC
:101F9000CC081400B8081400A4081400900813001A
:101FA0007D0812006B081300580812004608120042
:101FB0003408110023081100120811000108110053
:101FC000F0071000E0071000D0071000C007100055
:101FD000B0070F00A107100091070E0083070F0044
:101FE00074070F0065070E0057070E0049070E0023
:101FF0003B070D002E070E0020070D0013070D00F4
:1020000006070D00F9060C00ED060D00E0060C00B9
:10201000D4060C00C8060C00BC060C00B0060C0070
:10202000A4060B0099060C008D060B0082060B001F
:1020300077060B006C060B0061060A0057060B00C2
:102040004C060A0042060A0038060A002E060A005C
:1020500024060A001A060A001006090007060A00EC
:10206000FD050900F4050900EB050900E20509007A
:10207000D9050900D0050900C7050900BE050900FA
:10208000B5050800AD050800A50509009C05080078
:10209000940508008C050800840508007C050800EC
:1020A000740508006C050700650508005D0507005C
:1020B000560508004E0507004705070040050800C3
:1020C00038050700310507002A050700230507002A
:1020D0001C050600160507000F0507000805060089
:1020E00002050700FB040600F5040700EE040600E5
:1020F000E8040600E2040700DB040600D50406003D
:10210000CF040600C9040600C3040600BD0406008F
:10211000B7040600B1040500AC040600A6040600DE
:10212000A00405009B040600950405009004060029
:102130008A04050085040500800406007A04050071
:1021400075040500700405006B04050066040500B5
:10215000610405005C0405005704050052040500F5
:102160004D04050048040500430405003E04040036
:102170003A04050035040500300404002C04050071
:1021800027040400230405001E0404001A040400AC
:1021900016040500110404000D04040009040500E0
:1021A0000404040000040400FC030400F803040019
:1021B000F4030400F0030400EC030400E80304004B
:1021C000E4030400E0030400DC030400D80304007B
:1021D000D4030400D0030400CC030400C8030300AC
:1021E000C503030024F404D9201BC40C5C0E98041E
:1021F000C4095F0265077101F405F900FB04B3002F
:1022000048048700C10369005803550003034500D3
:10221000BE023A008402310053022A00290225003E
:1022200004022000E4011C00C8011900AF011700DE
:102230009801140084011300710110006101100065
:1022400051010E0043010D0036010B002B010B0064
:1022500020010B00150109000C0109000301080011
:10226000FB000800F3000800EB000700E400060094
:10227000DE000600D8000600D2000600CC000500F3
:10228000C7000500C2000500BD000400B90004003D
:10229000B5000400B1000400AD000400A900040072
:1022A000A5000300A20003009F0004009B000300A0
:1022B00098000300950002009300030090000300C3
:1022C0008D0002008B0003008800020086000200DF
:1022D00084000300810002007F0002007D000200F4
:1022E0007B00020079000200770001007600020006
:1022F0007400020072000100710002006F00020011
:102300006D0001006C0002006A000100690002001B
:102310006700010066000100650001006400020022
:102320006200010061000100600001005F00020026
:102330005D0001005C0001005B0001005A0001002B
:10234000590001005800010057000100560001002B
:10235000550001005400010053000000530001002B
:102360005200010051000100500001004F00010027
:102370004E0000004E0001004D0001004C00010025
:102380004B0000004B0001004A0001004900010021
:10239000480000004800010047000100460000001E
:1023A0004600010045000000450001004400010016
:1023B0004300000043000100420000004200010011
:1023C0004100000041000100400001003F0000000A
:1023D0003F0001003E0000003E0001003D00000003
:1023E0003D0001003C0000003C0000003C000100FA
:1023F0003B0000003B0001003A0000003A000100F1
:1024000039000000390001003800000038000000E9
:1024100038000100370000003700010036000000DE
:1024200036000000360001003500000035000000D5
:1024300035000100340000003400000034000100C9
:1024400033000000330000003300010032000000C0
:1024500032000000320001003100000031000000B5
:1024600031000100300000003000000030000100A9
:102470002F0000002F0000002F0000002F0001009F
:102480002E0000002E0000002E0001002D00000094
:102490002D0000002D0000002D0001002C00000088
:1024A0002C0000002C0000002C0001002B0000007C
:1024B0002B0000002B0000002B0001002A00000070
:1024C0002A0000002A0000002A0001002900000064
:1024D0002900000029000000290000002900010057
:1024E000280000002800000028000000280000004C
:1024F000280001002700000027000000270000003E
:102500002700000027000100260000002600000030
:102510002600000026000000260001002500000023
:102520002500000025000000250000002500000017
:102530002500010024000000240000002400000009
:1025400024000000240001002300000023000000FC
:1025500023000000230000002300000023000000EF
:1025600023000100220000002200000022000000E1
:1025700022000000220000002200010021000000D3
:1025800021000000210000002100000021000000C7
:1025900021000000210001002000000020000000B8
:1025A00020000000200000002000000020000000AB
:1025B00020000000200001001F0000001F0000009C
:1025C0001F0000001F0000001F0000001F0000008F
:1025D0001F0001001E0000001E0000001E00000081
:1025E0001E000000043700001E290000511B0000DF
:1025F0005810000010090000CC0400007802000010
:10260000410100005072657269732E504C41205593
:1026100067656C6C6F005072657269732E504C4127
:102620002050696174746F005072657269736361E0
:102630006C646120504C41004573636900507265C1
:102640007269732E414253205567656C6C6F005060
:1026500072657269732E4142532050696174746FC0
:102660000050726572697363616C6461204142530A
:1026700000457363690050726572697363616C64CD
:1026800061204142530050726572697363616C64EA
:102690006120504C4100526166667265646461005D
:1026A00043616D6269612066696C616D656E746F0E
:1026B000004469736162696C697461204D6F746F65
:1026C0007269004D3834004175746F20486F6D6534
:1026D00000473238004D756F76692041737365008D
:1026E0004D656E75207072696E636970616C65000E
:1026F000426172726120446961676F6E616C65004E
:10270000426172726120446961676F6E616C65003D
:10271000547A00547A005479005479005478005463
:10272000780052616767696F0052616767696F007F
:10273000457A00457A00457900457900457800459D
:102740007800416C74657A7A6100416C74657A7ABC
:1027500061004573636900496E697A69616C697AE1
:102760007A6120454550524F4D00457363690052D0
:10277000697072697374696E6120696D702E0043AF
:102780006172696361206461206D656D6F7269615A
:1027900000496E697A69616C697A7A6120454550B1
:1027A000524F4D0053616C766120696E206D656DEE
:1027B0006F7269610046696C616D656E746F004D82
:1027C0006F76696D656E746F0054656D70657261CA
:1027D0007475726100457363690050726572697344
:1027E0002E41425320636F6E6600507265726973AA
:1027F0002E504C4120636F6E66005049442D4400BA
:102800005049442D44005049442D49005049442D1D
:1028100049005049442D50005049442D5000022099
:1028200046616374000220466163740002204D61BA
:10283000780002204D61780002204D61780002206E
:102840004D696E0002204D696E0002204D696E00D8
:102850004F6666004F6E20004175746F74656D7031
:102860000056656C6F636974612076656E746F6C79
:10287000610056656C6F636974612076656E746F74
:102880006C610056656C6F636974612076656E7467
:102890006F6C610050696174746F00506961747489
:1028A0006F0050696174746F005567656C6C6F00E0
:1028B0005567656C6C6F005567656C6C6F00457390
:1028C00063690053616C766120696E206D656D6F80
:1028D0007269610050696174746F00506961747449
:1028E0006F0050696174746F005567656C6C6F00A0
:1028F0005567656C6C6F005567656C6C6F0056654D
:102900006C6F636974612076656E746F6C610056DC
:10291000656C6F636974612076656E746F6C6100BD
:1029200056656C6F636974612076656E746F6C6157
:102930000054656D7065726174757261007C3C3E17
:102940005E2B3D3F2F5B5D3B2C2A225C000000206C
:10295000002300260029002C002F00320000010077
:10296000000301060109010505050507050808081A
:1029700008020202020A0A08080404040401010110
:102980000101010101030303030303030304070718
:10299000070C0C0C0C0C0C0C0C02020202060606B6
:1029A00006060606060B0B0B0B0B0B0B0B0102109E
:1029B0002020080810204010204080020102010859
:1029C0000402010102040810204080804020100809
:1029D0000402018004020180402010080402010862
:1029E00004020101020408102040800102040810C2
:1029F00020408000000A0B02090C0D0E080703049A
:102A000001000000000000000000000000000000C5
:102A100000000000000000000000000000000012A4
:102A20001110000000000000000000000000000085
:102A300000000000000000000043616D6269612039
:102A400066696C616D656E746F0050726572697352
:102A500063616C6461204142530050726572697316
:102A600063616C646120504C410043616D62696137
:102A70002066696C616D656E746F004D3234004D77
:102A8000323320257300556E6B6E6F776E20636F47
:102A90006D6D616E643A202200496E736572742018
:102AA00066696C616D656E7420616E64207072651C
:102AB000737320627574746F6E20286F72204D31AD
:102AC0003038290A006F70656E206661696C656434
:102AD0002C2046696C653A200057726974696E67EC
:102AE00020746F2066696C653A2000486F74656ECB
:102AF0006420746F6F20636F6C640A0056652D6AE2
:102B000065726B0056652D6A65726B0056652D6A9D
:102B100065726B0056632D6A65726B0056632D6A91
:102B200065726B0056632D6A65726B0056622D6A82
:102B300065726B0056622D6A65726B0056622D6A73
:102B400065726B0056612D6A65726B0056612D6A65
:102B500065726B0056612D6A65726B004D6F766908
:102B60006D656E746F004570617373692F6D6D00D4
:102B70004570617373692F6D6D0043706173736984
:102B80002F6D6D004370617373692F6D6D0042701E
:102B9000617373692F6D6D004270617373692F6D7E
:102BA0006D004170617373692F6D6D0041706173C9
:102BB00073692F6D6D004D6F76696D656E746F0072
:102BC00050617373692F6D6D004A65726B004163CC
:102BD00063656C6572617A696F6E650056656C6FCE
:102BE000636974C3A00045736369004361726963DC
:102BF00061206D6D203200436172696361206D6DEB
:102C0000203200436172696361206D6D20320043A0
:102C10006172696361206D6D203100436172696387
:102C200061206D6D203100436172696361206D6DBB
:102C3000203100436172696361206D6D00436172F0
:102C4000696361206D6D00436172696361206D6D20
:102C50000052696D756F7669206D6D203200526982
:102C60006D756F7669206D6D20320052696D756FDC
:102C70007669206D6D20320052696D756F7669201E
:102C80006D6D20310052696D756F7669206D6D2014
:102C9000310052696D756F7669206D6D203100527B
:102CA000696D756F7669206D6D0052696D756F760F
:102CB00069206D6D0052696D756F7669206D6D00CC
:102CC0004469616D2E2066696C6F20320044696131
:102CD0006D2E2066696C6F2032004469616D2E2074
:102CE00066696C6F2031004469616D2E2066696CE5
:102CF0006F2031004469616D2E2066696C6F00445D
:102D000069616D2E2066696C6F004F6666004F6EBC
:102D100020004520696E206D6D33004573636900A6
:102D2000526573656E643A20006F6B0020746F6F9C
:102D3000206C6F6E6720657874727573696F6E2092
:102D400070726576656E7465640A0020636F6C64EA
:102D500020657874727573696F6E20707265766520
:102D60006E7465640A00496D706F7374617A2E2009
:102D700044656C746100496D702E20616C74657AD5
:102D80007A612044656C7461004D363635204832D6
:102D900036302E30300A4733332050310A4D35302B
:102DA00030004175746F2063616C696272617A6989
:102DB0006F6E65004D36363520483236302E303055
:102DC0000A4D363636205830205930205A300A47BE
:102DD00033332050332054310A4D353030004573A1
:102DE0006369004D756F76692058004D756F76697F
:102DF0002059004D756F7669205A004573747275BD
:102E0000736F726532004573747275736F726531DA
:102E1000004D756F766920646920302E316D6D002C
:102E20004D756F7669206469202020316D6D004DED
:102E3000756F7669206469202031306D6D004D75A5
:102E40006F76692041737365004573747275736F93
:102E50007265004D756F7669205A004D756F766901
:102E60002059004D756F7669205800496E206D6FAE
:102E700076696D656E746F2E2E2E004573747275B3
:102E8000736F726532004573747275736F7265315A
:102E9000004573747275736F7265004175746F20AD
:102EA000486F6D6500473238004D756F7669205A5E
:102EB000005859206C6962657269004D756F7669BA
:102EC0002059004D756F766920580045736369007D
:102ED0006265640A002C2073797374656D207374C5
:102EE0006F7070656421204865617465725F494444
:102EF0003A200045312054454D502046554F524907
:102F000020434F4E54524F4C4C4F00546865726DE5
:102F1000616C2052756E617761790045312052698C
:102F20007363616C642E2046616C6C69746F004839
:102F3000656174696E67206661696C65640045311E
:102F4000204572723A2054454D50204D415353490B
:102F50004D41004572723A2054454D50204D415329
:102F600053494D412050494154544F004D4158540C
:102F7000454D50207472696767657265640045311C
:102F8000204572723A2054454D50204D494E494DCE
:102F900041004572723A2054454D50204D494E49EA
:102FA0004D412050494154544F004D494E54454DD8
:102FB0005020747269676765726564004D3834200B
:102FC000582059205A2045005654726176206D6968
:102FD0006E005654726176206D696E0056547261AF
:102FE00076206D696E00566D696E00566D696E00D3
:102FF000566D696E00566D6178204500566D61789A
:10300000204500566D6178204500566D617820435B
:1030100000566D6178204300566D6178204300565C
:103020006D6178204200566D6178204200566D61D6
:1030300078204200566D6178204100566D617820FD
:103040004100566D61782041004D6F76696D656E67
:10305000746F00416D6178204500416D61782045B5
:1030600000416D6178204300416D6178204300414B
:103070006D6178204200416D6178204200416D61B0
:1030800078204100416D6178204100412D53706FDF
:103090007374616D656E746F00412D53706F73743E
:1030A000616D656E746F00412D7265747261637439
:1030B00000412D7265747261637400416363656CD5
:1030C00000416363656C004D6F76696D656E746F6A
:1030D000004572726F722077726974696E6720742E
:1030E0006F20454550524F4D210A0043616E6E6F6F
:1030F00074206F70656E207375626469722000655C
:1031000063686F3A004572726F723A004861726488
:10311000636F6465642044656661756C74205365F3
:103120007474696E6773204C6F616465640A001083
:1031300027000010270000102700001027000000C3
:10314000002A4300002A4300002A4300008C42006A
:1031500000C8420000C8420000C8420000124348B4
:103160006F6D652066616C6C69746F0054524947DD
:103170004745524544006F70656E003A20007A5F03
:103180006D6178007A5F6D696E00795F6D617800BE
:10319000785F6D6178005265706F7274696E672038
:1031A000656E6473746F70207374617475730A0054
:1031B0002D2D2D2D2D2D2D2D2D2D2D2D2D2D2D2D3F
:1031C0002D2D2D2D2D2D2D2D2D2D2D0A00707269BB
:1031D0006E745F6A6F625F656C61707365643A20DC
:1031E000007364706F733A200073645F66696C6586
:1031F0006E616D653A20003E20003E2000636F6DD9
:103200006D616E64735F696E5F71756575653A2097
:1032100000636D645F71756575655F696E6465787F
:103220005F723A200066616E5370656564733A2080
:10323000007461726765745F74656D706572617446
:103240007572655F6265643A2000746172676574C7
:103250005F74656D70657261747572653A200066A1
:10326000656564726174653A200063757272656E9B
:10327000745F706F736974696F6E3A2000494E56BF
:10328000414C494420444154410A002076616C6914
:10329000645F666F6F743A0076616C69645F68653D
:1032A00061643A002D2D2D2D204A6F6220526563F6
:1032B0006F7665727920496E666F202D2D2D2D0A4F
:1032C00000506F7765722D6C6F73732066696C6543
:1032D000207772697465206661696C65642E0A00E6
:1032E000506F7765722D4C6F7373205265636F76E4
:1032F00065727900536176696E672E2E2E0A004D35
:103300003630303A54726F70706F20667265646444
:103310006F00486F74656E6420746F6F20636F6C0C
:10332000640A0050726F7465637465642050696E3E
:103330000A0046696C616D656E7420757365643A48
:10334000200053746174733A20002C204C6F6E6718
:10335000657374206A6F623A2000546F74616C2048
:1033600074696D653A200053746174733A20002CBF
:10337000204661696C65643A20002C2046696E69BC
:10338000736865643A20005072696E74733A200065
:1033900053746174733A2000000021002400270058
:1033A0002A002D0030003300010100000401070154
:1033B0000A0100002200250028002B002E00310009
:1033C000340002010000050108010B01E200D200F7
:1033D00011241FBECFEFD1E2DEBFCDBF00E00CBF96
:1033E00013E0A0E0B2E0E0E2FEE502E00BBF02C0C5
:1033F00007900D92A436B107D9F729E1A4E6B3E00E
:1034000001C01D92A33EB207E1F719E1C7EED9E171
:1034100000E006C021970109802FFE010F94032BC5
:10342000C63ED10780E00807A9F70F94F9160D945E
:10343000FE2E0C9400002F923F924F925F926F925B
:103440007F928F929F92AF92BF92CF92DF92EF9234
:10345000FF920F931F93CF93DF93CDB7DEB7CF5576
:10346000D1090FB6F894DEBF0FBECDBF21E0209387
:1034700058148091D3148D3409F45BC6843511F44B
:103480000C943D2F873411F00C944A2F2090D114C6
:103490003090D2143BE12316310409F4A9C58CF411
:1034A00054E0251631043CF482E028163104ECF592
:1034B00037FE34C03AC694E02916310409F459C5E0
:1034C00034C6AAE52A16310409F4C2C574F4ECE145
:1034D0002E16310409F4B8C5F1E22F16310409F0B3
:1034E00024C60E94E53F0C944C2F3BE52316310483
:1034F00009F4B2C54CE52416310409F016C675E688
:10350000272E72E0372EE3E9EE2EE5E1FE2EF3E9F9
:10351000CF2EF3E0DF2E00E010E0D7C580916102EE
:1035200081110C94512F0C944C2F809161028823AF
:1035300011F40C944C2F0E942F3982E50E942239FD
:10354000882309F438C10E94A6384B015C0120E0B1
:1035500030E0A9010F94EC23882309F458C180912D
:10356000930390919403A0919503B09196038CA737
:103570009DA7AEA7BFA720919703309198034091D4
:10358000990350919A0328AB39AB4AAB5BAB80915E
:10359000591490915A14A0915B14B0915C148CAFA3
:1035A0009DAFAEAFBFAF20915D1430915E144091DE
:1035B0005F145091601428AF39AF4AAF5BAF9C01E4
:1035C000AD016CA57DA58EA59FA50F94EC2381115F
:1035D0000DC028AD39AD4AAD5BAD68A979A98AA9FE
:1035E0009BA90F94EC23882309F411C111E032E068
:1035F0002316310409F010E020E030E0A901C501F4
:10360000B4010F94EC23881F8827881F181759F0DE
:1036100080E090E0A0E8BFEB28968CAF9DAFAEAF06
:10362000BFAF28970AC020E030E040E85FE328966B
:103630002CAF3DAF4EAF5FAF28972CA53DA54EA553
:103640005FA56CAD7DAD8EAD9FAD0F94132B249611
:103650006CAF7DAF8EAF9FAF249728A939A94AA937
:103660005BA968AD79AD8AAD9BAD0F94132B6B014F
:103670007C0124962CAD3DAD4EAD5FAD2497CA01C3
:10368000B9010F9452242B013C01A7019601C701F7
:10369000B6010F9452249B01AC01C301B2010F94F7
:1036A000142B0F94162E6CAB7DAB8EAB9FAB20E032
:1036B00030E040E05FE30F9452242B013C01A50170
:1036C0009401C501B4010F9452244B015C01A30184
:1036D0009201C301B2010F9452249B01AC01C501B8
:1036E000B4010F94132B0F94162E28962CAD3DADDC
:1036F0004EAD5FAD28970F9452244B015C01C7017A
:10370000B60190582CA93DA94EA95FA90F940E2C83
:10371000A50194010F9452246B017C012CAD3DADA9
:103720004EAD5FAD6CA57DA58EA59FA50F94142B06
:1037300020E030E040E05FE30F9452249B01AC01B5
:10374000C701B6010F94142B2CA53DA54EA55FA56E
:103750000F94132B6B017C0128AD39AD4AAD5BADE5
:1037600068A979A98AA99BA90F94142B20E030E0BD
:1037700040E05FE30F9452242B013C012CA93DA9AA
:103780004EA95FA924966CAD7DAD8EAD9FAD2497FB
:103790000F940E2CA50194010F9452249B01AC01AF
:1037A000C301B2010F94142B28A939A94AA95BA916
:1037B0000F94132B14C089E40E942239882329F026
:1037C0000E94A6386B017C0103C0C12CD12C76016C
:1037D0008AE40E9422398823E9F00E94A6386CAF5F
:1037E0007DAF8EAF9FAF20E030E0A901C701B601E9
:1037F0000F94EC2381111BC020E030E0A9016CADD7
:103800007DAD8EAD9FAD0F94EC23811110C0E5E02E
:10381000F1E39BC320E030E0A901C701B6010F949A
:10382000EC238823A1F31CAE1DAE1EAE1FAED70144
:10383000C601B0588CA79DA7AEA7BFA72CAD3DADC4
:103840004EAD5FAD505828AB39AB4AAB5BAB9C017A
:10385000AD01BC01CD010F9452244B015C0128A99C
:1038600039A94AA95BA9CA01B9010F9452249B0145
:10387000AC01C501B4010F94142B0F94162E64965D
:103880006CAF7DAF8EAF9FAF6497809193039091A3
:103890009403A0919503B091960388AF99AFAAAF16
:1038A000BBAFA7019601BC01CD010F94142B289644
:1038B0006CAF7DAF8EAF9FAF28972091970330916B
:1038C00098034091990350919A0324962CAF3DAFF1
:1038D0004EAF5FAF24972CAD3DAD4EAD5FAD24969E
:1038E0006CAD7DAD8EAD9FAD24970F94142B689673
:1038F0006CAF7DAF8EAF9FAF689780915914909158
:103900005A14A0915B14B0915C142C968CAF9DAFAF
:10391000AEAFBFAF2C9728962CAD3DAD4EAD5FAD91
:103920002897BC01CD010F94132B6B017C012091D2
:103930005D1430915E1440915F1450916014609654
:103940002CAF3DAF4EAF5FAF609768962CAD3DADED
:103950004EAD5FAD689760966CAD7DAD8EAD9FADA1
:1039600060970F94132B4B015C0180919B03909106
:103970009C03A0919D03B0919E036C968CAF9DAF6C
:10398000AEAFBFAF6C979C01AD01609161147091B7
:10399000621480916314909164140F94132B6CAB98
:1039A0007DAB8EAB9FABA70196016CA57DA58EA5C7
:1039B0009FA50F9452242B013C01A501940168A9F5
:1039C00079A98AA99BA90F9452249B01AC01C30138
:1039D000B2010F94142B2B013C01A50194016CA59D
:1039E0007DA58EA59FA50F9452244B015C01A701D4
:1039F000960168A979A98AA99BA90F9452249B01D1
:103A0000AC01C501B4010F94132BA30192010F94D3
:103A1000932B6B017C0120E030E0A9010F94EC2393
:103A200087FF0AC02BED3FE049EC50E4C701B60127
:103A30000F94142B6B017C0192E02916310451F490
:103A40002BED3FE049EC50E4C701B6010F94132B76
:103A50006B017C0120E030E0A901C701B6010F94A1
:103A6000EC23811126C02C962CAD3DAD4EAD5FAD43
:103A70002C9768AD79AD8AAD9BAD0F94EC23811185
:103A800018C060962CAD3DAD4EAD5FAD60972496ED
:103A90006CAD7DAD8EAD9FAD24970F94EC2381115D
:103AA00008C0BBEDCB2EBFE0DB2EB9ECEB2EB0E4B3
:103AB000FB2EA701960164966CAD7DAD8EAD9FADDA
:103AC00064970F9452244B015C0120E030E0A9017F
:103AD0006CA97DA98EA99FA90F94EC238823D9F006
:103AE000A5019401C501B4010F9452244B015C015E
:103AF0002CA93DA94EA95FA9CA01B9010F9452246E
:103B00009B01AC01C501B4010F94142B0F94162E28
:103B10004B015C010DC020E030E0A901C501B401FA
:103B20000F94C82D87FF04C0B7FAB094B7F8B094CB
:103B30002FE632E143E85AE3C501B4010F94EC23C8
:103B400087FF02C00C944C2FC501B4010F94B62C12
:103B50000F94872C22967FAF6EAF2297DB01AB2BA1
:103B600031F4E1E0F0E02296FFAFEEAF2297409013
:103B70009F035090A0036090A1037090A20322962F
:103B80002EAD3FAD2297B90180E090E00F94F12374
:103B90004B015C019B01AC01C701B6010F940E2CD7
:103BA00068AF79AF8AAF9BAFA50194016CA97DA9DD
:103BB0008EA99FA90F940E2C64966CAF7DAF8EAF2B
:103BC0009FAF6497A3019201609165147091661490
:103BD00080916714909168140F94132BA5019401A0
:103BE0000F940E2CA0966CAF7DAF8EAF9FAFA097B9
:103BF00028AD39AD4AAD5BADCA01B9010F9452246D
:103C000020E030E040E05FE30F9452249B01AC01E0
:103C100060E070E080E89FE30F94132B2C966CAF6C
:103C20007DAF8EAF9FAF2C976C968CAD9DADAEAD3A
:103C3000BFAD6C9789879A87AB87BC874D865E86B8
:103C40006F86788A6091240270912502072E000CFD
:103C5000880B990B0F94F3232091040230910502F5
:103C600040910602509107020F9452242AE037ED4A
:103C700043E25CE30F94522468A779A78AA79BA725
:103C80000F942A159B01AC0128533F4F4F4F5F4FB4
:103C900060962CAF3DAF4EAF5FAF60974CA45DA474
:103CA0006EA47FA422242394312C39E13CAB2296CC
:103CB0004EAD5FAD22974215530509F41EC10E9417
:103CC00061F50F942A15DC01CB0160962CAD3DAD5A
:103CD0004EAD5FAD6097821B930BA40BB50BB7FD88
:103CE00011C00F942A159B01AC0128533F4F4F4F31
:103CF0005F4F60962CAF3DAF4EAF5FAF609780E0F7
:103D00000E941B8F3CA931503CAB332309F441C0C6
:103D100028A939A94AA95BA92C966CAD7DAD8EADB9
:103D20009FAD2C970F9452246B017C019201A3014B
:103D300068AD79AD8AAD9BAD0F945224A701960171
:103D40000F94142B7B018C019201A3012C966CAD76
:103D50007DAD8EAD9FAD2C970F9452244B015C012D
:103D600028A939A94AA95BA968AD79AD8AAD9BADEF
:103D70000F9452249B01AC01C501B4010F94132B85
:103D80002B013C01C701D80188AB99ABAAABBBABF7
:103D90004DC0B10180E090E00F94F12328AD39AD22
:103DA0004AAD5BAD0F9452244B015C010F94092C7A
:103DB0006B017C01C501B4010F94082E4B015C011D
:103DC000A70196016CA57DA58EA59FA50F945224F1
:103DD0002B013C012CAD3DAD4EAD5FADC501B40135
:103DE0000F945224A30192010F94142B2B013C0138
:103DF000A50194016CA57DA58EA59FA50F945224C5
:103E00004B015C012CAD3DAD4EAD5FADC701B601C0
:103E10000F9452249B01AC01C501B4010F94132BE4
:103E200068AB79AB8AAB9BAB49E14CAB9201A30188
:103E300028966CAD7DAD8EAD9FAD28970F94142B59
:103E400069837A838B839C8328A939A94AA95BA9B2
:103E500068966CAD7DAD8EAD9FAD68970F94142BB9
:103E60006D837E838F83988764962CAD3DAD4EAD78
:103E70005FAD649769857A858B859C850F94142B3B
:103E800069877A878B879C87A0962CAD3DAD4EAD18
:103E90005FADA0976D857E858F8598890F94142BD3
:103EA0006D877E878F87988B80915A02882321F0B7
:103EB000CE0101960E942E8AE0907E1418A219A2CB
:103EC0001AA21BA2CE0101960E94C5E3CE018096E4
:103ED0006C018E01085D1F4F9E01235F3F4F4BEA2F
:103EE00053E067EA73E083EA93E00E94CE7488238C
:103EF00021F09FEF291A390ADACEE0907E141CA235
:103F00001DA21EA21FA289E594E10E94C5E3DE0165
:103F100094966D018E01085D1F4F25E634E14BEA52
:103F200053E067EA73E083EA93E00E94CE7480E195
:103F3000E9E5F4E1A3E9B3E001900D928A95E1F798
:103F40000C944C2F0E94383DF80184918F010F5F33
:103F50001F4F8111F7CFEFEFF4E084918F010F5FD6
:103F60001F4F882311F40C944C2F0E94383DF80108
:103F7000F4CF80E50E942239882329F00E9462381C
:103F80006B017C0103C0C12CD12C760183E50E941A
:103F90002239882361F00E94A63820E030E04AE709
:103FA00054E40F9452240F94872C6B017C010E94DF
:103FB000768280913516811105C060E085E195E03B
:103FC0000E9401700F942A15C60ED71EE81EF91E16
:103FD0000F942A15DC01CB018C199D09AE09BF098C
:103FE000B7FD02C00C944C2F80E00E941B8FF0CFD5
:103FF0000E94F85881110C944C2F19821A821B824E
:104000001C8280E090E0AEEBB2E48D839E83AF83B0
:10401000B88780E090E0A6E6B3E489879A87AB870B
:10402000BC8780E50E942239882319F00E947238EB
:1040300001C060E068A3BE016F5F7F4FCE01809634
:104040000F948B090C944C2F0E94078A0C944C2FD0
:10405000109268030C944C2F209368030C944C2FFF
:104060000E94A6382B013C01133049F0D7012D9155
:104070003D914D915C910F94132B2B013C01F60166
:104080002081318142815381C301B2010F94132BEE
:104090004B015C012DEB37E346E855EB0F94C82D3F
:1040A00087FD1BC02DEB37E346E855E3C501B4019E
:1040B0000F94EC2318168CF01F5FF4E0EF0EF11C48
:1040C00024E0C20ED11C143031F1F10181911F01A5
:1040D0000E942239882381F3C3CF133051F44092D8
:1040E0009F035092A0036092A1037092A20301E08B
:1040F000E3CFA5019401D7016D917D918D919C91A4
:104100000F94142BF7016083718382839383812F33
:104110000E944736D1CF002321F08FE993E00E941F
:1041200095580E9467AA0C944C2F0E94A5D50C9418
:104130004C2F8091D1149091D2148237910509F4BB
:1041400086C70CF0E4C08B34910509F4A0C40CF0D0
:104150006EC08831910509F4C3C2E4F5823191053E
:1041600009F4A6C6E4F497FF02C00C943A2F8230FB
:1041700091050CF4E4C1419711F00C943A2F60E0E2
:1041800082E395E00E9401705F988A98809108010F
:10419000817080930601129847980C944C2F8531BA
:1041A000910509F482C23CF4449711F00C943A2F23
:1041B000E2E5F5E03CC28631910509F47AC2479701
:1041C00011F00C943A2F0E94F25EE091CF14F0911E
:1041D000D01479C28D31910511F40C944C2FC4F494
:1041E0008A31910509F4E6C20CF4D6C28B319105EF
:1041F00009F4EEC24C9711F00C943A2F40E060E0C5
:104200008091CF149091D0140E94DF5C0C944C2FBD
:104210008F31910509F4DDC30CF472C3803291052E
:1042200009F488C38A9709F4FEC30C943A2F8836A0
:10423000910509F43CC40CF042C08235910509F4A3
:104240002EC624F58D34910509F429C40CF423C439
:104250008E34910509F427C48135910511F00C9431
:104260003A2F0E9494F20E94B48210924914109244
:10427000481468EE73E080E090E00E943B6F60E0DD
:104280008AEF95E00E9401700C944C2F84359105C3
:1042900009F40EC60CF407C68535910509F43DC630
:1042A0008C35910511F00C943A2F95E6C92E92E0C9
:1042B000D92E23E8E22E23E0F22E10E048C68D36F8
:1042C000910509F403C59CF48A36910509F433C5B8
:1042D0000CF4BAC48B36910509F44BC58C369105A4
:1042E00011F00C943A2F10923F020C944C2F8F3601
:1042F000910509F421C40CF40CC48037910509F42C
:104300006EC48137910509F472C40C943A2F823E31
:10431000910511F40C94722C0CF07AC08B39910534
:1043200009F4ADC4CCF58837910509F482C7D4F4FB
:104330008537910509F423C744F48337910511F0BB
:104340000C943A2FE2EFF6E0BFC68637910509F4E8
:1043500023C78737910511F00C943A2F0F947D0AEB
:104360000C944C2F8D37910509F415C55CF48937F1
:10437000910511F00C943A2F10920D0910920C092E
:104380000C944C2F8C38910509F4A4C48139910503
:1043900009F454C70C943A2F8C3C910511F40C94F9
:1043A000372AF4F4883C910511F40C94962934F4DE
:1043B0008E3B910509F4AAC40C943A2F893C9105CF
:1043C00011F40C94022A8B3C910511F00C943A2FB5
:1043D000E5E6EE2EE2E0FE2E05E016E10C94282A3A
:1043E000833D910509F4A7C03CF48D3C910511F47F
:1043F0000C94AC2A0C943A2F8C3D910511F40C943A
:10440000F62B8D3D910511F40C94032C0C943A2F4E
:10441000863F31E0930711F40C94D12D0CF041C08C
:10442000833651E0950709F482C0ECF48D32B1E097
:104430009B0711F40C94C42C3CF48C32914011F481
:104440000C949B2C0C943A2F8E3221E0920711F49D
:104450000C94642D8F32914011F00C943A2F0E94ED
:10446000E1A50C944C2F8A3941E0940709F4BBC3B1
:104470004CF48039914011F00C943A2F0E947682CE
:104480000C944C2F843FB1E09B0711F40C94CE2D7B
:10449000853F914011F00C943A2F0F945C0C0C94D2
:1044A0004C2F8939F2E09F0711F40C948D2EDCF427
:1044B0008C3032E0930711F40C94F82D3CF4883FD3
:1044C000914011F40C94D42D0C943A2F8835A2E02D
:1044D0009A0711F40C94012E8B35924011F40C9430
:1044E000042E0C943A2F8B38E3E09E0711F40C94C1
:1044F0004C2F8CF48A39924011F00C943A2F85E6B7
:10450000E82E82E0F82E01EF13E19DEFC92E93E132
:10451000D92E0C941D2F803A33E0930709F44CC236
:10452000873E934011F40C94252F0C943A2FE5E02C
:10453000F1E30C94BB2DEFEFF0E30C94172BA0905C
:10454000CF14B090D01480E50E942239882359F00E
:104550000E9462386B017C0111E0672B682B692B8C
:1045600031F410E004C010E0C12CD12C760183E5B9
:104570000E942239882311F40C94562F0E94A638E9
:1045800020E030E04AE754E40F9452240F94872C43
:104590006B017C0111110BC0672B682B692B39F45F
:1045A000A114B10421F0D5018C91811102C010E059
:1045B00001C011E00E947682112329F061E0C5015B
:1045C0000E94467005C060E084E295E00E940170A0
:1045D00083E08093581481E080935714C114D10470
:1045E000E104F104B1F00F942A15C60ED71EE81E9F
:1045F000F91E0F942A15DC01CB018C199D09AE0917
:10460000BF09B7FF0EC08091571481110C945B2F26
:1046100008C080915714882321F080E00E941B8FEE
:10462000F8CF0E9444B3109257140C944C2F8491ED
:104630008F010F5F1F4F882321F00E94383DF80142
:10464000F6CF1092981982E097E10E94D3CD8BE1CA
:10465000E2E0F7E1DE01159601900D928A95E1F70F
:1046600080910017909101179C838B8385E293E0E2
:104670009A83898340E050E0BE016F5F7F4F80E006
:1046800090E00F94A105CE0101960E94B98BE3E45E
:10469000F5E084918F010F5F1F4F882311F40C9474
:1046A0004C2F0E94383DF801F4CF0E94DD5A0C9443
:1046B0004C2F1092AA161092AB160C944C2F8032ED
:1046C00009F41082319680818111F9CF40E061E0D8
:1046D0008091CF149091D0140E94DF5C0C944C2FE9
:1046E00080E090E0A0EFB1E489839A83AB83BC8340
:1046F00018A219A21AA21BA21CA21DA21EA21FA2CE
:104700008091EE07882359F020E0AE014F5F5F4FA4
:10471000BE01605E7F4FCE0184960E9416D483E571
:104720000E942239882381F00E947238AB01BC01BB
:104730004093941950939519609396197093971913
:1047400084EC98E10F9443028091AB16882319F012
:1047500081E08093AA1684E50E9422398823B1F073
:104760000E9472386B017C010E9480F8C092B515DE
:10477000D092B615E092B715F092B815CD28CE2894
:10478000CF2831F081E08093970A02C00E9430BEAA
:104790000E9444B30C944C2F1092AA160E949BF8CE
:1047A00083E695E090934B1480934A140E94683DF1
:1047B0000C944C2F8091AB16882311F40C944C2F41
:1047C00083E50E94223981110C94602F0C944C2FA8
:1047D00083E40E94D938882309F450C0E5E9F5E064
:1047E00084918F010F5F1F4F882321F00E94383D75
:1047F000F801F6CF8091C718811103C0E8E6F5E013
:1048000012C0BE016F5F7F4F84EC98E10E949ACC8A
:104810008E010F5F1F4FF80181918F01882349F1AD
:104820000E94383DF8CF84918F010F5F1F4F88237E
:1048300001F10E94383DF801F6CF61EBC62E65E02C
:10484000D62EE12CF12C20E08091821490E00E2CE9
:1048500002C0959587950A94E2F780FD9DC13FEFD0
:10486000E31AF30A42E0C40ED11C55E0E516F10448
:1048700059F78AE00E94383D0C944C2F8091AB167A
:10488000882339F08091AA16882319F0E2E7F5E031
:1048900003C0E4E8F5E028C084918F010F5F1F4F4B
:1048A000882321F00E94383DF801F6CF60919419D9
:1048B0007091951980919619909197194AE00E94EC
:1048C000C13D8FE20E94383D60919019709191191D
:1048D00080919219909193194AE00E94C13D8AE01B
:1048E0000E94383D0C944C2F84918F010F5F1F4F15
:1048F000882311F40C944C2F0E94383DF801F4CF1A
:104900008091AB16882311F40C944C2F84EC98E121
:104910000F94100284EC98E10E9475CC1092A916B5
:104920001092A8168091CF149091D0140E945E5ED0
:104930000C944C2F8091AA1681110E94768280914E
:10494000AB16882311F40C944C2F80E50E94223979
:10495000882319F00E94963803C080E50E94D93858
:10496000182F482F61E08091CF149091D0140E94AD
:10497000DF5C83E50E942239882381F00E9472382F
:10498000AB01BC014093941950939519609396190B
:104990007093971984EC98E10F9443028091AB16C1
:1049A000882319F081E08093AA1611110C944C2FE2
:1049B0000E9430BE0C944C2F8091CF149091D01453
:1049C00021E02093A91640E060E00E94DF5C0C9497
:1049D0004C2F0E944CF868A379A38AA39BA3BE0125
:1049E0006F5F7F4FCE0180960E94DF3960E0CE017D
:1049F00001960E944670EFEFF0E384918F010F5F04
:104A00001F4F882321F00E94383DF801F6CFBE01E8
:104A10006F5F7F4F84EA95E00E9415BE8AE00E9496
:104A2000383D0C944C2F83E50E942239882311F4E1
:104A30000C944C2F0E948238E82E80E50E94223987
:104A4000882339F00E948238182F87FF03C00C9406
:104A50004C2F1DE089E40E942239882341F00E94F6
:104A6000963881110C94FD30E7E3F8E00BC089E43F
:104A70000E94D938F6CF319628E0EA36F20711F4D1
:104A80000C94FD3084911813F6CF0C94D1300E9411
:104A900030BE0C944C2F0E949BF80C944C2F0E941B
:104AA00077BE0C944C2F0F94F50F0C944C2F88E686
:104AB00090E00E942E3E81110C944C2F8091821424
:104AC00083FF02C00C944C2F9091C70880917E14F4
:104AD00098130C944C2F83E50E9422398823A9F067
:104AE0000E94A6380F94802CCB010E948E6F0E94EA
:104AF000A63820E030E040EA52E40F94EC23181688
:104B000024F00E9477BE0E9444B30F946C0E0C9464
:104B10004C2F8EE40E942239882311F40C944C2FE0
:104B20000E94723860933116709332168093331658
:104B3000909334160C944C2F83E50E94D938882327
:104B400059F083E50E942239882319F00E948238A7
:104B500001C080E080938214EFEFF0E384918F0135
:104B60000F5F1F4F811103C0EFEBF5E004C00E94FF
:104B7000383DF801F3CF84918F010F5F1F4F8823D9
:104B800021F00E94383DF801F6CF80918214811106
:104B900054CEEBEBF5E018C0BB24B394B20E222345
:104BA00019F08CE20E94383DF60185919491FC0148
:104BB00084918F010F5F1F4F882321F00E94383DA1
:104BC000F801F6CF2B2D4BCE84918F010F5F1F4F35
:104BD000882309F44ECE0E94383DF801F5CF86ECCB
:104BE00095E00E94DA8B0E94A8A50C944C2F83E5D7
:104BF0000E942239811103C0EFEFF0E30DC00E9443
:104C000082388D3320F480930D020C944C2F8CE36A
:104C100080930D020C944C2F84918F010F5F1F4FD6
:104C2000882321F00E94383DF801F6CF40910D0213
:104C300050E060E070E08FEC95E00E94C2BD8AE039
:104C40000E94383D0C944C2F89E690E00E942E3E45
:104C5000811111C0E6EDF5E084918F010F5F1F4FC8
:104C6000882321F00E94383DF801F6CF0E94ECA283
:104C70008AE00E94383D109258140C94123183E55A
:104C80000E942239882311F40C944C2F0E94823800
:104C9000182F8D3308F01CE3109332080F942A1557
:104CA0006B017C01212F30E0A8EEB3E00F94A12A24
:104CB000C60ED71EE81EF91EC0922E08D0922F08ED
:104CC000E0923008F09231080C944C2F0E9431ABE6
:104CD0000C944C2F8091821483FF02C00C944C2FB3
:104CE00083E50E942239882311F40C944C2F0E94F2
:104CF000A6380F94802C6738710514F067E870E0CF
:104D000070934714609346140C944C2F8091821436
:104D100083FF02C00C944C2F83E50E94223988AB9C
:104D200081110C94712F82E50E94223981110C941B
:104D3000712F0C944C2F80E50E942239811106C0FE
:104D400083E50E942239882361F006C00E948238E0
:104D500081110C944C2FF4CF0E9472386F3F710573
:104D600010F06FEF70E070934914609348140C9446
:104D70004C2F80E50E942239811106C010924914FF
:104D8000109248140C944C2F0E947238672B11F02B
:104D90000C944C2FF3CF8CE40E94D938882381F0F7
:104DA0000E94A6386B017C0120E030E0A9010F943D
:104DB000C82D87FF0BC0F7FAF094F7F8F09406C0FF
:104DC000C12CD12C30E8E32E30E4F32EF7FAF09426
:104DD000F7F8F094CCA2DDA2EEA2FFA219821A820B
:104DE0001B821C8280E090E0AEEBB2E48D839E8358
:104DF000AF83B88780E090E0A6E6B3E489879A871E
:104E0000AB87BC8788E50E942239882379F088E542
:104E10000E942239882319F00E94A63803C060E05E
:104E200070E0CB0169837A838B839C8389E50E9440
:104E30002239882379F089E50E942239882319F0E4
:104E40000E94A63803C060E070E0CB016D837E83D2
:104E50008F8398878AE50E942239882379F08AE532
:104E60000E942239882319F00E94A63803C060E00E
:104E700070E0CB0169877A878B879C8718A219A27B
:104E80001AA21BA220E0AE01405E5F4FBE016F5F21
:104E90007F4FCE0184960F94F3110C944C2F1092F7
:104EA00067030C944C2F81E0809367030C944C2F84
:104EB00083E50E9422398823A1F00E94A63820E0D1
:104EC00030E04AE754E40F9452240F94872C609307
:104ED0000E0270930F0280931002909311020C94B3
:104EE0004C2F88E50E94D93881110C94A03089E5B7
:104EF0000E94D93881110C94A0308AE50E94D938DB
:104F000081110C94A03085E40E94D93881110C9451
:104F1000A0300E94B4820C944C2F83E50E94D938B3
:104F2000882311F40C944C2F0E94A63820E030E026
:104F30004AE754E40F9452240F94872C60932A0874
:104F400070932B0880932C0890932D08A5C7F60129
:104F500081916F010E94D938882309F46EC0133003
:104F600009F063C00E94A6384B015C0120E030E0EC
:104F700040EA51E40F94EC2387FF4EC0A501940151
:104F800060918F03709190038091910390919203AF
:104F90000F940E2C2B013C019B01AC0160919414E9
:104FA0007091951480919614909197140F945224B7
:104FB000609394147093951480939614909397141F
:104FC000A30192016091111670911216809113162F
:104FD000909114160F945224609311167093121628
:104FE00080931316909314166091BB197091BC199D
:104FF0008091BD199091BE190F94F123A3019201E4
:105000000F9452240F94872C6093BB197093BC1992
:105010008093BD199093BE1980928F039092900354
:10502000A0929103B092920308C00E94A638D701C3
:105030006D937D938D939C9313971F5FB4E0EB0E5C
:10504000F11C143009F083CF0F94F70E25C70E948E
:10505000768283E50E942239882309F462C80E947F
:1050600072386230710509F05CC80E9488E08BE5F7
:105070000E94383D609156157091571580915815D2
:105080009091591542E00E948C3E40915A155091E2
:105090005B1560915C1570915D1580E196E00E9452
:1050A000DFBD40915E1550915F1560916015709164
:1050B00061158DE096E00E94DFBD8DE50E94383DD0
:1050C0008AE00E94383DE8C684918F010F5F1F4F30
:1050D000882321F00E94383DF801F6CF60E082EE8F
:1050E00096E00E9430AA61E08BED96E00E9430AA23
:1050F00061E080ED96E00E9430AA61E080EC96E0ED
:105100000E9430AA60E087EB96E00E9430AA61E03E
:105110008DEA96E00E9430AA60E083EA96E00E9461
:1051200030AA60E08BE996E00E9430AA60E08DE84A
:1051300096E00E9430AA60E08FE796E00E9430AAD5
:1051400060E080E796E00E9430AA60E082E696E0A8
:105150000E9430AA60E08CE496E00E9430AA60E0F1
:105160008BE396E00E9430AA60E086E296E00E941F
:1051700030AA60E083E196E00E9430AA8DC680915B
:10518000CF149091D014FC012081222309F400CB8C
:1051900060E00E94467080C60091CF141091D01438
:1051A00083E0D12C40E08150E9F0D8019C91292F77
:1051B0002B7F2134C1F711962C912133A1F7913423
:1051C00021F0953421F441E002C0DD24D39498010C
:1051D0002E5F3F4F89012F5F3F4FF8019081903242
:1051E000C9F3E1CF442369F0EFEFF0E384917F014D
:1051F0002FEFE21AF20A882321F00E94383DF701CE
:10520000F5CFDD2069F0EBEBF7E084917F013FEF14
:10521000E31AF30A882321F00E94383DF701F5CF05
:10522000D8018D918D01882309F423CB0E94383D4C
:10523000F7CF20930D0920930C092EC683E50E9419
:105240002239882319F00E94723802C060E070E0B1
:105250008B01112702301105D4F0E5E0F1E38491D0
:105260008F010F5F1F4F811103C0EFEBF7E004C008
:105270000E94383DF801F3CF84918F010F5F1F4FDB
:10528000882309F409C60E94383DF801F5CF88E467
:105290000E9422398823A9F00E947238603A710571
:1052A0003CF06530B1E07B072CF064E071E002C0B7
:1052B00060EA70E0F801EE0FFF1FEE5EFB4E7183B7
:1052C000608386E40E9422398823A9F00E94723804
:1052D000F801EE0FFF1FEA5EFB4E718360836F3FA4
:1052E000710519F014F06FEF70E077FF02C060E015
:1052F00070E07183608382E40E942239882309F47C
:10530000CBC50E9472386530710534F0683871057C
:105310002CF067E870E002C065E070E0000F111F3C
:10532000F801E25FFB4E71836083B6C588EC90E0C4
:105330000E942E3E8111B0C584E40E94D938882392
:1053400009F45DC00E94A6386B017C0111E020E0E9
:1053500030E0A9010F94EC23811101C010E01093FB
:10536000B01420E030E0A901C701B6010F94EC238E
:10537000882309F444C00E94A638E091C70824E0BD
:10538000E29FF0011124E855FB4E60837183828314
:10539000938320E030E0A9016091A8147091A914D2
:1053A0008091AA149091AB140F94EC2381110CC03E
:1053B00080E090E0A0EEBFE38093A8149093A9143E
:1053C000A093AA14B093AB1420E030E0A90160913F
:1053D000AC147091AD148091AE149091AF140F94F1
:1053E000EC2381110CC080E090E0A0EEBFE380933D
:1053F000AC149093AD14A093AE14B093AF140E946C
:105400004D744AC5F5E6EF2EF2E0FF2E05E116E1F8
:10541000D7018D917D010E94D938882349F00E94DF
:10542000A6380F94872CF80160837183828393835D
:105430000C5F1F4FF6E105321F0751F70F949C0ECA
:105440002BC50C5F1F4FF6E105311F0709F424C57A
:10545000D7018D917D010E94D938882391F30E9454
:10546000A638F8016083718382839383EACF83E552
:105470000E9422398823A1F00E94A6386093291641
:1054800070932A1680932B1690932C1660932516F2
:1054900070932616809327169093281610E001C06B
:1054A00011E080E50E942239882359F00E94A63835
:1054B0006093291670932A1680932B1690932C16BE
:1054C00010E082E50E942239882359F00E94A63814
:1054D00060935314709354148093551490935614FE
:1054E00010E084E50E942239882359F00E94A638F2
:1054F000609325167093261680932716909328168E
:10550000CBC4112309F4C8C44091291650912A161E
:1055100060912B1670912C1687EE97E00E94DFBDEC
:105520004091531450915414609155147091561435
:1055300084EE97E00E94DFBD40912516509126161B
:10554000609127167091281681EE97E00E94DFBDCA
:105550008AE00E94383DA0C481E50E94D9388823A2
:1055600051F00E9462386093A6197093A719809336
:10557000A8199093A91983E50E94D938882351F07E
:105580000E94A6386093011670930216809303164A
:105590009093041684E50E94D938882351F00E9424
:1055A000A6386093FD157093FE158093FF159093B8
:1055B000001688E50E94D938882351F00E94A63849
:1055C000609388147093891480938A1490938B1439
:1055D00089E50E94D938882351F00E94A63860934B
:1055E0008C1470938D1480938E1490938F148AE58D
:1055F0000E94D938882351F00E94A63860939014F5
:1056000070939114809392149093931485E40E9464
:10561000D938882309F440C40E94A63860939414B2
:1056200070939514809396149093971435C4849135
:105630008F010F5F1F4F882321F00E94383DF80132
:10564000F6CF83E50E94D938882321F00E9496384E
:1056500080935A02EFE1F8E084918F010F5F1F4FB2
:10566000882321F00E94383DF801F6CF80915A023C
:10567000882319F0E7E1F8E002C0EBE1F8E084915B
:105680008F010F5F1F4F811103C0EFE0F8E004C0EE
:105690000E94383DF801F3CF84918F010F5F1F4FB7
:1056A000882321F00E94383DF801F6CF2091931510
:1056B00030919415409195155091961560914E0238
:1056C00070914F0280915002909151020F94142BCF
:1056D000AB01BC018DE098E00E94DFBD20919715E1
:1056E000309198154091991550919A1560915202F8
:1056F0007091530280915402909155020F94142B93
:10570000AB01BC018AE098E00E94DFBD20919B15AF
:1057100030919C1540919D1550919E1560915602B7
:105720007091570280915802909159020F94142B56
:10573000AB01BC0187E098E00E94DFBDEFEFF7E02E
:1057400084918F010F5F1F4F882321F00E94383D05
:10575000F801F6CF2091931530919415409195154D
:1057600050919615609142027091430280914402DB
:10577000909145020F94142BAB01BC018DEF97E083
:105780000E94DFBD20919715309198154091991591
:1057900050919A156091460270914702809148029B
:1057A000909149020F94142BAB01BC018AEF97E052
:1057B0000E94DFBD20919B1530919C1540919D1555
:1057C00050919E1560914A0270914B0280914C025B
:1057D00090914D020F94142BAB01BC0187EF97E021
:1057E0000E94DFBD8AE00E94383D56C383E50E94D7
:1057F0002239882309F450C30E947238709325021D
:105800006093240249C38DED90E00E942E3E8111E9
:1058100043C383E50E942239811103C0EFEFF0E317
:105820003BC00091C70810E00E947238000F111FA2
:10583000F801E05EFD4F718360838091C70890E0BE
:105840008C01000F111F000F111F9801285E3D4FA2
:105850007901880F991FFC01E05EFD4F6081718125
:10586000072E000C880B990B0F94F3232AE037EDD9
:1058700043E25CE30F945224F801E754F14F208196
:105880003181428153810F945224D7016D937D93CE
:105890008D939C93139700C384918F010F5F1F4FCB
:1058A000882321F00E94383DF801F6CF85E40E945C
:1058B000383D8091C708805D0E94383DE091C7085F
:1058C000F0E0EE0FFF1FE05EFD4F608171818FE21F
:1058D00098E00E94FCBD85E20E94383D8AE00E946B
:1058E000383DDAC280E50E94D938882309F4D4C251
:1058F0000E9472386B017C0183E50E942239882363
:1059000021F00E9472388B0102C00FEF1FEFC80117
:105910000196039708F0C0C2D7FCBEC28C2DE7E306
:10592000F8E09491891709F43CC43196B8E0EA365E
:10593000FB07B9F739C483E50E942239882319F09F
:105940000E94723802C064E071E079A368A380E528
:105950000E942239882339F00E9472386938E3E1C5
:105960007E0730F402C068EE73E07A83698304C076
:1059700088E893E19A838983BE01605E7F4FCE0100
:1059800001960E94535888C285E40E9422398111F1
:1059900010C080E50E94D938882391F00E94A63873
:1059A0006093011470930214809303149093041471
:1059B00007C00E948238882361F3E5E0F1E371C0FB
:1059C00089E40E94D938882381F00E94A6382CEA05
:1059D00035EC47E25EE30F94522460930914709310
:1059E0000A1480930B1490930C1484E40E94D93809
:1059F000882381F00E94A6382CEA35EC47E25EE36A
:105A00000F940E2C60930514709306148093071462
:105A100090930814EFEFF0E384918F010F5F1F4F15
:105A2000882321F00E94383DF801F6CF40910114FF
:105A300050910214609103147091041482E798E06D
:105A40000E94DFBD2CEA35EC47E25EE36091091469
:105A500070910A1480910B1490910C140F940E2CD9
:105A6000AB01BC018EE698E00E94DFBD2CEA35EC6C
:105A700047E25EE36091051470910614809107146B
:105A8000909108140F945224AB01BC018AE698E06F
:105A90000E94DFBD8AE00E94383DFEC10E94383D71
:105AA000F80184918F010F5F1F4F8111F7CFE6E757
:105AB000F8E084918F010F5F1F4F882309F4ECC138
:105AC0000E94383DF801F5CF83E50E94D938182FA0
:105AD000882371F00E94A6380F94802C70934102A5
