:100000000C9432180C9463180C9463180C946318B5
:100010000C9463180C9463180C9463180C94631874
:100020000C9463180C9463180C9463180C94631864
:100030000C9463180C9463180C9463180C94631854
:100040000C9463180C941E670C9463180C9463183A
:100050000C9463180C9463180C94F7B60C9447CC6A
:100060000C9463180C946A3E0C9463180C946318F7
:100070000C9463180C9463180C9463180C94631814
:100080000C9463180C9463180C9463180C94631804
:100090000C9463180C9463180C9463180C946318F4
:1000A0000C9463180C9463180C9463180C946318E4
:1000B0000C9463180C9463180C9463180C946318D4
:1000C0000C9463180C9463180C9463180C946318C4
:1000D0000C9463180C9463180C9463180C946318B4
:1000E0000C94631851BC54BC43BC47BC4DBC8BBC86
:1000F00058BC5CBC62BC66BC6ABC70BC74BC78BCDE
:100100008BBC7EBC82BC86BCCCBCB2BCB5BCB8BC13
:10011000BBBCC7BCBEBCD8BCC1BCC4BC17C21CC223
:1001200021C22BC235C2AEC23FC247C24FC259C262
:1001300063C26DC27CC286C2AEC290C29AC2A4C261
:10014000084AD73B3BCE016E84BCBFFDC12F3D6C3E
:1001500074319ABD56833DDA3D00C77F11BED9E4A4
:10016000BB4C3E916BAAAABE000000803F05A84C84
:10017000CDB2D44EB93836A9020C50B99186880850
:100180003CA6AAAA2ABE000000803F000C9468701A
:100190000C945AAC0C94E7CB0C9443900C94DC2F49
:1001A0000C945CBC0C942BC20C941FF20C94B2BC4B
:1001B0000C94DB2F0C94085A0D94290A0C94FCD94A
:1001C0000C9416AD0C947CC20C9471A60C9447F25E
:1001D0000C949EB50C9436A70C944DBC0C9459C24B
:1001E0000C9466BC0C94FCAA0C94C1BC0C94B5BCD9
:1001F0000C9421C20C943EAA0C941FA40C94C0A889
:100200000C9443BC0C943FC20C944DF20C9485F4B6
:100210000C9458BC0C94C4BC0C9486BC0C9474BC58
:100220000C9427D50C9470BC0C945FEE0C94E08D6C
:100230000C94FBA70C9480CB0C9451BC0C94B2D5BD
:100240000C941D910C947BF40C9413AD0C9429F236
:100250000C9453F20C948FF20C9400560C9414EFFF
:100260000C94D2790C94C5B10C945CD70C9425D81D
:100270000C94CCBC0C9424F20C94CBCB0C9463C2A5
:100280000C9482BC0C94FBAB0C94B28D0C941D7D31
:100290000D948F0F0C9447C20C94AAD60C94F0AC1A
:1002A0000C9486C20C944FC20C9488300C948258E3
:1002B0000C948AFA0C94B5CB0C94BBBC0C949DAAFC
:1002C0000C941CC20C94F9D90C948BBC0C945A92CB
:1002D0000C949AC20C9454BC0C9420AF0C94C7BCE0
:1002E0000C947EBC0C941CAF0C9490C20C94ACA5E6
:1002F0000C94697B0C94ABAB0C9417C20C946DC23C
:100300000C9480F40C9441550C9478BC0C94E67DCC
:100310000C9435C20C94C98D0C94FFD90C946ABC12
:100320000C9467D60C94BEBC0C94FFED0C942391F6
:100330000C9445900C94B3950C94AEC20C9462BC92
:100340000C9447BC0C9419D60C9420910C94B7CB08
:100350000C94B8BC0C942EF20C94A4C20C945BAB1D
:100360000C9481A90C94F9A90C94E7A40C94E9804D
:100370000C94D8BC0C94AACB4E414E494E495459CA
:10038000494E46CDCCCC3D0AD7233C17B7D1387760
:10039000CC2B329595E6241FB14F0A000020410076
:1003A00000C84200401C4620BCBE4CCA1B0E5AAEC0
:1003B000C59D7400407A10F35A00A0724E180900CF
:1003C00010A5D4E80000E87648170000E40B5402BA
:1003D0000000CA9A3B000000E1F5050000809698F5
:1003E00000000040420F000000A086010000001045
:1003F0002700000000E80300000000640000000087
:10040000000A00000000000100000000002C76D867
:1004100088DC674F0823DFC1DFAE59E1B1B796E54D
:10042000E3E453C63AE651997696E8E6C28426EBB1
:10043000898C9B62ED407C6FFCEFBC9C9F40F2BAC4
:10044000A56FA5F490055A2AF75C936B6CF9676D5C
:10045000C11BFCE0E40D47FEF520E6B500D0ED90B1
:100460002E0300943577050080841E080000204E7E
:100470000A000000C80C333333330F986E12831117
:1004800041EF8D2114893BE65516CFFEE6DB18D1EE
:10049000844B381BF77C1D901DA4BBE424203284C0
:1004A000725E228100C9F124ECA1E53D27434F4D46
:1004B0004D554E49434154494F4E004452595255AF
:1004C0004E004552524F525300494E464F0045434D
:1004D000484F0047322F47332062616420706172B9
:1004E000616D65746572730A00536F7370656E7326
:1004F000696F6E652E2E2E005072656D69207461D5
:1005000073746F2E2E004E657373756E204D6F766B
:10051000696D656E746F00456E642066696C652058
:100520006C6973740A00426567696E2066696C6560
:10053000206C6973740A004D31323500286E6F20CB
:1005400066696C6529005344207072696E74696E27
:1005500067206279746520004E6F742053442070C8
:1005600072696E74696E670A0043757272656E74A3
:100570002066696C653A20005072696E7420746957
:100580006D653A2000CE04C904C204BB04AD046FFB
:1005900066660044454255473A0055434349534F28
:1005A0002E20004D3131332053006F6B0020573A1D
:1005B0000045205261666672656464616D656E74A3
:1005C0006F2E2E00452052697363616C64616D6506
:1005D0006E746F2E2E2E0044432D32302072342044
:1005E0004F66662E002C20002C2000544845524DAA
:1005F000414C5F50524F54454354494F4E00415572
:10060000544F5245504F52545F53445F53544154DA
:10061000555300454D455247454E43595F50415251
:1006200053455200434153455F4C494748545F424C
:1006300052494748544E45535300544F47474C4541
:100640005F4C494748545300534F46545741524515
:100650005F504F574552004255494C445F504552F8
:1006600043454E54004C4556454C494E475F444126
:100670005441005A5F50524F4245004155544F4C2F
:100680004556454C005052494E545F4A4F42005027
:10069000524F4752455353004155544F5245504FC6
:1006A00052545F54454D5000564F4C554D45545291
:1006B000494300454550524F4D0053455249414C26
:1006C0005F584F4E5F584F4646004649524D57417E
:1006D00052455F4E414D453A4D61726C696E203115
:1006E0002E312E3920284769746875622920534FAE
:1006F000555243455F434F44455F55524C3A6874E9
:100700007470733A2F2F6769746875622E636F6D0A
:100710002F4D61726C696E4669726D776172652FDB
:100720004D61726C696E2050524F544F434F4C5F75
:1007300056455253494F4E3A312E30204D41434891
:10074000494E455F545950453A44432D323020724A
:10075000342045585452554445525F434F554E54EA
:100760003A3120555549443A6365646532613266D1
:100770002D343161322D343734382D396231322DF8
:100780006335356336326633363766660A002F2F97
:1007900020004D31343520533C696E6465783E202D
:1007A0006F7574206F662072616E67652028302D2A
:1007B00031290A00205400205200416363656C65B2
:1007C000726174696F6E3A205000205A00205900FF
:1007D000580020204D61783A2000205A002059000E
:1007E000580020204D696E3A20004F6E20004F6661
:1007F0006600536F667420656E6473746F70733A2D
:10080000200020466C6F773A20000001363726FF23
:1008100002FFFF353C3D38FF0FFFFF312E303E1207
:1008200013FFFFFF28FF0C0809FFFFFF1A1C18FF2A
:10083000FF2A08440AFF4320643A0020693A002056
:10084000703A00496E76616C6964206578747275DF
:100850006465720A0043290A0061626C656420289D
:100860006D696E2074656D702000436F6C64206547
:10087000787472756465732061726520004E6F2014
:1008800063617365206C696768740A00454550525E
:100890004F4D204F4B0A00416374697665204578BF
:1008A0007472756465723A2000496E76616C696491
:1008B0002065787472756465720A00256973002575
:1008C000696D20256973002569682025696D2025DB
:1008D000697300256964202569682025696D2025D4
:1008E00069730025697920256964202569682025B8
:1008F000696D2025697300656E7175657565696E32
:100900006720220020496E76616C696420657874E6
:10091000727564657220000000BEC20000BEC20095
:100920000000000000BE420000BE4200005C430028
:100930000000000000000000008243202000202072
:100940005261646975733A00547A0054790054789E
:100950000020205261646975733A00457A00457938
:10096000004578002E4865696768743A0078790018
:100970007A7800797A00207A002079002078006364
:10098000002E2020202000253033692E7800302EC4
:1009900025303369002073643A0073746420646501
:1009A000763A00737464206465763A004E6F206373
:1009B0006F6E76657267656E636500497465726116
:1009C00074696F6E203A2025303269005361766574
:1009D0002077697468204D35303020616E642F6F48
:1009E0007220636F707920746F20436F6E66696741
:1009F00075726174696F6E2E6800253033692E78C8
:100A000000302E253033690043616C696272617475
:100A1000696F6E2073643A00737464206465763A7B
:100A20000043616C6962726174696F6E204F4B00A4
:100A3000456E64204452592D52554E00436F7272D8
:100A40006563742064656C74612073657474696E89
:100A500067732077697468204D36363520616E647F
:100A6000204D3636360A0020284452592D52554E14
:100A700029003F284D3636352042296564207261B1
:100A80006469757320697320696D706C6175736931
:100A9000626C652E0A00436865636B696E672E2E73
:100AA0002E20414300473333204175746F2043614A
:100AB0006C6962726174650A003F2856296572622A
:100AC0006F7365206C6576656C20697320696D7045
:100AD0006C61757369626C652028302D33292E0A8C
:100AE000003F2846296F72636520697465726174DE
:100AF000696F6E20697320696D706C6175736962CE
:100B00006C652028302D3330292E0A003F284329D8
:100B1000616C6962726174696F6E2070726563697D
:100B200073696F6E20697320696D706C617573698C
:100B3000626C6520283E3D30292E0A003F2850294E
:100B40006F696E747320697320696D706C61757361
:100B500069626C652028302D3130292E0A002575F8
:100B60003A2530327500253032753A25303275001D
:100B70002D2D2D0053440044432D3230207234205B
:100B800070726F6E746F2E005374616D70612069A6
:100B90006E20636F72736F2E2E2E005374616D7012
:100BA0006120736F7370657361004D313235004D94
:100BB0003234005374616D706120616E6E756C6CBF
:100BC000617461004739310A473120452D340A47A5
:100BD00032380A4D353234004F706572617A696F70
:100BE0006E6920636F6D756E69005265676F6C6129
:100BF000004176766961205374616D7061004172C5
:100C00007265737461207374616D7061004D616E03
:100C10007574656E7A696F6E650052697072656E83
:100C20006469207374616D70610050617573612037
:100C3000652073616C76610053636865726D6174E1
:100C400061205072696E6369702E00494E56414CA6
:100C500049442044415441004D32342053256C64B2
:100C60002054256C64004D32332025730047393001
:100C70000047312045256900473931004739322E78
:100C800030205A257320452573004731205825739D
:100C900020592573205A25732046353030300049BD
:100CA0006E6974206A6F62207265636F766572790F
:100CB00020696E666F2E2053697A653A20004D31A7
:100CC00030362050256920532569004D31303920B8
:100CD00053256900473238205230004D34323020DD
:100CE000533000205344206E6F6E20707265736520
:100CF0006E74650052697072656E64692073746108
:100D00006D7061005374616D7061206461205344A3
:100D1000004D656E75207072696E636970616C65F7
:100D20000044617469207374616D70616E74650054
:100D3000496D706F7374617A696F6E690043616C9D
:100D4000696272617A2E2044656C7461004D656E33
:100D500075207072696E636970616C6500486F6DB3
:100D60006520257325732573207072696D610020DD
:100D70007072696D610A005A0059005800486F6D21
:100D800065200053442063617264206F6B0A006F1A
:100D900070656E526F6F74206661696C65640A00DD
:100DA000766F6C756D652E696E6974206661696C0D
:100DB00065640A00534420696E6974206661696C39
:100DC0000A0057726974696E6720746F2066696CD7
:100DD000653A20006F70656E206661696C65642CF1
:100DE0002046696C653A20006F70656E2066616907
:100DF0006C65642C2046696C653A200046696C6518
:100E00002073656C65637465640A002053697A65B4
:100E10003A200046696C65206F70656E65643A2003
:100E2000002066696C653A2000646F696E67006631
:100E300072657368004E6F772000454E442053550D
:100E400042524F5554494E450A002220706F73009C
:100E50002220706172656E743A2200535542524FDF
:100E60005554494E452043414C4C2074617267658E
:100E7000743A220055434349534F2E20007472792F
:100E8000696E6720746F2063616C6C207375622DCE
:100E900067636F64652066696C6573207769746841
:100EA00020746F6F206D616E79206C6576656C7350
:100EB0002E204D4158206C6576656C2069733A0090
:100EC000642E0A00206661696C65642E0A00506F0A
:100ED0007765722D6C6F73732066696C652064652D
:100EE0006C6574650046696C652064656C65746545
:100EF000643A0044656C6574696F6E206661696C64
:100F000065642C2046696C653A20006F70656E2020
:100F10006661696C65642C2046696C653A200050F6
:100F20006F7765722D6C6F73732066696C652077BF
:100F300072697465206661696C65642E0A00506F81
:100F40007765722D4C6F7373205265636F7665728F
:100F50007900536176696E672E2E2E0A0024F4D430
:100F60003050C38E20C2A24017828B7011127A912A
:100F70000D816CD90AA861E108C758660761514321
:100F8000061E4B5D05C145A7041A411104093D9891
:100F900003713931034036DB0265339102D430549A
:100FA00002802E1D02632CEE01752AC501B028A017
:100FB00001102781018F2564012B244B01E022348D
:100FC00001AC211F018D200D01801FFC00841EED4E
:100FD00000971DDF00B81CD200E61BC600201BBC1A
:100FE00000641AB200B219A8000A19A0006A189980
:100FF00000D117910040178B00B516840031167E82
:1010000000B31579003A157300C7146F0058146ABD
:1010100000EE1366008813630025135E00C7125BA1
:10102000006C12570015125400C111510070114F7D
:101030000021114B00D61049008D10470046104486
:101040000002104200C00F4000800F3E00420F3CE3
:1010500000060F3B00CB0E3800930E37005C0E35B8
:1010600000270E3400F30D3200C10D3100900D3019
:1010700000600D2E00320D2D00050D2C00D90C2B1B
:1010800000AE0C2900850C29005C0C2700350C27CC
:10109000000E0C2600E80B2400C40B2400A00B2338
:1010A000007D0B23005A0B2100390B2100180B2067
:1010B00000F80A1F00D90A1E00BB0A1E009D0A1D67
:1010C00000800A1D00630A1C00470A1B002C0A1B33
:1010D00000110A1A00F7091A00DD091900C40919DC
:1010E00000AB091900920917007B09180063091762
:1010F000004C09160036091600200916000A0915C9
:1011000000F5081500E0081400CC081400B8081415
:1011100000A4081400900813007D0812006B081347
:101120000058081200460812003408110023081164
:10113000001208110001081100F0071000E007106C
:1011400000D0071000C0071000B0070F00A1071063
:101150000091070E0083070F0074070F0065070E4C
:101160000057070E0049070E003B070D002E070E23
:101170000020070D0013070D0006070D00F9060CEF
:1011800000ED060D00E0060C00D4060C00C8060CAD
:1011900000BC060C00B0060C00A4060B0099060C5F
:1011A000008D060B0082060B0077060B006C060B09
:1011B0000061060A0057060B004C060A0042060AA8
:1011C0000038060A002E060A0024060A001A060A3B
:1011D000001006090007060A00FD050900F40509CC
:1011E00000EB050900E2050900D9050900D0050951
:1011F00000C7050900BE050900B5050800AD0508D2
:1012000000A50509009C050800940508008C050848
:1012100000840508007C050800740508006C0507BB
:1012200000650508005D050700560508004E050726
:10123000004705070040050800380507003105078D
:10124000002A050700230507001C050600160507F0
:10125000000F0507000805060002050700FB04064D
:1012600000F5040700EE040600E8040600E20407A7
:1012700000DB040600D5040600CF040600C90406FE
:1012800000C3040600BD040600B7040600B104054F
:1012900000AC040600A6040600A00405009B04069A
:1012A0000095040500900406008A040500850405E5
:1012B00000800406007A040500750405007004052A
:1012C000006B04050066040500610405005C04056C
:1012D0000057040500520405004D040500480405AC
:1012E00000430405003E0404003A040500350405EB
:1012F00000300404002C0405002704040023040526
:10130000001E0404001A040400160405001104045D
:10131000000D040400090405000404040000040492
:1013200000FC030400F8030400F4030400F00304C9
:1013300000EC030400E8030400E4030400E00304F9
:1013400000DC030400D8030400D4030400D0030429
:1013500000CC030400C8030300C503030024F40405
:10136000D9201BC40C5C0E9804C4095F0265077188
:1013700001F405F900FB04B30048048700C10369C8
:10138000005803550003034500BE023A00840231B1
:101390000053022A002902250004022000E4011C57
:1013A00000C8011900AF011700980114008401134F
:1013B00000710110006101100051010E0043010D88
:1013C0000036010B002B010B0020010B0015010959
:1013D000000C01090003010800FB000800F30008ED
:1013E00000EB000700E4000600DE000600D800065F
:1013F00000D2000600CC000500C7000500C20005B1
:1014000000BD000400B9000400B5000400B10004F0
:1014100000AD000400A9000400A5000300A2000321
:10142000009F0004009B0003009800030095000249
:101430000093000300900003008D0002008B000366
:101440000088000200860002008400030081000280
:10145000007F0002007D0002007B00020079000294
:1014600000770001007600020074000200720001A3
:1014700000710002006F0002006D0001006C0002AC
:10148000006A0001006900020067000100660001B7
:1014900000650001006400020062000100610001BB
:1014A00000600001005F0002005D0001005C0001BF
:1014B000005B0001005A00010059000100580001C2
:1014C00000570001005600010055000100540001C2
:1014D00000530000005300010052000100510001C0
:1014E00000500001004F0001004E0000004E0001BE
:1014F000004D0001004C0001004B0000004B0001BA
:10150000004A0001004900010048000000480001B5
:1015100000470001004600000046000100450000B1
:1015200000450001004400010043000000430001A9
:1015300000420000004200010041000000410001A3
:1015400000400001003F0000003F0001003E00009D
:10155000003E0001003D0000003D0001003C000095
:10156000003C0000003C0001003B0000003B00018B
:10157000003A0000003A0001003900000039000183
:10158000003800000038000000380001003700007B
:101590000037000100360000003600000036000170
:1015A0000035000000350000003500010034000067
:1015B000003400000034000100330000003300005C
:1015C0000033000100320000003200000032000150
:1015D0000031000000310000003100010030000047
:1015E0000030000000300001002F0000002F00003C
:1015F000002F0000002F0001002E0000002E000030
:10160000002E0001002D0000002D0000002D000024
:10161000002D0001002C0000002C0000002C000018
:10162000002C0001002B0000002B0000002B00000C
:10163000002B0001002A0000002A0000002A000000
:10164000002A0001002900000029000000290000F4
:1016500000290000002900010028000000280000E7
:1016600000280000002800000028000100270000DA
:1016700000270000002700000027000000270001CD
:1016800000260000002600000026000000260000C2
:1016900000260001002500000025000000250000B4
:1016A00000250000002500000025000100240000A6
:1016B0000024000000240000002400000024000199
:1016C000002300000023000000230000002300008E
:1016D000002300000023000000230001002200007E
:1016E0000022000000220000002200000022000072
:1016F0000022000100210000002100000021000064
:101700000021000000210000002100000021000154
:101710000020000000200000002000000020000049
:101720000020000000200000002000000020000138
:10173000001F0000001F0000001F0000001F00002D
:10174000001F0000001F0000001F0001001E00001D
:10175000001E0000001E0000001E000000043700F4
:10176000001E290000511B00005810000010090045
:1017700000CC040000780200004101000053442026
:10178000436172642072696D6F737361005344200A
:101790004361726420696E73657269746100416DA2
:1017A0006178204500416D6178204500416D617888
:1017B000204300416D6178204300416D61782042F3
:1017C00000416D6178204200416D61782041004107
:1017D0006D6178204100412D53706F7374616D65A8
:1017E0006E746F00412D53706F7374616D656E740C
:1017F0006F00412D7265747261637400412D7265D2
:10180000747261637400416363656C004163636576
:101810006C004D6F76696D656E746F0056652D6A4C
:1018200065726B0056652D6A65726B0056652D6A90
:1018300065726B0056632D6A65726B0056632D6A84
:1018400065726B0056632D6A65726B0056622D6A75
:1018500065726B0056622D6A65726B0056622D6A66
:1018600065726B0056612D6A65726B0056612D6A58
:1018700065726B0056612D6A65726B004D6F7669FB
:101880006D656E746F004570617373692F6D6D00C7
:101890004570617373692F6D6D0043706173736977
:1018A0002F6D6D004370617373692F6D6D00427011
:1018B000617373692F6D6D004270617373692F6D71
:1018C0006D004170617373692F6D6D0041706173BC
:1018D00073692F6D6D004D6F76696D656E746F0065
:1018E00050617373692F6D6D004A65726B004163BF
:1018F00063656C6572617A696F6E650056656C6FC1
:10190000636974C3A00045736369004361726963CE
:1019100061206D6D00436172696361206D6D0043EC
:101920006172696361206D6D0052696D756F7669D2
:10193000206D6D0052696D756F7669206D6D005276
:10194000696D756F7669206D6D004469616D2E203B
:1019500066696C6F004469616D2E2066696C6F006A
:101960004F6666004F6E20004520696E206D6D3316
:10197000004573636900454550524F4D20646174C2
:101980006173697A65206572726F722E0A00290A86
:10199000002062797465733B206372632000536595
:1019A0007474696E67732053746F726564202800C5
:1019B000290A002062797465733B206372632000FA
:1019C0002073746F7265642073657474696E6773D5
:1019D000207265747269657665642028002028632A
:1019E000616C63756C6174656429210A0020213D76
:1019F0002000454550524F4D20435243206D69739E
:101A00006D61746368202D202873746F726564297A
:101A100020002053697A653A2000496E6465783A5F
:101A20002000204D61726C696E3D563536290A00E2
:101A300028454550524F4D3D00454550524F4D2091
:101A400076657273696F6E206D69736D617463681A
:101A5000200052697072697374696E6120696D70DB
:101A60002E00436172696361206461206D656D6F52
:101A700072696100496E697A69616C697A7A61207C
:101A8000454550524F4D0053616C766120696E2080
:101A90006D656D6F7269610046696C616D656E742C
:101AA0006F004D6F76696D656E746F0054656D7073
:101AB0006572617475726100457363690050726587
:101AC0007269732E41425320636F6E6600507265D7
:101AD0007269732E504C4120636F6E66005049440A
:101AE0002D44005049442D44005049442D49005094
:101AF00049442D49005049442D50005049442D502F
:101B00000002204661637400022046616374000293
:101B1000204D61780002204D61780002204D6178EF
:101B20000002204D696E0002204D696E0002204DBA
:101B3000696E004F6666004F6E20004175746F74C9
:101B4000656D700056656C6F636974612076656EB3
:101B5000746F6C610056656C6F63697461207665A3
:101B60006E746F6C61005567656C6C6F00556765CE
:101B70006C6C6F00457363690053616C766120691A
:101B80006E206D656D6F726961005567656C6C6F75
:101B9000005567656C6C6F0056656C6F63697461A6
:101BA0002076656E746F6C610056656C6F63697446
:101BB000612076656E746F6C610054656D7065723E
:101BC0006174757261005654726176206D696E00A1
:101BD0005654726176206D696E005654726176209B
:101BE0006D696E00566D696E00566D696E00566DBA
:101BF000696E00566D6178204500566D617820450C
:101C000000566D6178204500566D6178204300567E
:101C10006D6178204300566D6178204300566D61F8
:101C200078204200566D6178204200566D61782020
:101C30004200566D6178204100566D617820410068
:101C4000566D61782041004D6F76696D656E746FD9
:101C50000020746F6F206C6F6E67206578747275EA
:101C600073696F6E2070726576656E7465640A00C4
:101C700020636F6C6420657874727573696F6E2071
:101C800070726576656E7465640A0020205567651C
:101C90006C6C6F3A200064692066696C616D656EDA
:101CA000746F0064656C2063616D62696F004174DC
:101CB00074656E6465726520617676696F002020B8
:101CC0005567656C6C6F3A200064656C2066696CC2
:101CD000616D656E746F006C27657370756C7369E8
:101CE0006F6E6500417474656E64657265002020D6
:101CF0005567656C6C6F3A2000417474656E64655D
:101D000072652E2E2E0052697363616C642E2075ED
:101D100067656C6C6F0020205567656C6C6F3A20AE
:101D20000072697363616C64207567656C6C6F2EFB
:101D3000005072656D6920706572002020556765DE
:101D40006C6C6F3A20007072656D6920706572204E
:101D5000636F6E740066696C616D656E746F20658B
:101D600000496E7365726973636920696C00202095
:101D70005567656C6C6F3A200064656C2066696C11
:101D8000616D656E746F00696C2063617269636177
:101D90006D656E746F00417474656E646572650084
:101DA00020205567656C6C6F3A200064656C206676
:101DB000696C616D656E746F006C6F207370757205
:101DC000676F00417474656E646572650064656C6C
:101DD0006C61207374616D7061006C612072697058
:101DE0007265736100417474656E64657265004369
:101DF000616D6269612066696C616D656E746F000A
:101E000043616D6269612066696C616D656E746FB6
:101E1000004D36303020423000466C7573736F00D1
:101E2000466C7573736F0056656C6F6369746120DF
:101E300076656E746F6C610056656C6F6369746172
:101E40002076656E746F6C61005567656C6C6F0011
:101E50005567656C6C6F0056656C6F6369746127BC
:101E60000056656C6F6369746127004D656E75205F
:101E70007072696E636970616C6500507265726939
:101E80007363616C646120504C41005072657269EB
:101E90007363616C646120414253005261666672F3
:101EA000656464610043616D6269612066696C61AB
:101EB0006D656E746F0043616D6269612066696C67
:101EC000616D656E746F004D3630302042300044D5
:101ED00069736162696C697461204D6F746F7269B6
:101EE000004D3834004175746F20486F6D650047B0
:101EF0003238004D756F76692041737365004D650A
:101F00006E75207072696E636970616C6500426104
:101F100072726120446961676F6E616C6500426135
:101F200072726120446961676F6E616C6500547AFA
:101F300000547A00547900547900547800547800A1
:101F400052616767696F0052616767696F00457A20
:101F500000457A00457900457900457800457800CC
:101F6000416C74657A7A6100416C74657A7A6100BB
:101F700045736369001000AA03F0013A0190022240
:101F80000130031001D00302017004F7001005EDC9
:101F900000B005E5005006DD00F006D7009007D13F
:101FA000003008CC00D008C7007009C300100ABE7A
:101FB00000B00ABB00500BB700F00BB300900CB0A0
:101FC00000D00DAA00100FA5005010A00090119B8A
:101FD00000D0129600B014900090168B00701885F7
:101FE00000501A8000301C7B00B01E750030216F3D
:101FF00000B02369003026640010285F00902A5A40
:1020000000702C5500F02E4F0070314800B0324562
:1020100000F0334100703639001037370050383344
:102020000090392D00D03A2700B03C1C00503D17DD
:1020300000F03D1100903E0900D03FE5FF6265646D
:102040000A002C2073797374656D2073746F70703F
:10205000656421204865617465725F49443A2000D7
:1020600045312054454D502046554F524920434F4D
:102070004E54524F4C4C4F00546865726D616C2049
:1020800052756E61776179004531205269736361E1
:102090006C642E2046616C6C69746F0048656174D5
:1020A000696E67206661696C656400453120457220
:1020B000723A2054454D50204D415353494D4100F3
:1020C0004D415854454D502074726967676572657B
:1020D00064004531204572723A2054454D50204DE0
:1020E000494E494D41004D494E54454D5020747262
:1020F00069676765726564004D383420582059203F
:102100005A204500202F0020403A00203FECED3FB0
:102110005C7C3F2263617F3F3F52B0DF3F32332719
:10212000E4F1A52C31DF7E3F3F3F3F3F3F3F3FE1A2
:102130003F3F3F3F3F3F3F3F3F3F3F3F3F3F3F3FAF
:102140003FEF783F3F3F3FF53F3FE23F3F3F3FE1BB
:102150003F3F3F3F3F3F3F3F3F3F3F3FEE3F3F3FE0
:102160003FEFFD3F3F3F3FF53F3F3F001010101056
:102170001010000014141414141400001515151573
:10218000151500001C1F11111F0000000E19180367
:10219000130E00040E1F041C000000000E15171182
:1021A0000E0000070F1810040201001F0E1F0E1F63
:1021B0000A04000C12120C0000000009120912009F
:1021C0000E1F0000000000010204040000001C1C9F
:1021D0000C040404020100000000000408100000C8
:1021E00000000000002100240027002A002D0030FC
:1021F00000330001010000040107010A0100002270
:1022000000250028002B002E0031003400020100C0
:1022100000050108010B0100002000230026002911
:10222000002C002F0032000001000003010601090C
:102230000105050505070508080808020202020A4B
:102240000A08080404040401010101010101010359
:1022500003030303030303040707070C0C0C0C0C14
:102260000C0C0C0202020206060606060606060B07
:102270000B0B0B0B0B0B0B0102102020080810207E
:102280004010204080020102010804020101020402
:1022900008102040808040201008040201800402C1
:1022A0000180402010080402010804020101020418
:1022B0000810204080010204081020408000000A1D
:1022C0000B02090C0D0E08070304010000000000BA
:1022D00000000000000000000000000000000000FE
:1022E00000000000000000000012111000000000BB
:1022F00000000000000000000000000000000000DE
:102300000000004D3234004D323320257300556EED
:102310006B6E6F776E20636F6D6D616E643A202215
:1023200000496E736572742066696C616D656E74C8
:1023300020616E6420707265737320627574746FAF
:102340006E20286F72204D313038290A006F706579
:102350006E206661696C65642C2046696C653A2064
:102360000057726974696E6720746F2066696C65C6
:102370003A2000486F74656E6420746F6F20636F3D
:102380006C640A00627573793A20706175736564D4
:1023900020666F7220696E7075740A0062757379B9
:1023A0003A2070617573656420666F72207573657D
:1023B000720A00627573793A2070726F6365737385
:1023C000696E670A0055434349534F2E20004B491D
:1023D0004C4C2063617573656420627920746F6F63
:1023E000206D75636820696E616374697665207419
:1023F000696D65202D2063757272656E7420636F40
:102400006D6D616E643A2000526961767669617221
:102410006520707265676F005354414D50414E54B2
:1024200045204645524D415441005072696E7465D5
:10243000722068616C7465642E206B696C6C28294D
:102440002063616C6C6564210A0000004843000051
:10245000484300004843000000005761726E696EF7
:10246000673A20486F6D696E672042756D70204431
:10247000697669736F72203C20310A000A0A0A00EB
:1024800000A0400000A0400000A04000003E43002B
:10249000003E4300005C430101014D3331005344D1
:1024A0002072656164206572726F720A00446F6EFB
:1024B00065207072696E74696E672066696C650A62
:1024C0000055434349534F2E200041525245535427
:1024D00041544F2E20005072696E746572207374DF
:1024E0006F707065642064756520746F206572720A
:1024F0006F72732E20466978207468652065727249
:102500006F7220616E6420757365204D39393920F2
:10251000746F20726573746172742E202854656D17
:102520007065726174757265206973207265736578
:10253000742E20536574206974206166746572205E
:1025400072657374617274696E67290A004E6F2038
:10255000436865636B73756D2077697468206C6977
:102560006E65206E756D6265722C204C61737420EF
:102570004C696E653A20004E6F20436865636B734B
:10258000756D2077697468206C696E65206E756D55
:102590006265722C204C617374204C696E653A2020
:1025A00000636865636B73756D206D69736D61742D
:1025B00063682C204C617374204C696E653A20006E
:1025C0004C696E65204E756D626572206973206E70
:1025D0006F74204C617374204C696E65204E756D6C
:1025E0006265722B312C204C617374204C696E65CE
:1025F0003A20004D313130002D2D2D2D2D2D2D2D3A
:102600002D2D2D2D007C44656C7461636F6D6220EF
:1026100033447C002D2D2D2D2D2D2D2D2D2D2D2DAB
:10262000004D61726C696E2046572076312E312E36
:1026300039004D61726C696E2046572076312E311B
:102640002E390044432D3230204F524947494E41E4
:102650004C0044432D3230204F524947494E414CA3
:1026600000002020506C616E6E6572427566666572
:102670007242797465733A20002046726565204D78
:10268000656D6F72793A2000436F6D70696C656497
:102690003A204A616E20203720323032300A002042
:1026A0007C20417574686F723A20286E6F6E652CBD
:1026B0002064656661756C7420636F6E6669672956
:1026C0000A00323031382D30382D303100204C6145
:1026D000737420557064617465643A2000312E3142
:1026E0002E390A004D61726C696E0020536F66745A
:1026F000776172652052657365740A0020576174B2
:102700006368646F672052657365740A00204272C3
:102710006F776E206F75742052657365740A0020A0
:1027200045787465726E616C2052657365740A0039
:10273000506F77657255700A0073746172740A0085
:102740006175746F25692E67006572726F722077EC
:10275000726974696E6720746F2066696C650A001F
:10276000456E6473746F7020256320256320256394
:1027700020256300205A3A0020593A0020583A0098
:10278000656E6473746F7073206869743A200044D6
:102790006F6E6520736176696E672066696C652E61
:1027A0000A004D32390050726F746563746564209D
:1027B00050696E0A0046696C616D656E74207573B0
:1027C00065643A200053746174733A20002C204CE5
:1027D0006F6E67657374206A6F623A2000546F747D
:1027E000616C2074696D653A200053746174733AAA
:1027F00020002C204661696C65643A20002C20463C
:10280000696E69736865643A20005072696E74730A
:102810003A200053746174733A2000205A3A002021
:10282000593A0020436F756E7420583A0020453A9B
:1028300000205A3A0020593A00583A003A004361C1
:10284000703A0023646566696E65204445464155CB
:102850004C545F4B64200023646566696E652044B8
:10286000454641554C545F4B6920002364656669B9
:102870006E652044454641554C545F4B70200050D6
:102880004944204175746F74756E652066696E6980
:1028900073686564212050757420746865206C61CC
:1028A0007374204B702C204B6920616E64204B6444
:1028B00020636F6E7374616E74732066726F6D2027
:1028C00062656C6F7720696E746F20436F6E666906
:1028D0006775726174696F6E2E680A0050494420F2
:1028E0004175746F74756E65206661696C656421ED
:1028F0002074696D656F75740A0045312054454D2B
:10290000502046554F524920434F4E54524F4C4C45
:102910004F00546865726D616C2052756E6177610D
:10292000790045312052697363616C642E204661E1
:102930006C6C69746F0048656174696E67206661CC
:10294000696C656400504944204175746F74756EFC
:1029500065206661696C6564212054656D706572DF
:10296000617475726520746F6F20686967680A000A
:10297000204B643A2000204B693A2000204B703AEB
:1029800020000A20436C617373696320504944201E
:102990000A002054753A2000204B753A2000206D23
:1029A00061783A2000206D696E3A200020643A2058
:1029B0000020626961733A200050494420417574D7
:1029C0006F74756E65206661696C6564212054655D
:1029D0006D706572617475726520746F6F206869BF
:1029E00067680A00504944204175746F74756E65BC
:1029F0002073746172740A00504944204175746FE9
:102A000074756E65206661696C656421204261643D
:102A1000206578747275646572206E756D6265727A
:102A20000A00496E736572742066696C616D656E2B
:102A30007420616E642070726573732062757474A3
:102A40006F6E0A00507265737320627574746F6ED6
:102A500020746F2068656174206E6F7A7A6C650AE5
:102A600000496E736572742066696C616D656E7481
:102A700020616E6420707265737320627574746F68
:102A80006E20286F72204D313038290A0043616E64
:102A90006E6F7420656E74657220737562646972FE
:102AA0003A2000052E2E00457363690000546F74B0
:102AB000616C65206573747275736F3A2000256CC4
:102AC000642E25696D00004C61766F726F2070690D
:102AD000C3B9206C756E676F3A20000054656D7045
:102AE0006F20746F74616C653A2000436F6D706C79
:102AF00065746174693A2000436F6E7461742E20AE
:102B00007374616D70613A200054656D70206D6161
:102B1000783A203237350054656D70206D696E3A11
:102B200020350054303A203125206265746120330D
:102B300039353000416C696D656E7461746F726512
:102B40003A2047656E657269630050726F746F63F7
:102B50006F6C6C6F3A20312E3000426175643A2000
:102B60003235303030300052414D505320312E3408
:102B7000004573747275736F72693A20310068741E
:102B800074703A2F2F6D61726C696E66772E6F725A
:102B9000670044432D323020723400323031382DFA
:102BA00030382D303100312E312E39004D61726CAC
:102BB000696E005374617469737469636865005465
:102BC00065726D6973746F726900496E666F2E204D
:102BD00073636865646100496E666F2E207374616B
:102BE0006D70616E74650045736369004D373032F6
:102BF00020542564004D3630302042302054256466
:102C0000004D373032203B2564004D3730312054A1
:102C100025640043616D6269612066696C616D6560
:102C20006E746F0050726572697363616C646120C9
:102C30004142530050726572697363616C64612034
:102C4000504C410043616D6269612066696C616D41
:102C5000656E746F005354414D504120494E2050D1
:102C6000415553410052494D554F56492046494C14
:102C7000414D454E544F004341524943412046493E
:102C80004C414D454E544F004C6962657261206461
:102C900069207069750052697072656E646920738D
:102CA00074616D7061004F505A494F4E493A007C33
:102CB0003C3E5E2B3D3F2F5B5D3B2C2A225C00524D
:102CC0006573656E643A20006F6B0020746F6F202F
:102CD0006C6F6E6720657874727573696F6E2070A3
:102CE000726576656E7465640A0020636F6C64209B
:102CF000657874727573696F6E2070726576656E33
:102D00007465640A00496D706F7374617A2E204493
:102D1000656C746100496D702E20616C74657A7AFF
:102D2000612044656C7461004D363635204832367A
:102D3000302E30300A4733332050310A4D35303091
:102D4000004175746F2063616C696272617A696FAA
:102D50006E65004D36363520483236302E30300A1A
:102D60004D363636205830205930205A300A4733F5
:102D7000332050332054310A4D35303000457363D1
:102D800069004D756F76692058004D756F76692022
:102D900059004D756F7669205A00457374727573CA
:102DA0006F7265004D756F766920646920302E3131
:102DB0006D6D004D756F7669206469202020316D3E
:102DC0006D004D756F7669206469202031306D6D1E
:102DD000004D756F76692041737365004573747299
:102DE00075736F7265004D756F7669205A004D7569
:102DF0006F76692059004D756F7669205800496ECD
:102E0000206D6F76696D656E746F2E2E2E00457382
:102E1000747275736F7265004175746F20486F6DC1
:102E20006500473238004D756F7669205A00585951
:102E3000206C6962657269004D756F766920590072
:102E40004D756F76692058004573636900496E6956
:102E50007A69616C697A7A6120454550524F4D001C
:102E600045736369004572726F7220777269746985
:102E70006E6720746F20454550524F4D210A004324
:102E8000616E6E6F74206F70656E20737562646919
:102E90007220006563686F3A004572726F723A0083
:102EA00048617264636F6465642044656661756C33
:102EB000742053657474696E6773204C6F61646528
:102EC000640A0010270000102700001027000010DF
:102ED00027000000002A4300002A4300002A430084
:102EE000008C420000C8420000C8420000C84200F6
:102EF000001243486F6D652066616C6C69746F00E9
:102F0000545249474745524544006F70656E003A38
:102F100020007A5F6D6178007A5F6D696E00795F7D
:102F20006D617800785F6D6178005265706F7274C2
:102F3000696E6720656E6473746F7020737461745A
:102F400075730A002D2D2D2D2D2D2D2D2D2D2D2D73
:102F50002D2D2D2D2D2D2D2D2D2D2D2D2D2D2D0AC4
:102F6000007072696E745F6A6F625F656C61707326
:102F700065643A20007364706F733A200073645F75
:102F800066696C656E616D653A20003E20003E20EA
:102F900000636F6D6D616E64735F696E5F717565FF
:102FA00075653A2000636D645F71756575655F696D
:102FB0006E6465785F723A200066616E5370656575
:102FC00064733A20007461726765745F74656D7034
:102FD000657261747572653A200066656564726138
:102FE00074653A200063757272656E745F706F73FA
:102FF0006974696F6E3A2000494E56414C4944202D
:10300000444154410A002076616C69645F666F6FC9
:10301000743A0076616C69645F686561643A002D9A
:103020002D2D2D204A6F62205265636F766572796F
:1030300020496E666F202D2D2D2D0A004D36303023
:103040003A54726F70706F2066726564646F0048E6
:103050006F74656E6420746F6F20636F6C640A0018
:103060004801DC0011241FBECFEFD1E2DEBFCDBF8F
:1030700000E00CBF13E0A0E0B2E0E4EEF0E402E018
:103080000BBF02C007900D92AC35B107D9F729E10B
:10309000ACE5B3E001C01D92A23BB207E1F718E135
:1030A000C1E3D8E100E006C021970109802FFE01AD
:1030B0000F94651CC033D10780E00807A9F70F946F
:1030C0004E0A0D9460200C9400002F923F924F9274
:1030D0005F926F927F928F929F92AF92BF92CF92A8
:1030E000DF92EF92FF920F931F93CF93DF93CDB7B1
:1030F000DEB7CF55D1090FB6F894DEBF0FBECDBFF6
:1031000091E090938E1280912E158D3409F45BC658
:10311000843511F40C94CF2E873411F00C94132FB6
:1031200020902C1530902D152BE12216310409F436
:10313000A9C58CF444E0241631043CF452E0251671
:103140003104ECF537FE34C03AC684E02816310469
:1031500009F459C534C6AAE52A16310409F4C2C5D2
:1031600074F4ECE12E16310409F4B8C5F1E22F161F
:10317000310409F024C60E94943E0C94152F2BE5CF
:103180002216310409F4B2C53CE52316310409F0D6
:1031900016C69DE5292E92E0392E2EEEE22E25E16F
:1031A000F22E3DEAC32E37E0D32E00E010E0D7C563
:1031B0008091260281110C941A2F0C94152F809166
:1031C0002602882311F40C94152F0E94DE3782E525
:1031D0000E94D137882309F438C10E9455374B012A
:1031E0005C0120E030E0A9010F944E15882309F41A
:1031F00058C18091AD079091AE07A091AF07B091F3
:10320000B0078CA79DA7AEA7BFA72091B1073091AB
:10321000B2074091B3075091B40728AB39AB4AAB22
:103220005BAB80918F1290919012A0919112B0910E
:1032300092128CAF9DAFAEAFBFAF20919312309181
:103240009412409195125091961228AF39AF4AAF1F
:103250005BAF9C01AD016CA57DA58EA59FA50F94CC
:103260004E1581110DC028AD39AD4AAD5BAD68A9D1
:1032700079A98AA99BA90F944E15882309F411C135
:1032800011E032E02316310409F010E020E030E0D4
:10329000A901C501B4010F944E15881F8827881F06
:1032A000181759F080E090E0A0E8BFEB28968CAFAB
:1032B0009DAFAEAFBFAF28970AC020E030E040E836
:1032C0005FE328962CAF3DAF4EAF5FAF28972CA59C
:1032D0003DA54EA55FA56CAD7DAD8EAD9FAD0F94A8
:1032E000751C24966CAF7DAF8EAF9FAF249728A935
:1032F00039A94AA95BA968AD79AD8AAD9BAD0F9498
:10330000751C6B017C0124962CAD3DAD4EAD5FADBF
:103310002497CA01B9010F94B4152B013C01A701F0
:103320009601C701B6010F94B4159B01AC01C3010E
:10333000B2010F94761C0F94781F6CAB7DAB8EABF3
:103340009FAB20E030E040E05FE30F94B4152B0129
:103350003C01A5019401C501B4010F94B4154B01C2
:103360005C01A3019201C301B2010F94B4159B014A
:10337000AC01C501B4010F94751C0F94781F2896F9
:103380002CAD3DAD4EAD5FAD28970F94B4154B01FC
:103390005C01C701B60190582CA93DA94EA95FA9AF
:1033A0000F94701DA50194010F94B4156B017C015D
:1033B0002CAD3DAD4EAD5FAD6CA57DA58EA59FA599
:1033C0000F94761C20E030E040E05FE30F94B415EA
:1033D0009B01AC01C701B6010F94761C2CA53DA53D
:1033E0004EA55FA50F94751C6B017C0128AD39AD0E
:1033F0004AAD5BAD68A979A98AA99BA90F94761CEF
:1034000020E030E040E05FE30F94B4152B013C0175
:103410002CA93DA94EA95FA924966CAD7DAD8EADBA
:103420009FAD24970F94701DA50194010F94B415BE
:103430009B01AC01C301B2010F94761C28A939A9E4
:103440004AA95BA90F94751C14C089E40E94D13766
:10345000882329F00E9455376B017C0103C0C12CE1
:10346000D12C76018AE40E94D1378823E9F00E94AA
:1034700055376CAF7DAF8EAF9FAF20E030E0A90134
:10348000C701B6010F944E1581111BC020E030E03A
:10349000A9016CAD7DAD8EAD9FAD0F944E15811120
:1034A00010C0E9E9FEE29BC320E030E0A901C701BA
:1034B000B6010F944E158823A1F31CAE1DAE1EAEAF
:1034C0001FAED701C601B0588CA79DA7AEA7BFA756
:1034D0002CAD3DAD4EAD5FAD505828AB39AB4AABCE
:1034E0005BAB9C01AD01BC01CD010F94B4154B0148
:1034F0005C0128A939A94AA95BA9CA01B9010F949D
:10350000B4159B01AC01C501B4010F94761C0F9456
:10351000781F64966CAF7DAF8EAF9FAF649780913C
:10352000AD079091AE07A091AF07B091B00788AFFB
:1035300099AFAAAFBBAFA7019601BC01CD010F9413
:10354000761C28966CAF7DAF8EAF9FAF28972091E9
:10355000B1073091B2074091B3075091B407249658
:103560002CAF3DAF4EAF5FAF24972CAD3DAD4EAD10
:103570005FAD24966CAD7DAD8EAD9FAD24970F945D
:10358000761C68966CAF7DAF8EAF9FAF68978091C9
:103590008F1290919012A0919112B09192122C964C
:1035A0008CAF9DAFAEAFBFAF2C9728962CAD3DAD85
:1035B0004EAD5FAD2897BC01CD010F94751C6B011A
:1035C0007C01209193123091941240919512509168
:1035D000961260962CAF3DAF4EAF5FAF6097689686
:1035E0002CAD3DAD4EAD5FAD689760966CAD7DADD9
:1035F0008EAD9FAD60970F94751C4B015C0180915F
:10360000B5079091B607A091B707B091B8076C962F
:103610008CAF9DAFAEAFBFAF6C979C01AD01609119
:103620009712709198128091991290919A120F941A
:10363000751C6CAB7DAB8EAB9FABA70196016CA5E7
:103640007DA58EA59FA50F94B4152B013C01A50166
:10365000940168A979A98AA99BA90F94B4159B0123
:10366000AC01C301B2010F94761C2B013C01A501F2
:1036700094016CA57DA58EA59FA50F94B4154B0153
:103680005C01A701960168A979A98AA99BA90F9451
:10369000B4159B01AC01C501B4010F94751CA301C5
:1036A00092010F94F51C6B017C0120E030E0A90130
:1036B0000F944E1587FF0AC02BED3FE049EC50E414
:1036C000C701B6010F94761C6B017C0192E02916AC
:1036D000310451F42BED3FE049EC50E4C701B60151
:1036E0000F94751C6B017C0120E030E0A901C7013B
:1036F000B6010F944E15811126C02C962CAD3DAD10
:103700004EAD5FAD2C9768AD79AD8AAD9BAD0F9492
:103710004E15811118C060962CAD3DAD4EAD5FAD1C
:10372000609724966CAD7DAD8EAD9FAD24970F94C0
:103730004E15811108C05BEDC52E5FE0D52E59EC0A
:10374000E52E50E4F52EA701960164966CAD7DAD93
:103750008EAD9FAD64970F94B4154B015C0120E0D2
:1037600030E0A9016CA97DA98EA99FA90F944E15DF
:103770008823D9F0A5019401C501B4010F94B415B3
:103780004B015C012CA93DA94EA95FA9CA01B90151
:103790000F94B4159B01AC01C501B4010F94761CC4
:1037A0000F94781F4B015C010DC020E030E0A901AF
:1037B000C501B4010F942A1F87FF04C0B7FAB09463
:1037C000B7F8B0942FE632E143E85AE3C501B401FB
:1037D0000F944E1587FF02C00C94152FC501B4013C
:1037E0000F94181E0F94E91D22967FAF6EAF22979B
:1037F000DB01AB2B31F4E1E0F0E02296FFAFEEAF5E
:1038000022974090B9075090BA076090BB0770901C
:10381000BC0722962EAD3FAD2297B90180E090E023
:103820000F9453154B015C019B01AC01C701B6011C
:103830000F94701D68AF79AF8AAF9BAFA50194015B
:103840006CA97DA98EA99FA90F94701D64966CAF79
:103850007DAF8EAF9FAF6497A301920160919B12E1
:1038600070919C1280919D1290919E120F94751CE4
:10387000A50194010F94701DA0966CAF7DAF8EAF23
:103880009FAFA09728AD39AD4AAD5BADCA01B90174
:103890000F94B41520E030E040E05FE30F94B415DE
:1038A0009B01AC0160E070E080E89FE30F94751C21
:1038B0002C966CAF7DAF8EAF9FAF2C976C968CAD76
:1038C0009DADAEADBFAD6C9789879A87AB87BC873E
:1038D0004D865E866F86788A6091240270912502FB
:1038E000072E000C880B990B0F94551520910D0293
:1038F00030910E0240910F02509110020F94B415B6
:103900002AE037ED43E25CE30F94B41568A779A78A
:103910008AA79BA70E943BCC9B01AC0128533F4F39
:103920004F4F5F4F60962CAF3DAF4EAF5FAF60978C
:103930004CA45DA46EA47FA422242394312C39E1ED
:103940003CAB22964EAD5FAD22974215530509F46C
:103950001EC10E94E2B80E943BCCDC01CB01609604
:103960002CAD3DAD4EAD5FAD6097821B930BA40BAC
:10397000B50BB7FD11C00E943BCC9B01AC01285395
:103980003F4F4F4F5F4F60962CAF3DAF4EAF5FAF95
:10399000609780E00E94F1C73CA931503CAB3323D3
:1039A00009F441C028A939A94AA95BA92C966CAD94
:1039B0007DAD8EAD9FAD2C970F94B4156B017C013E
:1039C0009201A30168AD79AD8AAD9BAD0F94B4159A
:1039D000A70196010F94761C6B017C019201A30153
:1039E0002C966CAD7DAD8EAD9FAD2C970F94B4151C
:1039F0004B015C0128A939A94AA95BA968AD79AD39
:103A00008AAD9BAD0F94B4159B01AC01C501B40107
:103A10000F94751C2B013C01C601D70188AB99ABF3
:103A2000AAABBBAB4DC0B10180E090E00F94531541
:103A300028AD39AD4AAD5BAD0F94B4154B015C01B7
:103A40000F946B1D6B017C01C501B4010F946A1FBB
:103A50004B015C01A70196016CA57DA58EA59FA5D4
:103A60000F94B4152B013C012CAD3DAD4EAD5FADB7
:103A7000C501B4010F94B415A30192010F94761CF3
:103A80002B013C01A50194016CA57DA58EA59FA5E8
:103A90000F94B4154B015C012CAD3DAD4EAD5FAD47
:103AA000C701B6010F94B4159B01AC01C501B40167
:103AB0000F94751C68AB79AB8AAB9BAB49E14CABFF
:103AC0009201A30128966CAD7DAD8EAD9FAD289778
:103AD0000F94761C69837A838B839C8328A939A9E8
:103AE0004AA95BA968966CAD7DAD8EAD9FAD689718
:103AF0000F94761C6D837E838F83988764962CAD9C
:103B00003DAD4EAD5FAD649769857A858B859C85AB
:103B10000F94761C69877A878B879C87A0962CAD3B
:103B20003DAD4EAD5FADA0976D857E858F85988943
:103B30000F94761C6D877E878F87988B80915602B5
:103B4000882321F0CE0101960E941FC3E090B41299
:103B500018A219A21AA21BA2CE0101960E9408E681
:103B6000CE0180966C018E01085D1F4F9E01235F80
:103B70003F4F45EC57E061EC77E08DEB97E00E941A
:103B80001896882321F09FEF291A390ADACEE0909F
:103B9000B4121CA21DA21EA21FA28FE892E10E94D5
:103BA00008E6DE0194966D018E01085D1F4F2BE93A
:103BB00032E145EC57E061EC77E08DEB97E00E9455
:103BC000189680E1EFE8F2E1ADEAB7E001900D92DE
:103BD0008A95E1F70C94152F0E94E73BF801849138
:103BE0008F010F5F1F4F8111F7CFE3EDF4E0849158
:103BF0008F010F5F1F4F882311F40C94152F0E9423
:103C0000E73BF801F4CF80E50E94D137882329F003
:103C10000E9411376B017C0103C0C12CD12C7601AD
:103C200083E50E94D137882361F00E94553720E058
:103C300030E04AE754E40F94B4150F94E91D6B018A
:103C40007C010E94A2A380910916811105C060E049
:103C500089EE94E00E94CB750E943BCCC60ED71E25
:103C6000E81EF91E0E943BCCDC01CB018C199D099A
:103C7000AE09BF09B7FD02C00C94152F80E00E9469
:103C8000F1C7F0CF0E94906081110C94152F19821A
:103C90001A821B821C8280E090E0AEEBB2E48D833E
:103CA0009E83AF83B88780E090E0ACE5B3E489877A
:103CB0009A87AB87BC8780E50E94D137882319F0AB
:103CC0000E94213701C060E068A3BE016F5F7F4F93
:103CD000CE0180960E94B9FF0C94152F0E94F8C265
:103CE0000C94152F109260030C94152F9093600381
:103CF0000C94152F0E9455372B013C01133049F0CD
:103D0000D7012D913D914D915C910F94751C2B0124
:103D10003C01F6012081318142815381C301B2010E
:103D20000F94751C4B015C012DEB37E346E855EB16
:103D30000F942A1F87FD1BC02DEB37E346E855E3A0
:103D4000C501B4010F944E1518168CF01F5FF4E0F6
:103D5000EF0EF11C24E0C20ED11C143031F1F10140
:103D600081911F010E94D137882381F3C3CF133083
:103D700051F44092B9075092BA076092BB07709213
:103D8000BC0701E0E3CFA5019401D7016D917D91BE
:103D90008D919C910F94761CF701608371838283CF
:103DA0009383812F0E94F634D1CF002321F089EB39
:103DB00097E00E942D600E9445D30C94152F0E941D
:103DC0001ABF0C94152F80912C1590912D158137C9
:103DD000910509F420C50CF0CBC08B34910509F492
:103DE00075C40CF06EC08831910509F498C2E4F5F1
:103DF0008231910511F40C940827DCF497FF02C07E
:103E00000C94CC2E823091050CF4B8C1419711F07E
:103E10000C94CC2E60E086E095E00E94CB755F9814
:103E20008A988091080181708093060112980C9401
:103E3000152F8531910509F457C23CF4449711F0D0
:103E40000C94CC2EE6E2F5E011C28631910509F41E
:103E50004FC2479711F00C94CC2E0E948A66E091D5
:103E60002A15F0912B154EC28D31910511F40C9449
:103E7000152FC4F48A31910509F4BBC20CF4ABC20E
:103E80008B31910509F4C3C24C9711F00C94CC2EE0
:103E900040E060E080912A1590912B150E94776494
:103EA0000C94152F8F31910509F4B2C30CF447C35C
:103EB0008032910509F45DC38A9709F4D3C30C9449
:103EC000CC2E8C35910511F40C94582724F58135AE
:103ED000910509F47FC77CF48D34910509F4FEC384
:103EE0000CF4F8C38E34910511F00C94CC2E0E9482
:103EF0000FD40C94152F8335910509F484C70CF465
:103F00007EC78435910509F483C78535910509F489
:103F1000B4C70C94CC2E8C36910509F474C4ACF45F
:103F20008936910509F4A4C434F48836910509F45E
:103F3000D9C30C94CC2E8A36910509F497C68B36DA
:103F4000910509F4B1C60C94CC2E8E36910509F476
:103F5000F4C30CF4CFC48F36910509F401C4803743
:103F6000910511F00C94CC2E8AE995E00E94B0C422
:103F7000823E910511F40C94022C0CF069C0813939
:103F8000910511F40C94E3283CF58637910511F462
:103F90000C94882874F48337910509F4ECC014F468
:103FA0000C94E1278537910511F40C947B280C942F
:103FB000CC2E8837910511F40C94D82814F40C9465
:103FC000D5288937910511F40C94DE288D37910599
:103FD00009F47CC60C94CC2E8C3C910511F40C9405
:103FE000C729F4F4883C910511F40C94422934F467
:103FF0008B39910509F457C40C94CC2E893C91055A
:1040000011F40C9492298B3C910511F00C94CC2E58
:104010007DE5E72E72E0F72E05EA11E10C94B82950
:10402000833D910509F4A3C03CF48D3C910511F446
:104030000C943C2A0C94CC2E8C3D910511F40C94DC
:10404000862B8D3D910511F40C94932B0C94CC2E62
:10405000863F31E0930711F40C94612D0CF041C0C0
:10406000833651E0950709F47EC0ECF48D32B1E05F
:104070009B0711F40C94542C3CF48C32914011F4B5
:104080000C942B2C0C94CC2E8E3221E0920711F440
:104090000C94F42C8F32914011F00C94CC2E0E9491
:1040A000BFCE0C94152F8A3941E0940709F4AFC3B1
:1040B0004CF48039914011F00C94CC2E0E94A2A3B4
:1040C0000C94152F843FB1E09B0711F40C945E2DE6
:1040D000853F914011F00C94CC2E0F9472020C94F9
:1040E000152F8939F2E09F0711F40C941D2EDCF492
:1040F0008C3032E0930711F40C94882D3CF4883F07
:10410000914011F40C94642D0C94CC2E8835A2E0CF
:104110009A0711F40C94912D8B35924011F40C9464
:10412000942D0C94CC2E8B38E3E09E0711F40C9464
:10413000152F6CF48A39924011F00C94CC2E8DE539
:10414000E82E82E0F82E0CED11E10C94AF2E803AAF
:1041500033E0930709F44FC2873E934011F40C9467
:10416000B72E0C94CC2EE9E9FEE20C944B2DE3E93A
:10417000FEE20C94A72AEAECF6E062C7A0902A15AA
:10418000B0902B1580E50E94D137882359F00E940A
:1041900011376B017C0111E0672B682B692B31F41F
:1041A00010E004C010E0C12CD12C760183E50E9400
:1041B000D137882311F40C941F2F0E94553720E02B
:1041C00030E04AE754E40F94B4150F94E91D6B01F5
:1041D0007C0111110BC0672B682B692B39F4A114DA
:1041E000B10421F0D5018C91811102C010E001C011
:1041F00011E00E94A2A3112329F061E0C5010E94F1
:10420000107605C060E088EF94E00E94CB7583E0F3
:1042100080938E1281E080938D12C114D104E10449
:10422000F104B1F00E943BCCC60ED71EE81EF91E69
:104230000E943BCCDC01CB018C199D09AE09BF0962
:10424000B7FF0EC080918D1281110C94242F08C0ED
:1042500080918D12882321F080E00E94F1C7F8CF71
:104260000E94195E10928D120C94152F84918F016B
:104270000F5F1F4F882321F00E94E73BF801F6CF24
:1042800010926C1986ED96E10E9489DD8BE1E6EDD6
:10429000F6E1DE01159601900D928A95E1F7809185
:1042A000D4169091D5169C838B838DE193E09A83ED
:1042B000898340E050E0BE016F5F7F4F80E090E077
:1042C0000E94CFFBCE0101960E948FC4E7E1F5E08A
:1042D00084918F010F5F1F4F882311F40C94152FC9
:1042E0000E94E73BF801F4CF0E9475620C94152FF1
:1042F00010927E1610927F160C94152F803209F4BE
:104300001082319680818111F9CF40E061E0809187
:104310002A1590912B150E9477640C94152F80E03C
:1043200090E0A0EFB1E489839A83AB83BC8318A2A9
:1043300019A21AA21BA21CA21DA21EA21FA280913A
:10434000060C882359F020E0AE014F5F5F4FBE019D
:10435000605E7F4FCE0184960E948BBD83E50E94F4
:10436000D137882381F00E942137AB01BC014093F3
:1043700068195093691960936A1970936B1988E9E9
:1043800098E10E9471F880917F16882319F081E0EE
:1043900080937E1684E50E94D1378823B1F00E9475
:1043A00021376B017C010E94CABBC092FB11D092E5
:1043B000FC11E092FD11F092FE11CD28CE28CF28FD
:1043C00031F081E08093690302C00E94C56E0E94B3
:1043D000195E0C94152F10927E160E94E5BB87E3A0
:1043E00095E090938112809380120E94173C0C9468
:1043F000152F80917F16882311F40C94152F83E5D7
:104400000E94D13781110C94292F0C94152F83E42D
:104410000E948837882309F450C0E9E6F5E08491CA
:104420008F010F5F1F4F882321F00E94E73BF801A7
:10443000F6CF80919B18811103C0ECE3F5E012C028
:10444000BE016F5F7F4F88E998E10E9450DC8E01CA
:104450000F5F1F4FF80181918F01882349F10E945E
:10446000E73BF8CF84918F010F5F1F4F882301F145
:104470000E94E73BF801F6CF85E8C82E85E0D82EEC
:10448000E12CF12C20E08091B81290E00E2C02C0BB
:10449000959587950A94E2F780FD92C13FEFE31A64
:1044A000F30A42E0C40ED11C55E0E516F10459F7B9
:1044B0008AE00E94E73B0C94152F80917F16882399
:1044C00039F080917E16882319F0E6E4F5E003C008
:1044D000E8E5F5E028C084918F010F5F1F4F882326
:1044E00021F00E94E73BF801F6CF609168197091C6
:1044F000691980916A1990916B194AE00E94703C89
:104500008FE20E94E73B6091641970916519809178
:104510006619909167194AE00E94703C8AE00E94F7
:10452000E73B0C94152F84918F010F5F1F4F882359
:1045300011F40C94152F0E94E73BF801F4CF809101
:104540007F16882311F40C94152F88E998E10E94B6
:104550003EF888E998E10E942BDC10927D161092BB
:104560007C1680912A1590912B150E94F6650C946B
:10457000152F80917E1681110E94A2A380917F1633
:10458000882311F40C94152F80E50E94D1378823DD
:1045900019F00E94453703C080E50E948837182F24
:1045A000482F61E080912A1590912B150E94776425
:1045B00083E50E94D137882381F00E942137AB0127
:1045C000BC01409368195093691960936A197093FC
:1045D0006B1988E998E10E9471F880917F16882311
:1045E00019F081E080937E1611110C94152F0E9412
:1045F000C56E0C94152F80912A1590912B1521E0F2
:1046000020937D1640E060E00E9477640C94152FA3
:104610000E9496BB68A379A38AA39BA3BE016F5F88
:104620007F4FCE0180960E948E3860E0CE010196C9
:104630000E941076E3E9FEE284918F010F5F1F4F25
:10464000882321F00E94E73BF801F6CFBE016F5F9F
:104650007F4F88E795E00E94AA6E8AE00E94E73BC0
:104660000C94152F83E50E94D137882311F40C9404
:10467000152F0E943137E82E80E50E94D13788231C
:1046800039F00E943137182F87FF03C00C94152F83
:104690001DE089E40E94D137882341F00E9445370C
:1046A00081110C94AC2FEAE0F8E00BC089E40E9481
:1046B0008837F6CF319628E0E733F20711F40C94EF
:1046C000AC2F84911813F6CF0C94802F0E94C56EE6
:1046D0000C94152F0E94E5BB0C94152F0E940C6FB3
:1046E0000C94152F88E690E00E94DD3C81110C941B
:1046F000152F8091B81283FF02C00C94152F83E50B
:104700000E94D1378823A9F00E9455370F94E21DEB
:10471000CB010E9458750E94553720E030E040EAF6
:1047200052E40F944E15181624F00E940C6F0E944C
:10473000195E0F94A5100C94152F8EE40E94D137AA
:10474000882311F40C94152F0E94213760930516CD
:104750007093061680930716909308160C94152FE5
:1047600083E50E948837882359F083E50E94D1377A
:10477000882319F00E94313701C080E08093B8127D
:10478000E3E9FEE284918F010F5F1F4F811103C0A7
:10479000E3E9F5E004C00E94E73BF801F3CF849120
:1047A0008F010F5F1F4F882321F00E94E73BF80124
:1047B000F6CF8091B81281115FCEEFE8F5E018C016
:1047C000BB24B394B20E222319F08CE20E94E73B83
:1047D000F60185919491FC0184918F010F5F1F4F29
:1047E000882321F00E94E73BF801F6CF2B2D56CE0F
:1047F00084918F010F5F1F4F882309F459CE0E94C7
:10480000E73BF801F5CF10922E020C94152F0E9471
:1048100086CE0C94152F83E50E94D137811103C0F9
:10482000E3E9FEE20DC00E9431378D3320F480931E
:1048300031020C94152F8CE3809331020C94152FC8
:1048400084918F010F5F1F4F882321F00E94E73B67
:10485000F801F6CF4091310250E060E070E083EA69
:1048600095E00E94576E8AE00E94E73B0C94152F5A
:1048700089E690E00E94DD3C811111C0EAEAF5E092
:1048800084918F010F5F1F4F882321F00E94E73B27
:10489000F801F6CF0E949FB68AE00E94E73B109293
:1048A0008E120C94C12F83E50E94D137882311F416
:1048B0000C94152F0E943137182F8D3308F01CE30C
:1048C0001093C9120E943BCC6B017C01212F30E078
:1048D000A8EEB3E00F94031CC60ED71EE81EF91E07
:1048E000C092C512D092C612E092C712F092C812BE
:1048F0000C94152F8DE690E00E94DD3C81110C9404
:10490000152F8091B81283FF02C00C94152F83E5F8
:104910000E94D1378CAF811106C082E50E94D13749
:10492000182F8823C9F10E9455370F94E21DCB013F
:104930000E9458750E94553720E030E040EA52E46A
:104940000F944E15181614F40C943A2F0E940C6F05
:104950000E94195E6091B6127091B712072E000C7A
:10496000880B990B0F9455156B017C018090B01248
:104970009090B112A090B212B090B312A501940120
:104980000F942A1F181614F40C94462F8CAD88230C
:1049900011F40C943E2F11E00F94A510112311F483
:1049A0000C94152F81E080932E021CAA1DAA1EAA2A
:1049B0001FAA68961CAE1DAE1EAE1FAE689718AE3D
:1049C00029961FAE29979CE32D969FAF2D97ACE1BA
:1049D0006996AFAF6997B6E46196BFAF6197E12C76
:1049E000F12C00E81FEB212C312C21016091B61233
:1049F0007091B712072E000C880B990B0F94551568
:104A00006CA778AB782E692E9701A8010F944E15EC
:104A1000882309F12091B0123091B1124091B21265
:104A20005091B312ECAD6CA578A9872D962DE111AC
:104A300007C00F944E15881F8827881F88AF11C0A4
:104A40000F944E1587FF0CC080912E02882311F41D
:104A50000C94152FBCCCECA6F8AA702E612E01C0C8
:104A600018AE0E943BCC6B017C01DC01CB01689647
:104A70002CAD3DAD4EAD5FAD6897821B930BA40B83
:104A8000B50BB7FD3DC0D701C60188519C4FAF4F54
:104A9000BF4F68968CAF9DAFAEAFBFAF68970E9417
:104AA0009FB6EDEAF5E084914F019FEF891A990ACC
:104AB000882321F00E94E73BF401F5CF2114310453
:104AC00041045104B9F0D201C101805F984DAF4F4C
:104AD000BF4FBC01CD016C197D098E099F0928EEDD
:104AE00033E040E050E00F94D61BCA01B9010E94A8
:104AF0001F3D03C08FE30E94E73B8AE00E94E73B33
:104B000080E00E94F1C70E943BCC6093BD1270937D
:104B1000BE128093BF129093C0120091B0121091F8
:104B2000B112A091B2122196AFAF2197B091B312FA
:104B30002596BFAF25979801AD016CA578A9872D63
:104B4000962D0F94751C4B015C0120E030E0A9010B
:104B50000F942A1F87FF04C0B7FAB094B7F8B09437
:104B6000211431044104510459F420E030E040E8BC
:104B70005FE3C501B4010F944E1587FF0DC00AC055
:104B800020E030E040E450E4C501B4010F942A1F56
:104B9000181614F416012701E8ADEE2309F44AC0F3
:104BA0002CA93DA94EA95FA9211531054105510543
:104BB00041F0D701C601821B930BA40BB50BB7FDC7
:104BC00039C0980121964FAD219725965FAD259765
:104BD00029966FAD29972D967FAD2D9769968FAD4C
:104BE000699761969FAD61970F94751C20E030E046
:104BF00040EC5FE30F944E1587FD26CFD701C60129
:104C0000805A9541AF4FBF4F8CAB9DABAEABBFABA6
:104C100029960FAF29972D961FAF2D9721969FADFF
:104C2000219769969FAF69972596AFAD25976196B5
:104C3000AFAF619780912E02882309F405CF21142C
:104C400031044104510429F4ECA4F8A8072D162DD1
:104C5000CDCEB0E1CB1AB7E2DB0AE108F108C21809
:104C6000D308E408F508F7FEEFCEEECF80E50E940A
:104C7000D137811106C083E50E94D137882361F0C6
:104C800006C00E94313781110C94152FF4CF0E9479
:104C900021376F3F710510F06FEF70E07093FD14D6
:104CA0006093FC140C94152F80E50E94D13781117C
:104CB00006C01092FD141092FC140C94152F0E9443
:104CC0002137672B11F00C94152FF3CF8CE40E9441
:104CD0008837882381F00E9455376B017C0120E0E2
:104CE00030E0A9010F942A1F87FF0BC0F7FAF09458
:104CF000F7F8F09406C0C12CD12C00E8E02E00E4B7
:104D0000F02EF7FAF094F7F8F094CCA2DDA2EEA220
:104D1000FFA219821A821B821C8280E090E0AEEB17
:104D2000B2E48D839E83AF83B88780E090E0ACE5EA
:104D3000B3E489879A87AB87BC8788E50E94D1371F
:104D4000882379F088E50E94D137882319F00E94E2
:104D5000553703C060E070E0CB0169837A838B83B1
:104D60009C8389E50E94D137882379F089E50E94E8
:104D7000D137882319F00E94553703C060E070E0F6
:104D8000CB016D837E838F8398878AE50E94D1371C
:104D9000882379F08AE50E94D137882319F00E9490
:104DA000553703C060E070E0CB0169877A878B8755
:104DB0009C8718A219A21AA21BA220E0AE01405E95
:104DC0005F4FBE016F5F7F4FCE0184960F94CD057C
:104DD0000C94152F0E942FB70E94E0A31092FD148F
:104DE0001092FC1468EE73E080E090E00E9405757C
:104DF00060E087ED95E00E94CB750C94152F109222
:104E00005F030C94152F81E080935F030C94152FA2
:104E100083E50E94D1378823A1F00E94553720E016
:104E200030E04AE754E40F94B4150F94E91D609301
:104E300032027093330280933402909335020C94C3
:104E4000152F88E50E94883781110C94502F89E531
:104E50000E94883781110C94502F8AE50E94883770
:104E600081110C94502F85E40E94883781110C9495
:104E7000502F0E94E0A30C94152F83E50E948837E1
:104E8000882311F40C94152F0E94553720E030E050
:104E90004AE754E40F94B4150F94E91D6093C112CE
:104EA0007093C2128093C3129093C4120C94152F66
:104EB000BDE5CB2EB2E0DB2E1DE9E12E17E0F12E91
:104EC00010E0F60181916F010E948837882309F470
:104ED0006EC0133009F063C00E9455374B015C016E
:104EE00020E030E040EA51E40F944E1587FF4EC0B9
:104EF000A50194016091A9077091AA078091AB0761
:104F00009091AC070F94701D2B013C019B01AC01EB
:104F1000609176117091771180917811909179114B
:104F20000F94B41560937611709377118093781174
:104F300090937911A30192016091B1117091B21116
:104F40008091B3119091B4110F94B4156093B11185
:104F50007093B2118093B3119093B411609193192F
:104F60007091941980919519909196190F945315F9
:104F7000A30192010F94B4150F94E91D6093931946
:104F80007093941980939519909396198092A9071C
:104F90009092AA07A092AB07B092AC0708C00E94FB
:104FA0005537D7016D937D938D939C9313971F5F16
:104FB000B4E0EB0EF11C143009F083CF0F94E90339
:104FC00034C70E94A2A383E50E94D137882311F43D
:104FD0000C94DB1E0E9421376230710511F00C9495
:104FE000DB1E0E94CBE28BE50E94E73B6091B1158E
:104FF0007091B2158091B3159091B41542E00E9462
:105000003B3D4091B5155091B6156091B715709123
:10501000B81588EE95E00E94746E4091B9155091D4
:10502000BA156091BB157091BC1585EE95E00E9494
:10503000746E8DE50E94E73B8AE00E94E73BF5C66F
:1050400084918F010F5F1F4F882321F00E94E73B5F
:10505000F801F6CF60E08AEB96E00E940ED361E0A3
:1050600083EB96E00E940ED361E088EA96E00E940E
:105070000ED361E088E996E00E940ED360E08FE8ED
:1050800096E00E940ED361E085E896E00E940ED380
:1050900060E08BE796E00E940ED360E083E796E045
:1050A0000E940ED360E085E696E00E940ED360E099
:1050B00087E596E00E940ED360E088E496E00E94C7
:1050C0000ED360E08AE396E00E940ED360E084E2B3
:1050D00096E00E940ED360E083E196E00E940ED33A
:1050E00060E08EEF95E00E940ED360E08BEE95E0DD
:1050F0000E940ED39AC680912A1590912B15FC011F
:105100002081222309F463C960E00E9410768DC6D5
:1051100000912A1510912B1583E0D12C40E081508D
:10512000E9F0D8019C91292F2B7F2134C1F71196EA
:105130002C912133A1F7913421F0953421F441E0F1
:1051400002C0DD24D39498012E5F3F4F89012F5F69
:105150003F4FF80190819032C9F3E1CF442369F0C9
:10516000E3E9FEE284917F012FEFE21AF20A88233D
:1051700021F00E94E73BF701F5CFDD2069F0EEE872
:10518000F7E084917F013FEFE31AF30A882321F0CF
:105190000E94E73BF701F5CFD8018D918D0188235F
:1051A00009F486C90E94E73BF7CF0F94AB003DC6D8
:1051B00081E0809373138093721337C61092731338
:1051C0001092721332C683E50E94D137882319F0FA
:1051D0000E94213702C060E070E08B01112702308D
:1051E0001105D4F0E9E9FEE284918F010F5F1F4FB2
:1051F000811103C0E2E9F7E004C00E94E73BF80137
:10520000F3CF84918F010F5F1F4F882309F40DC6E0
:105210000E94E73BF801F5CF88E40E94D13788234C
:10522000A9F00E942137603A71053CF06530B1E089
:105230007B072CF064E071E002C060EA70E0F801E6
:10524000EE0FFF1FEB56FE4E7183608386E40E94D3
:10525000D137882309F4E9C50E942137000F111FB7
:10526000F801E756FE4E718360836F3F710519F0B8
:1052700014F06FEF70E077FF02C060E070E07183C0
:105280006083D3C588EC90E00E94DD3C8111CDC5E0
:1052900084E40E948837882309F441C00E9455376E
:1052A0006B017C0111E020E030E0A9010F944E1564
:1052B000811101C010E01093861120E030E0A901B7
:1052C000C701B6010F944E15882349F10E94553746
:1052D000E0910B1224E0E29FF0011124EE57FE4E04
:1052E000608371838283938320E030E0A901609121
:1052F00082117091831180918411909185110F9486
:105300004E1581110CC080E090E0A0EEBFE38093C9
:10531000821190938311A0938411B09385110E9400
:10532000B39583C5EDE5EE2EE2E0FE2E02E511E138
:10533000D7018D917D010E948837882349F00E9412
:1053400055370F94E91DF80160837183828393833D
:105350000C5F1F4FF1E102361F0751F70F948E03C8
:1053600064C50C5F1F4FF1E1053B1F0709F45DC5E4
:10537000D7018D917D010E948837882391F30E9487
:105380005537F8016083718382839383EACF83E585
:105390000E94D1378823A1F00E945537609366118F
:1053A00070936711809368119093691160936211F3
:1053B00070936311809364119093651110E001C0A4
:1053C00011E080E50E94D137882359F00E945537BB
:1053D00060936611709367118093681190936911BF
:1053E00010E082E50E94D137882359F00E9455379A
:1053F0006093891270938A1280938B1290938C120F
:1054000010E084E50E94D137882359F00E94553777
:10541000609362117093631180936411909365118E
:1054200004C5112309F401C540916611509167111B
:1054300060916811709169118AEB97E00E94746E17
:105440004091891250918A1260918B1270918C1246
:1054500087EB97E00E94746E409162115091631146
:10546000609164117091651184EB97E00E94746EF5
:105470008AE00E94E73BD9C481E50E9488378823EF
:1054800051F00E94113760937E1970937F198093B9
:1054900080199093811983E50E948837882351F001
:1054A0000E9455376093A1117093A2118093A311AC
:1054B0009093A41184E50E948837882351F00E94BC
:1054C000553760939D1170939E1180939F11909317
:1054D000A01188E50E948837882351F00E94553733
:1054E00060936A1170936B1180936C1190936D119E
:1054F00089E50E948837882351F00E9455376093D0
:105500006E1170936F1180937011909371118AE5F1
:105510000E948837882351F00E945537609372119A
:1055200070937311809374119093751185E40E94A8
:105530008837882309F479C40E945537609376111F
:105540007093771180937811909379116EC4849140
:105550008F010F5F1F4F882321F00E94E73BF80166
:10556000F6CF83E50E948837882321F00E944537D3
:1055700080935602E2EFF7E084918F010F5F1F4F97
:10558000882321F00E94E73BF801F6CF8091560274
:10559000882319F0EAEEF7E002C0EEEEF7E084911E
:1055A0008F010F5F1F4F811103C0E2EEF7E004C0CF
:1055B0000E94E73BF801F3CF84918F010F5F1F4FEB
:1055C000882321F00E94E73BF801F6CF2091EE15E9
:1055D0003091EF154091F0155091F11560914A020C
:1055E00070914B0280914C0290914D020F94761C69
:1055F000AB01BC0180EE97E00E94746E2091F21521
:105600003091F3154091F4155091F51560914E02CB
:1056100070914F0280915002909151020F94761C2C
:10562000AB01BC018DED97E00E94746E2091F615E0
:105630003091F7154091F8155091F915609152028B
:105640007091530280915402909155020F94761CF0
:10565000AB01BC018AED97E00E94746EE2EDF7E0C9
:1056600084918F010F5F1F4F882321F00E94E73B39
:10567000F801F6CF2091EE153091EF154091F0151D
:105680005091F11560913E0270913F02809140026D
:10569000909141020F94761CAB01BC0180ED97E024
:1056A0000E94746E2091F2153091F3154091F4151B
:1056B0005091F5156091420270914302809144022D
:1056C000909145020F94761CAB01BC018DEC97E0E4
:1056D0000E94746E2091F6153091F7154091F815DF
:1056E0005091F915609146027091470280914802ED
:1056F000909149020F94761CAB01BC018AEC97E0B3
:105700000E94746E8AE00E94E73B8FC383E50E948B
:10571000D137882309F489C30E9421377093250269
:105720006093240282C38DED90E00E94DD3C8111E4
:105730007CC383E50E94D137811103C0E3E9FEE217
:105740003BC000910B1210E00E942137000F111F87
:10575000F801EE5DFD4F7183608380910B1290E044
:105760008C01000F111F000F111F9801225E3D4F89
:105770007901880F991FFC01EE5DFD4F60817181F9
:10578000072E000C880B990B0F9455152AE037ED66
:1057900043E25CE30F94B415F801EC53FE4E208114
:1057A0003181428153810F94B415D7016D937D935C
:1057B0008D939C93139739C384918F010F5F1F4F73
:1057C000882321F00E94E73BF801F6CF85E40E9490
:1057D000E73B80910B12805D0E94E73BE0910B124A
:1057E000F0E0EE0FFF1FEE5DFD4F6081718182E002
:1057F00098E00E94916E85E20E94E73B8AE00E9459
:10580000E73B13C380E50E948837882309F40DC362
:105810000E9421376B017C0183E50E94D1378823E8
:1058200021F00E9421378B0102C00FEF1FEFC8014A
:105830000196039708F0F9C2D7FCF7C28C2DEAE075
:10584000F8E09491891709F45BC33196B8E0E73327
:10585000FB07B9F758C383E50E94D137882319F0B5
:105860000E94213702C064E071E079A368A380E55B
:105870000E94D137882339F00E9421376938E3E14B
:105880007E0730F402C068EE73E07A83698304C057
:1058900088E893E19A838983BE01605E7F4FCE01E1
:1058A00001960E94EB5FC1C285E40E94D13781114D
:1058B00010C080E50E948837882391F00E945537F8
:1058C000609388117093891180938A1190938B1142
:1058D00007C00E943137882361F3E9E9FEE271C015
:1058E00089E40E948837882381F00E9455372CEA8A
:1058F00035EC47E25EE30F94B4156093901170931A
:105900009111809392119093931184E40E948837AF
:10591000882381F00E9455372CEA35EC47E25EE39C
:105920000F94701D60938C1170938D1180938E1164
:1059300090938F11E3E9FEE284918F010F5F1F4F77
:10594000882321F00E94E73BF801F6CF40918811AF
:105950005091891160918A1170918B118FE398E0B9
:105960000E94746E2CEA35EC47E25EE36091901180
:105970007091911180919211909193110F94701DDB
:10598000AB01BC018BE398E00E94746E2CEA35EC0D
:1059900047E25EE360918C1170918D1180918E11C0
:1059A00090918F110F94B415AB01BC0187E398E07F
:1059B0000E94746E8AE00E94E73B37C20E94E73B78
:1059C000F80184918F010F5F1F4F8111F7CFE3E43E
:1059D000F8E084918F010F5F1F4F882309F425C2DF
:1059E0000E94E73BF801F5CF83E50E948837182F26
:1059F000882371F00E9455370F94E21D7093300296
:105A000060932F0221E0672B09F020E02093B5126C
:105A100080E50E948837882359F020912F02309129
:105A20003002232B11F00E9445378093B512FDC13F
:105A30001111FBC1E3E9FEE284918F010F5F1F4F5B
:105A4000882321F00E94E73BF801F6CF8091B51240
:105A5000882319F061E373E002C064E373E08AE62F
:105A600098E00E94AA6E60912F027091300289E541
:105A700098E00E94916EE5E5F8E084918F010F5F58
:105A80001F4F882309F4D1C10E94E73BF801F5CFED
:105A90000E94E73BF80184918F010F5F1F4F811136
:105AA000F7CFEDE7F8E084918F010F5F1F4F882358
:105AB00009F4BBC10E94E73BF801F5CF0E94828840
:105AC000B4C10F94E800B1C181E0809371190E94C4
:105AD000858210927119882309F4A7C1E3E9FEE2D7
